{
  "abi": [
    {
      "anonymous": false,
      "inputs": [
        {
          "indexed": false,
          "internalType": "address",
          "name": "caller",
          "type": "address"
        },
        {
          "indexed": false,
          "internalType": "uint256",
          "name": "amount",
          "type": "uint256"
        }
      ],
      "name": "AdminFeePaid",
      "type": "event"
    },
    {
      "anonymous": false,
      "inputs": [
        {
          "indexed": true,
          "internalType": "address",
          "name": "owner",
          "type": "address"
        },
        {
          "indexed": true,
          "internalType": "address",
          "name": "spender",
          "type": "address"
        },
        {
          "indexed": false,
          "internalType": "uint256",
          "name": "amount",
          "type": "uint256"
        }
      ],
      "name": "Approval",
      "type": "event"
    },
    {
      "anonymous": false,
      "inputs": [
        {
          "indexed": false,
          "internalType": "address",
          "name": "caller",
          "type": "address"
        },
        {
          "indexed": false,
          "internalType": "uint256",
          "name": "amount",
          "type": "uint256"
        }
      ],
      "name": "CallerFeePaid",
      "type": "event"
    },
    {
      "anonymous": false,
      "inputs": [
        {
          "indexed": true,
          "internalType": "address",
          "name": "caller",
          "type": "address"
        },
        {
          "indexed": true,
          "internalType": "address",
          "name": "owner",
          "type": "address"
        },
        {
          "indexed": false,
          "internalType": "uint256",
          "name": "assets",
          "type": "uint256"
        },
        {
          "indexed": false,
          "internalType": "uint256",
          "name": "shares",
          "type": "uint256"
        }
      ],
      "name": "Deposit",
      "type": "event"
    },
    {
      "anonymous": false,
      "inputs": [
        {
          "indexed": false,
          "internalType": "uint8",
          "name": "version",
          "type": "uint8"
        }
      ],
      "name": "Initialized",
      "type": "event"
    },
    {
      "anonymous": false,
      "inputs": [
        {
          "indexed": true,
          "internalType": "address",
          "name": "previousOwner",
          "type": "address"
        },
        {
          "indexed": true,
          "internalType": "address",
          "name": "newOwner",
          "type": "address"
        }
      ],
      "name": "OwnershipTransferred",
      "type": "event"
    },
    {
      "anonymous": false,
      "inputs": [
        {
          "indexed": false,
          "internalType": "address",
          "name": "caller",
          "type": "address"
        },
        {
          "indexed": false,
          "internalType": "uint256",
          "name": "preCompound",
          "type": "uint256"
        },
        {
          "indexed": false,
          "internalType": "uint256",
          "name": "postCompound",
          "type": "uint256"
        }
      ],
      "name": "Reinvested",
      "type": "event"
    },
    {
      "anonymous": false,
      "inputs": [
        {
          "indexed": false,
          "internalType": "address",
          "name": "caller",
          "type": "address"
        },
        {
          "indexed": false,
          "internalType": "uint256",
          "name": "index",
          "type": "uint256"
        },
        {
          "indexed": false,
          "internalType": "address",
          "name": "rewardToken",
          "type": "address"
        }
      ],
      "name": "RewardTokenSet",
      "type": "event"
    },
    {
      "anonymous": false,
      "inputs": [
        {
          "indexed": false,
          "internalType": "address",
          "name": "fromToken",
          "type": "address"
        },
        {
          "indexed": false,
          "internalType": "address",
          "name": "toToken",
          "type": "address"
        },
        {
          "components": [
            {
              "internalType": "address",
              "name": "protocolSwapAddress",
              "type": "address"
            },
            {
              "internalType": "uint256",
              "name": "nodeType",
              "type": "uint256"
            },
            {
              "internalType": "address",
              "name": "tokenIn",
              "type": "address"
            },
            {
              "internalType": "address",
              "name": "tokenOut",
              "type": "address"
            },
            {
              "internalType": "int128",
              "name": "_misc",
              "type": "int128"
            },
            {
              "internalType": "int128",
              "name": "_in",
              "type": "int128"
            },
            {
              "internalType": "int128",
              "name": "_out",
              "type": "int128"
            }
          ],
          "indexed": false,
          "internalType": "struct Router.Node[]",
          "name": "path",
          "type": "tuple[]"
        }
      ],
      "name": "RouteSet",
      "type": "event"
    },
    {
      "anonymous": false,
      "inputs": [
        {
          "indexed": false,
          "internalType": "address",
          "name": "caller",
          "type": "address"
        },
        {
          "indexed": false,
          "internalType": "address",
          "name": "startingTokenAddress",
          "type": "address"
        },
        {
          "indexed": false,
          "internalType": "address",
          "name": "endingTokenAddress",
          "type": "address"
        },
        {
          "indexed": false,
          "internalType": "uint256",
          "name": "amount",
          "type": "uint256"
        },
        {
          "indexed": false,
          "internalType": "uint256",
          "name": "minSwapAmount",
          "type": "uint256"
        },
        {
          "indexed": false,
          "internalType": "uint256",
          "name": "actualOut",
          "type": "uint256"
        }
      ],
      "name": "Swap",
      "type": "event"
    },
    {
      "anonymous": false,
      "inputs": [
        {
          "indexed": true,
          "internalType": "address",
          "name": "from",
          "type": "address"
        },
        {
          "indexed": true,
          "internalType": "address",
          "name": "to",
          "type": "address"
        },
        {
          "indexed": false,
          "internalType": "uint256",
          "name": "amount",
          "type": "uint256"
        }
      ],
      "name": "Transfer",
      "type": "event"
    },
    {
      "anonymous": false,
      "inputs": [
        {
          "indexed": true,
          "internalType": "address",
          "name": "caller",
          "type": "address"
        },
        {
          "indexed": true,
          "internalType": "address",
          "name": "receiver",
          "type": "address"
        },
        {
          "indexed": true,
          "internalType": "address",
          "name": "owner",
          "type": "address"
        },
        {
          "indexed": false,
          "internalType": "uint256",
          "name": "assets",
          "type": "uint256"
        },
        {
          "indexed": false,
          "internalType": "uint256",
          "name": "shares",
          "type": "uint256"
        }
      ],
      "name": "Withdraw",
      "type": "event"
    },
    {
      "stateMutability": "payable",
      "type": "fallback"
    },
    {
      "inputs": [],
      "name": "BOpsAddress",
      "outputs": [
        {
          "internalType": "address",
          "name": "",
          "type": "address"
        }
      ],
      "stateMutability": "view",
      "type": "function"
    },
    {
      "inputs": [],
      "name": "DOMAIN_SEPARATOR",
      "outputs": [
        {
          "internalType": "bytes32",
          "name": "",
          "type": "bytes32"
        }
      ],
      "stateMutability": "view",
      "type": "function"
    },
    {
      "inputs": [],
      "name": "FIRST_DONATION",
      "outputs": [
        {
          "internalType": "uint256",
          "name": "",
          "type": "uint256"
        }
      ],
      "stateMutability": "view",
      "type": "function"
    },
    {
      "inputs": [],
      "name": "MIN_FIRST_MINT",
      "outputs": [
        {
          "internalType": "uint256",
          "name": "",
          "type": "uint256"
        }
      ],
      "stateMutability": "view",
      "type": "function"
    },
    {
      "inputs": [],
      "name": "MIN_SWAP",
      "outputs": [
        {
          "internalType": "uint256",
          "name": "",
          "type": "uint256"
        }
      ],
      "stateMutability": "view",
      "type": "function"
    },
    {
      "inputs": [],
      "name": "PID",
      "outputs": [
        {
          "internalType": "uint256",
          "name": "",
          "type": "uint256"
        }
      ],
      "stateMutability": "view",
      "type": "function"
    },
    {
      "inputs": [],
      "name": "WAVAX",
      "outputs": [
        {
          "internalType": "contract IWAVAX",
          "name": "",
          "type": "address"
        }
      ],
      "stateMutability": "view",
      "type": "function"
    },
    {
      "inputs": [],
      "name": "aaveLendingPool",
      "outputs": [
        {
          "internalType": "address",
          "name": "",
          "type": "address"
        }
      ],
      "stateMutability": "view",
      "type": "function"
    },
    {
      "inputs": [],
      "name": "aaveLendingPoolV3",
      "outputs": [
        {
          "internalType": "address",
          "name": "",
          "type": "address"
        }
      ],
      "stateMutability": "view",
      "type": "function"
    },
    {
      "inputs": [],
      "name": "adminFee",
      "outputs": [
        {
          "internalType": "uint256",
          "name": "",
          "type": "uint256"
        }
      ],
      "stateMutability": "view",
      "type": "function"
    },
    {
      "inputs": [
        {
          "internalType": "address",
          "name": "",
          "type": "address"
        },
        {
          "internalType": "address",
          "name": "",
          "type": "address"
        }
      ],
      "name": "allowance",
      "outputs": [
        {
          "internalType": "uint256",
          "name": "",
          "type": "uint256"
        }
      ],
      "stateMutability": "view",
      "type": "function"
    },
    {
      "inputs": [
        {
          "internalType": "address",
          "name": "spender",
          "type": "address"
        },
        {
          "internalType": "uint256",
          "name": "amount",
          "type": "uint256"
        }
      ],
      "name": "approve",
      "outputs": [
        {
          "internalType": "bool",
          "name": "",
          "type": "bool"
        }
      ],
      "stateMutability": "nonpayable",
      "type": "function"
    },
    {
      "inputs": [
        {
          "internalType": "address",
          "name": "",
          "type": "address"
        }
      ],
      "name": "balanceOf",
      "outputs": [
        {
          "internalType": "uint256",
          "name": "",
          "type": "uint256"
        }
      ],
      "stateMutability": "view",
      "type": "function"
    },
    {
      "inputs": [],
      "name": "callerFee",
      "outputs": [
        {
          "internalType": "uint256",
          "name": "",
          "type": "uint256"
        }
      ],
      "stateMutability": "view",
      "type": "function"
    },
    {
      "inputs": [],
      "name": "compound",
      "outputs": [
        {
          "internalType": "uint256",
          "name": "",
          "type": "uint256"
        }
      ],
      "stateMutability": "nonpayable",
      "type": "function"
    },
    {
      "inputs": [],
      "name": "decimals",
      "outputs": [
        {
          "internalType": "uint8",
          "name": "",
          "type": "uint8"
        }
      ],
      "stateMutability": "view",
      "type": "function"
    },
    {
      "inputs": [
        {
          "internalType": "address",
          "name": "_to",
          "type": "address"
        },
        {
          "internalType": "uint256",
          "name": "_amt",
          "type": "uint256"
        }
      ],
      "name": "deposit",
      "outputs": [
        {
          "internalType": "uint256",
          "name": "receiptTokens",
          "type": "uint256"
        }
      ],
      "stateMutability": "nonpayable",
      "type": "function"
    },
    {
      "inputs": [
        {
          "internalType": "uint256",
          "name": "_amt",
          "type": "uint256"
        }
      ],
      "name": "deposit",
      "outputs": [
        {
          "internalType": "uint256",
          "name": "",
          "type": "uint256"
        }
      ],
      "stateMutability": "nonpayable",
      "type": "function"
    },
    {
      "inputs": [
        {
          "internalType": "address",
          "name": "_borrower",
          "type": "address"
        },
        {
          "internalType": "address",
          "name": "_to",
          "type": "address"
        },
        {
          "internalType": "uint256",
          "name": "_amt",
          "type": "uint256"
        }
      ],
      "name": "depositFor",
      "outputs": [
        {
          "internalType": "uint256",
          "name": "receiptTokens",
          "type": "uint256"
        }
      ],
      "stateMutability": "nonpayable",
      "type": "function"
    },
    {
      "inputs": [
        {
          "internalType": "uint256",
          "name": "_amt",
          "type": "uint256"
        },
        {
          "internalType": "uint256",
          "name": "_value",
          "type": "uint256"
        },
        {
          "internalType": "uint256",
          "name": "_deadline",
          "type": "uint256"
        },
        {
          "internalType": "uint8",
          "name": "_v",
          "type": "uint8"
        },
        {
          "internalType": "bytes32",
          "name": "_r",
          "type": "bytes32"
        },
        {
          "internalType": "bytes32",
          "name": "_s",
          "type": "bytes32"
        }
      ],
      "name": "depositWithPermit",
      "outputs": [
        {
          "internalType": "uint256",
          "name": "receiptTokens",
          "type": "uint256"
        }
      ],
      "stateMutability": "nonpayable",
      "type": "function"
    },
    {
      "inputs": [
        {
          "internalType": "uint256",
          "name": "_index",
          "type": "uint256"
        }
      ],
      "name": "deprecateRewardToken",
      "outputs": [],
      "stateMutability": "nonpayable",
      "type": "function"
    },
    {
      "inputs": [
        {
          "internalType": "uint256",
          "name": "_amt",
          "type": "uint256"
        }
      ],
      "name": "emergencyRedeem",
      "outputs": [
        {
          "internalType": "uint256",
          "name": "amtToReturn",
          "type": "uint256"
        }
      ],
      "stateMutability": "nonpayable",
      "type": "function"
    },
    {
      "inputs": [],
      "name": "feeRecipient",
      "outputs": [
        {
          "internalType": "address",
          "name": "",
          "type": "address"
        }
      ],
      "stateMutability": "view",
      "type": "function"
    },
    {
      "inputs": [
        {
          "internalType": "uint256",
          "name": "_ind",
          "type": "uint256"
        }
      ],
      "name": "getRewardToken",
      "outputs": [
        {
          "internalType": "address",
          "name": "",
          "type": "address"
        }
      ],
      "stateMutability": "view",
      "type": "function"
    },
    {
      "inputs": [
        {
          "internalType": "address",
          "name": "_underlying",
          "type": "address"
        },
        {
          "internalType": "string",
          "name": "_name",
          "type": "string"
        },
        {
          "internalType": "string",
          "name": "_symbol",
          "type": "string"
        },
        {
          "internalType": "uint256",
          "name": "_adminFee",
          "type": "uint256"
        },
        {
          "internalType": "uint256",
          "name": "_callerFee",
          "type": "uint256"
        },
        {
          "internalType": "uint256",
          "name": "_maxReinvestStale",
          "type": "uint256"
        },
        {
          "internalType": "address",
          "name": "_WAVAX",
          "type": "address"
        }
      ],
      "name": "initialize",
      "outputs": [],
      "stateMutability": "nonpayable",
      "type": "function"
    },
    {
      "inputs": [
        {
          "internalType": "address",
          "name": "_underlying",
          "type": "address"
        },
        {
          "internalType": "string",
          "name": "_name",
          "type": "string"
        },
        {
          "internalType": "string",
          "name": "_symbol",
          "type": "string"
        },
        {
          "internalType": "uint256",
          "name": "_adminFee",
          "type": "uint256"
        },
        {
          "internalType": "uint256",
          "name": "_callerFee",
          "type": "uint256"
        },
        {
          "internalType": "uint256",
          "name": "_maxReinvestStale",
          "type": "uint256"
        },
        {
          "internalType": "address",
          "name": "_WAVAX",
          "type": "address"
        },
        {
          "internalType": "address",
          "name": "_masterChef",
          "type": "address"
        },
        {
          "internalType": "uint256",
          "name": "_PID",
          "type": "uint256"
        }
      ],
      "name": "initialize",
      "outputs": [],
      "stateMutability": "nonpayable",
      "type": "function"
    },
    {
      "inputs": [],
      "name": "lastReinvestTime",
      "outputs": [
        {
          "internalType": "uint256",
          "name": "",
          "type": "uint256"
        }
      ],
      "stateMutability": "view",
      "type": "function"
    },
    {
      "inputs": [],
      "name": "masterChef",
      "outputs": [
        {
          "internalType": "contract IMasterChef",
          "name": "",
          "type": "address"
        }
      ],
      "stateMutability": "view",
      "type": "function"
    },
    {
      "inputs": [],
      "name": "maxReinvestStale",
      "outputs": [
        {
          "internalType": "uint256",
          "name": "",
          "type": "uint256"
        }
      ],
      "stateMutability": "view",
      "type": "function"
    },
    {
      "inputs": [],
      "name": "name",
      "outputs": [
        {
          "internalType": "string",
          "name": "",
          "type": "string"
        }
      ],
      "stateMutability": "view",
      "type": "function"
    },
    {
      "inputs": [
        {
          "internalType": "address",
          "name": "",
          "type": "address"
        }
      ],
      "name": "nonces",
      "outputs": [
        {
          "internalType": "uint256",
          "name": "",
          "type": "uint256"
        }
      ],
      "stateMutability": "view",
      "type": "function"
    },
    {
      "inputs": [],
      "name": "numRewardTokens",
      "outputs": [
        {
          "internalType": "uint256",
          "name": "",
          "type": "uint256"
        }
      ],
      "stateMutability": "view",
      "type": "function"
    },
    {
      "inputs": [],
      "name": "owner",
      "outputs": [
        {
          "internalType": "address",
          "name": "",
          "type": "address"
        }
      ],
      "stateMutability": "view",
      "type": "function"
    },
    {
      "inputs": [
        {
          "internalType": "address",
          "name": "owner",
          "type": "address"
        },
        {
          "internalType": "address",
          "name": "spender",
          "type": "address"
        },
        {
          "internalType": "uint256",
          "name": "value",
          "type": "uint256"
        },
        {
          "internalType": "uint256",
          "name": "deadline",
          "type": "uint256"
        },
        {
          "internalType": "uint8",
          "name": "v",
          "type": "uint8"
        },
        {
          "internalType": "bytes32",
          "name": "r",
          "type": "bytes32"
        },
        {
          "internalType": "bytes32",
          "name": "s",
          "type": "bytes32"
        }
      ],
      "name": "permit",
      "outputs": [],
      "stateMutability": "nonpayable",
      "type": "function"
    },
    {
      "inputs": [
        {
          "internalType": "address",
          "name": "_token",
          "type": "address"
        }
      ],
      "name": "pushRewardToken",
      "outputs": [],
      "stateMutability": "nonpayable",
      "type": "function"
    },
    {
      "inputs": [],
      "name": "receiptPerUnderlying",
      "outputs": [
        {
          "internalType": "uint256",
          "name": "",
          "type": "uint256"
        }
      ],
      "stateMutability": "view",
      "type": "function"
    },
    {
      "inputs": [
        {
          "internalType": "address",
          "name": "_to",
          "type": "address"
        },
        {
          "internalType": "uint256",
          "name": "_amt",
          "type": "uint256"
        }
      ],
      "name": "redeem",
      "outputs": [
        {
          "internalType": "uint256",
          "name": "amtToReturn",
          "type": "uint256"
        }
      ],
      "stateMutability": "nonpayable",
      "type": "function"
    },
    {
      "inputs": [
        {
          "internalType": "uint256",
          "name": "_amt",
          "type": "uint256"
        }
      ],
      "name": "redeem",
      "outputs": [
        {
          "internalType": "uint256",
          "name": "",
          "type": "uint256"
        }
      ],
      "stateMutability": "nonpayable",
      "type": "function"
    },
    {
      "inputs": [
        {
          "internalType": "uint256",
          "name": "_amt",
          "type": "uint256"
        },
        {
          "internalType": "address",
          "name": "_from",
          "type": "address"
        },
        {
          "internalType": "address",
          "name": "_to",
          "type": "address"
        }
      ],
      "name": "redeemFor",
      "outputs": [
        {
          "internalType": "uint256",
          "name": "amtToReturn",
          "type": "uint256"
        }
      ],
      "stateMutability": "nonpayable",
      "type": "function"
    },
    {
      "inputs": [
        {
          "internalType": "uint256",
          "name": "_amt",
          "type": "uint256"
        },
        {
          "internalType": "address",
          "name": "_from",
          "type": "address"
        },
        {
          "internalType": "address",
          "name": "_to",
          "type": "address"
        },
        {
          "internalType": "uint256",
          "name": "_value",
          "type": "uint256"
        },
        {
          "internalType": "uint256",
          "name": "_deadline",
          "type": "uint256"
        },
        {
          "internalType": "uint8",
          "name": "_v",
          "type": "uint8"
        },
        {
          "internalType": "bytes32",
          "name": "_r",
          "type": "bytes32"
        },
        {
          "internalType": "bytes32",
          "name": "_s",
          "type": "bytes32"
        }
      ],
      "name": "redeemForWithPermit",
      "outputs": [
        {
          "internalType": "uint256",
          "name": "",
          "type": "uint256"
        }
      ],
      "stateMutability": "nonpayable",
      "type": "function"
    },
    {
      "inputs": [],
      "name": "renounceOwnership",
      "outputs": [],
      "stateMutability": "nonpayable",
      "type": "function"
    },
    {
      "inputs": [
        {
          "internalType": "uint256",
          "name": "",
          "type": "uint256"
        }
      ],
      "name": "rewardTokens",
      "outputs": [
        {
          "internalType": "address",
          "name": "",
          "type": "address"
        }
      ],
      "stateMutability": "view",
      "type": "function"
    },
    {
      "inputs": [
        {
          "internalType": "address",
          "name": "",
          "type": "address"
        },
        {
          "internalType": "address",
          "name": "",
          "type": "address"
        },
        {
          "internalType": "uint256",
          "name": "",
          "type": "uint256"
        }
      ],
      "name": "routes",
      "outputs": [
        {
          "internalType": "address",
          "name": "protocolSwapAddress",
          "type": "address"
        },
        {
          "internalType": "uint256",
          "name": "nodeType",
          "type": "uint256"
        },
        {
          "internalType": "address",
          "name": "tokenIn",
          "type": "address"
        },
        {
          "internalType": "address",
          "name": "tokenOut",
          "type": "address"
        },
        {
          "internalType": "int128",
          "name": "_misc",
          "type": "int128"
        },
        {
          "internalType": "int128",
          "name": "_in",
          "type": "int128"
        },
        {
          "internalType": "int128",
          "name": "_out",
          "type": "int128"
        }
      ],
      "stateMutability": "view",
      "type": "function"
    },
    {
      "inputs": [
        {
          "internalType": "address",
          "name": "_aaveLendingPool",
          "type": "address"
        },
        {
          "internalType": "address",
          "name": "_aaveLendingPoolV3",
          "type": "address"
        }
      ],
      "name": "setAAVE",
      "outputs": [],
      "stateMutability": "nonpayable",
      "type": "function"
    },
    {
      "inputs": [
        {
          "internalType": "address",
          "name": "_token",
          "type": "address"
        },
        {
          "internalType": "address",
          "name": "_who",
          "type": "address"
        },
        {
          "internalType": "uint256",
          "name": "_amount",
          "type": "uint256"
        }
      ],
      "name": "setApprovals",
      "outputs": [],
      "stateMutability": "nonpayable",
      "type": "function"
    },
    {
      "inputs": [
        {
          "internalType": "address",
          "name": "_BOpsAddress",
          "type": "address"
        }
      ],
      "name": "setBOps",
      "outputs": [],
      "stateMutability": "nonpayable",
      "type": "function"
    },
    {
      "inputs": [
        {
          "internalType": "uint256",
          "name": "_adminFee",
          "type": "uint256"
        },
        {
          "internalType": "uint256",
          "name": "_callerFee",
          "type": "uint256"
        }
      ],
      "name": "setFee",
      "outputs": [],
      "stateMutability": "nonpayable",
      "type": "function"
    },
    {
      "inputs": [
        {
          "internalType": "address",
          "name": "_feeRecipient",
          "type": "address"
        }
      ],
      "name": "setFeeRecipient",
      "outputs": [],
      "stateMutability": "nonpayable",
      "type": "function"
    },
    {
      "inputs": [
        {
          "internalType": "address",
          "name": "_traderJoeRouter",
          "type": "address"
        }
      ],
      "name": "setJoeRouter",
      "outputs": [],
      "stateMutability": "nonpayable",
      "type": "function"
    },
    {
      "inputs": [
        {
          "internalType": "address",
          "name": "_fromToken",
          "type": "address"
        },
        {
          "internalType": "address",
          "name": "_toToken",
          "type": "address"
        },
        {
          "components": [
            {
              "internalType": "address",
              "name": "protocolSwapAddress",
              "type": "address"
            },
            {
              "internalType": "uint256",
              "name": "nodeType",
              "type": "uint256"
            },
            {
              "internalType": "address",
              "name": "tokenIn",
              "type": "address"
            },
            {
              "internalType": "address",
              "name": "tokenOut",
              "type": "address"
            },
            {
              "internalType": "int128",
              "name": "_misc",
              "type": "int128"
            },
            {
              "internalType": "int128",
              "name": "_in",
              "type": "int128"
            },
            {
              "internalType": "int128",
              "name": "_out",
              "type": "int128"
            }
          ],
          "internalType": "struct Router.Node[]",
          "name": "_path",
          "type": "tuple[]"
        }
      ],
      "name": "setRoute",
      "outputs": [],
      "stateMutability": "nonpayable",
      "type": "function"
    },
    {
      "inputs": [
        {
          "internalType": "uint256",
          "name": "_maxReinvestStale",
          "type": "uint256"
        }
      ],
      "name": "setStale",
      "outputs": [],
      "stateMutability": "nonpayable",
      "type": "function"
    },
    {
      "inputs": [],
      "name": "symbol",
      "outputs": [
        {
          "internalType": "string",
          "name": "",
          "type": "string"
        }
      ],
      "stateMutability": "view",
      "type": "function"
    },
    {
      "inputs": [],
      "name": "totalHoldings",
      "outputs": [
        {
          "internalType": "uint256",
          "name": "",
          "type": "uint256"
        }
      ],
      "stateMutability": "view",
      "type": "function"
    },
    {
      "inputs": [],
      "name": "totalSupply",
      "outputs": [
        {
          "internalType": "uint256",
          "name": "",
          "type": "uint256"
        }
      ],
      "stateMutability": "view",
      "type": "function"
    },
    {
      "inputs": [],
      "name": "traderJoeRouter",
      "outputs": [
        {
          "internalType": "address",
          "name": "",
          "type": "address"
        }
      ],
      "stateMutability": "view",
      "type": "function"
    },
    {
      "inputs": [
        {
          "internalType": "address",
          "name": "to",
          "type": "address"
        },
        {
          "internalType": "uint256",
          "name": "amount",
          "type": "uint256"
        }
      ],
      "name": "transfer",
      "outputs": [
        {
          "internalType": "bool",
          "name": "",
          "type": "bool"
        }
      ],
      "stateMutability": "nonpayable",
      "type": "function"
    },
    {
      "inputs": [
        {
          "internalType": "address",
          "name": "from",
          "type": "address"
        },
        {
          "internalType": "address",
          "name": "to",
          "type": "address"
        },
        {
          "internalType": "uint256",
          "name": "amount",
          "type": "uint256"
        }
      ],
      "name": "transferFrom",
      "outputs": [
        {
          "internalType": "bool",
          "name": "",
          "type": "bool"
        }
      ],
      "stateMutability": "nonpayable",
      "type": "function"
    },
    {
      "inputs": [
        {
          "internalType": "address",
          "name": "newOwner",
          "type": "address"
        }
      ],
      "name": "transferOwnership",
      "outputs": [],
      "stateMutability": "nonpayable",
      "type": "function"
    },
    {
      "inputs": [],
      "name": "underlying",
      "outputs": [
        {
          "internalType": "contract ERC20",
          "name": "",
          "type": "address"
        }
      ],
      "stateMutability": "view",
      "type": "function"
    },
    {
      "inputs": [],
      "name": "underlyingDecimal",
      "outputs": [
        {
          "internalType": "uint256",
          "name": "",
          "type": "uint256"
        }
      ],
      "stateMutability": "view",
      "type": "function"
    },
    {
      "inputs": [],
      "name": "underlyingPerReceipt",
      "outputs": [
        {
          "internalType": "uint256",
          "name": "",
          "type": "uint256"
        }
      ],
      "stateMutability": "view",
      "type": "function"
    },
    {
      "inputs": [
        {
          "internalType": "uint256",
          "name": "_amt",
          "type": "uint256"
        }
      ],
      "name": "withdraw",
      "outputs": [
        {
          "internalType": "uint256",
          "name": "",
          "type": "uint256"
        }
      ],
      "stateMutability": "nonpayable",
      "type": "function"
    },
    {
      "inputs": [
        {
          "internalType": "uint256",
          "name": "_amt",
          "type": "uint256"
        },
        {
          "internalType": "address",
          "name": "_from",
          "type": "address"
        },
        {
          "internalType": "address",
          "name": "_to",
          "type": "address"
        }
      ],
      "name": "withdrawFor",
      "outputs": [
        {
          "internalType": "uint256",
          "name": "",
          "type": "uint256"
        }
      ],
      "stateMutability": "nonpayable",
      "type": "function"
    }
  ],
  "bytecode": {
    "object": "0x608060405234801561001057600080fd5b5061677480620000216000396000f3fe60806040526004361061038b5760003560e01c806373aeea36116101da578063bf56700a11610101578063e0794ec51161009a578063e9ec2e991161006c578063e9ec2e9914610afd578063f2fde38b14610b12578063f69e204614610b32578063f74877b514610b4757005b8063e0794ec514610a88578063e32d5cf814610a9d578063e74b981b14610abd578063e9d337b814610add57005b8063d505accf116100d3578063d505accf14610a1a578063db006a75146104da578063dd62ed3e14610a3a578063dfa2b90114610a7257005b8063bf56700a146109ad578063c5c70035146109cd578063cb8dd1d7146109e5578063cc6e8112146109fa57005b806395d89b4111610173578063a9059cbb11610145578063a9059cbb14610934578063b353379314610954578063b3db428b1461096d578063b6b55f251461098d57005b806395d89b41146108c9578063a0be06f9146108de578063a57f8cb7146108f4578063a8df18961461091457005b80637ecebe00116101ac5780637ecebe001461084857806385a393bb146108755780638da5cb5b1461088b5780639203430e146108a957005b806373aeea36146107cd57806373b295c2146107ed5780637b5dbbdd1461080d5780637bb7bed11461082857005b806346904840116102be578063575a86b211610257578063647f343011610229578063647f34301461074b5780636f307dc31461076b57806370a082311461078b578063715018a6146107b857005b8063575a86b2146106865780635c0bfa88146106a75780635eaec0e4146106c7578063600c557d146106de57005b80634fb15b3f116102905780634fb15b3f14610606578063504a75de14610626578063515bc3231461064657806352f7c9881461066657005b8063469048401461059157806347e7ef24146105b15780634a7e5cbb146105d15780634cdf0392146105e657005b80631e9a695011610330578063313ce56711610302578063313ce5671461051a57806334d441d0146105465780633644e5151461055c5780633d61b2861461057157005b80631e9a69501461049a57806323b872dd146104ba5780632e1a7d4d146104da5780632faff427146104fa57005b8063134b6edb11610369578063134b6edb1461040857806318160ddd1461044057806319b333e5146104645780631e0b80531461047a57005b8063026b49a71461038d57806306fdde03146103ad578063095ea7b3146103d8575b005b34801561039957600080fd5b5061038b6103a8366004615937565b610b67565b3480156103b957600080fd5b506103c2610bf5565b6040516103cf91906159a1565b60405180910390f35b3480156103e457600080fd5b506103f86103f33660046159b4565b610c83565b60405190151581526020016103cf565b34801561041457600080fd5b506104286104233660046159e0565b610cf0565b6040516001600160a01b0390911681526020016103cf565b34801561044c57600080fd5b5061045660035481565b6040519081526020016103cf565b34801561047057600080fd5b5061045660d75481565b34801561048657600080fd5b5061038b6104953660046159e0565b610d20565b3480156104a657600080fd5b506104566104b53660046159b4565b610e11565b3480156104c657600080fd5b506103f86104d53660046159f9565b610f31565b3480156104e657600080fd5b506104566104f53660046159e0565b611025565b34801561050657600080fd5b50606e54610428906001600160a01b031681565b34801561052657600080fd5b506002546105349060ff1681565b60405160ff90911681526020016103cf565b34801561055257600080fd5b5061045660db5481565b34801561056857600080fd5b50610456611031565b34801561057d57600080fd5b5061045661058c3660046159e0565b611050565b34801561059d57600080fd5b5060d954610428906001600160a01b031681565b3480156105bd57600080fd5b506104566105cc3660046159b4565b611145565b3480156105dd57600080fd5b5060d654610456565b3480156105f257600080fd5b5061038b610601366004615add565b611348565b34801561061257600080fd5b50610456610621366004615b85565b6114f2565b34801561063257600080fd5b50610456610641366004615bd6565b611507565b34801561065257600080fd5b50610456610661366004615c50565b611530565b34801561067257600080fd5b5061038b610681366004615ca3565b6115e6565b34801561069257600080fd5b5061011054610428906001600160a01b031681565b3480156106b357600080fd5b506104566106c2366004615b85565b611666565b3480156106d357600080fd5b5061045661010f5481565b3480156106ea57600080fd5b506106fe6106f93660046159f9565b6117fe565b604080516001600160a01b039889168152602081019790975294871694860194909452919094166060840152600f93840b6080840152830b60a083015290910b60c082015260e0016103cf565b34801561075757600080fd5b5061038b610766366004615937565b61188e565b34801561077757600080fd5b5060d554610428906001600160a01b031681565b34801561079757600080fd5b506104566107a6366004615937565b60046020526000908152604090205481565b3480156107c457600080fd5b5061038b611917565b3480156107d957600080fd5b5061038b6107e8366004615cc5565b61197d565b3480156107f957600080fd5b5060dd54610428906001600160a01b031681565b34801561081957600080fd5b50610456662386f26fc1000081565b34801561083457600080fd5b506104286108433660046159e0565b611ad0565b34801561085457600080fd5b50610456610863366004615937565b60086020526000908152604090205481565b34801561088157600080fd5b5061045660d85481565b34801561089757600080fd5b50603c546001600160a01b0316610428565b3480156108b557600080fd5b50607154610428906001600160a01b031681565b3480156108d557600080fd5b506103c2611afa565b3480156108ea57600080fd5b5061045660da5481565b34801561090057600080fd5b5061038b61090f366004615937565b611b07565b34801561092057600080fd5b5061038b61092f366004615d5a565b611c16565b34801561094057600080fd5b506103f861094f3660046159b4565b611ced565b34801561096057600080fd5b5061045664e8d4a5100081565b34801561097957600080fd5b506104566109883660046159f9565b611d65565b34801561099957600080fd5b506104566109a83660046159e0565b611fb4565b3480156109b957600080fd5b5061038b6109c8366004615e1b565b611fc0565b3480156109d957600080fd5b506104566305f5e10081565b3480156109f157600080fd5b50610456612055565b348015610a0657600080fd5b5060dc54610428906001600160a01b031681565b348015610a2657600080fd5b5061038b610a35366004615e54565b612121565b348015610a4657600080fd5b50610456610a55366004615e1b565b600560209081526000928352604080842090915290825290205481565b348015610a7e57600080fd5b5061045660d45481565b348015610a9457600080fd5b5061045661238f565b348015610aa957600080fd5b5061038b610ab83660046159f9565b61245c565b348015610ac957600080fd5b5061038b610ad8366004615937565b612548565b348015610ae957600080fd5b50606f54610428906001600160a01b031681565b348015610b0957600080fd5b506104566125d1565b348015610b1e57600080fd5b5061038b610b2d366004615937565b612669565b348015610b3e57600080fd5b5061045661274b565b348015610b5357600080fd5b5061038b610b623660046159e0565b6127b7565b603c546001600160a01b03163314610bc65760405162461bcd60e51b815260206004820181905260248201527f4f776e61626c653a2063616c6c6572206973206e6f7420746865206f776e657260448201526064015b60405180910390fd5b606e805473ffffffffffffffffffffffffffffffffffffffff19166001600160a01b0392909216919091179055565b60008054610c0290615ec5565b80601f0160208091040260200160405190810160405280929190818152602001828054610c2e90615ec5565b8015610c7b5780601f10610c5057610100808354040283529160200191610c7b565b820191906000526020600020905b815481529060010190602001808311610c5e57829003601f168201915b505050505081565b3360008181526005602090815260408083206001600160a01b038716808552925280832085905551919290917f8c5be1e5ebec7d5bd14f71427d1e84f3dd0314c0f7b2291e5b200ac8c7c3b92590610cde9086815260200190565b60405180910390a35060015b92915050565b600060d68281548110610d0557610d05615efa565b6000918252602090912001546001600160a01b031692915050565b603c546001600160a01b03163314610d7a5760405162461bcd60e51b815260206004820181905260248201527f4f776e61626c653a2063616c6c6572206973206e6f7420746865206f776e65726044820152606401610bbd565b60d6548110610dcb5760405162461bcd60e51b815260206004820152600d60248201527f4f7574206f6620626f756e6473000000000000000000000000000000000000006044820152606401610bbd565b600060d68281548110610de057610de0615efa565b9060005260206000200160006101000a8154816001600160a01b0302191690836001600160a01b0316021790555050565b6000600260a2541415610e665760405162461bcd60e51b815260206004820152601f60248201527f5265656e7472616e637947756172643a207265656e7472616e742063616c6c006044820152606401610bbd565b600260a25560d85460d754610e7b9190615f26565b421115610e8c57610e8a612816565b505b670de0b6b3a764000082610e9e612055565b610ea89190615f3e565b610eb29190615f5d565b9050610ebd81612d8e565b610ec73383612e1a565b60d554610ede906001600160a01b03168483612e96565b604080518281526020810184905233916001600160a01b0386169183917ffbde797d201c681b91056529119e0b02407c7bb96a4a2c75c01fc9667232c8db910160405180910390a4600160a25592915050565b6001600160a01b03831660009081526005602090815260408083203384529091528120546000198114610f8d57610f688382615f7f565b6001600160a01b03861660009081526005602090815260408083203384529091529020555b6001600160a01b03851660009081526004602052604081208054859290610fb5908490615f7f565b90915550506001600160a01b03808516600081815260046020526040908190208054870190555190918716907fddf252ad1be2c89b69c2b068fc378daa952ba7f163c4a11628f55a4df523b3ef906110109087815260200190565b60405180910390a360019150505b9392505050565b6000610cea3383610e11565b6000600654461461104957611044612f35565b905090565b5060075490565b6000600260a25414156110a55760405162461bcd60e51b815260206004820152601f60248201527f5265656e7472616e637947756172643a207265656e7472616e742063616c6c006044820152606401610bbd565b600260a255670de0b6b3a7640000826110bc612055565b6110c69190615f3e565b6110d09190615f5d565b90506110db81612d8e565b6110e53383612e1a565b60d5546110fc906001600160a01b03163383612e96565b60408051828152602081018490523391829182917ffbde797d201c681b91056529119e0b02407c7bb96a4a2c75c01fc9667232c8db910160405180910390a4600160a255919050565b6000600260a254141561119a5760405162461bcd60e51b815260206004820152601f60248201527f5265656e7472616e637947756172643a207265656e7472616e742063616c6c006044820152606401610bbd565b600260a255816111ec5760405162461bcd60e51b815260206004820152600860248201527f3020746f6b656e730000000000000000000000000000000000000000000000006044820152606401610bbd565b60d85460d7546111fc9190615f26565b42111561120d5761120b612816565b505b81670de0b6b3a76400008161122061238f565b61122a9190615f3e565b6112349190615f5d565b91506003546000141561127e5764e8d4a5100082101561125357600080fd5b60d95461126d906001600160a01b03166305f5e100612fcf565b61127b6305f5e10083615f7f565b91505b816112cb5760405162461bcd60e51b815260206004820152600a60248201527f30207265636569766564000000000000000000000000000000000000000000006044820152606401610bbd565b60d5546112e3906001600160a01b0316333086613033565b6112ec836130d8565b6112f68483612fcf565b60408051848152602081018490526001600160a01b0386169133917fdcbc1c05240f31ff3ad067ef1ee35ce4997762752e3a095284754544f4c709d7910160405180910390a350600160a25592915050565b6000611354600161312f565b9050801561138957600980547fffffffffffffffffffffffffffffffffffffffffffffffffffffffffffff00ff166101001790555b61139161326a565b6113996132ef565b6113a587876012613374565b60d5805473ffffffffffffffffffffffffffffffffffffffff19166001600160a01b038a16908117909155604080517f313ce567000000000000000000000000000000000000000000000000000000008152905163313ce567916004808201926020929091908290030181865afa158015611424573d6000803e3d6000fd5b505050506040513d601f19601f820116820180604052508101906114489190615f96565b60ff1660d45561145885856115e6565b60d883905560dd805473ffffffffffffffffffffffffffffffffffffffff19166001600160a01b03841617905580156114e857600980547fffffffffffffffffffffffffffffffffffffffffffffffffffffffffffff00ff169055604051600181527f7f26b83ff96e1f2b6a682f133852f6798a09c465da95921460cefb38474024989060200160405180910390a15b5050505050505050565b60006114ff848484611666565b949350505050565b600061151888338888888888612121565b611523898989611666565b9998505050505050505050565b60d5546040517fd505accf000000000000000000000000000000000000000000000000000000008152336004820152306024820152604481018790526064810186905260ff8516608482015260a4810184905260c481018390526000916001600160a01b03169063d505accf9060e401600060405180830381600087803b1580156115ba57600080fd5b505af11580156115ce573d6000803e3d6000fd5b505050506115db87611fb4565b979650505050505050565b603c546001600160a01b031633146116405760405162461bcd60e51b815260206004820181905260248201527f4f776e61626c653a2063616c6c6572206973206e6f7420746865206f776e65726044820152606401610bbd565b61271082108015611652575061271081105b61165b57600080fd5b60da9190915560db55565b6000600260a25414156116bb5760405162461bcd60e51b815260206004820152601f60248201527f5265656e7472616e637947756172643a207265656e7472616e742063616c6c006044820152606401610bbd565b600260a25560d85460d7546116d09190615f26565b4211156116e1576116df612816565b505b6001600160a01b038316600090815260056020908152604080832033845290915290205460001981148015906117205750336001600160a01b03851614155b156117545761172f8582615f7f565b6001600160a01b03851660009081526005602090815260408083203384529091529020555b670de0b6b3a764000085611766612055565b6117709190615f3e565b61177a9190615f5d565b915061178582612d8e565b61178f8486612e1a565b60d5546117a6906001600160a01b03168484612e96565b60408051838152602081018790526001600160a01b03808716929086169133917ffbde797d201c681b91056529119e0b02407c7bb96a4a2c75c01fc9667232c8db910160405180910390a450600160a2559392505050565b6070602052826000526040600020602052816000526040600020818154811061182657600080fd5b60009182526020909120600690910201805460018201546002830154600384015460048501546005909501546001600160a01b039485169850929650908316945090911691600f81810b92700100000000000000000000000000000000909204810b91900b87565b603c546001600160a01b031633146118e85760405162461bcd60e51b815260206004820181905260248201527f4f776e61626c653a2063616c6c6572206973206e6f7420746865206f776e65726044820152606401610bbd565b60dc805473ffffffffffffffffffffffffffffffffffffffff19166001600160a01b0392909216919091179055565b603c546001600160a01b031633146119715760405162461bcd60e51b815260206004820181905260248201527f4f776e61626c653a2063616c6c6572206973206e6f7420746865206f776e65726044820152606401610bbd565b61197b60006133bf565b565b603c546001600160a01b031633146119d75760405162461bcd60e51b815260206004820181905260248201527f4f776e61626c653a2063616c6c6572206973206e6f7420746865206f776e65726044820152606401610bbd565b6001600160a01b0380851660009081526070602090815260408083209387168352929052908120611a07916157e1565b60005b81811015611a8c576001600160a01b038086166000908152607060209081526040808320938816835292905220838383818110611a4957611a49615efa565b83546001810185556000948552602090942060e090910292909201926006029091019050611a778282615fcf565b50508080611a849061616e565b915050611a0a565b507f01aa5c4f582e572c83ccd23ac58ee02c7e51aceb9d47d02987f31536b352992f84848484604051611ac29493929190616194565b60405180910390a150505050565b60d68181548110611ae057600080fd5b6000918252602090912001546001600160a01b0316905081565b60018054610c0290615ec5565b603c546001600160a01b03163314611b615760405162461bcd60e51b815260206004820181905260248201527f4f776e61626c653a2063616c6c6572206973206e6f7420746865206f776e65726044820152606401610bbd565b6001600160a01b038116611bb75760405162461bcd60e51b815260206004820152600960248201527f30206164647265737300000000000000000000000000000000000000000000006044820152606401610bbd565b60d680546001810182556000919091527fe767803f8ecf1dee6bb0345811f7312cda556058b19db6389ad9ae3568643ddd01805473ffffffffffffffffffffffffffffffffffffffff19166001600160a01b0392909216919091179055565b611c2589898989898989611348565b610110805473ffffffffffffffffffffffffffffffffffffffff19166001600160a01b0384811691821790925561010f83905560d5546040517f095ea7b3000000000000000000000000000000000000000000000000000000008152600481019290925260001960248301529091169063095ea7b3906044016020604051808303816000875af1158015611cbd573d6000803e3d6000fd5b505050506040513d601f19601f82011682018060405250810190611ce19190616287565b50505050505050505050565b33600090815260046020526040812080548391908390611d0e908490615f7f565b90915550506001600160a01b038316600081815260046020526040908190208054850190555133907fddf252ad1be2c89b69c2b068fc378daa952ba7f163c4a11628f55a4df523b3ef90610cde9086815260200190565b6000600260a2541415611dba5760405162461bcd60e51b815260206004820152601f60248201527f5265656e7472616e637947756172643a207265656e7472616e742063616c6c006044820152606401610bbd565b600260a25560dc546001600160a01b03163314611e195760405162461bcd60e51b815260206004820152600960248201527f424f7073206f6e6c7900000000000000000000000000000000000000000000006044820152606401610bbd565b60008211611e695760405162461bcd60e51b815260206004820152600860248201527f3020746f6b656e730000000000000000000000000000000000000000000000006044820152606401610bbd565b60d85460d754611e799190615f26565b421115611e8a57611e88612816565b505b81670de0b6b3a764000081611e9d61238f565b611ea79190615f3e565b611eb19190615f5d565b915081611f265760405162461bcd60e51b815260206004820152603760248201527f4465706f73697420616d6f756e7420746f6f20736d616c6c2c20796f7520776960448201527f6c6c206765742030207265636569707420746f6b656e730000000000000000006064820152608401610bbd565b60d554611f3e906001600160a01b0316863086613033565b611f47836130d8565b611f518483612fcf565b836001600160a01b0316856001600160a01b03167fdcbc1c05240f31ff3ad067ef1ee35ce4997762752e3a095284754544f4c709d78585604051611f9f929190918252602082015260400190565b60405180910390a350600160a2559392505050565b6000610cea3383611145565b603c546001600160a01b0316331461201a5760405162461bcd60e51b815260206004820181905260248201527f4f776e61626c653a2063616c6c6572206973206e6f7420746865206f776e65726044820152606401610bbd565b606f80546001600160a01b0393841673ffffffffffffffffffffffffffffffffffffffff199182161790915560718054929093169116179055565b6000600354600014156120705760d45461104490600a61638d565b6003546101105461010f546040517f93f1a40b00000000000000000000000000000000000000000000000000000000815260048101919091523060248201526001600160a01b03909116906393f1a40b906044016040805180830381865afa1580156120e0573d6000803e3d6000fd5b505050506040513d601f19601f820116820180604052508101906121049190616399565b5161211790670de0b6b3a7640000615f3e565b6110449190615f5d565b428410156121715760405162461bcd60e51b815260206004820152601760248201527f5045524d49545f444541444c494e455f455850495245440000000000000000006044820152606401610bbd565b6000600161217d611031565b6001600160a01b038a811660008181526008602090815260409182902080546001810190915582517f6e71edae12b1b97f4d1f60370fef10105fa2faae0126114a169c64845d6126c98184015280840194909452938d166060840152608083018c905260a083019390935260c08083018b90528151808403909101815260e0830190915280519201919091207f19010000000000000000000000000000000000000000000000000000000000006101008301526101028201929092526101228101919091526101420160408051601f198184030181528282528051602091820120600084529083018083525260ff871690820152606081018590526080810184905260a0016020604051602081039080840390855afa1580156122a4573d6000803e3d6000fd5b5050604051601f1901519150506001600160a01b038116158015906122da5750876001600160a01b0316816001600160a01b0316145b6123265760405162461bcd60e51b815260206004820152600e60248201527f494e56414c49445f5349474e45520000000000000000000000000000000000006044820152606401610bbd565b6001600160a01b0390811660009081526005602090815260408083208a8516808552908352928190208990555188815291928a16917f8c5be1e5ebec7d5bd14f71427d1e84f3dd0314c0f7b2291e5b200ac8c7c3b925910160405180910390a350505050505050565b6000600354600014156123b55760d4546123aa906024615f7f565b61104490600a61638d565b6101105461010f546040517f93f1a40b00000000000000000000000000000000000000000000000000000000815260048101919091523060248201526001600160a01b03909116906393f1a40b906044016040805180830381865afa158015612422573d6000803e3d6000fd5b505050506040513d601f19601f820116820180604052508101906124469190616399565b5160035461211790670de0b6b3a7640000615f3e565b603c546001600160a01b031633146124b65760405162461bcd60e51b815260206004820181905260248201527f4f776e61626c653a2063616c6c6572206973206e6f7420746865206f776e65726044820152606401610bbd565b6040517f095ea7b30000000000000000000000000000000000000000000000000000000081526001600160a01b0383811660048301526024820183905284169063095ea7b3906044016020604051808303816000875af115801561251e573d6000803e3d6000fd5b505050506040513d601f19601f820116820180604052508101906125429190616287565b50505050565b603c546001600160a01b031633146125a25760405162461bcd60e51b815260206004820181905260248201527f4f776e61626c653a2063616c6c6572206973206e6f7420746865206f776e65726044820152606401610bbd565b60d9805473ffffffffffffffffffffffffffffffffffffffff19166001600160a01b0392909216919091179055565b6101105461010f546040517f93f1a40b00000000000000000000000000000000000000000000000000000000815260048101919091523060248201526000916001600160a01b0316906393f1a40b906044016040805180830381865afa15801561263f573d6000803e3d6000fd5b505050506040513d601f19601f820116820180604052508101906126639190616399565b51919050565b603c546001600160a01b031633146126c35760405162461bcd60e51b815260206004820181905260248201527f4f776e61626c653a2063616c6c6572206973206e6f7420746865206f776e65726044820152606401610bbd565b6001600160a01b03811661273f5760405162461bcd60e51b815260206004820152602660248201527f4f776e61626c653a206e6577206f776e657220697320746865207a65726f206160448201527f64647265737300000000000000000000000000000000000000000000000000006064820152608401610bbd565b612748816133bf565b50565b6000600260a25414156127a05760405162461bcd60e51b815260206004820152601f60248201527f5265656e7472616e637947756172643a207265656e7472616e742063616c6c006044820152606401610bbd565b600260a2556127ad612816565b9050600160a25590565b603c546001600160a01b031633146128115760405162461bcd60e51b815260206004820181905260248201527f4f776e61626c653a2063616c6c6572206973206e6f7420746865206f776e65726044820152606401610bbd565b60d855565b60d5544260d7556000906001600160a01b03168161283261341e565b905061283c61348b565b60005b60d654811015612b355760006001600160a01b031660d6828154811061286757612867615efa565b6000918252602090912001546001600160a01b031614612b2357826001600160a01b031660d6828154811061289e5761289e615efa565b6000918252602090912001546001600160a01b031614156128be57612b23565b60016001600160a01b031660d682815481106128dc576128dc615efa565b6000918252602090912001546001600160a01b031614156129935747662386f26fc1000081111561298d5760dd60009054906101000a90046001600160a01b03166001600160a01b031663d0e30db0826040518263ffffffff1660e01b81526004016000604051808303818588803b15801561295757600080fd5b505af115801561296b573d6000803e3d6000fd5b505060dd5461298b93506001600160a01b0316915086905083600061350b565b505b50612b23565b600060d682815481106129a8576129a8615efa565b6000918252602090912001546040516370a0823160e01b81523060048201526001600160a01b03909116906370a0823190602401602060405180830381865afa1580156129f9573d6000803e3d6000fd5b505050506040513d601f19601f82011682018060405250810190612a1d91906163e8565b9050662386f26fc1000060d68381548110612a3a57612a3a615efa565b60009182526020918290200154604080517f313ce56700000000000000000000000000000000000000000000000000000000815290516001600160a01b039092169263313ce567926004808401938290030181865afa158015612aa1573d6000803e3d6000fd5b505050506040513d601f19601f82011682018060405250810190612ac59190615f96565b612ad0906012616401565b612adb90600a616424565b612ae59083615f3e565b1115612b2157612b1f60d68381548110612b0157612b01615efa565b60009182526020822001546001600160a01b0316908690849061350b565b505b505b80612b2d8161616e565b91505061283f565b506000612b4061341e565b90506000612b4e8383615f7f565b90508015612d875760d5546040516370a0823160e01b815230600482015260009184916001600160a01b03909116906370a0823190602401602060405180830381865afa158015612ba3573d6000803e3d6000fd5b505050506040513d601f19601f82011682018060405250810190612bc791906163e8565b612bd19084615f3e565b612bdb9190615f5d565b9050600061271060da5483612bf09190615f3e565b612bfa9190615f5d565b9050600061271060db5484612c0f9190615f3e565b612c199190615f5d565b60d55460d954919250612c39916001600160a01b03918216911684612e96565b60d554612c50906001600160a01b03163383612e96565b60408051338152602081018890529081018690527f7595de4054dcab05a338b0855bb2e6155c81172fc76a0cdc037724df4d7e1c4f9060600160405180910390a160d954604080516001600160a01b039092168252602082018490527f4160cbc62d82681031bd44dffd104f752175f93f9b3c78a5a8f0867c667ee918910160405180910390a160408051338152602081018390527f97c227f091684bc53502ee6cf0e3bd656721fdbe9f1b9fddf678b8979efb5a26910160405180910390a160d5546040516370a0823160e01b8152306004820152612d83916001600160a01b0316906370a0823190602401602060405180830381865afa158015612d5a573d6000803e3d6000fd5b505050506040513d601f19601f82011682018060405250810190612d7e91906163e8565b6130d8565b5050505b5050505090565b6101105461010f546040517f441a3e700000000000000000000000000000000000000000000000000000000081526001600160a01b039092169163441a3e7091612de5918590600401918252602082015260400190565b600060405180830381600087803b158015612dff57600080fd5b505af1158015612e13573d6000803e3d6000fd5b5050505050565b6001600160a01b03821660009081526004602052604081208054839290612e42908490615f7f565b90915550506003805482900390556040518181526000906001600160a01b038416907fddf252ad1be2c89b69c2b068fc378daa952ba7f163c4a11628f55a4df523b3ef906020015b60405180910390a35050565b60006040517fa9059cbb000000000000000000000000000000000000000000000000000000008152836004820152826024820152602060006044836000895af13d15601f3d11600160005114161716915050806125425760405162461bcd60e51b815260206004820152600f60248201527f5452414e534645525f4641494c454400000000000000000000000000000000006044820152606401610bbd565b60007f8b73c3c69bb8fe3d512ecc4cf759cc79239f7b179b0ffacaa9a75d522b39400f6000604051612f679190616433565b6040805191829003822060208301939093528101919091527fc89efdaa54c0f20c7adf612882df0950f5a951637e0307cdcb4c672f298b8bc660608201524660808201523060a082015260c00160405160208183030381529060405280519060200120905090565b8060036000828254612fe19190615f26565b90915550506001600160a01b0382166000818152600460209081526040808320805486019055518481527fddf252ad1be2c89b69c2b068fc378daa952ba7f163c4a11628f55a4df523b3ef9101612e8a565b60006040517f23b872dd0000000000000000000000000000000000000000000000000000000081528460048201528360248201528260448201526020600060648360008a5af13d15601f3d1160016000511416171691505080612e135760405162461bcd60e51b815260206004820152601460248201527f5452414e534645525f46524f4d5f4641494c45440000000000000000000000006044820152606401610bbd565b6101105461010f546040517fe2bbb1580000000000000000000000000000000000000000000000000000000081526001600160a01b039092169163e2bbb15891612de5918590600401918252602082015260400190565b600954600090610100900460ff16156131ce578160ff1660011480156131545750303b155b6131c65760405162461bcd60e51b815260206004820152602e60248201527f496e697469616c697a61626c653a20636f6e747261637420697320616c72656160448201527f647920696e697469616c697a65640000000000000000000000000000000000006064820152608401610bbd565b506000919050565b60095460ff80841691161061324b5760405162461bcd60e51b815260206004820152602e60248201527f496e697469616c697a61626c653a20636f6e747261637420697320616c72656160448201527f647920696e697469616c697a65640000000000000000000000000000000000006064820152608401610bbd565b506009805460ff191660ff92909216919091179055600190565b919050565b600954610100900460ff166132e75760405162461bcd60e51b815260206004820152602b60248201527f496e697469616c697a61626c653a20636f6e7472616374206973206e6f74206960448201527f6e697469616c697a696e670000000000000000000000000000000000000000006064820152608401610bbd565b61197b613dc1565b600954610100900460ff1661336c5760405162461bcd60e51b815260206004820152602b60248201527f496e697469616c697a61626c653a20636f6e7472616374206973206e6f74206960448201527f6e697469616c697a696e670000000000000000000000000000000000000000006064820152608401610bbd565b61197b613e47565b8251613387906000906020860190615802565b50815161339b906001906020850190615802565b506002805460ff191660ff8316179055466006556133b7612f35565b600755505050565b603c80546001600160a01b0383811673ffffffffffffffffffffffffffffffffffffffff19831681179093556040519116919082907f8be0079c531659141344cd1fd0a4f28419497f9722a3daafe3b4186f6b6457e090600090a35050565b60d5546040516370a0823160e01b81523060048201526000916001600160a01b0316906370a0823190602401602060405180830381865afa158015613467573d6000803e3d6000fd5b505050506040513d601f19601f8201168201806040525081019061104491906163e8565b6101105461010f546040517fe2bbb1580000000000000000000000000000000000000000000000000000000081526004810191909152600060248201526001600160a01b039091169063e2bbb15890604401600060405180830381600087803b1580156134f757600080fd5b505af1158015612542573d6000803e3d6000fd5b6040516370a0823160e01b815230600482015260009081906001600160a01b038616906370a0823190602401602060405180830381865afa158015613554573d6000803e3d6000fd5b505050506040513d601f19601f8201168201806040525081019061357891906163e8565b6001600160a01b038088166000908152607060209081526040808320938a1683529281528282208054845181840281018401909552808552949550919390849084015b828210156136565760008481526020908190206040805160e0810182526006860290920180546001600160a01b03908116845260018083015485870152600283015482169385019390935260038201541660608401526004810154600f81810b6080860152700100000000000000000000000000000000909104810b60a0850152600590910154900b60c083015290835290920191016135bb565b505050509050600085905060008251116136b25760405162461bcd60e51b815260206004820152600e60248201527f4e6f20726f75746520666f756e640000000000000000000000000000000000006044820152606401610bbd565b60005b8251811015613c67578281815181106136d0576136d0615efa565b6020026020010151602001516001141561374e576137478382815181106136f9576136f9615efa565b60200260200101516000015184838151811061371757613717615efa565b60200260200101516040015185848151811061373557613735615efa565b6020026020010151606001518a613ecb565b9650613c55565b82818151811061376057613760615efa565b602002602001015160200151600214156138565782818151811061378657613786615efa565b6020026020010151600001516001600160a01b03168382815181106137ad576137ad615efa565b6020026020010151604001516001600160a01b0316141561380f576137478382815181106137dd576137dd615efa565b6020026020010151606001518483815181106137fb576137fb615efa565b602002602001015160000151896001614045565b61374783828151811061382457613824615efa565b60200260200101516040015184838151811061384257613842615efa565b602002602001015160000151896000614045565b82818151811061386857613868615efa565b602002602001015160200151600314156139395761374783828151811061389157613891615efa565b6020026020010151604001518483815181106138af576138af615efa565b6020026020010151606001518584815181106138cd576138cd615efa565b6020026020010151600001518a8786815181106138ec576138ec615efa565b60200260200101516080015188878151811061390a5761390a615efa565b602002602001015160a0015189888151811061392857613928615efa565b602002602001015160c00151614681565b82818151811061394b5761394b615efa565b6020026020010151602001516004141561399b5761374760016001600160a01b031684838151811061397f5761397f615efa565b6020026020010151604001516001600160a01b03161488614dba565b8281815181106139ad576139ad615efa565b60200260200101516020015160051415613a06576137478382815181106139d6576139d6615efa565b6020026020010151604001518483815181106139f4576139f4615efa565b60200260200101516000015189614eb4565b828181518110613a1857613a18615efa565b60200260200101516020015160061415613b3757613747838281518110613a4157613a41615efa565b6020026020010151600001516001600160a01b0316848381518110613a6857613a68615efa565b6020026020010151604001516001600160a01b031614613aa557838281518110613a9457613a94615efa565b602002602001015160400151613ac4565b838281518110613ab757613ab7615efa565b6020026020010151606001515b88858481518110613ad757613ad7615efa565b6020026020010151600001516001600160a01b0316868581518110613afe57613afe615efa565b6020026020010151604001516001600160a01b031614868581518110613b2657613b26615efa565b60200260200101516080015161502a565b828181518110613b4957613b49615efa565b60200260200101516020015160071415613ba257613747838281518110613b7257613b72615efa565b602002602001015160400151848381518110613b9057613b90615efa565b60200260200101516000015189615231565b828181518110613bb457613bb4615efa565b60200260200101516020015160081415613c0d57613747838281518110613bdd57613bdd615efa565b602002602001015160400151848381518110613bfb57613bfb615efa565b6020026020010151600001518961546c565b60405162461bcd60e51b815260206004820152601160248201527f556e6b6e6f776e206e6f646520747970650000000000000000000000000000006044820152606401610bbd565b80613c5f8161616e565b9150506136b5565b506040516370a0823160e01b815230600482015260009084906001600160a01b038a16906370a0823190602401602060405180830381865afa158015613cb1573d6000803e3d6000fd5b505050506040513d601f19601f82011682018060405250810190613cd591906163e8565b613cdf9190615f7f565b905085811015613d575760405162461bcd60e51b815260206004820152603560248201527f446964206e6f74207265636569766520656e6f75676820746f6b656e7320746f60448201527f206163636f756e7420666f7220736c69707061676500000000000000000000006064820152608401610bbd565b604080513381526001600160a01b038b811660208301528a1681830152606081018490526080810188905260a0810183905290517fd6d34547c69c5ee3d2667625c188acf1006abb93e0ee7cf03925c67cf77604139181900360c00190a198975050505050505050565b600954610100900460ff16613e3e5760405162461bcd60e51b815260206004820152602b60248201527f496e697469616c697a61626c653a20636f6e7472616374206973206e6f74206960448201527f6e697469616c697a696e670000000000000000000000000000000000000000006064820152608401610bbd565b61197b336133bf565b600954610100900460ff16613ec45760405162461bcd60e51b815260206004820152602b60248201527f496e697469616c697a61626c653a20636f6e7472616374206973206e6f74206960448201527f6e697469616c697a696e670000000000000000000000000000000000000000006064820152608401610bbd565b600160a255565b6000613ed8848684612e96565b600080600080886001600160a01b0316630902f1ac6040518163ffffffff1660e01b8152600401606060405180830381865afa158015613f1c573d6000803e3d6000fd5b505050506040513d601f19601f82011682018060405250810190613f4091906164ed565b506dffffffffffffffffffffffffffff1691506dffffffffffffffffffffffffffff169150866001600160a01b0316886001600160a01b03161015613f9157613f8a86838361552f565b9250613f9f565b613f9c86828461552f565b93505b604080516000815260208101918290527f022c0d9f000000000000000000000000000000000000000000000000000000009091526001600160a01b038a169063022c0d9f90613ff79087908790309060248101616532565b600060405180830381600087803b15801561401157600080fd5b505af1158015614025573d6000803e3d6000fd5b5050505083600014156140385782611523565b5091979650505050505050565b600080846001600160a01b0316630dfe16816040518163ffffffff1660e01b8152600401602060405180830381865afa158015614086573d6000803e3d6000fd5b505050506040513d601f19601f820116820180604052508101906140aa919061656a565b90506000856001600160a01b031663d21220a76040518163ffffffff1660e01b8152600401602060405180830381865afa1580156140ec573d6000803e3d6000fd5b505050506040513d601f19601f82011682018060405250810190614110919061656a565b9050831561439157606e546040517fbaa2abde0000000000000000000000000000000000000000000000000000000081526001600160a01b03848116600483015283811660248301526044820188905260006064830181905260848301523060a48301524260c48301529091169063baa2abde9060e40160408051808303816000875af11580156141a5573d6000803e3d6000fd5b505050506040513d601f19601f820116820180604052508101906141c99190616587565b5050866001600160a01b0316826001600160a01b03161415614263576040516370a0823160e01b815230600482015261425d908790839085906001600160a01b038316906370a08231906024015b602060405180830381865afa158015614234573d6000803e3d6000fd5b505050506040513d601f19601f8201168201806040525081019061425891906163e8565b613ecb565b50614320565b866001600160a01b0316816001600160a01b031614156142b3576040516370a0823160e01b815230600482015261425d908790849084906001600160a01b038316906370a0823190602401614217565b60405162461bcd60e51b8152602060048201526024808201527f746f6b656e4f7574206973206e6f74206120746f6b656e205f696e207468652060448201527f70616972000000000000000000000000000000000000000000000000000000006064820152608401610bbd565b6040516370a0823160e01b81523060048201526001600160a01b038816906370a0823190602401602060405180830381865afa158015614364573d6000803e3d6000fd5b505050506040513d601f19601f8201168201806040525081019061438891906163e8565b925050506114ff565b6000806000886001600160a01b0316630902f1ac6040518163ffffffff1660e01b8152600401606060405180830381865afa1580156143d4573d6000803e3d6000fd5b505050506040513d601f19601f820116820180604052508101906143f891906164ed565b925092509250896001600160a01b0316856001600160a01b031614156145d357614438898b86614258876dffffffffffffffffffffffffffff168d61566b565b50606e546040516370a0823160e01b81523060048201526001600160a01b039182169163e8e337009188918891908316906370a0823190602401602060405180830381865afa15801561448f573d6000803e3d6000fd5b505050506040513d601f19601f820116820180604052508101906144b391906163e8565b6040516370a0823160e01b81523060048201526001600160a01b038a16906370a0823190602401602060405180830381865afa1580156144f7573d6000803e3d6000fd5b505050506040513d601f19601f8201168201806040525081019061451b91906163e8565b6040517fffffffff0000000000000000000000000000000000000000000000000000000060e087901b1681526001600160a01b0394851660048201529390921660248401526044830152606482015260006084820181905260a48201523060c48201524260e4820152610104016060604051808303816000875af11580156145a7573d6000803e3d6000fd5b505050506040513d601f19601f820116820180604052508101906145cb91906165ab565b50505061460d565b896001600160a01b0316846001600160a01b031614156142b357614438898b87614258866dffffffffffffffffffffffffffff168d61566b565b6040516370a0823160e01b81523060048201526001600160a01b038a16906370a0823190602401602060405180830381865afa158015614651573d6000803e3d6000fd5b505050506040513d601f19601f8201168201806040525081019061467591906163e8565b955050505050506114ff565b60008084600f0b1215614a9a5781600f0b6000191415614991576146a4846165d9565b9350600084600f0b67ffffffffffffffff8111156146c4576146c4615a3a565b6040519080825280602002602001820160405280156146ed578160200160208202803683370190505b509050858185600f0b8151811061470657614706615efa565b60200260200101818152505084600f0b600214156147df57866001600160a01b0316630b4c7e4d60405180604001604052808460008151811061474b5761474b615efa565b602002602001015181526020018460018151811061476b5761476b615efa565b602002602001015181525060006040518363ffffffff1660e01b815260040161479592919061663b565b6020604051808303816000875af11580156147b4573d6000803e3d6000fd5b505050506040513d601f19601f820116820180604052508101906147d891906163e8565b915061498b565b84600f0b6003141561488257866001600160a01b0316634515cef360405180606001604052808460008151811061481857614818615efa565b602002602001015181526020018460018151811061483857614838615efa565b602002602001015181526020018460028151811061485857614858615efa565b602002602001015181525060006040518363ffffffff1660e01b8152600401614795929190616679565b84600f0b6004141561498b57866001600160a01b031663029b2f346040518060800160405280846000815181106148bb576148bb615efa565b60200260200101518152602001846001815181106148db576148db615efa565b60200260200101518152602001846002815181106148fb576148fb615efa565b602002602001015181526020018460038151811061491b5761491b615efa565b602002602001015181525060006040518363ffffffff1660e01b81526004016149459291906166b7565b6020604051808303816000875af1158015614964573d6000803e3d6000fd5b505050506040513d601f19601f8201168201806040525081019061498891906163e8565b91505b506115db565b82600f0b6000191415614a3b576040517f1a4d01d200000000000000000000000000000000000000000000000000000000815260048101869052600f83900b6024820152600060448201526001600160a01b03871690631a4d01d2906064015b6020604051808303816000875af1158015614a10573d6000803e3d6000fd5b505050506040513d601f19601f82011682018060405250810190614a3491906163e8565b90506115db565b6040517f3df02124000000000000000000000000000000000000000000000000000000008152600f84810b600483015283900b602482015260448101869052600060648201526001600160a01b03871690633df02124906084016149f1565b600084600f0b13156115db5781600f0b6000191415614d1157600084600f0b67ffffffffffffffff811115614ad157614ad1615a3a565b604051908082528060200260200182016040528015614afa578160200160208202803683370190505b509050858185600f0b81518110614b1357614b13615efa565b60200260200101818152505084600f0b60021415614ba557866001600160a01b031663ee22be23604051806040016040528084600081518110614b5857614b58615efa565b6020026020010151815260200184600181518110614b7857614b78615efa565b6020026020010151815250600060016040518463ffffffff1660e01b8152600401614795939291906166d2565b84600f0b60031415614c4b57866001600160a01b0316632b6e993a604051806060016040528084600081518110614bde57614bde615efa565b6020026020010151815260200184600181518110614bfe57614bfe615efa565b6020026020010151815260200184600281518110614c1e57614c1e615efa565b6020026020010151815250600060016040518463ffffffff1660e01b8152600401614795939291906166f6565b84600f0b6004141561498b57866001600160a01b031663dc3a2d81604051806080016040528084600081518110614c8457614c84615efa565b6020026020010151815260200184600181518110614ca457614ca4615efa565b6020026020010151815260200184600281518110614cc457614cc4615efa565b6020026020010151815260200184600381518110614ce457614ce4615efa565b6020026020010151815250600060016040518463ffffffff1660e01b81526004016149459392919061671a565b6040517fa6417ed6000000000000000000000000000000000000000000000000000000008152600f84810b600483015283900b602482015260448101869052600060648201526001600160a01b0387169063a6417ed6906084016020604051808303816000875af1158015614d8a573d6000803e3d6000fd5b505050506040513d601f19601f82011682018060405250810190614dae91906163e8565b98975050505050505050565b60008215614e2f5773b31f66aa3c1e785363f0875a1b74e27b85fd66c76001600160a01b031663d0e30db0836040518263ffffffff1660e01b81526004016000604051808303818588803b158015614e1157600080fd5b505af1158015614e25573d6000803e3d6000fd5b5050505050614eae565b6040517f2e1a7d4d0000000000000000000000000000000000000000000000000000000081526004810183905273b31f66aa3c1e785363f0875a1b74e27b85fd66c790632e1a7d4d90602401600060405180830381600087803b158015614e9557600080fd5b505af1158015614ea9573d6000803e3d6000fd5b505050505b50919050565b6000826001600160a01b0316846001600160a01b03161415614f65576040517fdb006a75000000000000000000000000000000000000000000000000000000008152600481018390526001600160a01b0384169063db006a75906024016020604051808303816000875af1158015614f30573d6000803e3d6000fd5b505050506040513d601f19601f82011682018060405250810190614f5491906163e8565b15614f5e57600080fd5b504761101e565b826001600160a01b0316631249c58b836040518263ffffffff1660e01b81526004016000604051808303818588803b158015614fa057600080fd5b505af1158015614fb4573d6000803e3d6000fd5b50506040516370a0823160e01b81523060048201526001600160a01b03871693506370a08231925060240190505b602060405180830381865afa158015614fff573d6000803e3d6000fd5b505050506040513d601f19601f8201168201806040525081019061502391906163e8565b905061101e565b600081600f0b600314156151745782156150df576071546040517f69328dec0000000000000000000000000000000000000000000000000000000081526001600160a01b03878116600483015260248201879052306044830152909116906369328dec906064015b6020604051808303816000875af11580156150b1573d6000803e3d6000fd5b505050506040513d601f19601f820116820180604052508101906150d591906163e8565b93508390506114ff565b6071546040517f617ba0370000000000000000000000000000000000000000000000000000000081526001600160a01b03878116600483015260248201879052306044830152600060648301529091169063617ba037906084015b600060405180830381600087803b15801561515457600080fd5b505af1158015615168573d6000803e3d6000fd5b505050508390506114ff565b82156151d257606f546040517f69328dec0000000000000000000000000000000000000000000000000000000081526001600160a01b03878116600483015260248201879052306044830152909116906369328dec90606401615092565b606f546040517fe8eda9df0000000000000000000000000000000000000000000000000000000081526001600160a01b03878116600483015260248201879052306044830152600060648301529091169063e8eda9df9060840161513a565b6000826001600160a01b0316846001600160a01b031614156153b2576040517fdb006a75000000000000000000000000000000000000000000000000000000008152600481018390526001600160a01b0384169063db006a75906024016020604051808303816000875af11580156152ad573d6000803e3d6000fd5b505050506040513d601f19601f820116820180604052508101906152d191906163e8565b156152db57600080fd5b6000836001600160a01b0316636f307dc36040518163ffffffff1660e01b8152600401602060405180830381865afa15801561531b573d6000803e3d6000fd5b505050506040513d601f19601f8201168201806040525081019061533f919061656a565b6040516370a0823160e01b81523060048201529091506001600160a01b038216906370a0823190602401602060405180830381865afa158015615386573d6000803e3d6000fd5b505050506040513d601f19601f820116820180604052508101906153aa91906163e8565b91505061101e565b6040517fa0712d68000000000000000000000000000000000000000000000000000000008152600481018390526001600160a01b0384169063a0712d68906024016020604051808303816000875af1158015615412573d6000803e3d6000fd5b505050506040513d601f19601f8201168201806040525081019061543691906163e8565b1561544057600080fd5b6040516370a0823160e01b81523060048201526001600160a01b038416906370a0823190602401614fe2565b6000826001600160a01b0316846001600160a01b031614156154e9576040517fdb006a75000000000000000000000000000000000000000000000000000000008152600481018390526001600160a01b0384169063db006a75906024015b6020604051808303816000875af1158015614fff573d6000803e3d6000fd5b6040517fb6b55f25000000000000000000000000000000000000000000000000000000008152600481018390526001600160a01b0384169063b6b55f25906024016154ca565b60008084116155a65760405162461bcd60e51b815260206004820152602b60248201527f556e697377617056324c6962726172793a20494e53554646494349454e545f4960448201527f4e5055545f414d4f554e540000000000000000000000000000000000000000006064820152608401610bbd565b6000831180156155b65750600082115b6156285760405162461bcd60e51b815260206004820152602860248201527f556e697377617056324c6962726172793a20494e53554646494349454e545f4c60448201527f49515549444954590000000000000000000000000000000000000000000000006064820152608401610bbd565b60006156366103e586615f3e565b905060006156448483615f3e565b90506000826156556103e888615f3e565b61565f9190615f26565b90506115db8183615f5d565b600080620f2ad961567f85620f3c64615f3e565b6156899190615f5d565b905060006156978580615f3e565b6156a490623cda29615f3e565b856156b286623cab64615f3e565b6156bc9190615f3e565b6156c69190615f26565b905081620f2ad96156d6836156ff565b6156e2906101f4615f3e565b6156ec9190615f5d565b6156f69190615f7f565b95945050505050565b60018170010000000000000000000000000000000081106157255760409190911b9060801c5b6801000000000000000081106157405760209190911b9060401c5b64010000000081106157575760109190911b9060201c5b62010000811061576c5760089190911b9060101c5b61010081106157805760049190911b9060081c5b601081106157935760029190911b9060041c5b600881106157a2578160011b91505b5080820401600190811c80830401811c80830401811c80830401811c80830401811c80830401811c80830401901c80820481811015614eae5792915050565b50805460008255600602906000526020600020908101906127489190615886565b82805461580e90615ec5565b90600052602060002090601f0160209004810192826158305760008555615876565b82601f1061584957805160ff1916838001178555615876565b82800160010185558215615876579182015b8281111561587657825182559160200191906001019061585b565b50615882929150615902565b5090565b5b8082111561588257805473ffffffffffffffffffffffffffffffffffffffff1990811682556000600183018190556002830180548316905560038301805490921690915560048201556005810180547fffffffffffffffffffffffffffffffff00000000000000000000000000000000169055600601615887565b5b808211156158825760008155600101615903565b6001600160a01b038116811461274857600080fd5b803561326581615917565b60006020828403121561594957600080fd5b813561101e81615917565b6000815180845260005b8181101561597a5760208185018101518683018201520161595e565b8181111561598c576000602083870101525b50601f01601f19169290920160200192915050565b60208152600061101e6020830184615954565b600080604083850312156159c757600080fd5b82356159d281615917565b946020939093013593505050565b6000602082840312156159f257600080fd5b5035919050565b600080600060608486031215615a0e57600080fd5b8335615a1981615917565b92506020840135615a2981615917565b929592945050506040919091013590565b634e487b7160e01b600052604160045260246000fd5b600082601f830112615a6157600080fd5b813567ffffffffffffffff80821115615a7c57615a7c615a3a565b604051601f8301601f19908116603f01168101908282118183101715615aa457615aa4615a3a565b81604052838152866020858801011115615abd57600080fd5b836020870160208301376000602085830101528094505050505092915050565b600080600080600080600060e0888a031215615af857600080fd5b8735615b0381615917565b9650602088013567ffffffffffffffff80821115615b2057600080fd5b615b2c8b838c01615a50565b975060408a0135915080821115615b4257600080fd5b50615b4f8a828b01615a50565b955050606088013593506080880135925060a0880135915060c0880135615b7581615917565b8091505092959891949750929550565b600080600060608486031215615b9a57600080fd5b833592506020840135615bac81615917565b91506040840135615bbc81615917565b809150509250925092565b60ff8116811461274857600080fd5b600080600080600080600080610100898b031215615bf357600080fd5b883597506020890135615c0581615917565b96506040890135615c1581615917565b9550606089013594506080890135935060a0890135615c3381615bc7565b979a969950949793969295929450505060c08201359160e0013590565b60008060008060008060c08789031215615c6957600080fd5b8635955060208701359450604087013593506060870135615c8981615bc7565b9598949750929560808101359460a0909101359350915050565b60008060408385031215615cb657600080fd5b50508035926020909101359150565b60008060008060608587031215615cdb57600080fd5b8435615ce681615917565b93506020850135615cf681615917565b9250604085013567ffffffffffffffff80821115615d1357600080fd5b818701915087601f830112615d2757600080fd5b813581811115615d3657600080fd5b88602060e083028501011115615d4b57600080fd5b95989497505060200194505050565b60008060008060008060008060006101208a8c031215615d7957600080fd5b8935615d8481615917565b985060208a013567ffffffffffffffff80821115615da157600080fd5b615dad8d838e01615a50565b995060408c0135915080821115615dc357600080fd5b50615dd08c828d01615a50565b97505060608a0135955060808a0135945060a08a0135935060c08a0135615df681615917565b9250615e0460e08b0161592c565b91506101008a013590509295985092959850929598565b60008060408385031215615e2e57600080fd5b8235615e3981615917565b91506020830135615e4981615917565b809150509250929050565b600080600080600080600060e0888a031215615e6f57600080fd5b8735615e7a81615917565b96506020880135615e8a81615917565b955060408801359450606088013593506080880135615ea881615bc7565b9699959850939692959460a0840135945060c09093013592915050565b600181811c90821680615ed957607f821691505b60208210811415614eae57634e487b7160e01b600052602260045260246000fd5b634e487b7160e01b600052603260045260246000fd5b634e487b7160e01b600052601160045260246000fd5b60008219821115615f3957615f39615f10565b500190565b6000816000190483118215151615615f5857615f58615f10565b500290565b600082615f7a57634e487b7160e01b600052601260045260246000fd5b500490565b600082821015615f9157615f91615f10565b500390565b600060208284031215615fa857600080fd5b815161101e81615bc7565b80600f0b811461274857600080fd5b60008135610cea81615fb3565b8135615fda81615917565b815473ffffffffffffffffffffffffffffffffffffffff19166001600160a01b0382161782555060208201356001820155604082013561601981615917565b60028201805473ffffffffffffffffffffffffffffffffffffffff19166001600160a01b03831617905550606082013561605281615917565b60038201805473ffffffffffffffffffffffffffffffffffffffff19166001600160a01b0383161790555060048101608083013561608f81615fb3565b81547fffffffffffffffffffffffffffffffff00000000000000000000000000000000166fffffffffffffffffffffffffffffffff82161782555060a08301356160d881615fb3565b81546fffffffffffffffffffffffffffffffff1660809190911b7fffffffffffffffffffffffffffffffff000000000000000000000000000000001617905561616a61612660c08401615fc2565b600583017fffffffffffffffffffffffffffffffff00000000000000000000000000000000815416826fffffffffffffffffffffffffffffffff1681178255505050565b5050565b600060001982141561618257616182615f10565b5060010190565b803561326581615fb3565b600060608083016001600160a01b03808916855260208189168187015260408481880152838885526080945084880190508960005b8a8110156162755781356161dc81615917565b861683528185013585840152838201356161f581615917565b8616838501528188013561620881615917565b861683890152616219828801616189565b61622788850182600f0b9052565b5060a0616235818401616189565b61624382860182600f0b9052565b505060c0616252818401616189565b61626082860182600f0b9052565b505060e09283019291909101906001016161c9565b50909c9b505050505050505050505050565b60006020828403121561629957600080fd5b8151801515811461101e57600080fd5b600181815b808511156162e45781600019048211156162ca576162ca615f10565b808516156162d757918102915b93841c93908002906162ae565b509250929050565b6000826162fb57506001610cea565b8161630857506000610cea565b816001811461631e576002811461632857616344565b6001915050610cea565b60ff84111561633957616339615f10565b50506001821b610cea565b5060208310610133831016604e8410600b8410161715616367575081810a610cea565b61637183836162a9565b806000190482111561638557616385615f10565b029392505050565b600061101e83836162ec565b6000604082840312156163ab57600080fd5b6040516040810181811067ffffffffffffffff821117156163ce576163ce615a3a565b604052825181526020928301519281019290925250919050565b6000602082840312156163fa57600080fd5b5051919050565b600060ff821660ff84168082101561641b5761641b615f10565b90039392505050565b600061101e60ff8416836162ec565b600080835481600182811c91508083168061644f57607f831692505b602080841082141561646f57634e487b7160e01b86526022600452602486fd5b8180156164835760018114616494576164c1565b60ff198616895284890196506164c1565b60008a81526020902060005b868110156164b95781548b8201529085019083016164a0565b505084890196505b509498975050505050505050565b80516dffffffffffffffffffffffffffff8116811461326557600080fd5b60008060006060848603121561650257600080fd5b61650b846164cf565b9250616519602085016164cf565b9150604084015163ffffffff81168114615bbc57600080fd5b8481528360208201526001600160a01b03831660408201526080606082015260006165606080830184615954565b9695505050505050565b60006020828403121561657c57600080fd5b815161101e81615917565b6000806040838503121561659a57600080fd5b505080516020909101519092909150565b6000806000606084860312156165c057600080fd5b8351925060208401519150604084015190509250925092565b600081600f0b7fffffffffffffffffffffffffffffffff8000000000000000000000000000000081141561660f5761660f615f10565b60000392915050565b8060005b600281101561254257815184526020938401939091019060010161661c565b606081016166498285616618565b8260408301529392505050565b8060005b600381101561254257815184526020938401939091019060010161665a565b608081016166878285616656565b8260608301529392505050565b8060005b6004811015612542578151845260209384019390910190600101616698565b60a081016166c58285616694565b8260808301529392505050565b608081016166e08286616618565b8360408301528215156060830152949350505050565b60a081016167048286616656565b8360608301528215156080830152949350505050565b60c081016167288286616694565b83608083015282151560a083015294935050505056fea26469706673582212200d43335f9de0f199cc2652726481716c09764dfee0e1e817fdb483279c08221864736f6c634300080a0033",
    "linkReferences": {}
  }
}