{
  "abi": [
    {
      "anonymous": false,
      "inputs": [
        {
          "indexed": false,
          "internalType": "address",
          "name": "caller",
          "type": "address"
        },
        {
          "indexed": false,
          "internalType": "uint256",
          "name": "amount",
          "type": "uint256"
        }
      ],
      "name": "AdminFeePaid",
      "type": "event"
    },
    {
      "anonymous": false,
      "inputs": [
        {
          "indexed": true,
          "internalType": "address",
          "name": "owner",
          "type": "address"
        },
        {
          "indexed": true,
          "internalType": "address",
          "name": "spender",
          "type": "address"
        },
        {
          "indexed": false,
          "internalType": "uint256",
          "name": "amount",
          "type": "uint256"
        }
      ],
      "name": "Approval",
      "type": "event"
    },
    {
      "anonymous": false,
      "inputs": [
        {
          "indexed": false,
          "internalType": "address",
          "name": "caller",
          "type": "address"
        },
        {
          "indexed": false,
          "internalType": "uint256",
          "name": "amount",
          "type": "uint256"
        }
      ],
      "name": "CallerFeePaid",
      "type": "event"
    },
    {
      "anonymous": false,
      "inputs": [
        {
          "indexed": true,
          "internalType": "address",
          "name": "caller",
          "type": "address"
        },
        {
          "indexed": true,
          "internalType": "address",
          "name": "owner",
          "type": "address"
        },
        {
          "indexed": false,
          "internalType": "uint256",
          "name": "assets",
          "type": "uint256"
        },
        {
          "indexed": false,
          "internalType": "uint256",
          "name": "shares",
          "type": "uint256"
        }
      ],
      "name": "Deposit",
      "type": "event"
    },
    {
      "anonymous": false,
      "inputs": [
        {
          "indexed": false,
          "internalType": "uint8",
          "name": "version",
          "type": "uint8"
        }
      ],
      "name": "Initialized",
      "type": "event"
    },
    {
      "anonymous": false,
      "inputs": [
        {
          "indexed": true,
          "internalType": "address",
          "name": "previousOwner",
          "type": "address"
        },
        {
          "indexed": true,
          "internalType": "address",
          "name": "newOwner",
          "type": "address"
        }
      ],
      "name": "OwnershipTransferred",
      "type": "event"
    },
    {
      "anonymous": false,
      "inputs": [
        {
          "indexed": false,
          "internalType": "address",
          "name": "caller",
          "type": "address"
        },
        {
          "indexed": false,
          "internalType": "uint256",
          "name": "preCompound",
          "type": "uint256"
        },
        {
          "indexed": false,
          "internalType": "uint256",
          "name": "postCompound",
          "type": "uint256"
        }
      ],
      "name": "Reinvested",
      "type": "event"
    },
    {
      "anonymous": false,
      "inputs": [
        {
          "indexed": false,
          "internalType": "address",
          "name": "caller",
          "type": "address"
        },
        {
          "indexed": false,
          "internalType": "uint256",
          "name": "index",
          "type": "uint256"
        },
        {
          "indexed": false,
          "internalType": "address",
          "name": "rewardToken",
          "type": "address"
        }
      ],
      "name": "RewardTokenSet",
      "type": "event"
    },
    {
      "anonymous": false,
      "inputs": [
        {
          "indexed": false,
          "internalType": "address",
          "name": "fromToken",
          "type": "address"
        },
        {
          "indexed": false,
          "internalType": "address",
          "name": "toToken",
          "type": "address"
        },
        {
          "components": [
            {
              "internalType": "address",
              "name": "protocolSwapAddress",
              "type": "address"
            },
            {
              "internalType": "uint256",
              "name": "nodeType",
              "type": "uint256"
            },
            {
              "internalType": "address",
              "name": "tokenIn",
              "type": "address"
            },
            {
              "internalType": "address",
              "name": "tokenOut",
              "type": "address"
            },
            {
              "internalType": "int128",
              "name": "_misc",
              "type": "int128"
            },
            {
              "internalType": "int128",
              "name": "_in",
              "type": "int128"
            },
            {
              "internalType": "int128",
              "name": "_out",
              "type": "int128"
            }
          ],
          "indexed": false,
          "internalType": "struct Router.Node[]",
          "name": "path",
          "type": "tuple[]"
        }
      ],
      "name": "RouteSet",
      "type": "event"
    },
    {
      "anonymous": false,
      "inputs": [
        {
          "indexed": false,
          "internalType": "address",
          "name": "caller",
          "type": "address"
        },
        {
          "indexed": false,
          "internalType": "address",
          "name": "startingTokenAddress",
          "type": "address"
        },
        {
          "indexed": false,
          "internalType": "address",
          "name": "endingTokenAddress",
          "type": "address"
        },
        {
          "indexed": false,
          "internalType": "uint256",
          "name": "amount",
          "type": "uint256"
        },
        {
          "indexed": false,
          "internalType": "uint256",
          "name": "minSwapAmount",
          "type": "uint256"
        },
        {
          "indexed": false,
          "internalType": "uint256",
          "name": "actualOut",
          "type": "uint256"
        }
      ],
      "name": "Swap",
      "type": "event"
    },
    {
      "anonymous": false,
      "inputs": [
        {
          "indexed": true,
          "internalType": "address",
          "name": "from",
          "type": "address"
        },
        {
          "indexed": true,
          "internalType": "address",
          "name": "to",
          "type": "address"
        },
        {
          "indexed": false,
          "internalType": "uint256",
          "name": "amount",
          "type": "uint256"
        }
      ],
      "name": "Transfer",
      "type": "event"
    },
    {
      "anonymous": false,
      "inputs": [
        {
          "indexed": true,
          "internalType": "address",
          "name": "caller",
          "type": "address"
        },
        {
          "indexed": true,
          "internalType": "address",
          "name": "receiver",
          "type": "address"
        },
        {
          "indexed": true,
          "internalType": "address",
          "name": "owner",
          "type": "address"
        },
        {
          "indexed": false,
          "internalType": "uint256",
          "name": "assets",
          "type": "uint256"
        },
        {
          "indexed": false,
          "internalType": "uint256",
          "name": "shares",
          "type": "uint256"
        }
      ],
      "name": "Withdraw",
      "type": "event"
    },
    {
      "stateMutability": "payable",
      "type": "fallback"
    },
    {
      "inputs": [],
      "name": "BOpsAddress",
      "outputs": [
        {
          "internalType": "address",
          "name": "",
          "type": "address"
        }
      ],
      "stateMutability": "view",
      "type": "function"
    },
    {
      "inputs": [],
      "name": "DOMAIN_SEPARATOR",
      "outputs": [
        {
          "internalType": "bytes32",
          "name": "",
          "type": "bytes32"
        }
      ],
      "stateMutability": "view",
      "type": "function"
    },
    {
      "inputs": [],
      "name": "FIRST_DONATION",
      "outputs": [
        {
          "internalType": "uint256",
          "name": "",
          "type": "uint256"
        }
      ],
      "stateMutability": "view",
      "type": "function"
    },
    {
      "inputs": [],
      "name": "MIN_FIRST_MINT",
      "outputs": [
        {
          "internalType": "uint256",
          "name": "",
          "type": "uint256"
        }
      ],
      "stateMutability": "view",
      "type": "function"
    },
    {
      "inputs": [],
      "name": "MIN_SWAP",
      "outputs": [
        {
          "internalType": "uint256",
          "name": "",
          "type": "uint256"
        }
      ],
      "stateMutability": "view",
      "type": "function"
    },
    {
      "inputs": [],
      "name": "WAVAX",
      "outputs": [
        {
          "internalType": "contract IWAVAX",
          "name": "",
          "type": "address"
        }
      ],
      "stateMutability": "view",
      "type": "function"
    },
    {
      "inputs": [],
      "name": "aaveLendingPool",
      "outputs": [
        {
          "internalType": "address",
          "name": "",
          "type": "address"
        }
      ],
      "stateMutability": "view",
      "type": "function"
    },
    {
      "inputs": [],
      "name": "aaveLendingPoolV3",
      "outputs": [
        {
          "internalType": "address",
          "name": "",
          "type": "address"
        }
      ],
      "stateMutability": "view",
      "type": "function"
    },
    {
      "inputs": [],
      "name": "adminFee",
      "outputs": [
        {
          "internalType": "uint256",
          "name": "",
          "type": "uint256"
        }
      ],
      "stateMutability": "view",
      "type": "function"
    },
    {
      "inputs": [
        {
          "internalType": "address",
          "name": "",
          "type": "address"
        },
        {
          "internalType": "address",
          "name": "",
          "type": "address"
        }
      ],
      "name": "allowance",
      "outputs": [
        {
          "internalType": "uint256",
          "name": "",
          "type": "uint256"
        }
      ],
      "stateMutability": "view",
      "type": "function"
    },
    {
      "inputs": [
        {
          "internalType": "address",
          "name": "spender",
          "type": "address"
        },
        {
          "internalType": "uint256",
          "name": "amount",
          "type": "uint256"
        }
      ],
      "name": "approve",
      "outputs": [
        {
          "internalType": "bool",
          "name": "",
          "type": "bool"
        }
      ],
      "stateMutability": "nonpayable",
      "type": "function"
    },
    {
      "inputs": [
        {
          "internalType": "address",
          "name": "",
          "type": "address"
        }
      ],
      "name": "balanceOf",
      "outputs": [
        {
          "internalType": "uint256",
          "name": "",
          "type": "uint256"
        }
      ],
      "stateMutability": "view",
      "type": "function"
    },
    {
      "inputs": [],
      "name": "callerFee",
      "outputs": [
        {
          "internalType": "uint256",
          "name": "",
          "type": "uint256"
        }
      ],
      "stateMutability": "view",
      "type": "function"
    },
    {
      "inputs": [],
      "name": "compound",
      "outputs": [
        {
          "internalType": "uint256",
          "name": "",
          "type": "uint256"
        }
      ],
      "stateMutability": "nonpayable",
      "type": "function"
    },
    {
      "inputs": [],
      "name": "decimals",
      "outputs": [
        {
          "internalType": "uint8",
          "name": "",
          "type": "uint8"
        }
      ],
      "stateMutability": "view",
      "type": "function"
    },
    {
      "inputs": [
        {
          "internalType": "address",
          "name": "_to",
          "type": "address"
        },
        {
          "internalType": "uint256",
          "name": "_amt",
          "type": "uint256"
        }
      ],
      "name": "deposit",
      "outputs": [
        {
          "internalType": "uint256",
          "name": "receiptTokens",
          "type": "uint256"
        }
      ],
      "stateMutability": "nonpayable",
      "type": "function"
    },
    {
      "inputs": [
        {
          "internalType": "uint256",
          "name": "_amt",
          "type": "uint256"
        }
      ],
      "name": "deposit",
      "outputs": [
        {
          "internalType": "uint256",
          "name": "",
          "type": "uint256"
        }
      ],
      "stateMutability": "nonpayable",
      "type": "function"
    },
    {
      "inputs": [
        {
          "internalType": "address",
          "name": "_borrower",
          "type": "address"
        },
        {
          "internalType": "address",
          "name": "_to",
          "type": "address"
        },
        {
          "internalType": "uint256",
          "name": "_amt",
          "type": "uint256"
        }
      ],
      "name": "depositFor",
      "outputs": [
        {
          "internalType": "uint256",
          "name": "receiptTokens",
          "type": "uint256"
        }
      ],
      "stateMutability": "nonpayable",
      "type": "function"
    },
    {
      "inputs": [
        {
          "internalType": "uint256",
          "name": "_amt",
          "type": "uint256"
        },
        {
          "internalType": "uint256",
          "name": "_value",
          "type": "uint256"
        },
        {
          "internalType": "uint256",
          "name": "_deadline",
          "type": "uint256"
        },
        {
          "internalType": "uint8",
          "name": "_v",
          "type": "uint8"
        },
        {
          "internalType": "bytes32",
          "name": "_r",
          "type": "bytes32"
        },
        {
          "internalType": "bytes32",
          "name": "_s",
          "type": "bytes32"
        }
      ],
      "name": "depositWithPermit",
      "outputs": [
        {
          "internalType": "uint256",
          "name": "receiptTokens",
          "type": "uint256"
        }
      ],
      "stateMutability": "nonpayable",
      "type": "function"
    },
    {
      "inputs": [
        {
          "internalType": "uint256",
          "name": "_index",
          "type": "uint256"
        }
      ],
      "name": "deprecateRewardToken",
      "outputs": [],
      "stateMutability": "nonpayable",
      "type": "function"
    },
    {
      "inputs": [
        {
          "internalType": "uint256",
          "name": "_amt",
          "type": "uint256"
        }
      ],
      "name": "emergencyRedeem",
      "outputs": [
        {
          "internalType": "uint256",
          "name": "amtToReturn",
          "type": "uint256"
        }
      ],
      "stateMutability": "nonpayable",
      "type": "function"
    },
    {
      "inputs": [],
      "name": "feeRecipient",
      "outputs": [
        {
          "internalType": "address",
          "name": "",
          "type": "address"
        }
      ],
      "stateMutability": "view",
      "type": "function"
    },
    {
      "inputs": [
        {
          "internalType": "uint256",
          "name": "_ind",
          "type": "uint256"
        }
      ],
      "name": "getRewardToken",
      "outputs": [
        {
          "internalType": "address",
          "name": "",
          "type": "address"
        }
      ],
      "stateMutability": "view",
      "type": "function"
    },
    {
      "inputs": [
        {
          "internalType": "address",
          "name": "_underlying",
          "type": "address"
        },
        {
          "internalType": "string",
          "name": "_name",
          "type": "string"
        },
        {
          "internalType": "string",
          "name": "_symbol",
          "type": "string"
        },
        {
          "internalType": "uint256",
          "name": "_adminFee",
          "type": "uint256"
        },
        {
          "internalType": "uint256",
          "name": "_callerFee",
          "type": "uint256"
        },
        {
          "internalType": "uint256",
          "name": "_maxReinvestStale",
          "type": "uint256"
        },
        {
          "internalType": "address",
          "name": "_WAVAX",
          "type": "address"
        }
      ],
      "name": "initialize",
      "outputs": [],
      "stateMutability": "nonpayable",
      "type": "function"
    },
    {
      "inputs": [],
      "name": "lastReinvestTime",
      "outputs": [
        {
          "internalType": "uint256",
          "name": "",
          "type": "uint256"
        }
      ],
      "stateMutability": "view",
      "type": "function"
    },
    {
      "inputs": [],
      "name": "maxReinvestStale",
      "outputs": [
        {
          "internalType": "uint256",
          "name": "",
          "type": "uint256"
        }
      ],
      "stateMutability": "view",
      "type": "function"
    },
    {
      "inputs": [],
      "name": "name",
      "outputs": [
        {
          "internalType": "string",
          "name": "",
          "type": "string"
        }
      ],
      "stateMutability": "view",
      "type": "function"
    },
    {
      "inputs": [
        {
          "internalType": "address",
          "name": "",
          "type": "address"
        }
      ],
      "name": "nonces",
      "outputs": [
        {
          "internalType": "uint256",
          "name": "",
          "type": "uint256"
        }
      ],
      "stateMutability": "view",
      "type": "function"
    },
    {
      "inputs": [],
      "name": "numRewardTokens",
      "outputs": [
        {
          "internalType": "uint256",
          "name": "",
          "type": "uint256"
        }
      ],
      "stateMutability": "view",
      "type": "function"
    },
    {
      "inputs": [],
      "name": "owner",
      "outputs": [
        {
          "internalType": "address",
          "name": "",
          "type": "address"
        }
      ],
      "stateMutability": "view",
      "type": "function"
    },
    {
      "inputs": [
        {
          "internalType": "address",
          "name": "owner",
          "type": "address"
        },
        {
          "internalType": "address",
          "name": "spender",
          "type": "address"
        },
        {
          "internalType": "uint256",
          "name": "value",
          "type": "uint256"
        },
        {
          "internalType": "uint256",
          "name": "deadline",
          "type": "uint256"
        },
        {
          "internalType": "uint8",
          "name": "v",
          "type": "uint8"
        },
        {
          "internalType": "bytes32",
          "name": "r",
          "type": "bytes32"
        },
        {
          "internalType": "bytes32",
          "name": "s",
          "type": "bytes32"
        }
      ],
      "name": "permit",
      "outputs": [],
      "stateMutability": "nonpayable",
      "type": "function"
    },
    {
      "inputs": [
        {
          "internalType": "address",
          "name": "_token",
          "type": "address"
        }
      ],
      "name": "pushRewardToken",
      "outputs": [],
      "stateMutability": "nonpayable",
      "type": "function"
    },
    {
      "inputs": [],
      "name": "receiptPerUnderlying",
      "outputs": [
        {
          "internalType": "uint256",
          "name": "",
          "type": "uint256"
        }
      ],
      "stateMutability": "view",
      "type": "function"
    },
    {
      "inputs": [
        {
          "internalType": "address",
          "name": "_to",
          "type": "address"
        },
        {
          "internalType": "uint256",
          "name": "_amt",
          "type": "uint256"
        }
      ],
      "name": "redeem",
      "outputs": [
        {
          "internalType": "uint256",
          "name": "amtToReturn",
          "type": "uint256"
        }
      ],
      "stateMutability": "nonpayable",
      "type": "function"
    },
    {
      "inputs": [
        {
          "internalType": "uint256",
          "name": "_amt",
          "type": "uint256"
        }
      ],
      "name": "redeem",
      "outputs": [
        {
          "internalType": "uint256",
          "name": "",
          "type": "uint256"
        }
      ],
      "stateMutability": "nonpayable",
      "type": "function"
    },
    {
      "inputs": [
        {
          "internalType": "uint256",
          "name": "_amt",
          "type": "uint256"
        },
        {
          "internalType": "address",
          "name": "_from",
          "type": "address"
        },
        {
          "internalType": "address",
          "name": "_to",
          "type": "address"
        }
      ],
      "name": "redeemFor",
      "outputs": [
        {
          "internalType": "uint256",
          "name": "amtToReturn",
          "type": "uint256"
        }
      ],
      "stateMutability": "nonpayable",
      "type": "function"
    },
    {
      "inputs": [
        {
          "internalType": "uint256",
          "name": "_amt",
          "type": "uint256"
        },
        {
          "internalType": "address",
          "name": "_from",
          "type": "address"
        },
        {
          "internalType": "address",
          "name": "_to",
          "type": "address"
        },
        {
          "internalType": "uint256",
          "name": "_value",
          "type": "uint256"
        },
        {
          "internalType": "uint256",
          "name": "_deadline",
          "type": "uint256"
        },
        {
          "internalType": "uint8",
          "name": "_v",
          "type": "uint8"
        },
        {
          "internalType": "bytes32",
          "name": "_r",
          "type": "bytes32"
        },
        {
          "internalType": "bytes32",
          "name": "_s",
          "type": "bytes32"
        }
      ],
      "name": "redeemForWithPermit",
      "outputs": [
        {
          "internalType": "uint256",
          "name": "",
          "type": "uint256"
        }
      ],
      "stateMutability": "nonpayable",
      "type": "function"
    },
    {
      "inputs": [],
      "name": "renounceOwnership",
      "outputs": [],
      "stateMutability": "nonpayable",
      "type": "function"
    },
    {
      "inputs": [
        {
          "internalType": "uint256",
          "name": "",
          "type": "uint256"
        }
      ],
      "name": "rewardTokens",
      "outputs": [
        {
          "internalType": "address",
          "name": "",
          "type": "address"
        }
      ],
      "stateMutability": "view",
      "type": "function"
    },
    {
      "inputs": [
        {
          "internalType": "address",
          "name": "",
          "type": "address"
        },
        {
          "internalType": "address",
          "name": "",
          "type": "address"
        },
        {
          "internalType": "uint256",
          "name": "",
          "type": "uint256"
        }
      ],
      "name": "routes",
      "outputs": [
        {
          "internalType": "address",
          "name": "protocolSwapAddress",
          "type": "address"
        },
        {
          "internalType": "uint256",
          "name": "nodeType",
          "type": "uint256"
        },
        {
          "internalType": "address",
          "name": "tokenIn",
          "type": "address"
        },
        {
          "internalType": "address",
          "name": "tokenOut",
          "type": "address"
        },
        {
          "internalType": "int128",
          "name": "_misc",
          "type": "int128"
        },
        {
          "internalType": "int128",
          "name": "_in",
          "type": "int128"
        },
        {
          "internalType": "int128",
          "name": "_out",
          "type": "int128"
        }
      ],
      "stateMutability": "view",
      "type": "function"
    },
    {
      "inputs": [
        {
          "internalType": "address",
          "name": "_aaveLendingPool",
          "type": "address"
        },
        {
          "internalType": "address",
          "name": "_aaveLendingPoolV3",
          "type": "address"
        }
      ],
      "name": "setAAVE",
      "outputs": [],
      "stateMutability": "nonpayable",
      "type": "function"
    },
    {
      "inputs": [
        {
          "internalType": "address",
          "name": "_token",
          "type": "address"
        },
        {
          "internalType": "address",
          "name": "_who",
          "type": "address"
        },
        {
          "internalType": "uint256",
          "name": "_amount",
          "type": "uint256"
        }
      ],
      "name": "setApprovals",
      "outputs": [],
      "stateMutability": "nonpayable",
      "type": "function"
    },
    {
      "inputs": [
        {
          "internalType": "address",
          "name": "_BOpsAddress",
          "type": "address"
        }
      ],
      "name": "setBOps",
      "outputs": [],
      "stateMutability": "nonpayable",
      "type": "function"
    },
    {
      "inputs": [
        {
          "internalType": "uint256",
          "name": "_adminFee",
          "type": "uint256"
        },
        {
          "internalType": "uint256",
          "name": "_callerFee",
          "type": "uint256"
        }
      ],
      "name": "setFee",
      "outputs": [],
      "stateMutability": "nonpayable",
      "type": "function"
    },
    {
      "inputs": [
        {
          "internalType": "address",
          "name": "_feeRecipient",
          "type": "address"
        }
      ],
      "name": "setFeeRecipient",
      "outputs": [],
      "stateMutability": "nonpayable",
      "type": "function"
    },
    {
      "inputs": [
        {
          "internalType": "address",
          "name": "_traderJoeRouter",
          "type": "address"
        }
      ],
      "name": "setJoeRouter",
      "outputs": [],
      "stateMutability": "nonpayable",
      "type": "function"
    },
    {
      "inputs": [
        {
          "internalType": "address",
          "name": "_fromToken",
          "type": "address"
        },
        {
          "internalType": "address",
          "name": "_toToken",
          "type": "address"
        },
        {
          "components": [
            {
              "internalType": "address",
              "name": "protocolSwapAddress",
              "type": "address"
            },
            {
              "internalType": "uint256",
              "name": "nodeType",
              "type": "uint256"
            },
            {
              "internalType": "address",
              "name": "tokenIn",
              "type": "address"
            },
            {
              "internalType": "address",
              "name": "tokenOut",
              "type": "address"
            },
            {
              "internalType": "int128",
              "name": "_misc",
              "type": "int128"
            },
            {
              "internalType": "int128",
              "name": "_in",
              "type": "int128"
            },
            {
              "internalType": "int128",
              "name": "_out",
              "type": "int128"
            }
          ],
          "internalType": "struct Router.Node[]",
          "name": "_path",
          "type": "tuple[]"
        }
      ],
      "name": "setRoute",
      "outputs": [],
      "stateMutability": "nonpayable",
      "type": "function"
    },
    {
      "inputs": [
        {
          "internalType": "uint256",
          "name": "_maxReinvestStale",
          "type": "uint256"
        }
      ],
      "name": "setStale",
      "outputs": [],
      "stateMutability": "nonpayable",
      "type": "function"
    },
    {
      "inputs": [],
      "name": "symbol",
      "outputs": [
        {
          "internalType": "string",
          "name": "",
          "type": "string"
        }
      ],
      "stateMutability": "view",
      "type": "function"
    },
    {
      "inputs": [],
      "name": "totalHoldings",
      "outputs": [
        {
          "internalType": "uint256",
          "name": "",
          "type": "uint256"
        }
      ],
      "stateMutability": "nonpayable",
      "type": "function"
    },
    {
      "inputs": [],
      "name": "totalSupply",
      "outputs": [
        {
          "internalType": "uint256",
          "name": "",
          "type": "uint256"
        }
      ],
      "stateMutability": "view",
      "type": "function"
    },
    {
      "inputs": [],
      "name": "traderJoeRouter",
      "outputs": [
        {
          "internalType": "address",
          "name": "",
          "type": "address"
        }
      ],
      "stateMutability": "view",
      "type": "function"
    },
    {
      "inputs": [
        {
          "internalType": "address",
          "name": "to",
          "type": "address"
        },
        {
          "internalType": "uint256",
          "name": "amount",
          "type": "uint256"
        }
      ],
      "name": "transfer",
      "outputs": [
        {
          "internalType": "bool",
          "name": "",
          "type": "bool"
        }
      ],
      "stateMutability": "nonpayable",
      "type": "function"
    },
    {
      "inputs": [
        {
          "internalType": "address",
          "name": "from",
          "type": "address"
        },
        {
          "internalType": "address",
          "name": "to",
          "type": "address"
        },
        {
          "internalType": "uint256",
          "name": "amount",
          "type": "uint256"
        }
      ],
      "name": "transferFrom",
      "outputs": [
        {
          "internalType": "bool",
          "name": "",
          "type": "bool"
        }
      ],
      "stateMutability": "nonpayable",
      "type": "function"
    },
    {
      "inputs": [
        {
          "internalType": "address",
          "name": "newOwner",
          "type": "address"
        }
      ],
      "name": "transferOwnership",
      "outputs": [],
      "stateMutability": "nonpayable",
      "type": "function"
    },
    {
      "inputs": [],
      "name": "underlying",
      "outputs": [
        {
          "internalType": "contract ERC20",
          "name": "",
          "type": "address"
        }
      ],
      "stateMutability": "view",
      "type": "function"
    },
    {
      "inputs": [],
      "name": "underlyingDecimal",
      "outputs": [
        {
          "internalType": "uint256",
          "name": "",
          "type": "uint256"
        }
      ],
      "stateMutability": "view",
      "type": "function"
    },
    {
      "inputs": [],
      "name": "underlyingPerReceipt",
      "outputs": [
        {
          "internalType": "uint256",
          "name": "",
          "type": "uint256"
        }
      ],
      "stateMutability": "view",
      "type": "function"
    },
    {
      "inputs": [
        {
          "internalType": "uint256",
          "name": "_amt",
          "type": "uint256"
        }
      ],
      "name": "withdraw",
      "outputs": [
        {
          "internalType": "uint256",
          "name": "",
          "type": "uint256"
        }
      ],
      "stateMutability": "nonpayable",
      "type": "function"
    },
    {
      "inputs": [
        {
          "internalType": "uint256",
          "name": "_amt",
          "type": "uint256"
        },
        {
          "internalType": "address",
          "name": "_from",
          "type": "address"
        },
        {
          "internalType": "address",
          "name": "_to",
          "type": "address"
        }
      ],
      "name": "withdrawFor",
      "outputs": [
        {
          "internalType": "uint256",
          "name": "",
          "type": "uint256"
        }
      ],
      "stateMutability": "nonpayable",
      "type": "function"
    }
  ],
  "bytecode": {
    "object": "0x608060405234801561001057600080fd5b5061628f80620000216000396000f3fe60806040526004361061036a5760003560e01c806373b295c2116101c4578063c5c70035116100f6578063e0794ec51161009a578063e9ec2e991161006c578063e9ec2e9914610a84578063f2fde38b14610a99578063f69e204614610ab9578063f74877b514610ace57005b8063e0794ec514610a0f578063e32d5cf814610a24578063e74b981b14610a44578063e9d337b814610a6457005b8063d505accf116100d3578063d505accf146109a1578063db006a75146104b9578063dd62ed3e146109c1578063dfa2b901146109f957005b8063c5c7003514610954578063cb8dd1d71461096c578063cc6e81121461098157005b806395d89b4111610168578063b35337931161013a578063b3533793146108db578063b3db428b146108f4578063b6b55f2514610914578063bf56700a1461093457005b806395d89b4114610870578063a0be06f914610885578063a57f8cb71461089b578063a9059cbb146108bb57005b80637ecebe00116101a15780637ecebe00146107ef57806385a393bb1461081c5780638da5cb5b146108325780639203430e1461085057005b806373b295c2146107945780637b5dbbdd146107b45780637bb7bed1146107cf57005b8063469048401161029d57806352f7c988116102415780636f307dc3116102135780636f307dc31461071257806370a0823114610732578063715018a61461075f57806373aeea361461077457005b806352f7c988146106455780635c0bfa8814610665578063600c557d14610685578063647f3430146106f257005b80634cdf03921161027a5780634cdf0392146105c55780634fb15b3f146105e5578063504a75de14610605578063515bc3231461062557005b8063469048401461057057806347e7ef24146105905780634a7e5cbb146105b057005b80631e9a69501161030f578063313ce567116102e1578063313ce567146104f957806334d441d0146105255780633644e5151461053b5780633d61b2861461055057005b80631e9a69501461047957806323b872dd146104995780632e1a7d4d146104b95780632faff427146104d957005b8063134b6edb11610348578063134b6edb146103e757806318160ddd1461041f57806319b333e5146104435780631e0b80531461045957005b8063026b49a71461036c57806306fdde031461038c578063095ea7b3146103b7575b005b34801561037857600080fd5b5061036a610387366004615562565b610aee565b34801561039857600080fd5b506103a1610b7c565b6040516103ae91906155cc565b60405180910390f35b3480156103c357600080fd5b506103d76103d23660046155df565b610c0a565b60405190151581526020016103ae565b3480156103f357600080fd5b5061040761040236600461560b565b610c77565b6040516001600160a01b0390911681526020016103ae565b34801561042b57600080fd5b5061043560035481565b6040519081526020016103ae565b34801561044f57600080fd5b5061043560d75481565b34801561046557600080fd5b5061036a61047436600461560b565b610ca7565b34801561048557600080fd5b506104356104943660046155df565b610d98565b3480156104a557600080fd5b506103d76104b4366004615624565b610eaf565b3480156104c557600080fd5b506104356104d436600461560b565b610fa3565b3480156104e557600080fd5b50606e54610407906001600160a01b031681565b34801561050557600080fd5b506002546105139060ff1681565b60405160ff90911681526020016103ae565b34801561053157600080fd5b5061043560db5481565b34801561054757600080fd5b50610435610faf565b34801561055c57600080fd5b5061043561056b36600461560b565b610fce565b34801561057c57600080fd5b5060d954610407906001600160a01b031681565b34801561059c57600080fd5b506104356105ab3660046155df565b6110ba565b3480156105bc57600080fd5b5060d654610435565b3480156105d157600080fd5b5061036a6105e0366004615708565b6112b4565b3480156105f157600080fd5b506104356106003660046157b0565b61145e565b34801561061157600080fd5b50610435610620366004615801565b611473565b34801561063157600080fd5b5061043561064036600461587b565b61149c565b34801561065157600080fd5b5061036a6106603660046158ce565b611552565b34801561067157600080fd5b506104356106803660046157b0565b6115d2565b34801561069157600080fd5b506106a56106a0366004615624565b611761565b604080516001600160a01b039889168152602081019790975294871694860194909452919094166060840152600f93840b6080840152830b60a083015290910b60c082015260e0016103ae565b3480156106fe57600080fd5b5061036a61070d366004615562565b6117f1565b34801561071e57600080fd5b5060d554610407906001600160a01b031681565b34801561073e57600080fd5b5061043561074d366004615562565b60046020526000908152604090205481565b34801561076b57600080fd5b5061036a61187a565b34801561078057600080fd5b5061036a61078f3660046158f0565b6118e0565b3480156107a057600080fd5b5060dd54610407906001600160a01b031681565b3480156107c057600080fd5b50610435662386f26fc1000081565b3480156107db57600080fd5b506104076107ea36600461560b565b611a33565b3480156107fb57600080fd5b5061043561080a366004615562565b60086020526000908152604090205481565b34801561082857600080fd5b5061043560d85481565b34801561083e57600080fd5b50603c546001600160a01b0316610407565b34801561085c57600080fd5b50607154610407906001600160a01b031681565b34801561087c57600080fd5b506103a1611a5d565b34801561089157600080fd5b5061043560da5481565b3480156108a757600080fd5b5061036a6108b6366004615562565b611a6a565b3480156108c757600080fd5b506103d76108d63660046155df565b611b79565b3480156108e757600080fd5b5061043564e8d4a5100081565b34801561090057600080fd5b5061043561090f366004615624565b611bf1565b34801561092057600080fd5b5061043561092f36600461560b565b611e37565b34801561094057600080fd5b5061036a61094f366004615985565b611e43565b34801561096057600080fd5b506104356305f5e10081565b34801561097857600080fd5b50610435611ed8565b34801561098d57600080fd5b5060dc54610407906001600160a01b031681565b3480156109ad57600080fd5b5061036a6109bc3660046159be565b611f7e565b3480156109cd57600080fd5b506104356109dc366004615985565b600560209081526000928352604080842090915290825290205481565b348015610a0557600080fd5b5061043560d45481565b348015610a1b57600080fd5b506104356121ec565b348015610a3057600080fd5b5061036a610a3f366004615624565b612293565b348015610a5057600080fd5b5061036a610a5f366004615562565b61237f565b348015610a7057600080fd5b50606f54610407906001600160a01b031681565b348015610a9057600080fd5b50610435612408565b348015610aa557600080fd5b5061036a610ab4366004615562565b612475565b348015610ac557600080fd5b50610435612557565b348015610ada57600080fd5b5061036a610ae936600461560b565b6125c3565b603c546001600160a01b03163314610b4d5760405162461bcd60e51b815260206004820181905260248201527f4f776e61626c653a2063616c6c6572206973206e6f7420746865206f776e657260448201526064015b60405180910390fd5b606e805473ffffffffffffffffffffffffffffffffffffffff19166001600160a01b0392909216919091179055565b60008054610b8990615a2f565b80601f0160208091040260200160405190810160405280929190818152602001828054610bb590615a2f565b8015610c025780601f10610bd757610100808354040283529160200191610c02565b820191906000526020600020905b815481529060010190602001808311610be557829003601f168201915b505050505081565b3360008181526005602090815260408083206001600160a01b038716808552925280832085905551919290917f8c5be1e5ebec7d5bd14f71427d1e84f3dd0314c0f7b2291e5b200ac8c7c3b92590610c659086815260200190565b60405180910390a35060015b92915050565b600060d68281548110610c8c57610c8c615a64565b6000918252602090912001546001600160a01b031692915050565b603c546001600160a01b03163314610d015760405162461bcd60e51b815260206004820181905260248201527f4f776e61626c653a2063616c6c6572206973206e6f7420746865206f776e65726044820152606401610b44565b60d6548110610d525760405162461bcd60e51b815260206004820152600d60248201527f4f7574206f6620626f756e6473000000000000000000000000000000000000006044820152606401610b44565b600060d68281548110610d6757610d67615a64565b9060005260206000200160006101000a8154816001600160a01b0302191690836001600160a01b0316021790555050565b6000600260a2541415610ded5760405162461bcd60e51b815260206004820152601f60248201527f5265656e7472616e637947756172643a207265656e7472616e742063616c6c006044820152606401610b44565b600260a25560d85460d754610e029190615a90565b421115610e1357610e11612622565b505b670de0b6b3a764000082610e25611ed8565b610e2f9190615aa8565b610e399190615ac7565b9050610e453383612b8d565b60d554610e5c906001600160a01b03168483612c09565b604080518281526020810184905233916001600160a01b0386169183917ffbde797d201c681b91056529119e0b02407c7bb96a4a2c75c01fc9667232c8db910160405180910390a4600160a25592915050565b6001600160a01b03831660009081526005602090815260408083203384529091528120546000198114610f0b57610ee68382615ae9565b6001600160a01b03861660009081526005602090815260408083203384529091529020555b6001600160a01b03851660009081526004602052604081208054859290610f33908490615ae9565b90915550506001600160a01b03808516600081815260046020526040908190208054870190555190918716907fddf252ad1be2c89b69c2b068fc378daa952ba7f163c4a11628f55a4df523b3ef90610f8e9087815260200190565b60405180910390a360019150505b9392505050565b6000610c713383610d98565b60006006544614610fc757610fc2612ca8565b905090565b5060075490565b6000600260a25414156110235760405162461bcd60e51b815260206004820152601f60248201527f5265656e7472616e637947756172643a207265656e7472616e742063616c6c006044820152606401610b44565b600260a255670de0b6b3a76400008261103a611ed8565b6110449190615aa8565b61104e9190615ac7565b905061105a3383612b8d565b60d554611071906001600160a01b03163383612c09565b60408051828152602081018490523391829182917ffbde797d201c681b91056529119e0b02407c7bb96a4a2c75c01fc9667232c8db910160405180910390a4600160a255919050565b6000600260a254141561110f5760405162461bcd60e51b815260206004820152601f60248201527f5265656e7472616e637947756172643a207265656e7472616e742063616c6c006044820152606401610b44565b600260a255816111615760405162461bcd60e51b815260206004820152600860248201527f3020746f6b656e730000000000000000000000000000000000000000000000006044820152606401610b44565b60d85460d7546111719190615a90565b42111561118257611180612622565b505b81670de0b6b3a7640000816111956121ec565b61119f9190615aa8565b6111a99190615ac7565b9150600354600014156111f35764e8d4a510008210156111c857600080fd5b60d9546111e2906001600160a01b03166305f5e100612d42565b6111f06305f5e10083615ae9565b91505b816112405760405162461bcd60e51b815260206004820152600a60248201527f30207265636569766564000000000000000000000000000000000000000000006044820152606401610b44565b60d554611258906001600160a01b0316333086612da6565b6112628483612d42565b60408051848152602081018490526001600160a01b0386169133917fdcbc1c05240f31ff3ad067ef1ee35ce4997762752e3a095284754544f4c709d7910160405180910390a350600160a25592915050565b60006112c06001612e52565b905080156112f557600980547fffffffffffffffffffffffffffffffffffffffffffffffffffffffffffff00ff166101001790555b6112fd612f8d565b611305613012565b61131187876012613097565b60d5805473ffffffffffffffffffffffffffffffffffffffff19166001600160a01b038a16908117909155604080517f313ce567000000000000000000000000000000000000000000000000000000008152905163313ce567916004808201926020929091908290030181865afa158015611390573d6000803e3d6000fd5b505050506040513d601f19601f820116820180604052508101906113b49190615b00565b60ff1660d4556113c48585611552565b60d883905560dd805473ffffffffffffffffffffffffffffffffffffffff19166001600160a01b038416179055801561145457600980547fffffffffffffffffffffffffffffffffffffffffffffffffffffffffffff00ff169055604051600181527f7f26b83ff96e1f2b6a682f133852f6798a09c465da95921460cefb38474024989060200160405180910390a15b5050505050505050565b600061146b8484846115d2565b949350505050565b600061148488338888888888611f7e565b61148f8989896115d2565b9998505050505050505050565b60d5546040517fd505accf000000000000000000000000000000000000000000000000000000008152336004820152306024820152604481018790526064810186905260ff8516608482015260a4810184905260c481018390526000916001600160a01b03169063d505accf9060e401600060405180830381600087803b15801561152657600080fd5b505af115801561153a573d6000803e3d6000fd5b5050505061154787611e37565b979650505050505050565b603c546001600160a01b031633146115ac5760405162461bcd60e51b815260206004820181905260248201527f4f776e61626c653a2063616c6c6572206973206e6f7420746865206f776e65726044820152606401610b44565b612710821080156115be575061271081105b6115c757600080fd5b60da9190915560db55565b6000600260a25414156116275760405162461bcd60e51b815260206004820152601f60248201527f5265656e7472616e637947756172643a207265656e7472616e742063616c6c006044820152606401610b44565b600260a25560d85460d75461163c9190615a90565b42111561164d5761164b612622565b505b6001600160a01b0383166000908152600560209081526040808320338452909152902054600019811480159061168c5750336001600160a01b03851614155b156116c05761169b8582615ae9565b6001600160a01b03851660009081526005602090815260408083203384529091529020555b670de0b6b3a7640000856116d2611ed8565b6116dc9190615aa8565b6116e69190615ac7565b91506116f28486612b8d565b60d554611709906001600160a01b03168484612c09565b60408051838152602081018790526001600160a01b03808716929086169133917ffbde797d201c681b91056529119e0b02407c7bb96a4a2c75c01fc9667232c8db910160405180910390a450600160a2559392505050565b6070602052826000526040600020602052816000526040600020818154811061178957600080fd5b60009182526020909120600690910201805460018201546002830154600384015460048501546005909501546001600160a01b039485169850929650908316945090911691600f81810b92700100000000000000000000000000000000909204810b91900b87565b603c546001600160a01b0316331461184b5760405162461bcd60e51b815260206004820181905260248201527f4f776e61626c653a2063616c6c6572206973206e6f7420746865206f776e65726044820152606401610b44565b60dc805473ffffffffffffffffffffffffffffffffffffffff19166001600160a01b0392909216919091179055565b603c546001600160a01b031633146118d45760405162461bcd60e51b815260206004820181905260248201527f4f776e61626c653a2063616c6c6572206973206e6f7420746865206f776e65726044820152606401610b44565b6118de60006130e2565b565b603c546001600160a01b0316331461193a5760405162461bcd60e51b815260206004820181905260248201527f4f776e61626c653a2063616c6c6572206973206e6f7420746865206f776e65726044820152606401610b44565b6001600160a01b038085166000908152607060209081526040808320938716835292905290812061196a91615417565b60005b818110156119ef576001600160a01b0380861660009081526070602090815260408083209388168352929052208383838181106119ac576119ac615a64565b83546001810185556000948552602090942060e0909102929092019260060290910190506119da8282615b39565b505080806119e790615cd8565b91505061196d565b507f01aa5c4f582e572c83ccd23ac58ee02c7e51aceb9d47d02987f31536b352992f84848484604051611a259493929190615cfe565b60405180910390a150505050565b60d68181548110611a4357600080fd5b6000918252602090912001546001600160a01b0316905081565b60018054610b8990615a2f565b603c546001600160a01b03163314611ac45760405162461bcd60e51b815260206004820181905260248201527f4f776e61626c653a2063616c6c6572206973206e6f7420746865206f776e65726044820152606401610b44565b6001600160a01b038116611b1a5760405162461bcd60e51b815260206004820152600960248201527f30206164647265737300000000000000000000000000000000000000000000006044820152606401610b44565b60d680546001810182556000919091527fe767803f8ecf1dee6bb0345811f7312cda556058b19db6389ad9ae3568643ddd01805473ffffffffffffffffffffffffffffffffffffffff19166001600160a01b0392909216919091179055565b33600090815260046020526040812080548391908390611b9a908490615ae9565b90915550506001600160a01b038316600081815260046020526040908190208054850190555133907fddf252ad1be2c89b69c2b068fc378daa952ba7f163c4a11628f55a4df523b3ef90610c659086815260200190565b6000600260a2541415611c465760405162461bcd60e51b815260206004820152601f60248201527f5265656e7472616e637947756172643a207265656e7472616e742063616c6c006044820152606401610b44565b600260a25560dc546001600160a01b03163314611ca55760405162461bcd60e51b815260206004820152600960248201527f424f7073206f6e6c7900000000000000000000000000000000000000000000006044820152606401610b44565b60008211611cf55760405162461bcd60e51b815260206004820152600860248201527f3020746f6b656e730000000000000000000000000000000000000000000000006044820152606401610b44565b60d85460d754611d059190615a90565b421115611d1657611d14612622565b505b81670de0b6b3a764000081611d296121ec565b611d339190615aa8565b611d3d9190615ac7565b915081611db25760405162461bcd60e51b815260206004820152603760248201527f4465706f73697420616d6f756e7420746f6f20736d616c6c2c20796f7520776960448201527f6c6c206765742030207265636569707420746f6b656e730000000000000000006064820152608401610b44565b60d554611dca906001600160a01b0316863086612da6565b611dd48483612d42565b836001600160a01b0316856001600160a01b03167fdcbc1c05240f31ff3ad067ef1ee35ce4997762752e3a095284754544f4c709d78585604051611e22929190918252602082015260400190565b60405180910390a350600160a2559392505050565b6000610c7133836110ba565b603c546001600160a01b03163314611e9d5760405162461bcd60e51b815260206004820181905260248201527f4f776e61626c653a2063616c6c6572206973206e6f7420746865206f776e65726044820152606401610b44565b606f80546001600160a01b0393841673ffffffffffffffffffffffffffffffffffffffff199182161790915560718054929093169116179055565b600060035460001415611ef35760d454610fc290600a615ed5565b60035460d5546040516370a0823160e01b81523060048201526001600160a01b03909116906370a0823190602401602060405180830381865afa158015611f3e573d6000803e3d6000fd5b505050506040513d601f19601f82011682018060405250810190611f629190615ee1565b611f7490670de0b6b3a7640000615aa8565b610fc29190615ac7565b42841015611fce5760405162461bcd60e51b815260206004820152601760248201527f5045524d49545f444541444c494e455f455850495245440000000000000000006044820152606401610b44565b60006001611fda610faf565b6001600160a01b038a811660008181526008602090815260409182902080546001810190915582517f6e71edae12b1b97f4d1f60370fef10105fa2faae0126114a169c64845d6126c98184015280840194909452938d166060840152608083018c905260a083019390935260c08083018b90528151808403909101815260e0830190915280519201919091207f19010000000000000000000000000000000000000000000000000000000000006101008301526101028201929092526101228101919091526101420160408051601f198184030181528282528051602091820120600084529083018083525260ff871690820152606081018590526080810184905260a0016020604051602081039080840390855afa158015612101573d6000803e3d6000fd5b5050604051601f1901519150506001600160a01b038116158015906121375750876001600160a01b0316816001600160a01b0316145b6121835760405162461bcd60e51b815260206004820152600e60248201527f494e56414c49445f5349474e45520000000000000000000000000000000000006044820152606401610b44565b6001600160a01b0390811660009081526005602090815260408083208a8516808552908352928190208990555188815291928a16917f8c5be1e5ebec7d5bd14f71427d1e84f3dd0314c0f7b2291e5b200ac8c7c3b925910160405180910390a350505050505050565b6000600354600014156122125760d454612207906024615ae9565b610fc290600a615ed5565b60d5546040516370a0823160e01b81523060048201526001600160a01b03909116906370a0823190602401602060405180830381865afa15801561225a573d6000803e3d6000fd5b505050506040513d601f19601f8201168201806040525081019061227e9190615ee1565b600354611f7490670de0b6b3a7640000615aa8565b603c546001600160a01b031633146122ed5760405162461bcd60e51b815260206004820181905260248201527f4f776e61626c653a2063616c6c6572206973206e6f7420746865206f776e65726044820152606401610b44565b6040517f095ea7b30000000000000000000000000000000000000000000000000000000081526001600160a01b0383811660048301526024820183905284169063095ea7b3906044016020604051808303816000875af1158015612355573d6000803e3d6000fd5b505050506040513d601f19601f820116820180604052508101906123799190615efa565b50505050565b603c546001600160a01b031633146123d95760405162461bcd60e51b815260206004820181905260248201527f4f776e61626c653a2063616c6c6572206973206e6f7420746865206f776e65726044820152606401610b44565b60d9805473ffffffffffffffffffffffffffffffffffffffff19166001600160a01b0392909216919091179055565b60d5546040516370a0823160e01b81523060048201526000916001600160a01b0316906370a0823190602401602060405180830381865afa158015612451573d6000803e3d6000fd5b505050506040513d601f19601f82011682018060405250810190610fc29190615ee1565b603c546001600160a01b031633146124cf5760405162461bcd60e51b815260206004820181905260248201527f4f776e61626c653a2063616c6c6572206973206e6f7420746865206f776e65726044820152606401610b44565b6001600160a01b03811661254b5760405162461bcd60e51b815260206004820152602660248201527f4f776e61626c653a206e6577206f776e657220697320746865207a65726f206160448201527f64647265737300000000000000000000000000000000000000000000000000006064820152608401610b44565b612554816130e2565b50565b6000600260a25414156125ac5760405162461bcd60e51b815260206004820152601f60248201527f5265656e7472616e637947756172643a207265656e7472616e742063616c6c006044820152606401610b44565b600260a2556125b9612622565b9050600160a25590565b603c546001600160a01b0316331461261d5760405162461bcd60e51b815260206004820181905260248201527f4f776e61626c653a2063616c6c6572206973206e6f7420746865206f776e65726044820152606401610b44565b60d855565b60d5544260d7556000906001600160a01b03168161263e612408565b905060005b60d6548110156129395760006001600160a01b031660d6828154811061266b5761266b615a64565b6000918252602090912001546001600160a01b03161461292757826001600160a01b031660d682815481106126a2576126a2615a64565b6000918252602090912001546001600160a01b031614156126c257612927565b60016001600160a01b031660d682815481106126e0576126e0615a64565b6000918252602090912001546001600160a01b031614156127975747662386f26fc100008111156127915760dd60009054906101000a90046001600160a01b03166001600160a01b031663d0e30db0826040518263ffffffff1660e01b81526004016000604051808303818588803b15801561275b57600080fd5b505af115801561276f573d6000803e3d6000fd5b505060dd5461278f93506001600160a01b03169150869050836000613141565b505b50612927565b600060d682815481106127ac576127ac615a64565b6000918252602090912001546040516370a0823160e01b81523060048201526001600160a01b03909116906370a0823190602401602060405180830381865afa1580156127fd573d6000803e3d6000fd5b505050506040513d601f19601f820116820180604052508101906128219190615ee1565b9050662386f26fc1000060d6838154811061283e5761283e615a64565b60009182526020918290200154604080517f313ce56700000000000000000000000000000000000000000000000000000000815290516001600160a01b039092169263313ce567926004808401938290030181865afa1580156128a5573d6000803e3d6000fd5b505050506040513d601f19601f820116820180604052508101906128c99190615b00565b6128d4906012615f1c565b6128df90600a615f3f565b6128e99083615aa8565b11156129255761292360d6838154811061290557612905615a64565b60009182526020822001546001600160a01b03169086908490613141565b505b505b8061293181615cd8565b915050612643565b506000612944612408565b905060006129528383615ae9565b90508015612b865760d5546040516370a0823160e01b815230600482015260009184916001600160a01b03909116906370a0823190602401602060405180830381865afa1580156129a7573d6000803e3d6000fd5b505050506040513d601f19601f820116820180604052508101906129cb9190615ee1565b6129d59084615aa8565b6129df9190615ac7565b9050600061271060da54836129f49190615aa8565b6129fe9190615ac7565b9050600061271060db5484612a139190615aa8565b612a1d9190615ac7565b60d55460d954919250612a3d916001600160a01b03918216911684612c09565b60d554612a54906001600160a01b03163383612c09565b60408051338152602081018890529081018690527f7595de4054dcab05a338b0855bb2e6155c81172fc76a0cdc037724df4d7e1c4f9060600160405180910390a160d954604080516001600160a01b039092168252602082018490527f4160cbc62d82681031bd44dffd104f752175f93f9b3c78a5a8f0867c667ee918910160405180910390a160408051338152602081018390527f97c227f091684bc53502ee6cf0e3bd656721fdbe9f1b9fddf678b8979efb5a26910160405180910390a160d5546040516370a0823160e01b8152306004820152612b82916001600160a01b0316906370a0823190602401602060405180830381865afa158015612b5e573d6000803e3d6000fd5b505050506040513d601f19601f820116820180604052508101906125549190615ee1565b5050505b5050505090565b6001600160a01b03821660009081526004602052604081208054839290612bb5908490615ae9565b90915550506003805482900390556040518181526000906001600160a01b038416907fddf252ad1be2c89b69c2b068fc378daa952ba7f163c4a11628f55a4df523b3ef906020015b60405180910390a35050565b60006040517fa9059cbb000000000000000000000000000000000000000000000000000000008152836004820152826024820152602060006044836000895af13d15601f3d11600160005114161716915050806123795760405162461bcd60e51b815260206004820152600f60248201527f5452414e534645525f4641494c454400000000000000000000000000000000006044820152606401610b44565b60007f8b73c3c69bb8fe3d512ecc4cf759cc79239f7b179b0ffacaa9a75d522b39400f6000604051612cda9190615f4e565b6040805191829003822060208301939093528101919091527fc89efdaa54c0f20c7adf612882df0950f5a951637e0307cdcb4c672f298b8bc660608201524660808201523060a082015260c00160405160208183030381529060405280519060200120905090565b8060036000828254612d549190615a90565b90915550506001600160a01b0382166000818152600460209081526040808320805486019055518481527fddf252ad1be2c89b69c2b068fc378daa952ba7f163c4a11628f55a4df523b3ef9101612bfd565b60006040517f23b872dd0000000000000000000000000000000000000000000000000000000081528460048201528360248201528260448201526020600060648360008a5af13d15601f3d1160016000511416171691505080612e4b5760405162461bcd60e51b815260206004820152601460248201527f5452414e534645525f46524f4d5f4641494c45440000000000000000000000006044820152606401610b44565b5050505050565b600954600090610100900460ff1615612ef1578160ff166001148015612e775750303b155b612ee95760405162461bcd60e51b815260206004820152602e60248201527f496e697469616c697a61626c653a20636f6e747261637420697320616c72656160448201527f647920696e697469616c697a65640000000000000000000000000000000000006064820152608401610b44565b506000919050565b60095460ff808416911610612f6e5760405162461bcd60e51b815260206004820152602e60248201527f496e697469616c697a61626c653a20636f6e747261637420697320616c72656160448201527f647920696e697469616c697a65640000000000000000000000000000000000006064820152608401610b44565b506009805460ff191660ff92909216919091179055600190565b919050565b600954610100900460ff1661300a5760405162461bcd60e51b815260206004820152602b60248201527f496e697469616c697a61626c653a20636f6e7472616374206973206e6f74206960448201527f6e697469616c697a696e670000000000000000000000000000000000000000006064820152608401610b44565b6118de6139f7565b600954610100900460ff1661308f5760405162461bcd60e51b815260206004820152602b60248201527f496e697469616c697a61626c653a20636f6e7472616374206973206e6f74206960448201527f6e697469616c697a696e670000000000000000000000000000000000000000006064820152608401610b44565b6118de613a7d565b82516130aa906000906020860190615438565b5081516130be906001906020850190615438565b506002805460ff191660ff8316179055466006556130da612ca8565b600755505050565b603c80546001600160a01b0383811673ffffffffffffffffffffffffffffffffffffffff19831681179093556040519116919082907f8be0079c531659141344cd1fd0a4f28419497f9722a3daafe3b4186f6b6457e090600090a35050565b6040516370a0823160e01b815230600482015260009081906001600160a01b038616906370a0823190602401602060405180830381865afa15801561318a573d6000803e3d6000fd5b505050506040513d601f19601f820116820180604052508101906131ae9190615ee1565b6001600160a01b038088166000908152607060209081526040808320938a1683529281528282208054845181840281018401909552808552949550919390849084015b8282101561328c5760008481526020908190206040805160e0810182526006860290920180546001600160a01b03908116845260018083015485870152600283015482169385019390935260038201541660608401526004810154600f81810b6080860152700100000000000000000000000000000000909104810b60a0850152600590910154900b60c083015290835290920191016131f1565b505050509050600085905060008251116132e85760405162461bcd60e51b815260206004820152600e60248201527f4e6f20726f75746520666f756e640000000000000000000000000000000000006044820152606401610b44565b60005b825181101561389d5782818151811061330657613306615a64565b602002602001015160200151600114156133845761337d83828151811061332f5761332f615a64565b60200260200101516000015184838151811061334d5761334d615a64565b60200260200101516040015185848151811061336b5761336b615a64565b6020026020010151606001518a613b01565b965061388b565b82818151811061339657613396615a64565b6020026020010151602001516002141561348c578281815181106133bc576133bc615a64565b6020026020010151600001516001600160a01b03168382815181106133e3576133e3615a64565b6020026020010151604001516001600160a01b031614156134455761337d83828151811061341357613413615a64565b60200260200101516060015184838151811061343157613431615a64565b602002602001015160000151896001613c7b565b61337d83828151811061345a5761345a615a64565b60200260200101516040015184838151811061347857613478615a64565b602002602001015160000151896000613c7b565b82818151811061349e5761349e615a64565b6020026020010151602001516003141561356f5761337d8382815181106134c7576134c7615a64565b6020026020010151604001518483815181106134e5576134e5615a64565b60200260200101516060015185848151811061350357613503615a64565b6020026020010151600001518a87868151811061352257613522615a64565b60200260200101516080015188878151811061354057613540615a64565b602002602001015160a0015189888151811061355e5761355e615a64565b602002602001015160c001516142b7565b82818151811061358157613581615a64565b602002602001015160200151600414156135d15761337d60016001600160a01b03168483815181106135b5576135b5615a64565b6020026020010151604001516001600160a01b031614886149f0565b8281815181106135e3576135e3615a64565b6020026020010151602001516005141561363c5761337d83828151811061360c5761360c615a64565b60200260200101516040015184838151811061362a5761362a615a64565b60200260200101516000015189614aea565b82818151811061364e5761364e615a64565b6020026020010151602001516006141561376d5761337d83828151811061367757613677615a64565b6020026020010151600001516001600160a01b031684838151811061369e5761369e615a64565b6020026020010151604001516001600160a01b0316146136db578382815181106136ca576136ca615a64565b6020026020010151604001516136fa565b8382815181106136ed576136ed615a64565b6020026020010151606001515b8885848151811061370d5761370d615a64565b6020026020010151600001516001600160a01b031686858151811061373457613734615a64565b6020026020010151604001516001600160a01b03161486858151811061375c5761375c615a64565b602002602001015160800151614c60565b82818151811061377f5761377f615a64565b602002602001015160200151600714156137d85761337d8382815181106137a8576137a8615a64565b6020026020010151604001518483815181106137c6576137c6615a64565b60200260200101516000015189614e67565b8281815181106137ea576137ea615a64565b602002602001015160200151600814156138435761337d83828151811061381357613813615a64565b60200260200101516040015184838151811061383157613831615a64565b602002602001015160000151896150a2565b60405162461bcd60e51b815260206004820152601160248201527f556e6b6e6f776e206e6f646520747970650000000000000000000000000000006044820152606401610b44565b8061389581615cd8565b9150506132eb565b506040516370a0823160e01b815230600482015260009084906001600160a01b038a16906370a0823190602401602060405180830381865afa1580156138e7573d6000803e3d6000fd5b505050506040513d601f19601f8201168201806040525081019061390b9190615ee1565b6139159190615ae9565b90508581101561398d5760405162461bcd60e51b815260206004820152603560248201527f446964206e6f74207265636569766520656e6f75676820746f6b656e7320746f60448201527f206163636f756e7420666f7220736c69707061676500000000000000000000006064820152608401610b44565b604080513381526001600160a01b038b811660208301528a1681830152606081018490526080810188905260a0810183905290517fd6d34547c69c5ee3d2667625c188acf1006abb93e0ee7cf03925c67cf77604139181900360c00190a198975050505050505050565b600954610100900460ff16613a745760405162461bcd60e51b815260206004820152602b60248201527f496e697469616c697a61626c653a20636f6e7472616374206973206e6f74206960448201527f6e697469616c697a696e670000000000000000000000000000000000000000006064820152608401610b44565b6118de336130e2565b600954610100900460ff16613afa5760405162461bcd60e51b815260206004820152602b60248201527f496e697469616c697a61626c653a20636f6e7472616374206973206e6f74206960448201527f6e697469616c697a696e670000000000000000000000000000000000000000006064820152608401610b44565b600160a255565b6000613b0e848684612c09565b600080600080886001600160a01b0316630902f1ac6040518163ffffffff1660e01b8152600401606060405180830381865afa158015613b52573d6000803e3d6000fd5b505050506040513d601f19601f82011682018060405250810190613b769190616008565b506dffffffffffffffffffffffffffff1691506dffffffffffffffffffffffffffff169150866001600160a01b0316886001600160a01b03161015613bc757613bc0868383615165565b9250613bd5565b613bd2868284615165565b93505b604080516000815260208101918290527f022c0d9f000000000000000000000000000000000000000000000000000000009091526001600160a01b038a169063022c0d9f90613c2d908790879030906024810161604d565b600060405180830381600087803b158015613c4757600080fd5b505af1158015613c5b573d6000803e3d6000fd5b505050508360001415613c6e578261148f565b5091979650505050505050565b600080846001600160a01b0316630dfe16816040518163ffffffff1660e01b8152600401602060405180830381865afa158015613cbc573d6000803e3d6000fd5b505050506040513d601f19601f82011682018060405250810190613ce09190616085565b90506000856001600160a01b031663d21220a76040518163ffffffff1660e01b8152600401602060405180830381865afa158015613d22573d6000803e3d6000fd5b505050506040513d601f19601f82011682018060405250810190613d469190616085565b90508315613fc757606e546040517fbaa2abde0000000000000000000000000000000000000000000000000000000081526001600160a01b03848116600483015283811660248301526044820188905260006064830181905260848301523060a48301524260c48301529091169063baa2abde9060e40160408051808303816000875af1158015613ddb573d6000803e3d6000fd5b505050506040513d601f19601f82011682018060405250810190613dff91906160a2565b5050866001600160a01b0316826001600160a01b03161415613e99576040516370a0823160e01b8152306004820152613e93908790839085906001600160a01b038316906370a08231906024015b602060405180830381865afa158015613e6a573d6000803e3d6000fd5b505050506040513d601f19601f82011682018060405250810190613e8e9190615ee1565b613b01565b50613f56565b866001600160a01b0316816001600160a01b03161415613ee9576040516370a0823160e01b8152306004820152613e93908790849084906001600160a01b038316906370a0823190602401613e4d565b60405162461bcd60e51b8152602060048201526024808201527f746f6b656e4f7574206973206e6f74206120746f6b656e205f696e207468652060448201527f70616972000000000000000000000000000000000000000000000000000000006064820152608401610b44565b6040516370a0823160e01b81523060048201526001600160a01b038816906370a0823190602401602060405180830381865afa158015613f9a573d6000803e3d6000fd5b505050506040513d601f19601f82011682018060405250810190613fbe9190615ee1565b9250505061146b565b6000806000886001600160a01b0316630902f1ac6040518163ffffffff1660e01b8152600401606060405180830381865afa15801561400a573d6000803e3d6000fd5b505050506040513d601f19601f8201168201806040525081019061402e9190616008565b925092509250896001600160a01b0316856001600160a01b031614156142095761406e898b86613e8e876dffffffffffffffffffffffffffff168d6152a1565b50606e546040516370a0823160e01b81523060048201526001600160a01b039182169163e8e337009188918891908316906370a0823190602401602060405180830381865afa1580156140c5573d6000803e3d6000fd5b505050506040513d601f19601f820116820180604052508101906140e99190615ee1565b6040516370a0823160e01b81523060048201526001600160a01b038a16906370a0823190602401602060405180830381865afa15801561412d573d6000803e3d6000fd5b505050506040513d601f19601f820116820180604052508101906141519190615ee1565b6040517fffffffff0000000000000000000000000000000000000000000000000000000060e087901b1681526001600160a01b0394851660048201529390921660248401526044830152606482015260006084820181905260a48201523060c48201524260e4820152610104016060604051808303816000875af11580156141dd573d6000803e3d6000fd5b505050506040513d601f19601f8201168201806040525081019061420191906160c6565b505050614243565b896001600160a01b0316846001600160a01b03161415613ee95761406e898b87613e8e866dffffffffffffffffffffffffffff168d6152a1565b6040516370a0823160e01b81523060048201526001600160a01b038a16906370a0823190602401602060405180830381865afa158015614287573d6000803e3d6000fd5b505050506040513d601f19601f820116820180604052508101906142ab9190615ee1565b9550505050505061146b565b60008084600f0b12156146d05781600f0b60001914156145c7576142da846160f4565b9350600084600f0b67ffffffffffffffff8111156142fa576142fa615665565b604051908082528060200260200182016040528015614323578160200160208202803683370190505b509050858185600f0b8151811061433c5761433c615a64565b60200260200101818152505084600f0b6002141561441557866001600160a01b0316630b4c7e4d60405180604001604052808460008151811061438157614381615a64565b60200260200101518152602001846001815181106143a1576143a1615a64565b602002602001015181525060006040518363ffffffff1660e01b81526004016143cb929190616156565b6020604051808303816000875af11580156143ea573d6000803e3d6000fd5b505050506040513d601f19601f8201168201806040525081019061440e9190615ee1565b91506145c1565b84600f0b600314156144b857866001600160a01b0316634515cef360405180606001604052808460008151811061444e5761444e615a64565b602002602001015181526020018460018151811061446e5761446e615a64565b602002602001015181526020018460028151811061448e5761448e615a64565b602002602001015181525060006040518363ffffffff1660e01b81526004016143cb929190616194565b84600f0b600414156145c157866001600160a01b031663029b2f346040518060800160405280846000815181106144f1576144f1615a64565b602002602001015181526020018460018151811061451157614511615a64565b602002602001015181526020018460028151811061453157614531615a64565b602002602001015181526020018460038151811061455157614551615a64565b602002602001015181525060006040518363ffffffff1660e01b815260040161457b9291906161d2565b6020604051808303816000875af115801561459a573d6000803e3d6000fd5b505050506040513d601f19601f820116820180604052508101906145be9190615ee1565b91505b50611547565b82600f0b6000191415614671576040517f1a4d01d200000000000000000000000000000000000000000000000000000000815260048101869052600f83900b6024820152600060448201526001600160a01b03871690631a4d01d2906064015b6020604051808303816000875af1158015614646573d6000803e3d6000fd5b505050506040513d601f19601f8201168201806040525081019061466a9190615ee1565b9050611547565b6040517f3df02124000000000000000000000000000000000000000000000000000000008152600f84810b600483015283900b602482015260448101869052600060648201526001600160a01b03871690633df0212490608401614627565b600084600f0b13156115475781600f0b600019141561494757600084600f0b67ffffffffffffffff81111561470757614707615665565b604051908082528060200260200182016040528015614730578160200160208202803683370190505b509050858185600f0b8151811061474957614749615a64565b60200260200101818152505084600f0b600214156147db57866001600160a01b031663ee22be2360405180604001604052808460008151811061478e5761478e615a64565b60200260200101518152602001846001815181106147ae576147ae615a64565b6020026020010151815250600060016040518463ffffffff1660e01b81526004016143cb939291906161ed565b84600f0b6003141561488157866001600160a01b0316632b6e993a60405180606001604052808460008151811061481457614814615a64565b602002602001015181526020018460018151811061483457614834615a64565b602002602001015181526020018460028151811061485457614854615a64565b6020026020010151815250600060016040518463ffffffff1660e01b81526004016143cb93929190616211565b84600f0b600414156145c157866001600160a01b031663dc3a2d816040518060800160405280846000815181106148ba576148ba615a64565b60200260200101518152602001846001815181106148da576148da615a64565b60200260200101518152602001846002815181106148fa576148fa615a64565b602002602001015181526020018460038151811061491a5761491a615a64565b6020026020010151815250600060016040518463ffffffff1660e01b815260040161457b93929190616235565b6040517fa6417ed6000000000000000000000000000000000000000000000000000000008152600f84810b600483015283900b602482015260448101869052600060648201526001600160a01b0387169063a6417ed6906084016020604051808303816000875af11580156149c0573d6000803e3d6000fd5b505050506040513d601f19601f820116820180604052508101906149e49190615ee1565b98975050505050505050565b60008215614a655773b31f66aa3c1e785363f0875a1b74e27b85fd66c76001600160a01b031663d0e30db0836040518263ffffffff1660e01b81526004016000604051808303818588803b158015614a4757600080fd5b505af1158015614a5b573d6000803e3d6000fd5b5050505050614ae4565b6040517f2e1a7d4d0000000000000000000000000000000000000000000000000000000081526004810183905273b31f66aa3c1e785363f0875a1b74e27b85fd66c790632e1a7d4d90602401600060405180830381600087803b158015614acb57600080fd5b505af1158015614adf573d6000803e3d6000fd5b505050505b50919050565b6000826001600160a01b0316846001600160a01b03161415614b9b576040517fdb006a75000000000000000000000000000000000000000000000000000000008152600481018390526001600160a01b0384169063db006a75906024016020604051808303816000875af1158015614b66573d6000803e3d6000fd5b505050506040513d601f19601f82011682018060405250810190614b8a9190615ee1565b15614b9457600080fd5b5047610f9c565b826001600160a01b0316631249c58b836040518263ffffffff1660e01b81526004016000604051808303818588803b158015614bd657600080fd5b505af1158015614bea573d6000803e3d6000fd5b50506040516370a0823160e01b81523060048201526001600160a01b03871693506370a08231925060240190505b602060405180830381865afa158015614c35573d6000803e3d6000fd5b505050506040513d601f19601f82011682018060405250810190614c599190615ee1565b9050610f9c565b600081600f0b60031415614daa578215614d15576071546040517f69328dec0000000000000000000000000000000000000000000000000000000081526001600160a01b03878116600483015260248201879052306044830152909116906369328dec906064015b6020604051808303816000875af1158015614ce7573d6000803e3d6000fd5b505050506040513d601f19601f82011682018060405250810190614d0b9190615ee1565b935083905061146b565b6071546040517f617ba0370000000000000000000000000000000000000000000000000000000081526001600160a01b03878116600483015260248201879052306044830152600060648301529091169063617ba037906084015b600060405180830381600087803b158015614d8a57600080fd5b505af1158015614d9e573d6000803e3d6000fd5b5050505083905061146b565b8215614e0857606f546040517f69328dec0000000000000000000000000000000000000000000000000000000081526001600160a01b03878116600483015260248201879052306044830152909116906369328dec90606401614cc8565b606f546040517fe8eda9df0000000000000000000000000000000000000000000000000000000081526001600160a01b03878116600483015260248201879052306044830152600060648301529091169063e8eda9df90608401614d70565b6000826001600160a01b0316846001600160a01b03161415614fe8576040517fdb006a75000000000000000000000000000000000000000000000000000000008152600481018390526001600160a01b0384169063db006a75906024016020604051808303816000875af1158015614ee3573d6000803e3d6000fd5b505050506040513d601f19601f82011682018060405250810190614f079190615ee1565b15614f1157600080fd5b6000836001600160a01b0316636f307dc36040518163ffffffff1660e01b8152600401602060405180830381865afa158015614f51573d6000803e3d6000fd5b505050506040513d601f19601f82011682018060405250810190614f759190616085565b6040516370a0823160e01b81523060048201529091506001600160a01b038216906370a0823190602401602060405180830381865afa158015614fbc573d6000803e3d6000fd5b505050506040513d601f19601f82011682018060405250810190614fe09190615ee1565b915050610f9c565b6040517fa0712d68000000000000000000000000000000000000000000000000000000008152600481018390526001600160a01b0384169063a0712d68906024016020604051808303816000875af1158015615048573d6000803e3d6000fd5b505050506040513d601f19601f8201168201806040525081019061506c9190615ee1565b1561507657600080fd5b6040516370a0823160e01b81523060048201526001600160a01b038416906370a0823190602401614c18565b6000826001600160a01b0316846001600160a01b0316141561511f576040517fdb006a75000000000000000000000000000000000000000000000000000000008152600481018390526001600160a01b0384169063db006a75906024015b6020604051808303816000875af1158015614c35573d6000803e3d6000fd5b6040517fb6b55f25000000000000000000000000000000000000000000000000000000008152600481018390526001600160a01b0384169063b6b55f2590602401615100565b60008084116151dc5760405162461bcd60e51b815260206004820152602b60248201527f556e697377617056324c6962726172793a20494e53554646494349454e545f4960448201527f4e5055545f414d4f554e540000000000000000000000000000000000000000006064820152608401610b44565b6000831180156151ec5750600082115b61525e5760405162461bcd60e51b815260206004820152602860248201527f556e697377617056324c6962726172793a20494e53554646494349454e545f4c60448201527f49515549444954590000000000000000000000000000000000000000000000006064820152608401610b44565b600061526c6103e586615aa8565b9050600061527a8483615aa8565b905060008261528b6103e888615aa8565b6152959190615a90565b90506115478183615ac7565b600080620f2ad96152b585620f3c64615aa8565b6152bf9190615ac7565b905060006152cd8580615aa8565b6152da90623cda29615aa8565b856152e886623cab64615aa8565b6152f29190615aa8565b6152fc9190615a90565b905081620f2ad961530c83615335565b615318906101f4615aa8565b6153229190615ac7565b61532c9190615ae9565b95945050505050565b600181700100000000000000000000000000000000811061535b5760409190911b9060801c5b6801000000000000000081106153765760209190911b9060401c5b640100000000811061538d5760109190911b9060201c5b6201000081106153a25760089190911b9060101c5b61010081106153b65760049190911b9060081c5b601081106153c95760029190911b9060041c5b600881106153d8578160011b91505b5080820401600190811c80830401811c80830401811c80830401811c80830401811c80830401811c80830401901c80820481811015614ae45792915050565b508054600082556006029060005260206000209081019061255491906154bc565b82805461544490615a2f565b90600052602060002090601f01602090048101928261546657600085556154ac565b82601f1061547f57805160ff19168380011785556154ac565b828001600101855582156154ac579182015b828111156154ac578251825591602001919060010190615491565b506154b8929150615538565b5090565b5b808211156154b857805473ffffffffffffffffffffffffffffffffffffffff1990811682556000600183018190556002830180548316905560038301805490921690915560048201556005810180547fffffffffffffffffffffffffffffffff000000000000000000000000000000001690556006016154bd565b5b808211156154b85760008155600101615539565b6001600160a01b038116811461255457600080fd5b60006020828403121561557457600080fd5b8135610f9c8161554d565b6000815180845260005b818110156155a557602081850181015186830182015201615589565b818111156155b7576000602083870101525b50601f01601f19169290920160200192915050565b602081526000610f9c602083018461557f565b600080604083850312156155f257600080fd5b82356155fd8161554d565b946020939093013593505050565b60006020828403121561561d57600080fd5b5035919050565b60008060006060848603121561563957600080fd5b83356156448161554d565b925060208401356156548161554d565b929592945050506040919091013590565b634e487b7160e01b600052604160045260246000fd5b600082601f83011261568c57600080fd5b813567ffffffffffffffff808211156156a7576156a7615665565b604051601f8301601f19908116603f011681019082821181831017156156cf576156cf615665565b816040528381528660208588010111156156e857600080fd5b836020870160208301376000602085830101528094505050505092915050565b600080600080600080600060e0888a03121561572357600080fd5b873561572e8161554d565b9650602088013567ffffffffffffffff8082111561574b57600080fd5b6157578b838c0161567b565b975060408a013591508082111561576d57600080fd5b5061577a8a828b0161567b565b955050606088013593506080880135925060a0880135915060c08801356157a08161554d565b8091505092959891949750929550565b6000806000606084860312156157c557600080fd5b8335925060208401356157d78161554d565b915060408401356157e78161554d565b809150509250925092565b60ff8116811461255457600080fd5b600080600080600080600080610100898b03121561581e57600080fd5b8835975060208901356158308161554d565b965060408901356158408161554d565b9550606089013594506080890135935060a089013561585e816157f2565b979a969950949793969295929450505060c08201359160e0013590565b60008060008060008060c0878903121561589457600080fd5b86359550602087013594506040870135935060608701356158b4816157f2565b9598949750929560808101359460a0909101359350915050565b600080604083850312156158e157600080fd5b50508035926020909101359150565b6000806000806060858703121561590657600080fd5b84356159118161554d565b935060208501356159218161554d565b9250604085013567ffffffffffffffff8082111561593e57600080fd5b818701915087601f83011261595257600080fd5b81358181111561596157600080fd5b88602060e08302850101111561597657600080fd5b95989497505060200194505050565b6000806040838503121561599857600080fd5b82356159a38161554d565b915060208301356159b38161554d565b809150509250929050565b600080600080600080600060e0888a0312156159d957600080fd5b87356159e48161554d565b965060208801356159f48161554d565b955060408801359450606088013593506080880135615a12816157f2565b9699959850939692959460a0840135945060c09093013592915050565b600181811c90821680615a4357607f821691505b60208210811415614ae457634e487b7160e01b600052602260045260246000fd5b634e487b7160e01b600052603260045260246000fd5b634e487b7160e01b600052601160045260246000fd5b60008219821115615aa357615aa3615a7a565b500190565b6000816000190483118215151615615ac257615ac2615a7a565b500290565b600082615ae457634e487b7160e01b600052601260045260246000fd5b500490565b600082821015615afb57615afb615a7a565b500390565b600060208284031215615b1257600080fd5b8151610f9c816157f2565b80600f0b811461255457600080fd5b60008135610c7181615b1d565b8135615b448161554d565b815473ffffffffffffffffffffffffffffffffffffffff19166001600160a01b03821617825550602082013560018201556040820135615b838161554d565b60028201805473ffffffffffffffffffffffffffffffffffffffff19166001600160a01b038316179055506060820135615bbc8161554d565b60038201805473ffffffffffffffffffffffffffffffffffffffff19166001600160a01b03831617905550600481016080830135615bf981615b1d565b81547fffffffffffffffffffffffffffffffff00000000000000000000000000000000166fffffffffffffffffffffffffffffffff82161782555060a0830135615c4281615b1d565b81546fffffffffffffffffffffffffffffffff1660809190911b7fffffffffffffffffffffffffffffffff0000000000000000000000000000000016179055615cd4615c9060c08401615b2c565b600583017fffffffffffffffffffffffffffffffff00000000000000000000000000000000815416826fffffffffffffffffffffffffffffffff1681178255505050565b5050565b6000600019821415615cec57615cec615a7a565b5060010190565b8035612f8881615b1d565b600060608083016001600160a01b03808916855260208189168187015260408481880152838885526080945084880190508960005b8a811015615ddf578135615d468161554d565b86168352818501358584015283820135615d5f8161554d565b86168385015281880135615d728161554d565b861683890152615d83828801615cf3565b615d9188850182600f0b9052565b5060a0615d9f818401615cf3565b615dad82860182600f0b9052565b505060c0615dbc818401615cf3565b615dca82860182600f0b9052565b505060e0928301929190910190600101615d33565b50909c9b505050505050505050505050565b600181815b80851115615e2c578160001904821115615e1257615e12615a7a565b80851615615e1f57918102915b93841c9390800290615df6565b509250929050565b600082615e4357506001610c71565b81615e5057506000610c71565b8160018114615e665760028114615e7057615e8c565b6001915050610c71565b60ff841115615e8157615e81615a7a565b50506001821b610c71565b5060208310610133831016604e8410600b8410161715615eaf575081810a610c71565b615eb98383615df1565b8060001904821115615ecd57615ecd615a7a565b029392505050565b6000610f9c8383615e34565b600060208284031215615ef357600080fd5b5051919050565b600060208284031215615f0c57600080fd5b81518015158114610f9c57600080fd5b600060ff821660ff841680821015615f3657615f36615a7a565b90039392505050565b6000610f9c60ff841683615e34565b600080835481600182811c915080831680615f6a57607f831692505b6020808410821415615f8a57634e487b7160e01b86526022600452602486fd5b818015615f9e5760018114615faf57615fdc565b60ff19861689528489019650615fdc565b60008a81526020902060005b86811015615fd45781548b820152908501908301615fbb565b505084890196505b509498975050505050505050565b80516dffffffffffffffffffffffffffff81168114612f8857600080fd5b60008060006060848603121561601d57600080fd5b61602684615fea565b925061603460208501615fea565b9150604084015163ffffffff811681146157e757600080fd5b8481528360208201526001600160a01b038316604082015260806060820152600061607b608083018461557f565b9695505050505050565b60006020828403121561609757600080fd5b8151610f9c8161554d565b600080604083850312156160b557600080fd5b505080516020909101519092909150565b6000806000606084860312156160db57600080fd5b8351925060208401519150604084015190509250925092565b600081600f0b7fffffffffffffffffffffffffffffffff8000000000000000000000000000000081141561612a5761612a615a7a565b60000392915050565b8060005b6002811015612379578151845260209384019390910190600101616137565b606081016161648285616133565b8260408301529392505050565b8060005b6003811015612379578151845260209384019390910190600101616175565b608081016161a28285616171565b8260608301529392505050565b8060005b60048110156123795781518452602093840193909101906001016161b3565b60a081016161e082856161af565b8260808301529392505050565b608081016161fb8286616133565b8360408301528215156060830152949350505050565b60a0810161621f8286616171565b8360608301528215156080830152949350505050565b60c0810161624382866161af565b83608083015282151560a083015294935050505056fea26469706673582212208831083eb47327875f8e86de932112a38a5be02cad38ad1bb390fa97042d975664736f6c634300080a0033",
    "linkReferences": {}
  }
}