{
  "abi": [
    {
      "inputs": [
        {
          "internalType": "string",
          "name": "_name",
          "type": "string"
        },
        {
          "internalType": "string",
          "name": "_symbol",
          "type": "string"
        },
        {
          "internalType": "uint8",
          "name": "_decimals",
          "type": "uint8"
        }
      ],
      "stateMutability": "nonpayable",
      "type": "constructor"
    },
    {
      "anonymous": false,
      "inputs": [
        {
          "indexed": true,
          "internalType": "address",
          "name": "owner",
          "type": "address"
        },
        {
          "indexed": true,
          "internalType": "address",
          "name": "spender",
          "type": "address"
        },
        {
          "indexed": false,
          "internalType": "uint256",
          "name": "amount",
          "type": "uint256"
        }
      ],
      "name": "Approval",
      "type": "event"
    },
    {
      "anonymous": false,
      "inputs": [
        {
          "indexed": true,
          "internalType": "address",
          "name": "from",
          "type": "address"
        },
        {
          "indexed": true,
          "internalType": "address",
          "name": "to",
          "type": "address"
        },
        {
          "indexed": false,
          "internalType": "uint256",
          "name": "amount",
          "type": "uint256"
        }
      ],
      "name": "Transfer",
      "type": "event"
    },
    {
      "inputs": [],
      "name": "DOMAIN_SEPARATOR",
      "outputs": [
        {
          "internalType": "bytes32",
          "name": "",
          "type": "bytes32"
        }
      ],
      "stateMutability": "view",
      "type": "function"
    },
    {
      "inputs": [
        {
          "internalType": "address",
          "name": "",
          "type": "address"
        },
        {
          "internalType": "address",
          "name": "",
          "type": "address"
        }
      ],
      "name": "allowance",
      "outputs": [
        {
          "internalType": "uint256",
          "name": "",
          "type": "uint256"
        }
      ],
      "stateMutability": "view",
      "type": "function"
    },
    {
      "inputs": [
        {
          "internalType": "address",
          "name": "spender",
          "type": "address"
        },
        {
          "internalType": "uint256",
          "name": "amount",
          "type": "uint256"
        }
      ],
      "name": "approve",
      "outputs": [
        {
          "internalType": "bool",
          "name": "",
          "type": "bool"
        }
      ],
      "stateMutability": "nonpayable",
      "type": "function"
    },
    {
      "inputs": [
        {
          "internalType": "address",
          "name": "",
          "type": "address"
        }
      ],
      "name": "balanceOf",
      "outputs": [
        {
          "internalType": "uint256",
          "name": "",
          "type": "uint256"
        }
      ],
      "stateMutability": "view",
      "type": "function"
    },
    {
      "inputs": [],
      "name": "decimals",
      "outputs": [
        {
          "internalType": "uint8",
          "name": "",
          "type": "uint8"
        }
      ],
      "stateMutability": "view",
      "type": "function"
    },
    {
      "inputs": [
        {
          "internalType": "address",
          "name": "_to",
          "type": "address"
        },
        {
          "internalType": "uint256",
          "name": "_amount",
          "type": "uint256"
        }
      ],
      "name": "mint",
      "outputs": [],
      "stateMutability": "nonpayable",
      "type": "function"
    },
    {
      "inputs": [],
      "name": "name",
      "outputs": [
        {
          "internalType": "string",
          "name": "",
          "type": "string"
        }
      ],
      "stateMutability": "view",
      "type": "function"
    },
    {
      "inputs": [
        {
          "internalType": "address",
          "name": "",
          "type": "address"
        }
      ],
      "name": "nonces",
      "outputs": [
        {
          "internalType": "uint256",
          "name": "",
          "type": "uint256"
        }
      ],
      "stateMutability": "view",
      "type": "function"
    },
    {
      "inputs": [
        {
          "internalType": "address",
          "name": "owner",
          "type": "address"
        },
        {
          "internalType": "address",
          "name": "spender",
          "type": "address"
        },
        {
          "internalType": "uint256",
          "name": "value",
          "type": "uint256"
        },
        {
          "internalType": "uint256",
          "name": "deadline",
          "type": "uint256"
        },
        {
          "internalType": "uint8",
          "name": "v",
          "type": "uint8"
        },
        {
          "internalType": "bytes32",
          "name": "r",
          "type": "bytes32"
        },
        {
          "internalType": "bytes32",
          "name": "s",
          "type": "bytes32"
        }
      ],
      "name": "permit",
      "outputs": [],
      "stateMutability": "nonpayable",
      "type": "function"
    },
    {
      "inputs": [],
      "name": "symbol",
      "outputs": [
        {
          "internalType": "string",
          "name": "",
          "type": "string"
        }
      ],
      "stateMutability": "view",
      "type": "function"
    },
    {
      "inputs": [],
      "name": "totalSupply",
      "outputs": [
        {
          "internalType": "uint256",
          "name": "",
          "type": "uint256"
        }
      ],
      "stateMutability": "view",
      "type": "function"
    },
    {
      "inputs": [
        {
          "internalType": "address",
          "name": "to",
          "type": "address"
        },
        {
          "internalType": "uint256",
          "name": "amount",
          "type": "uint256"
        }
      ],
      "name": "transfer",
      "outputs": [
        {
          "internalType": "bool",
          "name": "",
          "type": "bool"
        }
      ],
      "stateMutability": "nonpayable",
      "type": "function"
    },
    {
      "inputs": [
        {
          "internalType": "address",
          "name": "from",
          "type": "address"
        },
        {
          "internalType": "address",
          "name": "to",
          "type": "address"
        },
        {
          "internalType": "uint256",
          "name": "amount",
          "type": "uint256"
        }
      ],
      "name": "transferFrom",
      "outputs": [
        {
          "internalType": "bool",
          "name": "",
          "type": "bool"
        }
      ],
      "stateMutability": "nonpayable",
      "type": "function"
    }
  ],
  "bytecode": {
    "object": "0x60806040523480156200001157600080fd5b50604051620010a7380380620010a78339810160408190526200003491620002a2565b82828282600090805190602001906200004f9291906200012f565b508151620000659060019060208501906200012f565b506002805460ff191660ff8316179055466006556200008362000093565b6007555062000408945050505050565b60007f8b73c3c69bb8fe3d512ecc4cf759cc79239f7b179b0ffacaa9a75d522b39400f6000604051620000c7919062000364565b6040805191829003822060208301939093528101919091527fc89efdaa54c0f20c7adf612882df0950f5a951637e0307cdcb4c672f298b8bc660608201524660808201523060a082015260c00160405160208183030381529060405280519060200120905090565b8280546200013d9062000327565b90600052602060002090601f016020900481019282620001615760008555620001ac565b82601f106200017c57805160ff1916838001178555620001ac565b82800160010185558215620001ac579182015b82811115620001ac5782518255916020019190600101906200018f565b50620001ba929150620001be565b5090565b5b80821115620001ba5760008155600101620001bf565b634e487b7160e01b600052604160045260246000fd5b600082601f830112620001fd57600080fd5b81516001600160401b03808211156200021a576200021a620001d5565b604051601f8301601f19908116603f01168101908282118183101715620002455762000245620001d5565b816040528381526020925086838588010111156200026257600080fd5b600091505b8382101562000286578582018301518183018401529082019062000267565b83821115620002985760008385830101525b9695505050505050565b600080600060608486031215620002b857600080fd5b83516001600160401b0380821115620002d057600080fd5b620002de87838801620001eb565b94506020860151915080821115620002f557600080fd5b506200030486828701620001eb565b925050604084015160ff811681146200031c57600080fd5b809150509250925092565b600181811c908216806200033c57607f821691505b602082108114156200035e57634e487b7160e01b600052602260045260246000fd5b50919050565b600080835481600182811c9150808316806200038157607f831692505b6020808410821415620003a257634e487b7160e01b86526022600452602486fd5b818015620003b95760018114620003cb57620003fa565b60ff19861689528489019650620003fa565b60008a81526020902060005b86811015620003f25781548b820152908501908301620003d7565b505084890196505b509498975050505050505050565b610c8f80620004186000396000f3fe608060405234801561001057600080fd5b50600436106100df5760003560e01c806340c10f191161008c57806395d89b411161006657806395d89b41146101cb578063a9059cbb146101d3578063d505accf146101e6578063dd62ed3e146101f957600080fd5b806340c10f191461017657806370a082311461018b5780637ecebe00146101ab57600080fd5b806323b872dd116100bd57806323b872dd1461013c578063313ce5671461014f5780633644e5151461016e57600080fd5b806306fdde03146100e4578063095ea7b31461010257806318160ddd14610125575b600080fd5b6100ec610224565b6040516100f99190610928565b60405180910390f35b6101156101103660046109a6565b6102b2565b60405190151581526020016100f9565b61012e60035481565b6040519081526020016100f9565b61011561014a3660046109d0565b61032b565b60025461015c9060ff1681565b60405160ff90911681526020016100f9565b61012e61046f565b6101896101843660046109a6565b61048e565b005b61012e610199366004610a0c565b60046020526000908152604090205481565b61012e6101b9366004610a0c565b60086020526000908152604090205481565b6100ec61049c565b6101156101e13660046109a6565b6104a9565b6101896101f4366004610a2e565b61052e565b61012e610207366004610aa1565b600560209081526000928352604080842090915290825290205481565b6000805461023190610ad4565b80601f016020809104026020016040519081016040528092919081815260200182805461025d90610ad4565b80156102aa5780601f1061027f576101008083540402835291602001916102aa565b820191906000526020600020905b81548152906001019060200180831161028d57829003601f168201915b505050505081565b33600081815260056020908152604080832073ffffffffffffffffffffffffffffffffffffffff8716808552925280832085905551919290917f8c5be1e5ebec7d5bd14f71427d1e84f3dd0314c0f7b2291e5b200ac8c7c3b9259061031a9086815260200190565b60405180910390a350600192915050565b73ffffffffffffffffffffffffffffffffffffffff831660009081526005602090815260408083203384529091528120547fffffffffffffffffffffffffffffffffffffffffffffffffffffffffffffffff81146103bf5761038d8382610b57565b73ffffffffffffffffffffffffffffffffffffffff861660009081526005602090815260408083203384529091529020555b73ffffffffffffffffffffffffffffffffffffffff8516600090815260046020526040812080548592906103f4908490610b57565b909155505073ffffffffffffffffffffffffffffffffffffffff808516600081815260046020526040908190208054870190555190918716907fddf252ad1be2c89b69c2b068fc378daa952ba7f163c4a11628f55a4df523b3ef9061045c9087815260200190565b60405180910390a3506001949350505050565b6000600654461461048757610482610816565b905090565b5060075490565b61049882826108b0565b5050565b6001805461023190610ad4565b336000908152600460205260408120805483919083906104ca908490610b57565b909155505073ffffffffffffffffffffffffffffffffffffffff8316600081815260046020526040908190208054850190555133907fddf252ad1be2c89b69c2b068fc378daa952ba7f163c4a11628f55a4df523b3ef9061031a9086815260200190565b4284101561059d576040517f08c379a000000000000000000000000000000000000000000000000000000000815260206004820152601760248201527f5045524d49545f444541444c494e455f4558504952454400000000000000000060448201526064015b60405180910390fd5b600060016105a961046f565b73ffffffffffffffffffffffffffffffffffffffff8a811660008181526008602090815260409182902080546001810190915582517f6e71edae12b1b97f4d1f60370fef10105fa2faae0126114a169c64845d6126c98184015280840194909452938d166060840152608083018c905260a083019390935260c08083018b90528151808403909101815260e0830190915280519201919091207f19010000000000000000000000000000000000000000000000000000000000006101008301526101028201929092526101228101919091526101420160408051601f198184030181528282528051602091820120600084529083018083525260ff871690820152606081018590526080810184905260a0016020604051602081039080840390855afa1580156106dd573d6000803e3d6000fd5b5050604051601f19015191505073ffffffffffffffffffffffffffffffffffffffff81161580159061073a57508773ffffffffffffffffffffffffffffffffffffffff168173ffffffffffffffffffffffffffffffffffffffff16145b6107a0576040517f08c379a000000000000000000000000000000000000000000000000000000000815260206004820152600e60248201527f494e56414c49445f5349474e45520000000000000000000000000000000000006044820152606401610594565b73ffffffffffffffffffffffffffffffffffffffff90811660009081526005602090815260408083208a8516808552908352928190208990555188815291928a16917f8c5be1e5ebec7d5bd14f71427d1e84f3dd0314c0f7b2291e5b200ac8c7c3b925910160405180910390a350505050505050565b60007f8b73c3c69bb8fe3d512ecc4cf759cc79239f7b179b0ffacaa9a75d522b39400f60006040516108489190610b6e565b6040805191829003822060208301939093528101919091527fc89efdaa54c0f20c7adf612882df0950f5a951637e0307cdcb4c672f298b8bc660608201524660808201523060a082015260c00160405160208183030381529060405280519060200120905090565b80600360008282546108c29190610c41565b909155505073ffffffffffffffffffffffffffffffffffffffff82166000818152600460209081526040808320805486019055518481527fddf252ad1be2c89b69c2b068fc378daa952ba7f163c4a11628f55a4df523b3ef910160405180910390a35050565b600060208083528351808285015260005b8181101561095557858101830151858201604001528201610939565b81811115610967576000604083870101525b50601f01601f1916929092016040019392505050565b803573ffffffffffffffffffffffffffffffffffffffff811681146109a157600080fd5b919050565b600080604083850312156109b957600080fd5b6109c28361097d565b946020939093013593505050565b6000806000606084860312156109e557600080fd5b6109ee8461097d565b92506109fc6020850161097d565b9150604084013590509250925092565b600060208284031215610a1e57600080fd5b610a278261097d565b9392505050565b600080600080600080600060e0888a031215610a4957600080fd5b610a528861097d565b9650610a606020890161097d565b95506040880135945060608801359350608088013560ff81168114610a8457600080fd5b9699959850939692959460a0840135945060c09093013592915050565b60008060408385031215610ab457600080fd5b610abd8361097d565b9150610acb6020840161097d565b90509250929050565b600181811c90821680610ae857607f821691505b60208210811415610b22577f4e487b7100000000000000000000000000000000000000000000000000000000600052602260045260246000fd5b50919050565b7f4e487b7100000000000000000000000000000000000000000000000000000000600052601160045260246000fd5b600082821015610b6957610b69610b28565b500390565b600080835481600182811c915080831680610b8a57607f831692505b6020808410821415610bc3577f4e487b710000000000000000000000000000000000000000000000000000000086526022600452602486fd5b818015610bd75760018114610c0657610c33565b7fffffffffffffffffffffffffffffffffffffffffffffffffffffffffffffff00861689528489019650610c33565b60008a81526020902060005b86811015610c2b5781548b820152908501908301610c12565b505084890196505b509498975050505050505050565b60008219821115610c5457610c54610b28565b50019056fea2646970667358221220d7fb6a335e148103cd9db9032ecf2465bad99d9759ba1a367ade1f51ecdfe1a964736f6c634300080a0033",
    "linkReferences": {}
  }
}