{
  "abi": [
    {
      "anonymous": false,
      "inputs": [
        {
          "indexed": false,
          "internalType": "address",
          "name": "caller",
          "type": "address"
        },
        {
          "indexed": false,
          "internalType": "uint256",
          "name": "amount",
          "type": "uint256"
        }
      ],
      "name": "AdminFeePaid",
      "type": "event"
    },
    {
      "anonymous": false,
      "inputs": [
        {
          "indexed": true,
          "internalType": "address",
          "name": "owner",
          "type": "address"
        },
        {
          "indexed": true,
          "internalType": "address",
          "name": "spender",
          "type": "address"
        },
        {
          "indexed": false,
          "internalType": "uint256",
          "name": "amount",
          "type": "uint256"
        }
      ],
      "name": "Approval",
      "type": "event"
    },
    {
      "anonymous": false,
      "inputs": [
        {
          "indexed": false,
          "internalType": "address",
          "name": "caller",
          "type": "address"
        },
        {
          "indexed": false,
          "internalType": "uint256",
          "name": "amount",
          "type": "uint256"
        }
      ],
      "name": "CallerFeePaid",
      "type": "event"
    },
    {
      "anonymous": false,
      "inputs": [
        {
          "indexed": true,
          "internalType": "address",
          "name": "caller",
          "type": "address"
        },
        {
          "indexed": true,
          "internalType": "address",
          "name": "owner",
          "type": "address"
        },
        {
          "indexed": false,
          "internalType": "uint256",
          "name": "assets",
          "type": "uint256"
        },
        {
          "indexed": false,
          "internalType": "uint256",
          "name": "shares",
          "type": "uint256"
        }
      ],
      "name": "Deposit",
      "type": "event"
    },
    {
      "anonymous": false,
      "inputs": [
        {
          "indexed": false,
          "internalType": "uint8",
          "name": "version",
          "type": "uint8"
        }
      ],
      "name": "Initialized",
      "type": "event"
    },
    {
      "anonymous": false,
      "inputs": [
        {
          "indexed": true,
          "internalType": "address",
          "name": "previousOwner",
          "type": "address"
        },
        {
          "indexed": true,
          "internalType": "address",
          "name": "newOwner",
          "type": "address"
        }
      ],
      "name": "OwnershipTransferred",
      "type": "event"
    },
    {
      "anonymous": false,
      "inputs": [
        {
          "indexed": false,
          "internalType": "address",
          "name": "caller",
          "type": "address"
        },
        {
          "indexed": false,
          "internalType": "uint256",
          "name": "preCompound",
          "type": "uint256"
        },
        {
          "indexed": false,
          "internalType": "uint256",
          "name": "postCompound",
          "type": "uint256"
        }
      ],
      "name": "Reinvested",
      "type": "event"
    },
    {
      "anonymous": false,
      "inputs": [
        {
          "indexed": false,
          "internalType": "address",
          "name": "caller",
          "type": "address"
        },
        {
          "indexed": false,
          "internalType": "uint256",
          "name": "index",
          "type": "uint256"
        },
        {
          "indexed": false,
          "internalType": "address",
          "name": "rewardToken",
          "type": "address"
        }
      ],
      "name": "RewardTokenSet",
      "type": "event"
    },
    {
      "anonymous": false,
      "inputs": [
        {
          "indexed": false,
          "internalType": "address",
          "name": "fromToken",
          "type": "address"
        },
        {
          "indexed": false,
          "internalType": "address",
          "name": "toToken",
          "type": "address"
        },
        {
          "components": [
            {
              "internalType": "address",
              "name": "protocolSwapAddress",
              "type": "address"
            },
            {
              "internalType": "uint256",
              "name": "nodeType",
              "type": "uint256"
            },
            {
              "internalType": "address",
              "name": "tokenIn",
              "type": "address"
            },
            {
              "internalType": "address",
              "name": "tokenOut",
              "type": "address"
            },
            {
              "internalType": "int128",
              "name": "_misc",
              "type": "int128"
            },
            {
              "internalType": "int128",
              "name": "_in",
              "type": "int128"
            },
            {
              "internalType": "int128",
              "name": "_out",
              "type": "int128"
            }
          ],
          "indexed": false,
          "internalType": "struct Router.Node[]",
          "name": "path",
          "type": "tuple[]"
        }
      ],
      "name": "RouteSet",
      "type": "event"
    },
    {
      "anonymous": false,
      "inputs": [
        {
          "indexed": false,
          "internalType": "address",
          "name": "caller",
          "type": "address"
        },
        {
          "indexed": false,
          "internalType": "address",
          "name": "startingTokenAddress",
          "type": "address"
        },
        {
          "indexed": false,
          "internalType": "address",
          "name": "endingTokenAddress",
          "type": "address"
        },
        {
          "indexed": false,
          "internalType": "uint256",
          "name": "amount",
          "type": "uint256"
        },
        {
          "indexed": false,
          "internalType": "uint256",
          "name": "minSwapAmount",
          "type": "uint256"
        },
        {
          "indexed": false,
          "internalType": "uint256",
          "name": "actualOut",
          "type": "uint256"
        }
      ],
      "name": "Swap",
      "type": "event"
    },
    {
      "anonymous": false,
      "inputs": [
        {
          "indexed": true,
          "internalType": "address",
          "name": "from",
          "type": "address"
        },
        {
          "indexed": true,
          "internalType": "address",
          "name": "to",
          "type": "address"
        },
        {
          "indexed": false,
          "internalType": "uint256",
          "name": "amount",
          "type": "uint256"
        }
      ],
      "name": "Transfer",
      "type": "event"
    },
    {
      "anonymous": false,
      "inputs": [
        {
          "indexed": true,
          "internalType": "address",
          "name": "caller",
          "type": "address"
        },
        {
          "indexed": true,
          "internalType": "address",
          "name": "receiver",
          "type": "address"
        },
        {
          "indexed": true,
          "internalType": "address",
          "name": "owner",
          "type": "address"
        },
        {
          "indexed": false,
          "internalType": "uint256",
          "name": "assets",
          "type": "uint256"
        },
        {
          "indexed": false,
          "internalType": "uint256",
          "name": "shares",
          "type": "uint256"
        }
      ],
      "name": "Withdraw",
      "type": "event"
    },
    {
      "stateMutability": "payable",
      "type": "fallback"
    },
    {
      "inputs": [],
      "name": "BOpsAddress",
      "outputs": [
        {
          "internalType": "address",
          "name": "",
          "type": "address"
        }
      ],
      "stateMutability": "view",
      "type": "function"
    },
    {
      "inputs": [],
      "name": "DOMAIN_SEPARATOR",
      "outputs": [
        {
          "internalType": "bytes32",
          "name": "",
          "type": "bytes32"
        }
      ],
      "stateMutability": "view",
      "type": "function"
    },
    {
      "inputs": [],
      "name": "FIRST_DONATION",
      "outputs": [
        {
          "internalType": "uint256",
          "name": "",
          "type": "uint256"
        }
      ],
      "stateMutability": "view",
      "type": "function"
    },
    {
      "inputs": [],
      "name": "MIN_FIRST_MINT",
      "outputs": [
        {
          "internalType": "uint256",
          "name": "",
          "type": "uint256"
        }
      ],
      "stateMutability": "view",
      "type": "function"
    },
    {
      "inputs": [],
      "name": "MIN_SWAP",
      "outputs": [
        {
          "internalType": "uint256",
          "name": "",
          "type": "uint256"
        }
      ],
      "stateMutability": "view",
      "type": "function"
    },
    {
      "inputs": [],
      "name": "WAVAX",
      "outputs": [
        {
          "internalType": "contract IWAVAX",
          "name": "",
          "type": "address"
        }
      ],
      "stateMutability": "view",
      "type": "function"
    },
    {
      "inputs": [],
      "name": "aaveLendingPool",
      "outputs": [
        {
          "internalType": "address",
          "name": "",
          "type": "address"
        }
      ],
      "stateMutability": "view",
      "type": "function"
    },
    {
      "inputs": [],
      "name": "aaveLendingPoolV3",
      "outputs": [
        {
          "internalType": "address",
          "name": "",
          "type": "address"
        }
      ],
      "stateMutability": "view",
      "type": "function"
    },
    {
      "inputs": [],
      "name": "adminFee",
      "outputs": [
        {
          "internalType": "uint256",
          "name": "",
          "type": "uint256"
        }
      ],
      "stateMutability": "view",
      "type": "function"
    },
    {
      "inputs": [
        {
          "internalType": "address",
          "name": "",
          "type": "address"
        },
        {
          "internalType": "address",
          "name": "",
          "type": "address"
        }
      ],
      "name": "allowance",
      "outputs": [
        {
          "internalType": "uint256",
          "name": "",
          "type": "uint256"
        }
      ],
      "stateMutability": "view",
      "type": "function"
    },
    {
      "inputs": [
        {
          "internalType": "address",
          "name": "spender",
          "type": "address"
        },
        {
          "internalType": "uint256",
          "name": "amount",
          "type": "uint256"
        }
      ],
      "name": "approve",
      "outputs": [
        {
          "internalType": "bool",
          "name": "",
          "type": "bool"
        }
      ],
      "stateMutability": "nonpayable",
      "type": "function"
    },
    {
      "inputs": [
        {
          "internalType": "address",
          "name": "",
          "type": "address"
        }
      ],
      "name": "balanceOf",
      "outputs": [
        {
          "internalType": "uint256",
          "name": "",
          "type": "uint256"
        }
      ],
      "stateMutability": "view",
      "type": "function"
    },
    {
      "inputs": [],
      "name": "cToken",
      "outputs": [
        {
          "internalType": "contract IcToken",
          "name": "",
          "type": "address"
        }
      ],
      "stateMutability": "view",
      "type": "function"
    },
    {
      "inputs": [],
      "name": "callerFee",
      "outputs": [
        {
          "internalType": "uint256",
          "name": "",
          "type": "uint256"
        }
      ],
      "stateMutability": "view",
      "type": "function"
    },
    {
      "inputs": [],
      "name": "compound",
      "outputs": [
        {
          "internalType": "uint256",
          "name": "",
          "type": "uint256"
        }
      ],
      "stateMutability": "nonpayable",
      "type": "function"
    },
    {
      "inputs": [],
      "name": "decimals",
      "outputs": [
        {
          "internalType": "uint8",
          "name": "",
          "type": "uint8"
        }
      ],
      "stateMutability": "view",
      "type": "function"
    },
    {
      "inputs": [
        {
          "internalType": "address",
          "name": "_to",
          "type": "address"
        },
        {
          "internalType": "uint256",
          "name": "_amt",
          "type": "uint256"
        }
      ],
      "name": "deposit",
      "outputs": [
        {
          "internalType": "uint256",
          "name": "receiptTokens",
          "type": "uint256"
        }
      ],
      "stateMutability": "nonpayable",
      "type": "function"
    },
    {
      "inputs": [
        {
          "internalType": "uint256",
          "name": "_amt",
          "type": "uint256"
        }
      ],
      "name": "deposit",
      "outputs": [
        {
          "internalType": "uint256",
          "name": "",
          "type": "uint256"
        }
      ],
      "stateMutability": "nonpayable",
      "type": "function"
    },
    {
      "inputs": [
        {
          "internalType": "address",
          "name": "_borrower",
          "type": "address"
        },
        {
          "internalType": "address",
          "name": "_to",
          "type": "address"
        },
        {
          "internalType": "uint256",
          "name": "_amt",
          "type": "uint256"
        }
      ],
      "name": "depositFor",
      "outputs": [
        {
          "internalType": "uint256",
          "name": "receiptTokens",
          "type": "uint256"
        }
      ],
      "stateMutability": "nonpayable",
      "type": "function"
    },
    {
      "inputs": [
        {
          "internalType": "uint256",
          "name": "_amt",
          "type": "uint256"
        },
        {
          "internalType": "uint256",
          "name": "_value",
          "type": "uint256"
        },
        {
          "internalType": "uint256",
          "name": "_deadline",
          "type": "uint256"
        },
        {
          "internalType": "uint8",
          "name": "_v",
          "type": "uint8"
        },
        {
          "internalType": "bytes32",
          "name": "_r",
          "type": "bytes32"
        },
        {
          "internalType": "bytes32",
          "name": "_s",
          "type": "bytes32"
        }
      ],
      "name": "depositWithPermit",
      "outputs": [
        {
          "internalType": "uint256",
          "name": "receiptTokens",
          "type": "uint256"
        }
      ],
      "stateMutability": "nonpayable",
      "type": "function"
    },
    {
      "inputs": [
        {
          "internalType": "uint256",
          "name": "_index",
          "type": "uint256"
        }
      ],
      "name": "deprecateRewardToken",
      "outputs": [],
      "stateMutability": "nonpayable",
      "type": "function"
    },
    {
      "inputs": [
        {
          "internalType": "uint256",
          "name": "_amt",
          "type": "uint256"
        }
      ],
      "name": "emergencyRedeem",
      "outputs": [
        {
          "internalType": "uint256",
          "name": "amtToReturn",
          "type": "uint256"
        }
      ],
      "stateMutability": "nonpayable",
      "type": "function"
    },
    {
      "inputs": [],
      "name": "feeRecipient",
      "outputs": [
        {
          "internalType": "address",
          "name": "",
          "type": "address"
        }
      ],
      "stateMutability": "view",
      "type": "function"
    },
    {
      "inputs": [
        {
          "internalType": "uint256",
          "name": "_ind",
          "type": "uint256"
        }
      ],
      "name": "getRewardToken",
      "outputs": [
        {
          "internalType": "address",
          "name": "",
          "type": "address"
        }
      ],
      "stateMutability": "view",
      "type": "function"
    },
    {
      "inputs": [
        {
          "internalType": "address",
          "name": "_underlying",
          "type": "address"
        },
        {
          "internalType": "string",
          "name": "_name",
          "type": "string"
        },
        {
          "internalType": "string",
          "name": "_symbol",
          "type": "string"
        },
        {
          "internalType": "uint256",
          "name": "_adminFee",
          "type": "uint256"
        },
        {
          "internalType": "uint256",
          "name": "_callerFee",
          "type": "uint256"
        },
        {
          "internalType": "uint256",
          "name": "_maxReinvestStale",
          "type": "uint256"
        },
        {
          "internalType": "address",
          "name": "_WAVAX",
          "type": "address"
        }
      ],
      "name": "initialize",
      "outputs": [],
      "stateMutability": "nonpayable",
      "type": "function"
    },
    {
      "inputs": [
        {
          "internalType": "address",
          "name": "_underlying",
          "type": "address"
        },
        {
          "internalType": "string",
          "name": "_name",
          "type": "string"
        },
        {
          "internalType": "string",
          "name": "_symbol",
          "type": "string"
        },
        {
          "internalType": "uint256",
          "name": "_adminFee",
          "type": "uint256"
        },
        {
          "internalType": "uint256",
          "name": "_callerFee",
          "type": "uint256"
        },
        {
          "internalType": "uint256",
          "name": "_maxReinvestStale",
          "type": "uint256"
        },
        {
          "internalType": "address",
          "name": "_WAVAX",
          "type": "address"
        },
        {
          "internalType": "address",
          "name": "_rewardController",
          "type": "address"
        }
      ],
      "name": "initialize",
      "outputs": [],
      "stateMutability": "nonpayable",
      "type": "function"
    },
    {
      "inputs": [],
      "name": "lastCTokenUnderlyingBalance",
      "outputs": [
        {
          "internalType": "uint256",
          "name": "",
          "type": "uint256"
        }
      ],
      "stateMutability": "view",
      "type": "function"
    },
    {
      "inputs": [],
      "name": "lastReinvestTime",
      "outputs": [
        {
          "internalType": "uint256",
          "name": "",
          "type": "uint256"
        }
      ],
      "stateMutability": "view",
      "type": "function"
    },
    {
      "inputs": [],
      "name": "maxReinvestStale",
      "outputs": [
        {
          "internalType": "uint256",
          "name": "",
          "type": "uint256"
        }
      ],
      "stateMutability": "view",
      "type": "function"
    },
    {
      "inputs": [],
      "name": "name",
      "outputs": [
        {
          "internalType": "string",
          "name": "",
          "type": "string"
        }
      ],
      "stateMutability": "view",
      "type": "function"
    },
    {
      "inputs": [
        {
          "internalType": "address",
          "name": "",
          "type": "address"
        }
      ],
      "name": "nonces",
      "outputs": [
        {
          "internalType": "uint256",
          "name": "",
          "type": "uint256"
        }
      ],
      "stateMutability": "view",
      "type": "function"
    },
    {
      "inputs": [],
      "name": "numRewardTokens",
      "outputs": [
        {
          "internalType": "uint256",
          "name": "",
          "type": "uint256"
        }
      ],
      "stateMutability": "view",
      "type": "function"
    },
    {
      "inputs": [],
      "name": "owner",
      "outputs": [
        {
          "internalType": "address",
          "name": "",
          "type": "address"
        }
      ],
      "stateMutability": "view",
      "type": "function"
    },
    {
      "inputs": [
        {
          "internalType": "address",
          "name": "owner",
          "type": "address"
        },
        {
          "internalType": "address",
          "name": "spender",
          "type": "address"
        },
        {
          "internalType": "uint256",
          "name": "value",
          "type": "uint256"
        },
        {
          "internalType": "uint256",
          "name": "deadline",
          "type": "uint256"
        },
        {
          "internalType": "uint8",
          "name": "v",
          "type": "uint8"
        },
        {
          "internalType": "bytes32",
          "name": "r",
          "type": "bytes32"
        },
        {
          "internalType": "bytes32",
          "name": "s",
          "type": "bytes32"
        }
      ],
      "name": "permit",
      "outputs": [],
      "stateMutability": "nonpayable",
      "type": "function"
    },
    {
      "inputs": [
        {
          "internalType": "address",
          "name": "_token",
          "type": "address"
        }
      ],
      "name": "pushRewardToken",
      "outputs": [],
      "stateMutability": "nonpayable",
      "type": "function"
    },
    {
      "inputs": [],
      "name": "receiptPerUnderlying",
      "outputs": [
        {
          "internalType": "uint256",
          "name": "",
          "type": "uint256"
        }
      ],
      "stateMutability": "view",
      "type": "function"
    },
    {
      "inputs": [
        {
          "internalType": "address",
          "name": "_to",
          "type": "address"
        },
        {
          "internalType": "uint256",
          "name": "_amt",
          "type": "uint256"
        }
      ],
      "name": "redeem",
      "outputs": [
        {
          "internalType": "uint256",
          "name": "amtToReturn",
          "type": "uint256"
        }
      ],
      "stateMutability": "nonpayable",
      "type": "function"
    },
    {
      "inputs": [
        {
          "internalType": "uint256",
          "name": "_amt",
          "type": "uint256"
        }
      ],
      "name": "redeem",
      "outputs": [
        {
          "internalType": "uint256",
          "name": "",
          "type": "uint256"
        }
      ],
      "stateMutability": "nonpayable",
      "type": "function"
    },
    {
      "inputs": [
        {
          "internalType": "uint256",
          "name": "_amt",
          "type": "uint256"
        },
        {
          "internalType": "address",
          "name": "_from",
          "type": "address"
        },
        {
          "internalType": "address",
          "name": "_to",
          "type": "address"
        }
      ],
      "name": "redeemFor",
      "outputs": [
        {
          "internalType": "uint256",
          "name": "amtToReturn",
          "type": "uint256"
        }
      ],
      "stateMutability": "nonpayable",
      "type": "function"
    },
    {
      "inputs": [
        {
          "internalType": "uint256",
          "name": "_amt",
          "type": "uint256"
        },
        {
          "internalType": "address",
          "name": "_from",
          "type": "address"
        },
        {
          "internalType": "address",
          "name": "_to",
          "type": "address"
        },
        {
          "internalType": "uint256",
          "name": "_value",
          "type": "uint256"
        },
        {
          "internalType": "uint256",
          "name": "_deadline",
          "type": "uint256"
        },
        {
          "internalType": "uint8",
          "name": "_v",
          "type": "uint8"
        },
        {
          "internalType": "bytes32",
          "name": "_r",
          "type": "bytes32"
        },
        {
          "internalType": "bytes32",
          "name": "_s",
          "type": "bytes32"
        }
      ],
      "name": "redeemForWithPermit",
      "outputs": [
        {
          "internalType": "uint256",
          "name": "",
          "type": "uint256"
        }
      ],
      "stateMutability": "nonpayable",
      "type": "function"
    },
    {
      "inputs": [],
      "name": "renounceOwnership",
      "outputs": [],
      "stateMutability": "nonpayable",
      "type": "function"
    },
    {
      "inputs": [],
      "name": "rewardController",
      "outputs": [
        {
          "internalType": "contract ICompRewardController",
          "name": "",
          "type": "address"
        }
      ],
      "stateMutability": "view",
      "type": "function"
    },
    {
      "inputs": [
        {
          "internalType": "uint256",
          "name": "",
          "type": "uint256"
        }
      ],
      "name": "rewardTokens",
      "outputs": [
        {
          "internalType": "address",
          "name": "",
          "type": "address"
        }
      ],
      "stateMutability": "view",
      "type": "function"
    },
    {
      "inputs": [
        {
          "internalType": "address",
          "name": "",
          "type": "address"
        },
        {
          "internalType": "address",
          "name": "",
          "type": "address"
        },
        {
          "internalType": "uint256",
          "name": "",
          "type": "uint256"
        }
      ],
      "name": "routes",
      "outputs": [
        {
          "internalType": "address",
          "name": "protocolSwapAddress",
          "type": "address"
        },
        {
          "internalType": "uint256",
          "name": "nodeType",
          "type": "uint256"
        },
        {
          "internalType": "address",
          "name": "tokenIn",
          "type": "address"
        },
        {
          "internalType": "address",
          "name": "tokenOut",
          "type": "address"
        },
        {
          "internalType": "int128",
          "name": "_misc",
          "type": "int128"
        },
        {
          "internalType": "int128",
          "name": "_in",
          "type": "int128"
        },
        {
          "internalType": "int128",
          "name": "_out",
          "type": "int128"
        }
      ],
      "stateMutability": "view",
      "type": "function"
    },
    {
      "inputs": [
        {
          "internalType": "address",
          "name": "_aaveLendingPool",
          "type": "address"
        },
        {
          "internalType": "address",
          "name": "_aaveLendingPoolV3",
          "type": "address"
        }
      ],
      "name": "setAAVE",
      "outputs": [],
      "stateMutability": "nonpayable",
      "type": "function"
    },
    {
      "inputs": [
        {
          "internalType": "address",
          "name": "_token",
          "type": "address"
        },
        {
          "internalType": "address",
          "name": "_who",
          "type": "address"
        },
        {
          "internalType": "uint256",
          "name": "_amount",
          "type": "uint256"
        }
      ],
      "name": "setApprovals",
      "outputs": [],
      "stateMutability": "nonpayable",
      "type": "function"
    },
    {
      "inputs": [
        {
          "internalType": "address",
          "name": "_BOpsAddress",
          "type": "address"
        }
      ],
      "name": "setBOps",
      "outputs": [],
      "stateMutability": "nonpayable",
      "type": "function"
    },
    {
      "inputs": [
        {
          "internalType": "uint256",
          "name": "_adminFee",
          "type": "uint256"
        },
        {
          "internalType": "uint256",
          "name": "_callerFee",
          "type": "uint256"
        }
      ],
      "name": "setFee",
      "outputs": [],
      "stateMutability": "nonpayable",
      "type": "function"
    },
    {
      "inputs": [
        {
          "internalType": "address",
          "name": "_feeRecipient",
          "type": "address"
        }
      ],
      "name": "setFeeRecipient",
      "outputs": [],
      "stateMutability": "nonpayable",
      "type": "function"
    },
    {
      "inputs": [
        {
          "internalType": "address",
          "name": "_traderJoeRouter",
          "type": "address"
        }
      ],
      "name": "setJoeRouter",
      "outputs": [],
      "stateMutability": "nonpayable",
      "type": "function"
    },
    {
      "inputs": [
        {
          "internalType": "address",
          "name": "_fromToken",
          "type": "address"
        },
        {
          "internalType": "address",
          "name": "_toToken",
          "type": "address"
        },
        {
          "components": [
            {
              "internalType": "address",
              "name": "protocolSwapAddress",
              "type": "address"
            },
            {
              "internalType": "uint256",
              "name": "nodeType",
              "type": "uint256"
            },
            {
              "internalType": "address",
              "name": "tokenIn",
              "type": "address"
            },
            {
              "internalType": "address",
              "name": "tokenOut",
              "type": "address"
            },
            {
              "internalType": "int128",
              "name": "_misc",
              "type": "int128"
            },
            {
              "internalType": "int128",
              "name": "_in",
              "type": "int128"
            },
            {
              "internalType": "int128",
              "name": "_out",
              "type": "int128"
            }
          ],
          "internalType": "struct Router.Node[]",
          "name": "_path",
          "type": "tuple[]"
        }
      ],
      "name": "setRoute",
      "outputs": [],
      "stateMutability": "nonpayable",
      "type": "function"
    },
    {
      "inputs": [
        {
          "internalType": "uint256",
          "name": "_maxReinvestStale",
          "type": "uint256"
        }
      ],
      "name": "setStale",
      "outputs": [],
      "stateMutability": "nonpayable",
      "type": "function"
    },
    {
      "inputs": [],
      "name": "symbol",
      "outputs": [
        {
          "internalType": "string",
          "name": "",
          "type": "string"
        }
      ],
      "stateMutability": "view",
      "type": "function"
    },
    {
      "inputs": [],
      "name": "totalHoldings",
      "outputs": [
        {
          "internalType": "uint256",
          "name": "",
          "type": "uint256"
        }
      ],
      "stateMutability": "nonpayable",
      "type": "function"
    },
    {
      "inputs": [],
      "name": "totalSupply",
      "outputs": [
        {
          "internalType": "uint256",
          "name": "",
          "type": "uint256"
        }
      ],
      "stateMutability": "view",
      "type": "function"
    },
    {
      "inputs": [],
      "name": "traderJoeRouter",
      "outputs": [
        {
          "internalType": "address",
          "name": "",
          "type": "address"
        }
      ],
      "stateMutability": "view",
      "type": "function"
    },
    {
      "inputs": [
        {
          "internalType": "address",
          "name": "to",
          "type": "address"
        },
        {
          "internalType": "uint256",
          "name": "amount",
          "type": "uint256"
        }
      ],
      "name": "transfer",
      "outputs": [
        {
          "internalType": "bool",
          "name": "",
          "type": "bool"
        }
      ],
      "stateMutability": "nonpayable",
      "type": "function"
    },
    {
      "inputs": [
        {
          "internalType": "address",
          "name": "from",
          "type": "address"
        },
        {
          "internalType": "address",
          "name": "to",
          "type": "address"
        },
        {
          "internalType": "uint256",
          "name": "amount",
          "type": "uint256"
        }
      ],
      "name": "transferFrom",
      "outputs": [
        {
          "internalType": "bool",
          "name": "",
          "type": "bool"
        }
      ],
      "stateMutability": "nonpayable",
      "type": "function"
    },
    {
      "inputs": [
        {
          "internalType": "address",
          "name": "newOwner",
          "type": "address"
        }
      ],
      "name": "transferOwnership",
      "outputs": [],
      "stateMutability": "nonpayable",
      "type": "function"
    },
    {
      "inputs": [],
      "name": "underlying",
      "outputs": [
        {
          "internalType": "contract ERC20",
          "name": "",
          "type": "address"
        }
      ],
      "stateMutability": "view",
      "type": "function"
    },
    {
      "inputs": [],
      "name": "underlyingDecimal",
      "outputs": [
        {
          "internalType": "uint256",
          "name": "",
          "type": "uint256"
        }
      ],
      "stateMutability": "view",
      "type": "function"
    },
    {
      "inputs": [],
      "name": "underlyingPerReceipt",
      "outputs": [
        {
          "internalType": "uint256",
          "name": "",
          "type": "uint256"
        }
      ],
      "stateMutability": "view",
      "type": "function"
    },
    {
      "inputs": [
        {
          "internalType": "uint256",
          "name": "_amt",
          "type": "uint256"
        }
      ],
      "name": "withdraw",
      "outputs": [
        {
          "internalType": "uint256",
          "name": "",
          "type": "uint256"
        }
      ],
      "stateMutability": "nonpayable",
      "type": "function"
    },
    {
      "inputs": [
        {
          "internalType": "uint256",
          "name": "_amt",
          "type": "uint256"
        },
        {
          "internalType": "address",
          "name": "_from",
          "type": "address"
        },
        {
          "internalType": "address",
          "name": "_to",
          "type": "address"
        }
      ],
      "name": "withdrawFor",
      "outputs": [
        {
          "internalType": "uint256",
          "name": "",
          "type": "uint256"
        }
      ],
      "stateMutability": "nonpayable",
      "type": "function"
    }
  ],
  "bytecode": {
    "object": "0x608060405234801561001057600080fd5b506167f180620000216000396000f3fe6080604052600436106103965760003560e01c80637b5dbbdd116101da578063c5c7003511610101578063e32d5cf81161009a578063f2fde38b1161006c578063f2fde38b14610b1e578063f69e204614610b3e578063f74877b514610b53578063fac991cc14610b7357005b8063e32d5cf814610aa9578063e74b981b14610ac9578063e9d337b814610ae9578063e9ec2e9914610b0957005b8063db006a75116100d3578063db006a75146104e5578063dd62ed3e14610a46578063dfa2b90114610a7e578063e0794ec514610a9457005b8063c5c70035146109d9578063cb8dd1d7146109f1578063cc6e811214610a06578063d505accf14610a2657005b8063a0be06f911610173578063b353379311610145578063b353379314610960578063b3db428b14610979578063b6b55f2514610999578063bf56700a146109b957005b8063a0be06f9146108f3578063a57f8cb714610909578063a9059cbb14610929578063abd006091461094957005b80638cc5ce99116101ac5780638cc5ce991461087f5780638da5cb5b146108a05780639203430e146108be57806395d89b41146108de57005b80637b5dbbdd146108015780637bb7bed11461081c5780637ecebe001461083c57806385a393bb1461086957005b806347e7ef24116102be578063600c557d1161025757806370a082311161022957806370a082311461077f578063715018a6146107ac57806373aeea36146107c157806373b295c2146107e157005b8063600c557d146106b1578063647f34301461071e57806369e527da1461073e5780636f307dc31461075f57005b8063504a75de11610290578063504a75de14610631578063515bc3231461065157806352f7c988146106715780635c0bfa881461069157005b806347e7ef24146105bc5780634a7e5cbb146105dc5780634cdf0392146105f15780634fb15b3f1461061157005b806323b872dd1161033057806334d441d01161030257806334d441d0146105515780633644e515146105675780633d61b2861461057c578063469048401461059c57005b806323b872dd146104c55780632e1a7d4d146104e55780632faff42714610505578063313ce5671461052557005b806318160ddd1161036957806318160ddd1461044b57806319b333e51461046f5780631e0b8053146104855780631e9a6950146104a557005b8063026b49a71461039857806306fdde03146103b8578063095ea7b3146103e3578063134b6edb14610413575b005b3480156103a457600080fd5b506103966103b3366004615a09565b610b93565b3480156103c457600080fd5b506103cd610c21565b6040516103da9190615a73565b60405180910390f35b3480156103ef57600080fd5b506104036103fe366004615a86565b610caf565b60405190151581526020016103da565b34801561041f57600080fd5b5061043361042e366004615ab2565b610d1c565b6040516001600160a01b0390911681526020016103da565b34801561045757600080fd5b5061046160035481565b6040519081526020016103da565b34801561047b57600080fd5b5061046160d75481565b34801561049157600080fd5b506103966104a0366004615ab2565b610d4c565b3480156104b157600080fd5b506104616104c0366004615a86565b610e3d565b3480156104d157600080fd5b506104036104e0366004615acb565b610f5d565b3480156104f157600080fd5b50610461610500366004615ab2565b611051565b34801561051157600080fd5b50606e54610433906001600160a01b031681565b34801561053157600080fd5b5060025461053f9060ff1681565b60405160ff90911681526020016103da565b34801561055d57600080fd5b5061046160db5481565b34801561057357600080fd5b5061046161105d565b34801561058857600080fd5b50610461610597366004615ab2565b61107c565b3480156105a857600080fd5b5060d954610433906001600160a01b031681565b3480156105c857600080fd5b506104616105d7366004615a86565b611171565b3480156105e857600080fd5b5060d654610461565b3480156105fd57600080fd5b5061039661060c366004615baf565b611374565b34801561061d57600080fd5b5061046161062c366004615c57565b61151e565b34801561063d57600080fd5b5061046161064c366004615ca8565b611533565b34801561065d57600080fd5b5061046161066c366004615d22565b61155c565b34801561067d57600080fd5b5061039661068c366004615d75565b611612565b34801561069d57600080fd5b506104616106ac366004615c57565b611692565b3480156106bd57600080fd5b506106d16106cc366004615acb565b61182a565b604080516001600160a01b039889168152602081019790975294871694860194909452919094166060840152600f93840b6080840152830b60a083015290910b60c082015260e0016103da565b34801561072a57600080fd5b50610396610739366004615a09565b6118ba565b34801561074a57600080fd5b5061011054610433906001600160a01b031681565b34801561076b57600080fd5b5060d554610433906001600160a01b031681565b34801561078b57600080fd5b5061046161079a366004615a09565b60046020526000908152604090205481565b3480156107b857600080fd5b50610396611943565b3480156107cd57600080fd5b506103966107dc366004615d97565b6119a9565b3480156107ed57600080fd5b5060dd54610433906001600160a01b031681565b34801561080d57600080fd5b50610461662386f26fc1000081565b34801561082857600080fd5b50610433610837366004615ab2565b611afc565b34801561084857600080fd5b50610461610857366004615a09565b60086020526000908152604090205481565b34801561087557600080fd5b5061046160d85481565b34801561088b57600080fd5b5061010f54610433906001600160a01b031681565b3480156108ac57600080fd5b50603c546001600160a01b0316610433565b3480156108ca57600080fd5b50607154610433906001600160a01b031681565b3480156108ea57600080fd5b506103cd611b26565b3480156108ff57600080fd5b5061046160da5481565b34801561091557600080fd5b50610396610924366004615a09565b611b33565b34801561093557600080fd5b50610403610944366004615a86565b611c42565b34801561095557600080fd5b506104616101115481565b34801561096c57600080fd5b5061046164e8d4a5100081565b34801561098557600080fd5b50610461610994366004615acb565b611cba565b3480156109a557600080fd5b506104616109b4366004615ab2565b611f09565b3480156109c557600080fd5b506103966109d4366004615e2c565b611f15565b3480156109e557600080fd5b506104616305f5e10081565b3480156109fd57600080fd5b50610461611faa565b348015610a1257600080fd5b5060dc54610433906001600160a01b031681565b348015610a3257600080fd5b50610396610a41366004615e65565b612050565b348015610a5257600080fd5b50610461610a61366004615e2c565b600560209081526000928352604080842090915290825290205481565b348015610a8a57600080fd5b5061046160d45481565b348015610aa057600080fd5b506104616122be565b348015610ab557600080fd5b50610396610ac4366004615acb565b612365565b348015610ad557600080fd5b50610396610ae4366004615a09565b612451565b348015610af557600080fd5b50606f54610433906001600160a01b031681565b348015610b1557600080fd5b506104616124da565b348015610b2a57600080fd5b50610396610b39366004615a09565b612563565b348015610b4a57600080fd5b50610461612645565b348015610b5f57600080fd5b50610396610b6e366004615ab2565b6126b1565b348015610b7f57600080fd5b50610396610b8e366004615ed6565b612710565b603c546001600160a01b03163314610bf25760405162461bcd60e51b815260206004820181905260248201527f4f776e61626c653a2063616c6c6572206973206e6f7420746865206f776e657260448201526064015b60405180910390fd5b606e805473ffffffffffffffffffffffffffffffffffffffff19166001600160a01b0392909216919091179055565b60008054610c2e90615f91565b80601f0160208091040260200160405190810160405280929190818152602001828054610c5a90615f91565b8015610ca75780601f10610c7c57610100808354040283529160200191610ca7565b820191906000526020600020905b815481529060010190602001808311610c8a57829003601f168201915b505050505081565b3360008181526005602090815260408083206001600160a01b038716808552925280832085905551919290917f8c5be1e5ebec7d5bd14f71427d1e84f3dd0314c0f7b2291e5b200ac8c7c3b92590610d0a9086815260200190565b60405180910390a35060015b92915050565b600060d68281548110610d3157610d31615fc6565b6000918252602090912001546001600160a01b031692915050565b603c546001600160a01b03163314610da65760405162461bcd60e51b815260206004820181905260248201527f4f776e61626c653a2063616c6c6572206973206e6f7420746865206f776e65726044820152606401610be9565b60d6548110610df75760405162461bcd60e51b815260206004820152600d60248201527f4f7574206f6620626f756e6473000000000000000000000000000000000000006044820152606401610be9565b600060d68281548110610e0c57610e0c615fc6565b9060005260206000200160006101000a8154816001600160a01b0302191690836001600160a01b0316021790555050565b6000600260a2541415610e925760405162461bcd60e51b815260206004820152601f60248201527f5265656e7472616e637947756172643a207265656e7472616e742063616c6c006044820152606401610be9565b600260a25560d85460d754610ea79190615ff2565b421115610eb857610eb6612766565b505b670de0b6b3a764000082610eca611faa565b610ed4919061600a565b610ede9190616029565b9050610ee981612ce8565b610ef33383612e26565b60d554610f0a906001600160a01b03168483612ea2565b604080518281526020810184905233916001600160a01b0386169183917ffbde797d201c681b91056529119e0b02407c7bb96a4a2c75c01fc9667232c8db910160405180910390a4600160a25592915050565b6001600160a01b03831660009081526005602090815260408083203384529091528120546000198114610fb957610f94838261604b565b6001600160a01b03861660009081526005602090815260408083203384529091529020555b6001600160a01b03851660009081526004602052604081208054859290610fe190849061604b565b90915550506001600160a01b03808516600081815260046020526040908190208054870190555190918716907fddf252ad1be2c89b69c2b068fc378daa952ba7f163c4a11628f55a4df523b3ef9061103c9087815260200190565b60405180910390a360019150505b9392505050565b6000610d163383610e3d565b6000600654461461107557611070612f41565b905090565b5060075490565b6000600260a25414156110d15760405162461bcd60e51b815260206004820152601f60248201527f5265656e7472616e637947756172643a207265656e7472616e742063616c6c006044820152606401610be9565b600260a255670de0b6b3a7640000826110e8611faa565b6110f2919061600a565b6110fc9190616029565b905061110781612ce8565b6111113383612e26565b60d554611128906001600160a01b03163383612ea2565b60408051828152602081018490523391829182917ffbde797d201c681b91056529119e0b02407c7bb96a4a2c75c01fc9667232c8db910160405180910390a4600160a255919050565b6000600260a25414156111c65760405162461bcd60e51b815260206004820152601f60248201527f5265656e7472616e637947756172643a207265656e7472616e742063616c6c006044820152606401610be9565b600260a255816112185760405162461bcd60e51b815260206004820152600860248201527f3020746f6b656e730000000000000000000000000000000000000000000000006044820152606401610be9565b60d85460d7546112289190615ff2565b42111561123957611237612766565b505b81670de0b6b3a76400008161124c6122be565b611256919061600a565b6112609190616029565b9150600354600014156112aa5764e8d4a5100082101561127f57600080fd5b60d954611299906001600160a01b03166305f5e100612fdb565b6112a76305f5e1008361604b565b91505b816112f75760405162461bcd60e51b815260206004820152600a60248201527f30207265636569766564000000000000000000000000000000000000000000006044820152606401610be9565b60d55461130f906001600160a01b031633308661303f565b611318836130eb565b6113228483612fdb565b60408051848152602081018490526001600160a01b0386169133917fdcbc1c05240f31ff3ad067ef1ee35ce4997762752e3a095284754544f4c709d7910160405180910390a350600160a25592915050565b60006113806001613173565b905080156113b557600980547fffffffffffffffffffffffffffffffffffffffffffffffffffffffffffff00ff166101001790555b6113bd6132ae565b6113c5613333565b6113d1878760126133b8565b60d5805473ffffffffffffffffffffffffffffffffffffffff19166001600160a01b038a16908117909155604080517f313ce567000000000000000000000000000000000000000000000000000000008152905163313ce567916004808201926020929091908290030181865afa158015611450573d6000803e3d6000fd5b505050506040513d601f19601f820116820180604052508101906114749190616062565b60ff1660d4556114848585611612565b60d883905560dd805473ffffffffffffffffffffffffffffffffffffffff19166001600160a01b038416179055801561151457600980547fffffffffffffffffffffffffffffffffffffffffffffffffffffffffffff00ff169055604051600181527f7f26b83ff96e1f2b6a682f133852f6798a09c465da95921460cefb38474024989060200160405180910390a15b5050505050505050565b600061152b848484611692565b949350505050565b600061154488338888888888612050565b61154f898989611692565b9998505050505050505050565b60d5546040517fd505accf000000000000000000000000000000000000000000000000000000008152336004820152306024820152604481018790526064810186905260ff8516608482015260a4810184905260c481018390526000916001600160a01b03169063d505accf9060e401600060405180830381600087803b1580156115e657600080fd5b505af11580156115fa573d6000803e3d6000fd5b5050505061160787611f09565b979650505050505050565b603c546001600160a01b0316331461166c5760405162461bcd60e51b815260206004820181905260248201527f4f776e61626c653a2063616c6c6572206973206e6f7420746865206f776e65726044820152606401610be9565b6127108210801561167e575061271081105b61168757600080fd5b60da9190915560db55565b6000600260a25414156116e75760405162461bcd60e51b815260206004820152601f60248201527f5265656e7472616e637947756172643a207265656e7472616e742063616c6c006044820152606401610be9565b600260a25560d85460d7546116fc9190615ff2565b42111561170d5761170b612766565b505b6001600160a01b0383166000908152600560209081526040808320338452909152902054600019811480159061174c5750336001600160a01b03851614155b156117805761175b858261604b565b6001600160a01b03851660009081526005602090815260408083203384529091529020555b670de0b6b3a764000085611792611faa565b61179c919061600a565b6117a69190616029565b91506117b182612ce8565b6117bb8486612e26565b60d5546117d2906001600160a01b03168484612ea2565b60408051838152602081018790526001600160a01b03808716929086169133917ffbde797d201c681b91056529119e0b02407c7bb96a4a2c75c01fc9667232c8db910160405180910390a450600160a2559392505050565b6070602052826000526040600020602052816000526040600020818154811061185257600080fd5b60009182526020909120600690910201805460018201546002830154600384015460048501546005909501546001600160a01b039485169850929650908316945090911691600f81810b92700100000000000000000000000000000000909204810b91900b87565b603c546001600160a01b031633146119145760405162461bcd60e51b815260206004820181905260248201527f4f776e61626c653a2063616c6c6572206973206e6f7420746865206f776e65726044820152606401610be9565b60dc805473ffffffffffffffffffffffffffffffffffffffff19166001600160a01b0392909216919091179055565b603c546001600160a01b0316331461199d5760405162461bcd60e51b815260206004820181905260248201527f4f776e61626c653a2063616c6c6572206973206e6f7420746865206f776e65726044820152606401610be9565b6119a76000613403565b565b603c546001600160a01b03163314611a035760405162461bcd60e51b815260206004820181905260248201527f4f776e61626c653a2063616c6c6572206973206e6f7420746865206f776e65726044820152606401610be9565b6001600160a01b0380851660009081526070602090815260408083209387168352929052908120611a33916158be565b60005b81811015611ab8576001600160a01b038086166000908152607060209081526040808320938816835292905220838383818110611a7557611a75615fc6565b83546001810185556000948552602090942060e090910292909201926006029091019050611aa3828261609b565b50508080611ab09061623a565b915050611a36565b507f01aa5c4f582e572c83ccd23ac58ee02c7e51aceb9d47d02987f31536b352992f84848484604051611aee9493929190616260565b60405180910390a150505050565b60d68181548110611b0c57600080fd5b6000918252602090912001546001600160a01b0316905081565b60018054610c2e90615f91565b603c546001600160a01b03163314611b8d5760405162461bcd60e51b815260206004820181905260248201527f4f776e61626c653a2063616c6c6572206973206e6f7420746865206f776e65726044820152606401610be9565b6001600160a01b038116611be35760405162461bcd60e51b815260206004820152600960248201527f30206164647265737300000000000000000000000000000000000000000000006044820152606401610be9565b60d680546001810182556000919091527fe767803f8ecf1dee6bb0345811f7312cda556058b19db6389ad9ae3568643ddd01805473ffffffffffffffffffffffffffffffffffffffff19166001600160a01b0392909216919091179055565b33600090815260046020526040812080548391908390611c6390849061604b565b90915550506001600160a01b038316600081815260046020526040908190208054850190555133907fddf252ad1be2c89b69c2b068fc378daa952ba7f163c4a11628f55a4df523b3ef90610d0a9086815260200190565b6000600260a2541415611d0f5760405162461bcd60e51b815260206004820152601f60248201527f5265656e7472616e637947756172643a207265656e7472616e742063616c6c006044820152606401610be9565b600260a25560dc546001600160a01b03163314611d6e5760405162461bcd60e51b815260206004820152600960248201527f424f7073206f6e6c7900000000000000000000000000000000000000000000006044820152606401610be9565b60008211611dbe5760405162461bcd60e51b815260206004820152600860248201527f3020746f6b656e730000000000000000000000000000000000000000000000006044820152606401610be9565b60d85460d754611dce9190615ff2565b421115611ddf57611ddd612766565b505b81670de0b6b3a764000081611df26122be565b611dfc919061600a565b611e069190616029565b915081611e7b5760405162461bcd60e51b815260206004820152603760248201527f4465706f73697420616d6f756e7420746f6f20736d616c6c2c20796f7520776960448201527f6c6c206765742030207265636569707420746f6b656e730000000000000000006064820152608401610be9565b60d554611e93906001600160a01b031686308661303f565b611e9c836130eb565b611ea68483612fdb565b836001600160a01b0316856001600160a01b03167fdcbc1c05240f31ff3ad067ef1ee35ce4997762752e3a095284754544f4c709d78585604051611ef4929190918252602082015260400190565b60405180910390a350600160a2559392505050565b6000610d163383611171565b603c546001600160a01b03163314611f6f5760405162461bcd60e51b815260206004820181905260248201527f4f776e61626c653a2063616c6c6572206973206e6f7420746865206f776e65726044820152606401610be9565b606f80546001600160a01b0393841673ffffffffffffffffffffffffffffffffffffffff199182161790915560718054929093169116179055565b600060035460001415611fc55760d45461107090600a616437565b60035460d5546040516370a0823160e01b81523060048201526001600160a01b03909116906370a0823190602401602060405180830381865afa158015612010573d6000803e3d6000fd5b505050506040513d601f19601f820116820180604052508101906120349190616443565b61204690670de0b6b3a764000061600a565b6110709190616029565b428410156120a05760405162461bcd60e51b815260206004820152601760248201527f5045524d49545f444541444c494e455f455850495245440000000000000000006044820152606401610be9565b600060016120ac61105d565b6001600160a01b038a811660008181526008602090815260409182902080546001810190915582517f6e71edae12b1b97f4d1f60370fef10105fa2faae0126114a169c64845d6126c98184015280840194909452938d166060840152608083018c905260a083019390935260c08083018b90528151808403909101815260e0830190915280519201919091207f19010000000000000000000000000000000000000000000000000000000000006101008301526101028201929092526101228101919091526101420160408051601f198184030181528282528051602091820120600084529083018083525260ff871690820152606081018590526080810184905260a0016020604051602081039080840390855afa1580156121d3573d6000803e3d6000fd5b5050604051601f1901519150506001600160a01b038116158015906122095750876001600160a01b0316816001600160a01b0316145b6122555760405162461bcd60e51b815260206004820152600e60248201527f494e56414c49445f5349474e45520000000000000000000000000000000000006044820152606401610be9565b6001600160a01b0390811660009081526005602090815260408083208a8516808552908352928190208990555188815291928a16917f8c5be1e5ebec7d5bd14f71427d1e84f3dd0314c0f7b2291e5b200ac8c7c3b925910160405180910390a350505050505050565b6000600354600014156122e45760d4546122d990602461604b565b61107090600a616437565b60d5546040516370a0823160e01b81523060048201526001600160a01b03909116906370a0823190602401602060405180830381865afa15801561232c573d6000803e3d6000fd5b505050506040513d601f19601f820116820180604052508101906123509190616443565b60035461204690670de0b6b3a764000061600a565b603c546001600160a01b031633146123bf5760405162461bcd60e51b815260206004820181905260248201527f4f776e61626c653a2063616c6c6572206973206e6f7420746865206f776e65726044820152606401610be9565b6040517f095ea7b30000000000000000000000000000000000000000000000000000000081526001600160a01b0383811660048301526024820183905284169063095ea7b3906044016020604051808303816000875af1158015612427573d6000803e3d6000fd5b505050506040513d601f19601f8201168201806040525081019061244b919061645c565b50505050565b603c546001600160a01b031633146124ab5760405162461bcd60e51b815260206004820181905260248201527f4f776e61626c653a2063616c6c6572206973206e6f7420746865206f776e65726044820152606401610be9565b60d9805473ffffffffffffffffffffffffffffffffffffffff19166001600160a01b0392909216919091179055565b610110546040517f3af9e6690000000000000000000000000000000000000000000000000000000081523060048201526000916001600160a01b031690633af9e669906024016020604051808303816000875af115801561253f573d6000803e3d6000fd5b505050506040513d601f19601f820116820180604052508101906110709190616443565b603c546001600160a01b031633146125bd5760405162461bcd60e51b815260206004820181905260248201527f4f776e61626c653a2063616c6c6572206973206e6f7420746865206f776e65726044820152606401610be9565b6001600160a01b0381166126395760405162461bcd60e51b815260206004820152602660248201527f4f776e61626c653a206e6577206f776e657220697320746865207a65726f206160448201527f64647265737300000000000000000000000000000000000000000000000000006064820152608401610be9565b61264281613403565b50565b6000600260a254141561269a5760405162461bcd60e51b815260206004820152601f60248201527f5265656e7472616e637947756172643a207265656e7472616e742063616c6c006044820152606401610be9565b600260a2556126a7612766565b9050600160a25590565b603c546001600160a01b0316331461270b5760405162461bcd60e51b815260206004820181905260248201527f4f776e61626c653a2063616c6c6572206973206e6f7420746865206f776e65726044820152606401610be9565b60d855565b61271f88888888888888611374565b61010f805473ffffffffffffffffffffffffffffffffffffffff199081166001600160a01b039384161790915560d554610110805491909316911617905550505050505050565b60d5544260d7556000906001600160a01b0316816127846101115490565b905061278e613462565b60005b60d654811015612a875760006001600160a01b031660d682815481106127b9576127b9615fc6565b6000918252602090912001546001600160a01b031614612a7557826001600160a01b031660d682815481106127f0576127f0615fc6565b6000918252602090912001546001600160a01b0316141561281057612a75565b60016001600160a01b031660d6828154811061282e5761282e615fc6565b6000918252602090912001546001600160a01b031614156128e55747662386f26fc100008111156128df5760dd60009054906101000a90046001600160a01b03166001600160a01b031663d0e30db0826040518263ffffffff1660e01b81526004016000604051808303818588803b1580156128a957600080fd5b505af11580156128bd573d6000803e3d6000fd5b505060dd546128dd93506001600160a01b0316915086905083600061355a565b505b50612a75565b600060d682815481106128fa576128fa615fc6565b6000918252602090912001546040516370a0823160e01b81523060048201526001600160a01b03909116906370a0823190602401602060405180830381865afa15801561294b573d6000803e3d6000fd5b505050506040513d601f19601f8201168201806040525081019061296f9190616443565b9050662386f26fc1000060d6838154811061298c5761298c615fc6565b60009182526020918290200154604080517f313ce56700000000000000000000000000000000000000000000000000000000815290516001600160a01b039092169263313ce567926004808401938290030181865afa1580156129f3573d6000803e3d6000fd5b505050506040513d601f19601f82011682018060405250810190612a179190616062565b612a2290601261647e565b612a2d90600a6164a1565b612a37908361600a565b1115612a7357612a7160d68381548110612a5357612a53615fc6565b60009182526020822001546001600160a01b0316908690849061355a565b505b505b80612a7f8161623a565b915050612791565b506000612a926124da565b90506000612aa0838361604b565b90508015612cd95760d5546040516370a0823160e01b815230600482015260009184916001600160a01b03909116906370a0823190602401602060405180830381865afa158015612af5573d6000803e3d6000fd5b505050506040513d601f19601f82011682018060405250810190612b199190616443565b612b23908461600a565b612b2d9190616029565b9050600061271060da5483612b42919061600a565b612b4c9190616029565b9050600061271060db5484612b61919061600a565b612b6b9190616029565b60d55460d954919250612b8b916001600160a01b03918216911684612ea2565b60d554612ba2906001600160a01b03163383612ea2565b60408051338152602081018890529081018690527f7595de4054dcab05a338b0855bb2e6155c81172fc76a0cdc037724df4d7e1c4f9060600160405180910390a160d954604080516001600160a01b039092168252602082018490527f4160cbc62d82681031bd44dffd104f752175f93f9b3c78a5a8f0867c667ee918910160405180910390a160408051338152602081018390527f97c227f091684bc53502ee6cf0e3bd656721fdbe9f1b9fddf678b8979efb5a26910160405180910390a160d5546040516370a0823160e01b8152306004820152612cd5916001600160a01b0316906370a0823190602401602060405180830381865afa158015612cac573d6000803e3d6000fd5b505050506040513d601f19601f82011682018060405250810190612cd09190616443565b6130eb565b5050505b612ce1613e10565b5050505090565b61011054604080517fbd6d894d0000000000000000000000000000000000000000000000000000000081529051670de0b6b3a7640000926001600160a01b03169163bd6d894d91600480830192602092919082900301816000875af1158015612d55573d6000803e3d6000fd5b505050506040513d601f19601f82011682018060405250810190612d799190616443565b612d83908361600a565b612d8d9190616029565b610110546040517f3af9e6690000000000000000000000000000000000000000000000000000000081523060048201526001600160a01b0390911690633af9e669906024016020604051808303816000875af1158015612df1573d6000803e3d6000fd5b505050506040513d601f19601f82011682018060405250810190612e159190616443565b612e1f919061604b565b6101115550565b6001600160a01b03821660009081526004602052604081208054839290612e4e90849061604b565b90915550506003805482900390556040518181526000906001600160a01b038416907fddf252ad1be2c89b69c2b068fc378daa952ba7f163c4a11628f55a4df523b3ef906020015b60405180910390a35050565b60006040517fa9059cbb000000000000000000000000000000000000000000000000000000008152836004820152826024820152602060006044836000895af13d15601f3d116001600051141617169150508061244b5760405162461bcd60e51b815260206004820152600f60248201527f5452414e534645525f4641494c454400000000000000000000000000000000006044820152606401610be9565b60007f8b73c3c69bb8fe3d512ecc4cf759cc79239f7b179b0ffacaa9a75d522b39400f6000604051612f7391906164b0565b6040805191829003822060208301939093528101919091527fc89efdaa54c0f20c7adf612882df0950f5a951637e0307cdcb4c672f298b8bc660608201524660808201523060a082015260c00160405160208183030381529060405280519060200120905090565b8060036000828254612fed9190615ff2565b90915550506001600160a01b0382166000818152600460209081526040808320805486019055518481527fddf252ad1be2c89b69c2b068fc378daa952ba7f163c4a11628f55a4df523b3ef9101612e96565b60006040517f23b872dd0000000000000000000000000000000000000000000000000000000081528460048201528360248201528260448201526020600060648360008a5af13d15601f3d11600160005114161716915050806130e45760405162461bcd60e51b815260206004820152601460248201527f5452414e534645525f46524f4d5f4641494c45440000000000000000000000006044820152606401610be9565b5050505050565b610110546040517f3af9e6690000000000000000000000000000000000000000000000000000000081523060048201526001600160a01b0390911690633af9e669906024016020604051808303816000875af115801561314f573d6000803e3d6000fd5b505050506040513d601f19601f82011682018060405250810190612e1f9190616443565b600954600090610100900460ff1615613212578160ff1660011480156131985750303b155b61320a5760405162461bcd60e51b815260206004820152602e60248201527f496e697469616c697a61626c653a20636f6e747261637420697320616c72656160448201527f647920696e697469616c697a65640000000000000000000000000000000000006064820152608401610be9565b506000919050565b60095460ff80841691161061328f5760405162461bcd60e51b815260206004820152602e60248201527f496e697469616c697a61626c653a20636f6e747261637420697320616c72656160448201527f647920696e697469616c697a65640000000000000000000000000000000000006064820152608401610be9565b506009805460ff191660ff92909216919091179055600190565b919050565b600954610100900460ff1661332b5760405162461bcd60e51b815260206004820152602b60248201527f496e697469616c697a61626c653a20636f6e7472616374206973206e6f74206960448201527f6e697469616c697a696e670000000000000000000000000000000000000000006064820152608401610be9565b6119a7613e9e565b600954610100900460ff166133b05760405162461bcd60e51b815260206004820152602b60248201527f496e697469616c697a61626c653a20636f6e7472616374206973206e6f74206960448201527f6e697469616c697a696e670000000000000000000000000000000000000000006064820152608401610be9565b6119a7613f24565b82516133cb9060009060208601906158df565b5081516133df9060019060208501906158df565b506002805460ff191660ff8316179055466006556133fb612f41565b600755505050565b603c80546001600160a01b0383811673ffffffffffffffffffffffffffffffffffffffff19831681179093556040519116919082907f8be0079c531659141344cd1fd0a4f28419497f9722a3daafe3b4186f6b6457e090600090a35050565b61010f546040517f0952c563000000000000000000000000000000000000000000000000000000008152600060048201523060248201526001600160a01b0390911690630952c56390604401600060405180830381600087803b1580156134c857600080fd5b505af11580156134dc573d6000803e3d6000fd5b505061010f546040517f0952c563000000000000000000000000000000000000000000000000000000008152600160048201523060248201526001600160a01b039091169250630952c5639150604401600060405180830381600087803b15801561354657600080fd5b505af115801561244b573d6000803e3d6000fd5b6040516370a0823160e01b815230600482015260009081906001600160a01b038616906370a0823190602401602060405180830381865afa1580156135a3573d6000803e3d6000fd5b505050506040513d601f19601f820116820180604052508101906135c79190616443565b6001600160a01b038088166000908152607060209081526040808320938a1683529281528282208054845181840281018401909552808552949550919390849084015b828210156136a55760008481526020908190206040805160e0810182526006860290920180546001600160a01b03908116845260018083015485870152600283015482169385019390935260038201541660608401526004810154600f81810b6080860152700100000000000000000000000000000000909104810b60a0850152600590910154900b60c0830152908352909201910161360a565b505050509050600085905060008251116137015760405162461bcd60e51b815260206004820152600e60248201527f4e6f20726f75746520666f756e640000000000000000000000000000000000006044820152606401610be9565b60005b8251811015613cb65782818151811061371f5761371f615fc6565b6020026020010151602001516001141561379d5761379683828151811061374857613748615fc6565b60200260200101516000015184838151811061376657613766615fc6565b60200260200101516040015185848151811061378457613784615fc6565b6020026020010151606001518a613fa8565b9650613ca4565b8281815181106137af576137af615fc6565b602002602001015160200151600214156138a5578281815181106137d5576137d5615fc6565b6020026020010151600001516001600160a01b03168382815181106137fc576137fc615fc6565b6020026020010151604001516001600160a01b0316141561385e5761379683828151811061382c5761382c615fc6565b60200260200101516060015184838151811061384a5761384a615fc6565b602002602001015160000151896001614122565b61379683828151811061387357613873615fc6565b60200260200101516040015184838151811061389157613891615fc6565b602002602001015160000151896000614122565b8281815181106138b7576138b7615fc6565b60200260200101516020015160031415613988576137968382815181106138e0576138e0615fc6565b6020026020010151604001518483815181106138fe576138fe615fc6565b60200260200101516060015185848151811061391c5761391c615fc6565b6020026020010151600001518a87868151811061393b5761393b615fc6565b60200260200101516080015188878151811061395957613959615fc6565b602002602001015160a0015189888151811061397757613977615fc6565b602002602001015160c0015161475e565b82818151811061399a5761399a615fc6565b602002602001015160200151600414156139ea5761379660016001600160a01b03168483815181106139ce576139ce615fc6565b6020026020010151604001516001600160a01b03161488614e97565b8281815181106139fc576139fc615fc6565b60200260200101516020015160051415613a5557613796838281518110613a2557613a25615fc6565b602002602001015160400151848381518110613a4357613a43615fc6565b60200260200101516000015189614f91565b828181518110613a6757613a67615fc6565b60200260200101516020015160061415613b8657613796838281518110613a9057613a90615fc6565b6020026020010151600001516001600160a01b0316848381518110613ab757613ab7615fc6565b6020026020010151604001516001600160a01b031614613af457838281518110613ae357613ae3615fc6565b602002602001015160400151613b13565b838281518110613b0657613b06615fc6565b6020026020010151606001515b88858481518110613b2657613b26615fc6565b6020026020010151600001516001600160a01b0316868581518110613b4d57613b4d615fc6565b6020026020010151604001516001600160a01b031614868581518110613b7557613b75615fc6565b602002602001015160800151615107565b828181518110613b9857613b98615fc6565b60200260200101516020015160071415613bf157613796838281518110613bc157613bc1615fc6565b602002602001015160400151848381518110613bdf57613bdf615fc6565b6020026020010151600001518961530e565b828181518110613c0357613c03615fc6565b60200260200101516020015160081415613c5c57613796838281518110613c2c57613c2c615fc6565b602002602001015160400151848381518110613c4a57613c4a615fc6565b60200260200101516000015189615549565b60405162461bcd60e51b815260206004820152601160248201527f556e6b6e6f776e206e6f646520747970650000000000000000000000000000006044820152606401610be9565b80613cae8161623a565b915050613704565b506040516370a0823160e01b815230600482015260009084906001600160a01b038a16906370a0823190602401602060405180830381865afa158015613d00573d6000803e3d6000fd5b505050506040513d601f19601f82011682018060405250810190613d249190616443565b613d2e919061604b565b905085811015613da65760405162461bcd60e51b815260206004820152603560248201527f446964206e6f74207265636569766520656e6f75676820746f6b656e7320746f60448201527f206163636f756e7420666f7220736c69707061676500000000000000000000006064820152608401610be9565b604080513381526001600160a01b038b811660208301528a1681830152606081018490526080810188905260a0810183905290517fd6d34547c69c5ee3d2667625c188acf1006abb93e0ee7cf03925c67cf77604139181900360c00190a198975050505050505050565b610110546040517f3af9e6690000000000000000000000000000000000000000000000000000000081523060048201526001600160a01b0390911690633af9e669906024016020604051808303816000875af1158015613e74573d6000803e3d6000fd5b505050506040513d601f19601f82011682018060405250810190613e989190616443565b61011155565b600954610100900460ff16613f1b5760405162461bcd60e51b815260206004820152602b60248201527f496e697469616c697a61626c653a20636f6e7472616374206973206e6f74206960448201527f6e697469616c697a696e670000000000000000000000000000000000000000006064820152608401610be9565b6119a733613403565b600954610100900460ff16613fa15760405162461bcd60e51b815260206004820152602b60248201527f496e697469616c697a61626c653a20636f6e7472616374206973206e6f74206960448201527f6e697469616c697a696e670000000000000000000000000000000000000000006064820152608401610be9565b600160a255565b6000613fb5848684612ea2565b600080600080886001600160a01b0316630902f1ac6040518163ffffffff1660e01b8152600401606060405180830381865afa158015613ff9573d6000803e3d6000fd5b505050506040513d601f19601f8201168201806040525081019061401d919061656a565b506dffffffffffffffffffffffffffff1691506dffffffffffffffffffffffffffff169150866001600160a01b0316886001600160a01b0316101561406e5761406786838361560c565b925061407c565b61407986828461560c565b93505b604080516000815260208101918290527f022c0d9f000000000000000000000000000000000000000000000000000000009091526001600160a01b038a169063022c0d9f906140d490879087903090602481016165af565b600060405180830381600087803b1580156140ee57600080fd5b505af1158015614102573d6000803e3d6000fd5b505050508360001415614115578261154f565b5091979650505050505050565b600080846001600160a01b0316630dfe16816040518163ffffffff1660e01b8152600401602060405180830381865afa158015614163573d6000803e3d6000fd5b505050506040513d601f19601f8201168201806040525081019061418791906165e7565b90506000856001600160a01b031663d21220a76040518163ffffffff1660e01b8152600401602060405180830381865afa1580156141c9573d6000803e3d6000fd5b505050506040513d601f19601f820116820180604052508101906141ed91906165e7565b9050831561446e57606e546040517fbaa2abde0000000000000000000000000000000000000000000000000000000081526001600160a01b03848116600483015283811660248301526044820188905260006064830181905260848301523060a48301524260c48301529091169063baa2abde9060e40160408051808303816000875af1158015614282573d6000803e3d6000fd5b505050506040513d601f19601f820116820180604052508101906142a69190616604565b5050866001600160a01b0316826001600160a01b03161415614340576040516370a0823160e01b815230600482015261433a908790839085906001600160a01b038316906370a08231906024015b602060405180830381865afa158015614311573d6000803e3d6000fd5b505050506040513d601f19601f820116820180604052508101906143359190616443565b613fa8565b506143fd565b866001600160a01b0316816001600160a01b03161415614390576040516370a0823160e01b815230600482015261433a908790849084906001600160a01b038316906370a08231906024016142f4565b60405162461bcd60e51b8152602060048201526024808201527f746f6b656e4f7574206973206e6f74206120746f6b656e205f696e207468652060448201527f70616972000000000000000000000000000000000000000000000000000000006064820152608401610be9565b6040516370a0823160e01b81523060048201526001600160a01b038816906370a0823190602401602060405180830381865afa158015614441573d6000803e3d6000fd5b505050506040513d601f19601f820116820180604052508101906144659190616443565b9250505061152b565b6000806000886001600160a01b0316630902f1ac6040518163ffffffff1660e01b8152600401606060405180830381865afa1580156144b1573d6000803e3d6000fd5b505050506040513d601f19601f820116820180604052508101906144d5919061656a565b925092509250896001600160a01b0316856001600160a01b031614156146b057614515898b86614335876dffffffffffffffffffffffffffff168d615748565b50606e546040516370a0823160e01b81523060048201526001600160a01b039182169163e8e337009188918891908316906370a0823190602401602060405180830381865afa15801561456c573d6000803e3d6000fd5b505050506040513d601f19601f820116820180604052508101906145909190616443565b6040516370a0823160e01b81523060048201526001600160a01b038a16906370a0823190602401602060405180830381865afa1580156145d4573d6000803e3d6000fd5b505050506040513d601f19601f820116820180604052508101906145f89190616443565b6040517fffffffff0000000000000000000000000000000000000000000000000000000060e087901b1681526001600160a01b0394851660048201529390921660248401526044830152606482015260006084820181905260a48201523060c48201524260e4820152610104016060604051808303816000875af1158015614684573d6000803e3d6000fd5b505050506040513d601f19601f820116820180604052508101906146a89190616628565b5050506146ea565b896001600160a01b0316846001600160a01b0316141561439057614515898b87614335866dffffffffffffffffffffffffffff168d615748565b6040516370a0823160e01b81523060048201526001600160a01b038a16906370a0823190602401602060405180830381865afa15801561472e573d6000803e3d6000fd5b505050506040513d601f19601f820116820180604052508101906147529190616443565b9550505050505061152b565b60008084600f0b1215614b775781600f0b6000191415614a6e5761478184616656565b9350600084600f0b67ffffffffffffffff8111156147a1576147a1615b0c565b6040519080825280602002602001820160405280156147ca578160200160208202803683370190505b509050858185600f0b815181106147e3576147e3615fc6565b60200260200101818152505084600f0b600214156148bc57866001600160a01b0316630b4c7e4d60405180604001604052808460008151811061482857614828615fc6565b602002602001015181526020018460018151811061484857614848615fc6565b602002602001015181525060006040518363ffffffff1660e01b81526004016148729291906166b8565b6020604051808303816000875af1158015614891573d6000803e3d6000fd5b505050506040513d601f19601f820116820180604052508101906148b59190616443565b9150614a68565b84600f0b6003141561495f57866001600160a01b0316634515cef36040518060600160405280846000815181106148f5576148f5615fc6565b602002602001015181526020018460018151811061491557614915615fc6565b602002602001015181526020018460028151811061493557614935615fc6565b602002602001015181525060006040518363ffffffff1660e01b81526004016148729291906166f6565b84600f0b60041415614a6857866001600160a01b031663029b2f3460405180608001604052808460008151811061499857614998615fc6565b60200260200101518152602001846001815181106149b8576149b8615fc6565b60200260200101518152602001846002815181106149d8576149d8615fc6565b60200260200101518152602001846003815181106149f8576149f8615fc6565b602002602001015181525060006040518363ffffffff1660e01b8152600401614a22929190616734565b6020604051808303816000875af1158015614a41573d6000803e3d6000fd5b505050506040513d601f19601f82011682018060405250810190614a659190616443565b91505b50611607565b82600f0b6000191415614b18576040517f1a4d01d200000000000000000000000000000000000000000000000000000000815260048101869052600f83900b6024820152600060448201526001600160a01b03871690631a4d01d2906064015b6020604051808303816000875af1158015614aed573d6000803e3d6000fd5b505050506040513d601f19601f82011682018060405250810190614b119190616443565b9050611607565b6040517f3df02124000000000000000000000000000000000000000000000000000000008152600f84810b600483015283900b602482015260448101869052600060648201526001600160a01b03871690633df0212490608401614ace565b600084600f0b13156116075781600f0b6000191415614dee57600084600f0b67ffffffffffffffff811115614bae57614bae615b0c565b604051908082528060200260200182016040528015614bd7578160200160208202803683370190505b509050858185600f0b81518110614bf057614bf0615fc6565b60200260200101818152505084600f0b60021415614c8257866001600160a01b031663ee22be23604051806040016040528084600081518110614c3557614c35615fc6565b6020026020010151815260200184600181518110614c5557614c55615fc6565b6020026020010151815250600060016040518463ffffffff1660e01b81526004016148729392919061674f565b84600f0b60031415614d2857866001600160a01b0316632b6e993a604051806060016040528084600081518110614cbb57614cbb615fc6565b6020026020010151815260200184600181518110614cdb57614cdb615fc6565b6020026020010151815260200184600281518110614cfb57614cfb615fc6565b6020026020010151815250600060016040518463ffffffff1660e01b815260040161487293929190616773565b84600f0b60041415614a6857866001600160a01b031663dc3a2d81604051806080016040528084600081518110614d6157614d61615fc6565b6020026020010151815260200184600181518110614d8157614d81615fc6565b6020026020010151815260200184600281518110614da157614da1615fc6565b6020026020010151815260200184600381518110614dc157614dc1615fc6565b6020026020010151815250600060016040518463ffffffff1660e01b8152600401614a2293929190616797565b6040517fa6417ed6000000000000000000000000000000000000000000000000000000008152600f84810b600483015283900b602482015260448101869052600060648201526001600160a01b0387169063a6417ed6906084016020604051808303816000875af1158015614e67573d6000803e3d6000fd5b505050506040513d601f19601f82011682018060405250810190614e8b9190616443565b98975050505050505050565b60008215614f0c5773b31f66aa3c1e785363f0875a1b74e27b85fd66c76001600160a01b031663d0e30db0836040518263ffffffff1660e01b81526004016000604051808303818588803b158015614eee57600080fd5b505af1158015614f02573d6000803e3d6000fd5b5050505050614f8b565b6040517f2e1a7d4d0000000000000000000000000000000000000000000000000000000081526004810183905273b31f66aa3c1e785363f0875a1b74e27b85fd66c790632e1a7d4d90602401600060405180830381600087803b158015614f7257600080fd5b505af1158015614f86573d6000803e3d6000fd5b505050505b50919050565b6000826001600160a01b0316846001600160a01b03161415615042576040517fdb006a75000000000000000000000000000000000000000000000000000000008152600481018390526001600160a01b0384169063db006a75906024016020604051808303816000875af115801561500d573d6000803e3d6000fd5b505050506040513d601f19601f820116820180604052508101906150319190616443565b1561503b57600080fd5b504761104a565b826001600160a01b0316631249c58b836040518263ffffffff1660e01b81526004016000604051808303818588803b15801561507d57600080fd5b505af1158015615091573d6000803e3d6000fd5b50506040516370a0823160e01b81523060048201526001600160a01b03871693506370a08231925060240190505b602060405180830381865afa1580156150dc573d6000803e3d6000fd5b505050506040513d601f19601f820116820180604052508101906151009190616443565b905061104a565b600081600f0b600314156152515782156151bc576071546040517f69328dec0000000000000000000000000000000000000000000000000000000081526001600160a01b03878116600483015260248201879052306044830152909116906369328dec906064015b6020604051808303816000875af115801561518e573d6000803e3d6000fd5b505050506040513d601f19601f820116820180604052508101906151b29190616443565b935083905061152b565b6071546040517f617ba0370000000000000000000000000000000000000000000000000000000081526001600160a01b03878116600483015260248201879052306044830152600060648301529091169063617ba037906084015b600060405180830381600087803b15801561523157600080fd5b505af1158015615245573d6000803e3d6000fd5b5050505083905061152b565b82156152af57606f546040517f69328dec0000000000000000000000000000000000000000000000000000000081526001600160a01b03878116600483015260248201879052306044830152909116906369328dec9060640161516f565b606f546040517fe8eda9df0000000000000000000000000000000000000000000000000000000081526001600160a01b03878116600483015260248201879052306044830152600060648301529091169063e8eda9df90608401615217565b6000826001600160a01b0316846001600160a01b0316141561548f576040517fdb006a75000000000000000000000000000000000000000000000000000000008152600481018390526001600160a01b0384169063db006a75906024016020604051808303816000875af115801561538a573d6000803e3d6000fd5b505050506040513d601f19601f820116820180604052508101906153ae9190616443565b156153b857600080fd5b6000836001600160a01b0316636f307dc36040518163ffffffff1660e01b8152600401602060405180830381865afa1580156153f8573d6000803e3d6000fd5b505050506040513d601f19601f8201168201806040525081019061541c91906165e7565b6040516370a0823160e01b81523060048201529091506001600160a01b038216906370a0823190602401602060405180830381865afa158015615463573d6000803e3d6000fd5b505050506040513d601f19601f820116820180604052508101906154879190616443565b91505061104a565b6040517fa0712d68000000000000000000000000000000000000000000000000000000008152600481018390526001600160a01b0384169063a0712d68906024016020604051808303816000875af11580156154ef573d6000803e3d6000fd5b505050506040513d601f19601f820116820180604052508101906155139190616443565b1561551d57600080fd5b6040516370a0823160e01b81523060048201526001600160a01b038416906370a08231906024016150bf565b6000826001600160a01b0316846001600160a01b031614156155c6576040517fdb006a75000000000000000000000000000000000000000000000000000000008152600481018390526001600160a01b0384169063db006a75906024015b6020604051808303816000875af11580156150dc573d6000803e3d6000fd5b6040517fb6b55f25000000000000000000000000000000000000000000000000000000008152600481018390526001600160a01b0384169063b6b55f25906024016155a7565b60008084116156835760405162461bcd60e51b815260206004820152602b60248201527f556e697377617056324c6962726172793a20494e53554646494349454e545f4960448201527f4e5055545f414d4f554e540000000000000000000000000000000000000000006064820152608401610be9565b6000831180156156935750600082115b6157055760405162461bcd60e51b815260206004820152602860248201527f556e697377617056324c6962726172793a20494e53554646494349454e545f4c60448201527f49515549444954590000000000000000000000000000000000000000000000006064820152608401610be9565b60006157136103e58661600a565b90506000615721848361600a565b90506000826157326103e88861600a565b61573c9190615ff2565b90506116078183616029565b600080620f2ad961575c85620f3c6461600a565b6157669190616029565b90506000615774858061600a565b61578190623cda2961600a565b8561578f86623cab6461600a565b615799919061600a565b6157a39190615ff2565b905081620f2ad96157b3836157dc565b6157bf906101f461600a565b6157c99190616029565b6157d3919061604b565b95945050505050565b60018170010000000000000000000000000000000081106158025760409190911b9060801c5b68010000000000000000811061581d5760209190911b9060401c5b64010000000081106158345760109190911b9060201c5b6201000081106158495760089190911b9060101c5b610100811061585d5760049190911b9060081c5b601081106158705760029190911b9060041c5b6008811061587f578160011b91505b5080820401600190811c80830401811c80830401811c80830401811c80830401811c80830401811c80830401901c80820481811015614f8b5792915050565b50805460008255600602906000526020600020908101906126429190615963565b8280546158eb90615f91565b90600052602060002090601f01602090048101928261590d5760008555615953565b82601f1061592657805160ff1916838001178555615953565b82800160010185558215615953579182015b82811115615953578251825591602001919060010190615938565b5061595f9291506159df565b5090565b5b8082111561595f57805473ffffffffffffffffffffffffffffffffffffffff1990811682556000600183018190556002830180548316905560038301805490921690915560048201556005810180547fffffffffffffffffffffffffffffffff00000000000000000000000000000000169055600601615964565b5b8082111561595f57600081556001016159e0565b6001600160a01b038116811461264257600080fd5b600060208284031215615a1b57600080fd5b813561104a816159f4565b6000815180845260005b81811015615a4c57602081850181015186830182015201615a30565b81811115615a5e576000602083870101525b50601f01601f19169290920160200192915050565b60208152600061104a6020830184615a26565b60008060408385031215615a9957600080fd5b8235615aa4816159f4565b946020939093013593505050565b600060208284031215615ac457600080fd5b5035919050565b600080600060608486031215615ae057600080fd5b8335615aeb816159f4565b92506020840135615afb816159f4565b929592945050506040919091013590565b634e487b7160e01b600052604160045260246000fd5b600082601f830112615b3357600080fd5b813567ffffffffffffffff80821115615b4e57615b4e615b0c565b604051601f8301601f19908116603f01168101908282118183101715615b7657615b76615b0c565b81604052838152866020858801011115615b8f57600080fd5b836020870160208301376000602085830101528094505050505092915050565b600080600080600080600060e0888a031215615bca57600080fd5b8735615bd5816159f4565b9650602088013567ffffffffffffffff80821115615bf257600080fd5b615bfe8b838c01615b22565b975060408a0135915080821115615c1457600080fd5b50615c218a828b01615b22565b955050606088013593506080880135925060a0880135915060c0880135615c47816159f4565b8091505092959891949750929550565b600080600060608486031215615c6c57600080fd5b833592506020840135615c7e816159f4565b91506040840135615c8e816159f4565b809150509250925092565b60ff8116811461264257600080fd5b600080600080600080600080610100898b031215615cc557600080fd5b883597506020890135615cd7816159f4565b96506040890135615ce7816159f4565b9550606089013594506080890135935060a0890135615d0581615c99565b979a969950949793969295929450505060c08201359160e0013590565b60008060008060008060c08789031215615d3b57600080fd5b8635955060208701359450604087013593506060870135615d5b81615c99565b9598949750929560808101359460a0909101359350915050565b60008060408385031215615d8857600080fd5b50508035926020909101359150565b60008060008060608587031215615dad57600080fd5b8435615db8816159f4565b93506020850135615dc8816159f4565b9250604085013567ffffffffffffffff80821115615de557600080fd5b818701915087601f830112615df957600080fd5b813581811115615e0857600080fd5b88602060e083028501011115615e1d57600080fd5b95989497505060200194505050565b60008060408385031215615e3f57600080fd5b8235615e4a816159f4565b91506020830135615e5a816159f4565b809150509250929050565b600080600080600080600060e0888a031215615e8057600080fd5b8735615e8b816159f4565b96506020880135615e9b816159f4565b955060408801359450606088013593506080880135615eb981615c99565b9699959850939692959460a0840135945060c09093013592915050565b600080600080600080600080610100898b031215615ef357600080fd5b8835615efe816159f4565b9750602089013567ffffffffffffffff80821115615f1b57600080fd5b615f278c838d01615b22565b985060408b0135915080821115615f3d57600080fd5b50615f4a8b828c01615b22565b965050606089013594506080890135935060a0890135925060c0890135615f70816159f4565b915060e0890135615f80816159f4565b809150509295985092959890939650565b600181811c90821680615fa557607f821691505b60208210811415614f8b57634e487b7160e01b600052602260045260246000fd5b634e487b7160e01b600052603260045260246000fd5b634e487b7160e01b600052601160045260246000fd5b6000821982111561600557616005615fdc565b500190565b600081600019048311821515161561602457616024615fdc565b500290565b60008261604657634e487b7160e01b600052601260045260246000fd5b500490565b60008282101561605d5761605d615fdc565b500390565b60006020828403121561607457600080fd5b815161104a81615c99565b80600f0b811461264257600080fd5b60008135610d168161607f565b81356160a6816159f4565b815473ffffffffffffffffffffffffffffffffffffffff19166001600160a01b038216178255506020820135600182015560408201356160e5816159f4565b60028201805473ffffffffffffffffffffffffffffffffffffffff19166001600160a01b03831617905550606082013561611e816159f4565b60038201805473ffffffffffffffffffffffffffffffffffffffff19166001600160a01b0383161790555060048101608083013561615b8161607f565b81547fffffffffffffffffffffffffffffffff00000000000000000000000000000000166fffffffffffffffffffffffffffffffff82161782555060a08301356161a48161607f565b81546fffffffffffffffffffffffffffffffff1660809190911b7fffffffffffffffffffffffffffffffff00000000000000000000000000000000161790556162366161f260c0840161608e565b600583017fffffffffffffffffffffffffffffffff00000000000000000000000000000000815416826fffffffffffffffffffffffffffffffff1681178255505050565b5050565b600060001982141561624e5761624e615fdc565b5060010190565b80356132a98161607f565b600060608083016001600160a01b03808916855260208189168187015260408481880152838885526080945084880190508960005b8a8110156163415781356162a8816159f4565b861683528185013585840152838201356162c1816159f4565b861683850152818801356162d4816159f4565b8616838901526162e5828801616255565b6162f388850182600f0b9052565b5060a0616301818401616255565b61630f82860182600f0b9052565b505060c061631e818401616255565b61632c82860182600f0b9052565b505060e0928301929190910190600101616295565b50909c9b505050505050505050505050565b600181815b8085111561638e57816000190482111561637457616374615fdc565b8085161561638157918102915b93841c9390800290616358565b509250929050565b6000826163a557506001610d16565b816163b257506000610d16565b81600181146163c857600281146163d2576163ee565b6001915050610d16565b60ff8411156163e3576163e3615fdc565b50506001821b610d16565b5060208310610133831016604e8410600b8410161715616411575081810a610d16565b61641b8383616353565b806000190482111561642f5761642f615fdc565b029392505050565b600061104a8383616396565b60006020828403121561645557600080fd5b5051919050565b60006020828403121561646e57600080fd5b8151801515811461104a57600080fd5b600060ff821660ff84168082101561649857616498615fdc565b90039392505050565b600061104a60ff841683616396565b600080835481600182811c9150808316806164cc57607f831692505b60208084108214156164ec57634e487b7160e01b86526022600452602486fd5b81801561650057600181146165115761653e565b60ff1986168952848901965061653e565b60008a81526020902060005b868110156165365781548b82015290850190830161651d565b505084890196505b509498975050505050505050565b80516dffffffffffffffffffffffffffff811681146132a957600080fd5b60008060006060848603121561657f57600080fd5b6165888461654c565b92506165966020850161654c565b9150604084015163ffffffff81168114615c8e57600080fd5b8481528360208201526001600160a01b03831660408201526080606082015260006165dd6080830184615a26565b9695505050505050565b6000602082840312156165f957600080fd5b815161104a816159f4565b6000806040838503121561661757600080fd5b505080516020909101519092909150565b60008060006060848603121561663d57600080fd5b8351925060208401519150604084015190509250925092565b600081600f0b7fffffffffffffffffffffffffffffffff8000000000000000000000000000000081141561668c5761668c615fdc565b60000392915050565b8060005b600281101561244b578151845260209384019390910190600101616699565b606081016166c68285616695565b8260408301529392505050565b8060005b600381101561244b5781518452602093840193909101906001016166d7565b6080810161670482856166d3565b8260608301529392505050565b8060005b600481101561244b578151845260209384019390910190600101616715565b60a081016167428285616711565b8260808301529392505050565b6080810161675d8286616695565b8360408301528215156060830152949350505050565b60a0810161678182866166d3565b8360608301528215156080830152949350505050565b60c081016167a58286616711565b83608083015282151560a083015294935050505056fea2646970667358221220866db854cc72e434bd3562c955a2cea36d67733a62d8dd4d200b6dd42cf8a43664736f6c634300080a0033",
    "linkReferences": {}
  }
}