{
  "abi": [
    {
      "anonymous": false,
      "inputs": [
        {
          "indexed": false,
          "internalType": "address",
          "name": "caller",
          "type": "address"
        },
        {
          "indexed": false,
          "internalType": "uint256",
          "name": "amount",
          "type": "uint256"
        }
      ],
      "name": "AdminFeePaid",
      "type": "event"
    },
    {
      "anonymous": false,
      "inputs": [
        {
          "indexed": true,
          "internalType": "address",
          "name": "owner",
          "type": "address"
        },
        {
          "indexed": true,
          "internalType": "address",
          "name": "spender",
          "type": "address"
        },
        {
          "indexed": false,
          "internalType": "uint256",
          "name": "amount",
          "type": "uint256"
        }
      ],
      "name": "Approval",
      "type": "event"
    },
    {
      "anonymous": false,
      "inputs": [
        {
          "indexed": false,
          "internalType": "address",
          "name": "caller",
          "type": "address"
        },
        {
          "indexed": false,
          "internalType": "uint256",
          "name": "amount",
          "type": "uint256"
        }
      ],
      "name": "CallerFeePaid",
      "type": "event"
    },
    {
      "anonymous": false,
      "inputs": [
        {
          "indexed": true,
          "internalType": "address",
          "name": "caller",
          "type": "address"
        },
        {
          "indexed": true,
          "internalType": "address",
          "name": "owner",
          "type": "address"
        },
        {
          "indexed": false,
          "internalType": "uint256",
          "name": "assets",
          "type": "uint256"
        },
        {
          "indexed": false,
          "internalType": "uint256",
          "name": "shares",
          "type": "uint256"
        }
      ],
      "name": "Deposit",
      "type": "event"
    },
    {
      "anonymous": false,
      "inputs": [
        {
          "indexed": false,
          "internalType": "uint8",
          "name": "version",
          "type": "uint8"
        }
      ],
      "name": "Initialized",
      "type": "event"
    },
    {
      "anonymous": false,
      "inputs": [
        {
          "indexed": true,
          "internalType": "address",
          "name": "previousOwner",
          "type": "address"
        },
        {
          "indexed": true,
          "internalType": "address",
          "name": "newOwner",
          "type": "address"
        }
      ],
      "name": "OwnershipTransferred",
      "type": "event"
    },
    {
      "anonymous": false,
      "inputs": [
        {
          "indexed": false,
          "internalType": "address",
          "name": "caller",
          "type": "address"
        },
        {
          "indexed": false,
          "internalType": "uint256",
          "name": "preCompound",
          "type": "uint256"
        },
        {
          "indexed": false,
          "internalType": "uint256",
          "name": "postCompound",
          "type": "uint256"
        }
      ],
      "name": "Reinvested",
      "type": "event"
    },
    {
      "anonymous": false,
      "inputs": [
        {
          "indexed": false,
          "internalType": "address",
          "name": "caller",
          "type": "address"
        },
        {
          "indexed": false,
          "internalType": "uint256",
          "name": "index",
          "type": "uint256"
        },
        {
          "indexed": false,
          "internalType": "address",
          "name": "rewardToken",
          "type": "address"
        }
      ],
      "name": "RewardTokenSet",
      "type": "event"
    },
    {
      "anonymous": false,
      "inputs": [
        {
          "indexed": false,
          "internalType": "address",
          "name": "fromToken",
          "type": "address"
        },
        {
          "indexed": false,
          "internalType": "address",
          "name": "toToken",
          "type": "address"
        },
        {
          "components": [
            {
              "internalType": "address",
              "name": "protocolSwapAddress",
              "type": "address"
            },
            {
              "internalType": "uint256",
              "name": "nodeType",
              "type": "uint256"
            },
            {
              "internalType": "address",
              "name": "tokenIn",
              "type": "address"
            },
            {
              "internalType": "address",
              "name": "tokenOut",
              "type": "address"
            },
            {
              "internalType": "int128",
              "name": "_misc",
              "type": "int128"
            },
            {
              "internalType": "int128",
              "name": "_in",
              "type": "int128"
            },
            {
              "internalType": "int128",
              "name": "_out",
              "type": "int128"
            }
          ],
          "indexed": false,
          "internalType": "struct Router.Node[]",
          "name": "path",
          "type": "tuple[]"
        }
      ],
      "name": "RouteSet",
      "type": "event"
    },
    {
      "anonymous": false,
      "inputs": [
        {
          "indexed": false,
          "internalType": "address",
          "name": "caller",
          "type": "address"
        },
        {
          "indexed": false,
          "internalType": "address",
          "name": "startingTokenAddress",
          "type": "address"
        },
        {
          "indexed": false,
          "internalType": "address",
          "name": "endingTokenAddress",
          "type": "address"
        },
        {
          "indexed": false,
          "internalType": "uint256",
          "name": "amount",
          "type": "uint256"
        },
        {
          "indexed": false,
          "internalType": "uint256",
          "name": "minSwapAmount",
          "type": "uint256"
        },
        {
          "indexed": false,
          "internalType": "uint256",
          "name": "actualOut",
          "type": "uint256"
        }
      ],
      "name": "Swap",
      "type": "event"
    },
    {
      "anonymous": false,
      "inputs": [
        {
          "indexed": true,
          "internalType": "address",
          "name": "from",
          "type": "address"
        },
        {
          "indexed": true,
          "internalType": "address",
          "name": "to",
          "type": "address"
        },
        {
          "indexed": false,
          "internalType": "uint256",
          "name": "amount",
          "type": "uint256"
        }
      ],
      "name": "Transfer",
      "type": "event"
    },
    {
      "anonymous": false,
      "inputs": [
        {
          "indexed": true,
          "internalType": "address",
          "name": "caller",
          "type": "address"
        },
        {
          "indexed": true,
          "internalType": "address",
          "name": "receiver",
          "type": "address"
        },
        {
          "indexed": true,
          "internalType": "address",
          "name": "owner",
          "type": "address"
        },
        {
          "indexed": false,
          "internalType": "uint256",
          "name": "assets",
          "type": "uint256"
        },
        {
          "indexed": false,
          "internalType": "uint256",
          "name": "shares",
          "type": "uint256"
        }
      ],
      "name": "Withdraw",
      "type": "event"
    },
    {
      "stateMutability": "payable",
      "type": "fallback"
    },
    {
      "inputs": [],
      "name": "BOpsAddress",
      "outputs": [
        {
          "internalType": "address",
          "name": "",
          "type": "address"
        }
      ],
      "stateMutability": "view",
      "type": "function"
    },
    {
      "inputs": [],
      "name": "DOMAIN_SEPARATOR",
      "outputs": [
        {
          "internalType": "bytes32",
          "name": "",
          "type": "bytes32"
        }
      ],
      "stateMutability": "view",
      "type": "function"
    },
    {
      "inputs": [],
      "name": "FIRST_DONATION",
      "outputs": [
        {
          "internalType": "uint256",
          "name": "",
          "type": "uint256"
        }
      ],
      "stateMutability": "view",
      "type": "function"
    },
    {
      "inputs": [],
      "name": "MIN_FIRST_MINT",
      "outputs": [
        {
          "internalType": "uint256",
          "name": "",
          "type": "uint256"
        }
      ],
      "stateMutability": "view",
      "type": "function"
    },
    {
      "inputs": [],
      "name": "MIN_SWAP",
      "outputs": [
        {
          "internalType": "uint256",
          "name": "",
          "type": "uint256"
        }
      ],
      "stateMutability": "view",
      "type": "function"
    },
    {
      "inputs": [],
      "name": "WAVAX",
      "outputs": [
        {
          "internalType": "contract IWAVAX",
          "name": "",
          "type": "address"
        }
      ],
      "stateMutability": "view",
      "type": "function"
    },
    {
      "inputs": [],
      "name": "aUST",
      "outputs": [
        {
          "internalType": "contract IERC20",
          "name": "",
          "type": "address"
        }
      ],
      "stateMutability": "view",
      "type": "function"
    },
    {
      "inputs": [],
      "name": "aaveLendingPool",
      "outputs": [
        {
          "internalType": "address",
          "name": "",
          "type": "address"
        }
      ],
      "stateMutability": "view",
      "type": "function"
    },
    {
      "inputs": [],
      "name": "aaveLendingPoolV3",
      "outputs": [
        {
          "internalType": "address",
          "name": "",
          "type": "address"
        }
      ],
      "stateMutability": "view",
      "type": "function"
    },
    {
      "inputs": [],
      "name": "adminFee",
      "outputs": [
        {
          "internalType": "uint256",
          "name": "",
          "type": "uint256"
        }
      ],
      "stateMutability": "view",
      "type": "function"
    },
    {
      "inputs": [
        {
          "internalType": "address",
          "name": "",
          "type": "address"
        },
        {
          "internalType": "address",
          "name": "",
          "type": "address"
        }
      ],
      "name": "allowance",
      "outputs": [
        {
          "internalType": "uint256",
          "name": "",
          "type": "uint256"
        }
      ],
      "stateMutability": "view",
      "type": "function"
    },
    {
      "inputs": [
        {
          "internalType": "address",
          "name": "spender",
          "type": "address"
        },
        {
          "internalType": "uint256",
          "name": "amount",
          "type": "uint256"
        }
      ],
      "name": "approve",
      "outputs": [
        {
          "internalType": "bool",
          "name": "",
          "type": "bool"
        }
      ],
      "stateMutability": "nonpayable",
      "type": "function"
    },
    {
      "inputs": [
        {
          "internalType": "address",
          "name": "",
          "type": "address"
        }
      ],
      "name": "balanceOf",
      "outputs": [
        {
          "internalType": "uint256",
          "name": "",
          "type": "uint256"
        }
      ],
      "stateMutability": "view",
      "type": "function"
    },
    {
      "inputs": [],
      "name": "callerFee",
      "outputs": [
        {
          "internalType": "uint256",
          "name": "",
          "type": "uint256"
        }
      ],
      "stateMutability": "view",
      "type": "function"
    },
    {
      "inputs": [],
      "name": "chainlinkAggregator",
      "outputs": [
        {
          "internalType": "contract AggregatorV3Interface",
          "name": "",
          "type": "address"
        }
      ],
      "stateMutability": "view",
      "type": "function"
    },
    {
      "inputs": [],
      "name": "compound",
      "outputs": [
        {
          "internalType": "uint256",
          "name": "",
          "type": "uint256"
        }
      ],
      "stateMutability": "nonpayable",
      "type": "function"
    },
    {
      "inputs": [],
      "name": "decimals",
      "outputs": [
        {
          "internalType": "uint8",
          "name": "",
          "type": "uint8"
        }
      ],
      "stateMutability": "view",
      "type": "function"
    },
    {
      "inputs": [
        {
          "internalType": "address",
          "name": "_to",
          "type": "address"
        },
        {
          "internalType": "uint256",
          "name": "_amt",
          "type": "uint256"
        }
      ],
      "name": "deposit",
      "outputs": [
        {
          "internalType": "uint256",
          "name": "receiptTokens",
          "type": "uint256"
        }
      ],
      "stateMutability": "nonpayable",
      "type": "function"
    },
    {
      "inputs": [
        {
          "internalType": "uint256",
          "name": "_amt",
          "type": "uint256"
        }
      ],
      "name": "deposit",
      "outputs": [
        {
          "internalType": "uint256",
          "name": "",
          "type": "uint256"
        }
      ],
      "stateMutability": "nonpayable",
      "type": "function"
    },
    {
      "inputs": [
        {
          "internalType": "address",
          "name": "_borrower",
          "type": "address"
        },
        {
          "internalType": "address",
          "name": "_to",
          "type": "address"
        },
        {
          "internalType": "uint256",
          "name": "_amt",
          "type": "uint256"
        }
      ],
      "name": "depositFor",
      "outputs": [
        {
          "internalType": "uint256",
          "name": "receiptTokens",
          "type": "uint256"
        }
      ],
      "stateMutability": "nonpayable",
      "type": "function"
    },
    {
      "inputs": [
        {
          "internalType": "uint256",
          "name": "_amt",
          "type": "uint256"
        },
        {
          "internalType": "uint256",
          "name": "_value",
          "type": "uint256"
        },
        {
          "internalType": "uint256",
          "name": "_deadline",
          "type": "uint256"
        },
        {
          "internalType": "uint8",
          "name": "_v",
          "type": "uint8"
        },
        {
          "internalType": "bytes32",
          "name": "_r",
          "type": "bytes32"
        },
        {
          "internalType": "bytes32",
          "name": "_s",
          "type": "bytes32"
        }
      ],
      "name": "depositWithPermit",
      "outputs": [
        {
          "internalType": "uint256",
          "name": "receiptTokens",
          "type": "uint256"
        }
      ],
      "stateMutability": "nonpayable",
      "type": "function"
    },
    {
      "inputs": [
        {
          "internalType": "uint256",
          "name": "_index",
          "type": "uint256"
        }
      ],
      "name": "deprecateRewardToken",
      "outputs": [],
      "stateMutability": "nonpayable",
      "type": "function"
    },
    {
      "inputs": [
        {
          "internalType": "uint256",
          "name": "_amt",
          "type": "uint256"
        }
      ],
      "name": "emergencyRedeem",
      "outputs": [
        {
          "internalType": "uint256",
          "name": "amtToReturn",
          "type": "uint256"
        }
      ],
      "stateMutability": "nonpayable",
      "type": "function"
    },
    {
      "inputs": [
        {
          "internalType": "string",
          "name": "token",
          "type": "string"
        }
      ],
      "name": "emergencyWithdraw",
      "outputs": [],
      "stateMutability": "nonpayable",
      "type": "function"
    },
    {
      "inputs": [],
      "name": "feeRecipient",
      "outputs": [
        {
          "internalType": "address",
          "name": "",
          "type": "address"
        }
      ],
      "stateMutability": "view",
      "type": "function"
    },
    {
      "inputs": [],
      "name": "getCurrentPrice",
      "outputs": [
        {
          "internalType": "uint256",
          "name": "",
          "type": "uint256"
        }
      ],
      "stateMutability": "view",
      "type": "function"
    },
    {
      "inputs": [
        {
          "internalType": "uint256",
          "name": "_ind",
          "type": "uint256"
        }
      ],
      "name": "getRewardToken",
      "outputs": [
        {
          "internalType": "address",
          "name": "",
          "type": "address"
        }
      ],
      "stateMutability": "view",
      "type": "function"
    },
    {
      "inputs": [
        {
          "internalType": "address",
          "name": "_underlying",
          "type": "address"
        },
        {
          "internalType": "string",
          "name": "_name",
          "type": "string"
        },
        {
          "internalType": "string",
          "name": "_symbol",
          "type": "string"
        },
        {
          "internalType": "uint256",
          "name": "_adminFee",
          "type": "uint256"
        },
        {
          "internalType": "uint256",
          "name": "_callerFee",
          "type": "uint256"
        },
        {
          "internalType": "uint256",
          "name": "_maxReinvestStale",
          "type": "uint256"
        },
        {
          "internalType": "address",
          "name": "_WAVAX",
          "type": "address"
        }
      ],
      "name": "initialize",
      "outputs": [],
      "stateMutability": "nonpayable",
      "type": "function"
    },
    {
      "inputs": [
        {
          "internalType": "address",
          "name": "_underlying",
          "type": "address"
        },
        {
          "internalType": "string",
          "name": "_name",
          "type": "string"
        },
        {
          "internalType": "string",
          "name": "_symbol",
          "type": "string"
        },
        {
          "internalType": "uint256",
          "name": "_adminFee",
          "type": "uint256"
        },
        {
          "internalType": "uint256",
          "name": "_callerFee",
          "type": "uint256"
        },
        {
          "internalType": "uint256",
          "name": "_maxReinvestStale",
          "type": "uint256"
        },
        {
          "internalType": "address",
          "name": "_WAVAX",
          "type": "address"
        },
        {
          "internalType": "address",
          "name": "_aUST",
          "type": "address"
        },
        {
          "internalType": "address",
          "name": "_wormholeBridge",
          "type": "address"
        },
        {
          "internalType": "address",
          "name": "_chainlinkAggregator",
          "type": "address"
        }
      ],
      "name": "initialize",
      "outputs": [],
      "stateMutability": "nonpayable",
      "type": "function"
    },
    {
      "inputs": [],
      "name": "lastReinvestTime",
      "outputs": [
        {
          "internalType": "uint256",
          "name": "",
          "type": "uint256"
        }
      ],
      "stateMutability": "view",
      "type": "function"
    },
    {
      "inputs": [],
      "name": "maxReinvestStale",
      "outputs": [
        {
          "internalType": "uint256",
          "name": "",
          "type": "uint256"
        }
      ],
      "stateMutability": "view",
      "type": "function"
    },
    {
      "inputs": [],
      "name": "name",
      "outputs": [
        {
          "internalType": "string",
          "name": "",
          "type": "string"
        }
      ],
      "stateMutability": "view",
      "type": "function"
    },
    {
      "inputs": [
        {
          "internalType": "address",
          "name": "",
          "type": "address"
        }
      ],
      "name": "nonces",
      "outputs": [
        {
          "internalType": "uint256",
          "name": "",
          "type": "uint256"
        }
      ],
      "stateMutability": "view",
      "type": "function"
    },
    {
      "inputs": [],
      "name": "numRewardTokens",
      "outputs": [
        {
          "internalType": "uint256",
          "name": "",
          "type": "uint256"
        }
      ],
      "stateMutability": "view",
      "type": "function"
    },
    {
      "inputs": [],
      "name": "owner",
      "outputs": [
        {
          "internalType": "address",
          "name": "",
          "type": "address"
        }
      ],
      "stateMutability": "view",
      "type": "function"
    },
    {
      "inputs": [
        {
          "internalType": "address",
          "name": "owner",
          "type": "address"
        },
        {
          "internalType": "address",
          "name": "spender",
          "type": "address"
        },
        {
          "internalType": "uint256",
          "name": "value",
          "type": "uint256"
        },
        {
          "internalType": "uint256",
          "name": "deadline",
          "type": "uint256"
        },
        {
          "internalType": "uint8",
          "name": "v",
          "type": "uint8"
        },
        {
          "internalType": "bytes32",
          "name": "r",
          "type": "bytes32"
        },
        {
          "internalType": "bytes32",
          "name": "s",
          "type": "bytes32"
        }
      ],
      "name": "permit",
      "outputs": [],
      "stateMutability": "nonpayable",
      "type": "function"
    },
    {
      "inputs": [
        {
          "internalType": "address",
          "name": "_token",
          "type": "address"
        }
      ],
      "name": "pushRewardToken",
      "outputs": [],
      "stateMutability": "nonpayable",
      "type": "function"
    },
    {
      "inputs": [],
      "name": "receiptPerUnderlying",
      "outputs": [
        {
          "internalType": "uint256",
          "name": "",
          "type": "uint256"
        }
      ],
      "stateMutability": "view",
      "type": "function"
    },
    {
      "inputs": [
        {
          "internalType": "address",
          "name": "_to",
          "type": "address"
        },
        {
          "internalType": "uint256",
          "name": "_amt",
          "type": "uint256"
        }
      ],
      "name": "redeem",
      "outputs": [
        {
          "internalType": "uint256",
          "name": "amtToReturn",
          "type": "uint256"
        }
      ],
      "stateMutability": "nonpayable",
      "type": "function"
    },
    {
      "inputs": [
        {
          "internalType": "uint256",
          "name": "_amt",
          "type": "uint256"
        }
      ],
      "name": "redeem",
      "outputs": [
        {
          "internalType": "uint256",
          "name": "",
          "type": "uint256"
        }
      ],
      "stateMutability": "nonpayable",
      "type": "function"
    },
    {
      "inputs": [
        {
          "internalType": "uint256",
          "name": "_amt",
          "type": "uint256"
        },
        {
          "internalType": "address",
          "name": "_from",
          "type": "address"
        },
        {
          "internalType": "address",
          "name": "_to",
          "type": "address"
        }
      ],
      "name": "redeemFor",
      "outputs": [
        {
          "internalType": "uint256",
          "name": "amtToReturn",
          "type": "uint256"
        }
      ],
      "stateMutability": "nonpayable",
      "type": "function"
    },
    {
      "inputs": [
        {
          "internalType": "uint256",
          "name": "_amt",
          "type": "uint256"
        },
        {
          "internalType": "address",
          "name": "_from",
          "type": "address"
        },
        {
          "internalType": "address",
          "name": "_to",
          "type": "address"
        },
        {
          "internalType": "uint256",
          "name": "_value",
          "type": "uint256"
        },
        {
          "internalType": "uint256",
          "name": "_deadline",
          "type": "uint256"
        },
        {
          "internalType": "uint8",
          "name": "_v",
          "type": "uint8"
        },
        {
          "internalType": "bytes32",
          "name": "_r",
          "type": "bytes32"
        },
        {
          "internalType": "bytes32",
          "name": "_s",
          "type": "bytes32"
        }
      ],
      "name": "redeemForWithPermit",
      "outputs": [
        {
          "internalType": "uint256",
          "name": "",
          "type": "uint256"
        }
      ],
      "stateMutability": "nonpayable",
      "type": "function"
    },
    {
      "inputs": [],
      "name": "renounceOwnership",
      "outputs": [],
      "stateMutability": "nonpayable",
      "type": "function"
    },
    {
      "inputs": [
        {
          "internalType": "uint256",
          "name": "",
          "type": "uint256"
        }
      ],
      "name": "rewardTokens",
      "outputs": [
        {
          "internalType": "address",
          "name": "",
          "type": "address"
        }
      ],
      "stateMutability": "view",
      "type": "function"
    },
    {
      "inputs": [
        {
          "internalType": "address",
          "name": "",
          "type": "address"
        },
        {
          "internalType": "address",
          "name": "",
          "type": "address"
        },
        {
          "internalType": "uint256",
          "name": "",
          "type": "uint256"
        }
      ],
      "name": "routes",
      "outputs": [
        {
          "internalType": "address",
          "name": "protocolSwapAddress",
          "type": "address"
        },
        {
          "internalType": "uint256",
          "name": "nodeType",
          "type": "uint256"
        },
        {
          "internalType": "address",
          "name": "tokenIn",
          "type": "address"
        },
        {
          "internalType": "address",
          "name": "tokenOut",
          "type": "address"
        },
        {
          "internalType": "int128",
          "name": "_misc",
          "type": "int128"
        },
        {
          "internalType": "int128",
          "name": "_in",
          "type": "int128"
        },
        {
          "internalType": "int128",
          "name": "_out",
          "type": "int128"
        }
      ],
      "stateMutability": "view",
      "type": "function"
    },
    {
      "inputs": [
        {
          "internalType": "address",
          "name": "_aaveLendingPool",
          "type": "address"
        },
        {
          "internalType": "address",
          "name": "_aaveLendingPoolV3",
          "type": "address"
        }
      ],
      "name": "setAAVE",
      "outputs": [],
      "stateMutability": "nonpayable",
      "type": "function"
    },
    {
      "inputs": [
        {
          "internalType": "address",
          "name": "_token",
          "type": "address"
        },
        {
          "internalType": "address",
          "name": "_who",
          "type": "address"
        },
        {
          "internalType": "uint256",
          "name": "_amount",
          "type": "uint256"
        }
      ],
      "name": "setApprovals",
      "outputs": [],
      "stateMutability": "nonpayable",
      "type": "function"
    },
    {
      "inputs": [
        {
          "internalType": "address",
          "name": "_BOpsAddress",
          "type": "address"
        }
      ],
      "name": "setBOps",
      "outputs": [],
      "stateMutability": "nonpayable",
      "type": "function"
    },
    {
      "inputs": [
        {
          "internalType": "uint256",
          "name": "_adminFee",
          "type": "uint256"
        },
        {
          "internalType": "uint256",
          "name": "_callerFee",
          "type": "uint256"
        }
      ],
      "name": "setFee",
      "outputs": [],
      "stateMutability": "nonpayable",
      "type": "function"
    },
    {
      "inputs": [
        {
          "internalType": "address",
          "name": "_feeRecipient",
          "type": "address"
        }
      ],
      "name": "setFeeRecipient",
      "outputs": [],
      "stateMutability": "nonpayable",
      "type": "function"
    },
    {
      "inputs": [
        {
          "internalType": "address",
          "name": "_traderJoeRouter",
          "type": "address"
        }
      ],
      "name": "setJoeRouter",
      "outputs": [],
      "stateMutability": "nonpayable",
      "type": "function"
    },
    {
      "inputs": [
        {
          "internalType": "address",
          "name": "_fromToken",
          "type": "address"
        },
        {
          "internalType": "address",
          "name": "_toToken",
          "type": "address"
        },
        {
          "components": [
            {
              "internalType": "address",
              "name": "protocolSwapAddress",
              "type": "address"
            },
            {
              "internalType": "uint256",
              "name": "nodeType",
              "type": "uint256"
            },
            {
              "internalType": "address",
              "name": "tokenIn",
              "type": "address"
            },
            {
              "internalType": "address",
              "name": "tokenOut",
              "type": "address"
            },
            {
              "internalType": "int128",
              "name": "_misc",
              "type": "int128"
            },
            {
              "internalType": "int128",
              "name": "_in",
              "type": "int128"
            },
            {
              "internalType": "int128",
              "name": "_out",
              "type": "int128"
            }
          ],
          "internalType": "struct Router.Node[]",
          "name": "_path",
          "type": "tuple[]"
        }
      ],
      "name": "setRoute",
      "outputs": [],
      "stateMutability": "nonpayable",
      "type": "function"
    },
    {
      "inputs": [
        {
          "internalType": "uint256",
          "name": "_maxReinvestStale",
          "type": "uint256"
        }
      ],
      "name": "setStale",
      "outputs": [],
      "stateMutability": "nonpayable",
      "type": "function"
    },
    {
      "inputs": [],
      "name": "symbol",
      "outputs": [
        {
          "internalType": "string",
          "name": "",
          "type": "string"
        }
      ],
      "stateMutability": "view",
      "type": "function"
    },
    {
      "inputs": [],
      "name": "totalHoldings",
      "outputs": [
        {
          "internalType": "uint256",
          "name": "",
          "type": "uint256"
        }
      ],
      "stateMutability": "view",
      "type": "function"
    },
    {
      "inputs": [],
      "name": "totalSupply",
      "outputs": [
        {
          "internalType": "uint256",
          "name": "",
          "type": "uint256"
        }
      ],
      "stateMutability": "view",
      "type": "function"
    },
    {
      "inputs": [],
      "name": "traderJoeRouter",
      "outputs": [
        {
          "internalType": "address",
          "name": "",
          "type": "address"
        }
      ],
      "stateMutability": "view",
      "type": "function"
    },
    {
      "inputs": [
        {
          "internalType": "address",
          "name": "to",
          "type": "address"
        },
        {
          "internalType": "uint256",
          "name": "amount",
          "type": "uint256"
        }
      ],
      "name": "transfer",
      "outputs": [
        {
          "internalType": "bool",
          "name": "",
          "type": "bool"
        }
      ],
      "stateMutability": "nonpayable",
      "type": "function"
    },
    {
      "inputs": [
        {
          "internalType": "address",
          "name": "from",
          "type": "address"
        },
        {
          "internalType": "address",
          "name": "to",
          "type": "address"
        },
        {
          "internalType": "uint256",
          "name": "amount",
          "type": "uint256"
        }
      ],
      "name": "transferFrom",
      "outputs": [
        {
          "internalType": "bool",
          "name": "",
          "type": "bool"
        }
      ],
      "stateMutability": "nonpayable",
      "type": "function"
    },
    {
      "inputs": [
        {
          "internalType": "address",
          "name": "newOwner",
          "type": "address"
        }
      ],
      "name": "transferOwnership",
      "outputs": [],
      "stateMutability": "nonpayable",
      "type": "function"
    },
    {
      "inputs": [],
      "name": "underlying",
      "outputs": [
        {
          "internalType": "contract ERC20",
          "name": "",
          "type": "address"
        }
      ],
      "stateMutability": "view",
      "type": "function"
    },
    {
      "inputs": [],
      "name": "underlyingDecimal",
      "outputs": [
        {
          "internalType": "uint256",
          "name": "",
          "type": "uint256"
        }
      ],
      "stateMutability": "view",
      "type": "function"
    },
    {
      "inputs": [],
      "name": "underlyingPerReceipt",
      "outputs": [
        {
          "internalType": "uint256",
          "name": "",
          "type": "uint256"
        }
      ],
      "stateMutability": "view",
      "type": "function"
    },
    {
      "inputs": [
        {
          "internalType": "uint256",
          "name": "_amt",
          "type": "uint256"
        }
      ],
      "name": "withdraw",
      "outputs": [
        {
          "internalType": "uint256",
          "name": "",
          "type": "uint256"
        }
      ],
      "stateMutability": "nonpayable",
      "type": "function"
    },
    {
      "inputs": [
        {
          "internalType": "uint256",
          "name": "_amt",
          "type": "uint256"
        },
        {
          "internalType": "address",
          "name": "_from",
          "type": "address"
        },
        {
          "internalType": "address",
          "name": "_to",
          "type": "address"
        }
      ],
      "name": "withdrawFor",
      "outputs": [
        {
          "internalType": "uint256",
          "name": "",
          "type": "uint256"
        }
      ],
      "stateMutability": "nonpayable",
      "type": "function"
    },
    {
      "inputs": [],
      "name": "wormholeBridge",
      "outputs": [
        {
          "internalType": "contract WormholeBridgeAnchor",
          "name": "",
          "type": "address"
        }
      ],
      "stateMutability": "view",
      "type": "function"
    }
  ],
  "bytecode": {
    "object": "0x608060405234801561001057600080fd5b50616a0680620000216000396000f3fe6080604052600436106103c65760003560e01c8063715018a6116101f2578063bf56700a11610119578063e0794ec5116100b2578063e9ec2e9911610084578063f2fde38b1161006c578063f2fde38b14610ba9578063f69e204614610bc9578063f74877b514610bde57005b8063e9ec2e9914610b7f578063eb91d37e14610b9457005b8063e0794ec514610b0a578063e32d5cf814610b1f578063e74b981b14610b3f578063e9d337b814610b5f57005b8063d505accf116100eb578063d505accf14610a9c578063db006a7514610532578063dd62ed3e14610abc578063dfa2b90114610af457005b8063bf56700a14610a2f578063c5c7003514610a4f578063cb8dd1d714610a67578063cc6e811214610a7c57005b80639203430e1161018b578063a9059cbb1161015d578063a9059cbb146109b6578063b3533793146109d6578063b3db428b146109ef578063b6b55f2514610a0f57005b80639203430e1461094b57806395d89b411461096b578063a0be06f914610980578063a57f8cb71461099657005b80637bb7bed1116101c45780637bb7bed1146108ca5780637ecebe00146108ea57806385a393bb146109175780638da5cb5b1461092d57005b8063715018a61461085a57806373aeea361461086f57806373b295c21461088f5780637b5dbbdd146108af57005b806346904840116102ee578063515bc32311610287578063600c557d116102595780636f2d2d5f116102415780636f2d2d5f146107ed5780636f307dc31461080d57806370a082311461082d57005b8063600c557d14610760578063647f3430146107cd57005b8063515bc323146106df57806352a80085146106ff57806352f7c988146107205780635c0bfa881461074057005b80634ee527a3116102c05780634ee527a31461065e5780634fb15b3f1461067e5780635004d36c1461069e578063504a75de146106bf57005b806346904840146105e957806347e7ef24146106095780634a7e5cbb146106295780634cdf03921461063e57005b80631e9a695011610360578063313ce56711610332578063313ce5671461057257806334d441d01461059e5780633644e515146105b45780633d61b286146105c957005b80631e9a6950146104f257806323b872dd146105125780632e1a7d4d146105325780632faff4271461055257005b8063134b6edb11610399578063134b6edb1461047857806318160ddd1461049857806319b333e5146104bc5780631e0b8053146104d257005b8063026b49a7146103c8578063066f80cd146103e857806306fdde0314610426578063095ea7b314610448575b005b3480156103d457600080fd5b506103c66103e3366004615af8565b610bfe565b3480156103f457600080fd5b5061010f54610409906001600160a01b031681565b6040516001600160a01b0390911681526020015b60405180910390f35b34801561043257600080fd5b5061043b610c8c565b60405161041d9190615b62565b34801561045457600080fd5b50610468610463366004615b75565b610d1a565b604051901515815260200161041d565b34801561048457600080fd5b50610409610493366004615ba1565b610d87565b3480156104a457600080fd5b506104ae60035481565b60405190815260200161041d565b3480156104c857600080fd5b506104ae60d75481565b3480156104de57600080fd5b506103c66104ed366004615ba1565b610db7565b3480156104fe57600080fd5b506104ae61050d366004615b75565b610ea8565b34801561051e57600080fd5b5061046861052d366004615bba565b610fc8565b34801561053e57600080fd5b506104ae61054d366004615ba1565b6110bc565b34801561055e57600080fd5b50606e54610409906001600160a01b031681565b34801561057e57600080fd5b5060025461058c9060ff1681565b60405160ff909116815260200161041d565b3480156105aa57600080fd5b506104ae60db5481565b3480156105c057600080fd5b506104ae6110c8565b3480156105d557600080fd5b506104ae6105e4366004615ba1565b6110e7565b3480156105f557600080fd5b5060d954610409906001600160a01b031681565b34801561061557600080fd5b506104ae610624366004615b75565b6111dc565b34801561063557600080fd5b5060d6546104ae565b34801561064a57600080fd5b506103c6610659366004615c9e565b6113df565b34801561066a57600080fd5b506103c6610679366004615d46565b611589565b34801561068a57600080fd5b506104ae610699366004615db8565b61160b565b3480156106aa57600080fd5b5061011154610409906001600160a01b031681565b3480156106cb57600080fd5b506104ae6106da366004615e09565b611620565b3480156106eb57600080fd5b506104ae6106fa366004615e83565b611649565b34801561070b57600080fd5b5061011054610409906001600160a01b031681565b34801561072c57600080fd5b506103c661073b366004615ed6565b6116ff565b34801561074c57600080fd5b506104ae61075b366004615db8565b61177f565b34801561076c57600080fd5b5061078061077b366004615bba565b611917565b604080516001600160a01b039889168152602081019790975294871694860194909452919094166060840152600f93840b6080840152830b60a083015290910b60c082015260e00161041d565b3480156107d957600080fd5b506103c66107e8366004615af8565b6119a7565b3480156107f957600080fd5b506103c6610808366004615ef8565b611a30565b34801561081957600080fd5b5060d554610409906001600160a01b031681565b34801561083957600080fd5b506104ae610848366004615af8565b60046020526000908152604090205481565b34801561086657600080fd5b506103c6611b23565b34801561087b57600080fd5b506103c661088a366004615fce565b611b89565b34801561089b57600080fd5b5060dd54610409906001600160a01b031681565b3480156108bb57600080fd5b506104ae662386f26fc1000081565b3480156108d657600080fd5b506104096108e5366004615ba1565b611cdc565b3480156108f657600080fd5b506104ae610905366004615af8565b60086020526000908152604090205481565b34801561092357600080fd5b506104ae60d85481565b34801561093957600080fd5b50603c546001600160a01b0316610409565b34801561095757600080fd5b50607154610409906001600160a01b031681565b34801561097757600080fd5b5061043b611d06565b34801561098c57600080fd5b506104ae60da5481565b3480156109a257600080fd5b506103c66109b1366004615af8565b611d13565b3480156109c257600080fd5b506104686109d1366004615b75565b611e22565b3480156109e257600080fd5b506104ae64e8d4a5100081565b3480156109fb57600080fd5b506104ae610a0a366004615bba565b611e9a565b348015610a1b57600080fd5b506104ae610a2a366004615ba1565b6120e9565b348015610a3b57600080fd5b506103c6610a4a366004616063565b6120f5565b348015610a5b57600080fd5b506104ae6305f5e10081565b348015610a7357600080fd5b506104ae61218a565b348015610a8857600080fd5b5060dc54610409906001600160a01b031681565b348015610aa857600080fd5b506103c6610ab736600461609c565b612261565b348015610ac857600080fd5b506104ae610ad7366004616063565b600560209081526000928352604080842090915290825290205481565b348015610b0057600080fd5b506104ae60d45481565b348015610b1657600080fd5b506104ae6124cf565b348015610b2b57600080fd5b506103c6610b3a366004615bba565b6125b2565b348015610b4b57600080fd5b506103c6610b5a366004615af8565b61269e565b348015610b6b57600080fd5b50606f54610409906001600160a01b031681565b348015610b8b57600080fd5b506104ae612727565b348015610ba057600080fd5b506104ae6127bc565b348015610bb557600080fd5b506103c6610bc4366004615af8565b61284c565b348015610bd557600080fd5b506104ae61292e565b348015610bea57600080fd5b506103c6610bf9366004615ba1565b61299a565b603c546001600160a01b03163314610c5d5760405162461bcd60e51b815260206004820181905260248201527f4f776e61626c653a2063616c6c6572206973206e6f7420746865206f776e657260448201526064015b60405180910390fd5b606e805473ffffffffffffffffffffffffffffffffffffffff19166001600160a01b0392909216919091179055565b60008054610c999061610d565b80601f0160208091040260200160405190810160405280929190818152602001828054610cc59061610d565b8015610d125780601f10610ce757610100808354040283529160200191610d12565b820191906000526020600020905b815481529060010190602001808311610cf557829003601f168201915b505050505081565b3360008181526005602090815260408083206001600160a01b038716808552925280832085905551919290917f8c5be1e5ebec7d5bd14f71427d1e84f3dd0314c0f7b2291e5b200ac8c7c3b92590610d759086815260200190565b60405180910390a35060015b92915050565b600060d68281548110610d9c57610d9c616142565b6000918252602090912001546001600160a01b031692915050565b603c546001600160a01b03163314610e115760405162461bcd60e51b815260206004820181905260248201527f4f776e61626c653a2063616c6c6572206973206e6f7420746865206f776e65726044820152606401610c54565b60d6548110610e625760405162461bcd60e51b815260206004820152600d60248201527f4f7574206f6620626f756e6473000000000000000000000000000000000000006044820152606401610c54565b600060d68281548110610e7757610e77616142565b9060005260206000200160006101000a8154816001600160a01b0302191690836001600160a01b0316021790555050565b6000600260a2541415610efd5760405162461bcd60e51b815260206004820152601f60248201527f5265656e7472616e637947756172643a207265656e7472616e742063616c6c006044820152606401610c54565b600260a25560d85460d754610f12919061616e565b421115610f2357610f216129f9565b505b670de0b6b3a764000082610f3561218a565b610f3f9190616186565b610f4991906161a5565b9050610f5481612f71565b610f5e3383612ff8565b60d554610f75906001600160a01b03168483613074565b604080518281526020810184905233916001600160a01b0386169183917ffbde797d201c681b91056529119e0b02407c7bb96a4a2c75c01fc9667232c8db910160405180910390a4600160a25592915050565b6001600160a01b0383166000908152600560209081526040808320338452909152812054600019811461102457610fff83826161c7565b6001600160a01b03861660009081526005602090815260408083203384529091529020555b6001600160a01b0385166000908152600460205260408120805485929061104c9084906161c7565b90915550506001600160a01b03808516600081815260046020526040908190208054870190555190918716907fddf252ad1be2c89b69c2b068fc378daa952ba7f163c4a11628f55a4df523b3ef906110a79087815260200190565b60405180910390a360019150505b9392505050565b6000610d813383610ea8565b600060065446146110e0576110db613113565b905090565b5060075490565b6000600260a254141561113c5760405162461bcd60e51b815260206004820152601f60248201527f5265656e7472616e637947756172643a207265656e7472616e742063616c6c006044820152606401610c54565b600260a255670de0b6b3a76400008261115361218a565b61115d9190616186565b61116791906161a5565b905061117281612f71565b61117c3383612ff8565b60d554611193906001600160a01b03163383613074565b60408051828152602081018490523391829182917ffbde797d201c681b91056529119e0b02407c7bb96a4a2c75c01fc9667232c8db910160405180910390a4600160a255919050565b6000600260a25414156112315760405162461bcd60e51b815260206004820152601f60248201527f5265656e7472616e637947756172643a207265656e7472616e742063616c6c006044820152606401610c54565b600260a255816112835760405162461bcd60e51b815260206004820152600860248201527f3020746f6b656e730000000000000000000000000000000000000000000000006044820152606401610c54565b60d85460d754611293919061616e565b4211156112a4576112a26129f9565b505b81670de0b6b3a7640000816112b76124cf565b6112c19190616186565b6112cb91906161a5565b9150600354600014156113155764e8d4a510008210156112ea57600080fd5b60d954611304906001600160a01b03166305f5e1006131ad565b6113126305f5e100836161c7565b91505b816113625760405162461bcd60e51b815260206004820152600a60248201527f30207265636569766564000000000000000000000000000000000000000000006044820152606401610c54565b60d55461137a906001600160a01b0316333086613211565b611383836132b6565b61138d84836131ad565b60408051848152602081018490526001600160a01b0386169133917fdcbc1c05240f31ff3ad067ef1ee35ce4997762752e3a095284754544f4c709d7910160405180910390a350600160a25592915050565b60006113eb600161330b565b9050801561142057600980547fffffffffffffffffffffffffffffffffffffffffffffffffffffffffffff00ff166101001790555b611428613446565b6114306134cb565b61143c87876012613550565b60d5805473ffffffffffffffffffffffffffffffffffffffff19166001600160a01b038a16908117909155604080517f313ce567000000000000000000000000000000000000000000000000000000008152905163313ce567916004808201926020929091908290030181865afa1580156114bb573d6000803e3d6000fd5b505050506040513d601f19601f820116820180604052508101906114df91906161de565b60ff1660d4556114ef85856116ff565b60d883905560dd805473ffffffffffffffffffffffffffffffffffffffff19166001600160a01b038416179055801561157f57600980547fffffffffffffffffffffffffffffffffffffffffffffffffffffffffffff00ff169055604051600181527f7f26b83ff96e1f2b6a682f133852f6798a09c465da95921460cefb38474024989060200160405180910390a15b5050505050505050565b610110546040517f31fb67c20000000000000000000000000000000000000000000000000000000081526001600160a01b03909116906331fb67c2906115d590859085906004016161fb565b600060405180830381600087803b1580156115ef57600080fd5b505af1158015611603573d6000803e3d6000fd5b505050505050565b600061161884848461177f565b949350505050565b600061163188338888888888612261565b61163c89898961177f565b9998505050505050505050565b60d5546040517fd505accf000000000000000000000000000000000000000000000000000000008152336004820152306024820152604481018790526064810186905260ff8516608482015260a4810184905260c481018390526000916001600160a01b03169063d505accf9060e401600060405180830381600087803b1580156116d357600080fd5b505af11580156116e7573d6000803e3d6000fd5b505050506116f4876120e9565b979650505050505050565b603c546001600160a01b031633146117595760405162461bcd60e51b815260206004820181905260248201527f4f776e61626c653a2063616c6c6572206973206e6f7420746865206f776e65726044820152606401610c54565b6127108210801561176b575061271081105b61177457600080fd5b60da9190915560db55565b6000600260a25414156117d45760405162461bcd60e51b815260206004820152601f60248201527f5265656e7472616e637947756172643a207265656e7472616e742063616c6c006044820152606401610c54565b600260a25560d85460d7546117e9919061616e565b4211156117fa576117f86129f9565b505b6001600160a01b038316600090815260056020908152604080832033845290915290205460001981148015906118395750336001600160a01b03851614155b1561186d5761184885826161c7565b6001600160a01b03851660009081526005602090815260408083203384529091529020555b670de0b6b3a76400008561187f61218a565b6118899190616186565b61189391906161a5565b915061189e82612f71565b6118a88486612ff8565b60d5546118bf906001600160a01b03168484613074565b60408051838152602081018790526001600160a01b03808716929086169133917ffbde797d201c681b91056529119e0b02407c7bb96a4a2c75c01fc9667232c8db910160405180910390a450600160a2559392505050565b6070602052826000526040600020602052816000526040600020818154811061193f57600080fd5b60009182526020909120600690910201805460018201546002830154600384015460048501546005909501546001600160a01b039485169850929650908316945090911691600f81810b92700100000000000000000000000000000000909204810b91900b87565b603c546001600160a01b03163314611a015760405162461bcd60e51b815260206004820181905260248201527f4f776e61626c653a2063616c6c6572206973206e6f7420746865206f776e65726044820152606401610c54565b60dc805473ffffffffffffffffffffffffffffffffffffffff19166001600160a01b0392909216919091179055565b611a3f8a8a8a8a8a8a8a6113df565b61010f80546001600160a01b0385811673ffffffffffffffffffffffffffffffffffffffff199283161790925561011080548584169083168117909155610111805485851693169290921790915560d5546040517f095ea7b3000000000000000000000000000000000000000000000000000000008152600481019290925260001960248301529091169063095ea7b3906044016020604051808303816000875af1158015611af2573d6000803e3d6000fd5b505050506040513d601f19601f82011682018060405250810190611b16919061622a565b5050505050505050505050565b603c546001600160a01b03163314611b7d5760405162461bcd60e51b815260206004820181905260248201527f4f776e61626c653a2063616c6c6572206973206e6f7420746865206f776e65726044820152606401610c54565b611b87600061359b565b565b603c546001600160a01b03163314611be35760405162461bcd60e51b815260206004820181905260248201527f4f776e61626c653a2063616c6c6572206973206e6f7420746865206f776e65726044820152606401610c54565b6001600160a01b0380851660009081526070602090815260408083209387168352929052908120611c13916159a2565b60005b81811015611c98576001600160a01b038086166000908152607060209081526040808320938816835292905220838383818110611c5557611c55616142565b83546001810185556000948552602090942060e090910292909201926006029091019050611c838282616268565b50508080611c9090616407565b915050611c16565b507f01aa5c4f582e572c83ccd23ac58ee02c7e51aceb9d47d02987f31536b352992f84848484604051611cce949392919061642d565b60405180910390a150505050565b60d68181548110611cec57600080fd5b6000918252602090912001546001600160a01b0316905081565b60018054610c999061610d565b603c546001600160a01b03163314611d6d5760405162461bcd60e51b815260206004820181905260248201527f4f776e61626c653a2063616c6c6572206973206e6f7420746865206f776e65726044820152606401610c54565b6001600160a01b038116611dc35760405162461bcd60e51b815260206004820152600960248201527f30206164647265737300000000000000000000000000000000000000000000006044820152606401610c54565b60d680546001810182556000919091527fe767803f8ecf1dee6bb0345811f7312cda556058b19db6389ad9ae3568643ddd01805473ffffffffffffffffffffffffffffffffffffffff19166001600160a01b0392909216919091179055565b33600090815260046020526040812080548391908390611e439084906161c7565b90915550506001600160a01b038316600081815260046020526040908190208054850190555133907fddf252ad1be2c89b69c2b068fc378daa952ba7f163c4a11628f55a4df523b3ef90610d759086815260200190565b6000600260a2541415611eef5760405162461bcd60e51b815260206004820152601f60248201527f5265656e7472616e637947756172643a207265656e7472616e742063616c6c006044820152606401610c54565b600260a25560dc546001600160a01b03163314611f4e5760405162461bcd60e51b815260206004820152600960248201527f424f7073206f6e6c7900000000000000000000000000000000000000000000006044820152606401610c54565b60008211611f9e5760405162461bcd60e51b815260206004820152600860248201527f3020746f6b656e730000000000000000000000000000000000000000000000006044820152606401610c54565b60d85460d754611fae919061616e565b421115611fbf57611fbd6129f9565b505b81670de0b6b3a764000081611fd26124cf565b611fdc9190616186565b611fe691906161a5565b91508161205b5760405162461bcd60e51b815260206004820152603760248201527f4465706f73697420616d6f756e7420746f6f20736d616c6c2c20796f7520776960448201527f6c6c206765742030207265636569707420746f6b656e730000000000000000006064820152608401610c54565b60d554612073906001600160a01b0316863086613211565b61207c836132b6565b61208684836131ad565b836001600160a01b0316856001600160a01b03167fdcbc1c05240f31ff3ad067ef1ee35ce4997762752e3a095284754544f4c709d785856040516120d4929190918252602082015260400190565b60405180910390a350600160a2559392505050565b6000610d8133836111dc565b603c546001600160a01b0316331461214f5760405162461bcd60e51b815260206004820181905260248201527f4f776e61626c653a2063616c6c6572206973206e6f7420746865206f776e65726044820152606401610c54565b606f80546001600160a01b0393841673ffffffffffffffffffffffffffffffffffffffff199182161790915560718054929093169116179055565b6000600354600014156121a55760d4546110db90600a616604565b6000670de0b6b3a76400006121b86127bc565b61010f546040516370a0823160e01b81523060048201526001600160a01b03909116906370a0823190602401602060405180830381865afa158015612201573d6000803e3d6000fd5b505050506040513d601f19601f820116820180604052508101906122259190616610565b61222f9190616186565b61223991906161a5565b60035490915061225182670de0b6b3a7640000616186565b61225b91906161a5565b91505090565b428410156122b15760405162461bcd60e51b815260206004820152601760248201527f5045524d49545f444541444c494e455f455850495245440000000000000000006044820152606401610c54565b600060016122bd6110c8565b6001600160a01b038a811660008181526008602090815260409182902080546001810190915582517f6e71edae12b1b97f4d1f60370fef10105fa2faae0126114a169c64845d6126c98184015280840194909452938d166060840152608083018c905260a083019390935260c08083018b90528151808403909101815260e0830190915280519201919091207f19010000000000000000000000000000000000000000000000000000000000006101008301526101028201929092526101228101919091526101420160408051601f198184030181528282528051602091820120600084529083018083525260ff871690820152606081018590526080810184905260a0016020604051602081039080840390855afa1580156123e4573d6000803e3d6000fd5b5050604051601f1901519150506001600160a01b0381161580159061241a5750876001600160a01b0316816001600160a01b0316145b6124665760405162461bcd60e51b815260206004820152600e60248201527f494e56414c49445f5349474e45520000000000000000000000000000000000006044820152606401610c54565b6001600160a01b0390811660009081526005602090815260408083208a8516808552908352928190208990555188815291928a16917f8c5be1e5ebec7d5bd14f71427d1e84f3dd0314c0f7b2291e5b200ac8c7c3b925910160405180910390a350505050505050565b6000600354600014156124f55760d4546124ea9060246161c7565b6110db90600a616604565b6000670de0b6b3a76400006125086127bc565b61010f546040516370a0823160e01b81523060048201526001600160a01b03909116906370a0823190602401602060405180830381865afa158015612551573d6000803e3d6000fd5b505050506040513d601f19601f820116820180604052508101906125759190616610565b61257f9190616186565b61258991906161a5565b905061259d670de0b6b3a7640000826161a5565b60035461225190670de0b6b3a7640000616186565b603c546001600160a01b0316331461260c5760405162461bcd60e51b815260206004820181905260248201527f4f776e61626c653a2063616c6c6572206973206e6f7420746865206f776e65726044820152606401610c54565b6040517f095ea7b30000000000000000000000000000000000000000000000000000000081526001600160a01b0383811660048301526024820183905284169063095ea7b3906044016020604051808303816000875af1158015612674573d6000803e3d6000fd5b505050506040513d601f19601f82011682018060405250810190612698919061622a565b50505050565b603c546001600160a01b031633146126f85760405162461bcd60e51b815260206004820181905260248201527f4f776e61626c653a2063616c6c6572206973206e6f7420746865206f776e65726044820152606401610c54565b60d9805473ffffffffffffffffffffffffffffffffffffffff19166001600160a01b0392909216919091179055565b600080670de0b6b3a764000061273b6127bc565b61010f546040516370a0823160e01b81523060048201526001600160a01b03909116906370a0823190602401602060405180830381865afa158015612784573d6000803e3d6000fd5b505050506040513d601f19601f820116820180604052508101906127a89190616610565b6127b29190616186565b610d8191906161a5565b60008060008060008061011160009054906101000a90046001600160a01b03166001600160a01b031663feaf968c6040518163ffffffff1660e01b815260040160a060405180830381865afa158015612819573d6000803e3d6000fd5b505050506040513d601f19601f8201168201806040525081019061283d9190616643565b50919998505050505050505050565b603c546001600160a01b031633146128a65760405162461bcd60e51b815260206004820181905260248201527f4f776e61626c653a2063616c6c6572206973206e6f7420746865206f776e65726044820152606401610c54565b6001600160a01b0381166129225760405162461bcd60e51b815260206004820152602660248201527f4f776e61626c653a206e6577206f776e657220697320746865207a65726f206160448201527f64647265737300000000000000000000000000000000000000000000000000006064820152608401610c54565b61292b8161359b565b50565b6000600260a25414156129835760405162461bcd60e51b815260206004820152601f60248201527f5265656e7472616e637947756172643a207265656e7472616e742063616c6c006044820152606401610c54565b600260a2556129906129f9565b9050600160a25590565b603c546001600160a01b031633146129f45760405162461bcd60e51b815260206004820181905260248201527f4f776e61626c653a2063616c6c6572206973206e6f7420746865206f776e65726044820152606401610c54565b60d855565b60d5544260d7556000906001600160a01b031681612a156135fa565b9050612a1f613667565b60005b60d654811015612d185760006001600160a01b031660d68281548110612a4a57612a4a616142565b6000918252602090912001546001600160a01b031614612d0657826001600160a01b031660d68281548110612a8157612a81616142565b6000918252602090912001546001600160a01b03161415612aa157612d06565b60016001600160a01b031660d68281548110612abf57612abf616142565b6000918252602090912001546001600160a01b03161415612b765747662386f26fc10000811115612b705760dd60009054906101000a90046001600160a01b03166001600160a01b031663d0e30db0826040518263ffffffff1660e01b81526004016000604051808303818588803b158015612b3a57600080fd5b505af1158015612b4e573d6000803e3d6000fd5b505060dd54612b6e93506001600160a01b031691508690508360006136cc565b505b50612d06565b600060d68281548110612b8b57612b8b616142565b6000918252602090912001546040516370a0823160e01b81523060048201526001600160a01b03909116906370a0823190602401602060405180830381865afa158015612bdc573d6000803e3d6000fd5b505050506040513d601f19601f82011682018060405250810190612c009190616610565b9050662386f26fc1000060d68381548110612c1d57612c1d616142565b60009182526020918290200154604080517f313ce56700000000000000000000000000000000000000000000000000000000815290516001600160a01b039092169263313ce567926004808401938290030181865afa158015612c84573d6000803e3d6000fd5b505050506040513d601f19601f82011682018060405250810190612ca891906161de565b612cb3906012616693565b612cbe90600a6166b6565b612cc89083616186565b1115612d0457612d0260d68381548110612ce457612ce4616142565b60009182526020822001546001600160a01b031690869084906136cc565b505b505b80612d1081616407565b915050612a22565b506000612d236135fa565b90506000612d3183836161c7565b90508015612f6a5760d5546040516370a0823160e01b815230600482015260009184916001600160a01b03909116906370a0823190602401602060405180830381865afa158015612d86573d6000803e3d6000fd5b505050506040513d601f19601f82011682018060405250810190612daa9190616610565b612db49084616186565b612dbe91906161a5565b9050600061271060da5483612dd39190616186565b612ddd91906161a5565b9050600061271060db5484612df29190616186565b612dfc91906161a5565b60d55460d954919250612e1c916001600160a01b03918216911684613074565b60d554612e33906001600160a01b03163383613074565b60408051338152602081018890529081018690527f7595de4054dcab05a338b0855bb2e6155c81172fc76a0cdc037724df4d7e1c4f9060600160405180910390a160d954604080516001600160a01b039092168252602082018490527f4160cbc62d82681031bd44dffd104f752175f93f9b3c78a5a8f0867c667ee918910160405180910390a160408051338152602081018390527f97c227f091684bc53502ee6cf0e3bd656721fdbe9f1b9fddf678b8979efb5a26910160405180910390a160d5546040516370a0823160e01b8152306004820152612f66916001600160a01b0316906370a0823190602401602060405180830381865afa158015612f3d573d6000803e3d6000fd5b505050506040513d601f19601f82011682018060405250810190612f619190616610565b6132b6565b5050505b5050505090565b6101105461010f546040517f1e9a69500000000000000000000000000000000000000000000000000000000081526001600160a01b03918216600482015260248101849052911690631e9a6950906044015b600060405180830381600087803b158015612fdd57600080fd5b505af1158015612ff1573d6000803e3d6000fd5b5050505050565b6001600160a01b038216600090815260046020526040812080548392906130209084906161c7565b90915550506003805482900390556040518181526000906001600160a01b038416907fddf252ad1be2c89b69c2b068fc378daa952ba7f163c4a11628f55a4df523b3ef906020015b60405180910390a35050565b60006040517fa9059cbb000000000000000000000000000000000000000000000000000000008152836004820152826024820152602060006044836000895af13d15601f3d11600160005114161716915050806126985760405162461bcd60e51b815260206004820152600f60248201527f5452414e534645525f4641494c454400000000000000000000000000000000006044820152606401610c54565b60007f8b73c3c69bb8fe3d512ecc4cf759cc79239f7b179b0ffacaa9a75d522b39400f600060405161314591906166c5565b6040805191829003822060208301939093528101919091527fc89efdaa54c0f20c7adf612882df0950f5a951637e0307cdcb4c672f298b8bc660608201524660808201523060a082015260c00160405160208183030381529060405280519060200120905090565b80600360008282546131bf919061616e565b90915550506001600160a01b0382166000818152600460209081526040808320805486019055518481527fddf252ad1be2c89b69c2b068fc378daa952ba7f163c4a11628f55a4df523b3ef9101613068565b60006040517f23b872dd0000000000000000000000000000000000000000000000000000000081528460048201528360248201528260448201526020600060648360008a5af13d15601f3d1160016000511416171691505080612ff15760405162461bcd60e51b815260206004820152601460248201527f5452414e534645525f46524f4d5f4641494c45440000000000000000000000006044820152606401610c54565b6101105460d5546040517f47e7ef240000000000000000000000000000000000000000000000000000000081526001600160a01b039182166004820152602481018490529116906347e7ef2490604401612fc3565b600954600090610100900460ff16156133aa578160ff1660011480156133305750303b155b6133a25760405162461bcd60e51b815260206004820152602e60248201527f496e697469616c697a61626c653a20636f6e747261637420697320616c72656160448201527f647920696e697469616c697a65640000000000000000000000000000000000006064820152608401610c54565b506000919050565b60095460ff8084169116106134275760405162461bcd60e51b815260206004820152602e60248201527f496e697469616c697a61626c653a20636f6e747261637420697320616c72656160448201527f647920696e697469616c697a65640000000000000000000000000000000000006064820152608401610c54565b506009805460ff191660ff92909216919091179055600190565b919050565b600954610100900460ff166134c35760405162461bcd60e51b815260206004820152602b60248201527f496e697469616c697a61626c653a20636f6e7472616374206973206e6f74206960448201527f6e697469616c697a696e670000000000000000000000000000000000000000006064820152608401610c54565b611b87613f82565b600954610100900460ff166135485760405162461bcd60e51b815260206004820152602b60248201527f496e697469616c697a61626c653a20636f6e7472616374206973206e6f74206960448201527f6e697469616c697a696e670000000000000000000000000000000000000000006064820152608401610c54565b611b87614008565b82516135639060009060208601906159c3565b5081516135779060019060208501906159c3565b506002805460ff191660ff831617905546600655613593613113565b600755505050565b603c80546001600160a01b0383811673ffffffffffffffffffffffffffffffffffffffff19831681179093556040519116919082907f8be0079c531659141344cd1fd0a4f28419497f9722a3daafe3b4186f6b6457e090600090a35050565b60d5546040516370a0823160e01b81523060048201526000916001600160a01b0316906370a0823190602401602060405180830381865afa158015613643573d6000803e3d6000fd5b505050506040513d601f19601f820116820180604052508101906110db9190616610565b61011060009054906101000a90046001600160a01b03166001600160a01b031663372500ab6040518163ffffffff1660e01b8152600401600060405180830381600087803b1580156136b857600080fd5b505af1158015612698573d6000803e3d6000fd5b6040516370a0823160e01b815230600482015260009081906001600160a01b038616906370a0823190602401602060405180830381865afa158015613715573d6000803e3d6000fd5b505050506040513d601f19601f820116820180604052508101906137399190616610565b6001600160a01b038088166000908152607060209081526040808320938a1683529281528282208054845181840281018401909552808552949550919390849084015b828210156138175760008481526020908190206040805160e0810182526006860290920180546001600160a01b03908116845260018083015485870152600283015482169385019390935260038201541660608401526004810154600f81810b6080860152700100000000000000000000000000000000909104810b60a0850152600590910154900b60c0830152908352909201910161377c565b505050509050600085905060008251116138735760405162461bcd60e51b815260206004820152600e60248201527f4e6f20726f75746520666f756e640000000000000000000000000000000000006044820152606401610c54565b60005b8251811015613e285782818151811061389157613891616142565b6020026020010151602001516001141561390f576139088382815181106138ba576138ba616142565b6020026020010151600001518483815181106138d8576138d8616142565b6020026020010151604001518584815181106138f6576138f6616142565b6020026020010151606001518a61408c565b9650613e16565b82818151811061392157613921616142565b60200260200101516020015160021415613a175782818151811061394757613947616142565b6020026020010151600001516001600160a01b031683828151811061396e5761396e616142565b6020026020010151604001516001600160a01b031614156139d05761390883828151811061399e5761399e616142565b6020026020010151606001518483815181106139bc576139bc616142565b602002602001015160000151896001614206565b6139088382815181106139e5576139e5616142565b602002602001015160400151848381518110613a0357613a03616142565b602002602001015160000151896000614206565b828181518110613a2957613a29616142565b60200260200101516020015160031415613afa57613908838281518110613a5257613a52616142565b602002602001015160400151848381518110613a7057613a70616142565b602002602001015160600151858481518110613a8e57613a8e616142565b6020026020010151600001518a878681518110613aad57613aad616142565b602002602001015160800151888781518110613acb57613acb616142565b602002602001015160a00151898881518110613ae957613ae9616142565b602002602001015160c00151614842565b828181518110613b0c57613b0c616142565b60200260200101516020015160041415613b5c5761390860016001600160a01b0316848381518110613b4057613b40616142565b6020026020010151604001516001600160a01b03161488614f7b565b828181518110613b6e57613b6e616142565b60200260200101516020015160051415613bc757613908838281518110613b9757613b97616142565b602002602001015160400151848381518110613bb557613bb5616142565b60200260200101516000015189615075565b828181518110613bd957613bd9616142565b60200260200101516020015160061415613cf857613908838281518110613c0257613c02616142565b6020026020010151600001516001600160a01b0316848381518110613c2957613c29616142565b6020026020010151604001516001600160a01b031614613c6657838281518110613c5557613c55616142565b602002602001015160400151613c85565b838281518110613c7857613c78616142565b6020026020010151606001515b88858481518110613c9857613c98616142565b6020026020010151600001516001600160a01b0316868581518110613cbf57613cbf616142565b6020026020010151604001516001600160a01b031614868581518110613ce757613ce7616142565b6020026020010151608001516151eb565b828181518110613d0a57613d0a616142565b60200260200101516020015160071415613d6357613908838281518110613d3357613d33616142565b602002602001015160400151848381518110613d5157613d51616142565b602002602001015160000151896153f2565b828181518110613d7557613d75616142565b60200260200101516020015160081415613dce57613908838281518110613d9e57613d9e616142565b602002602001015160400151848381518110613dbc57613dbc616142565b6020026020010151600001518961562d565b60405162461bcd60e51b815260206004820152601160248201527f556e6b6e6f776e206e6f646520747970650000000000000000000000000000006044820152606401610c54565b80613e2081616407565b915050613876565b506040516370a0823160e01b815230600482015260009084906001600160a01b038a16906370a0823190602401602060405180830381865afa158015613e72573d6000803e3d6000fd5b505050506040513d601f19601f82011682018060405250810190613e969190616610565b613ea091906161c7565b905085811015613f185760405162461bcd60e51b815260206004820152603560248201527f446964206e6f74207265636569766520656e6f75676820746f6b656e7320746f60448201527f206163636f756e7420666f7220736c69707061676500000000000000000000006064820152608401610c54565b604080513381526001600160a01b038b811660208301528a1681830152606081018490526080810188905260a0810183905290517fd6d34547c69c5ee3d2667625c188acf1006abb93e0ee7cf03925c67cf77604139181900360c00190a198975050505050505050565b600954610100900460ff16613fff5760405162461bcd60e51b815260206004820152602b60248201527f496e697469616c697a61626c653a20636f6e7472616374206973206e6f74206960448201527f6e697469616c697a696e670000000000000000000000000000000000000000006064820152608401610c54565b611b873361359b565b600954610100900460ff166140855760405162461bcd60e51b815260206004820152602b60248201527f496e697469616c697a61626c653a20636f6e7472616374206973206e6f74206960448201527f6e697469616c697a696e670000000000000000000000000000000000000000006064820152608401610c54565b600160a255565b6000614099848684613074565b600080600080886001600160a01b0316630902f1ac6040518163ffffffff1660e01b8152600401606060405180830381865afa1580156140dd573d6000803e3d6000fd5b505050506040513d601f19601f82011682018060405250810190614101919061677f565b506dffffffffffffffffffffffffffff1691506dffffffffffffffffffffffffffff169150866001600160a01b0316886001600160a01b031610156141525761414b8683836156f0565b9250614160565b61415d8682846156f0565b93505b604080516000815260208101918290527f022c0d9f000000000000000000000000000000000000000000000000000000009091526001600160a01b038a169063022c0d9f906141b890879087903090602481016167c4565b600060405180830381600087803b1580156141d257600080fd5b505af11580156141e6573d6000803e3d6000fd5b5050505083600014156141f9578261163c565b5091979650505050505050565b600080846001600160a01b0316630dfe16816040518163ffffffff1660e01b8152600401602060405180830381865afa158015614247573d6000803e3d6000fd5b505050506040513d601f19601f8201168201806040525081019061426b91906167fc565b90506000856001600160a01b031663d21220a76040518163ffffffff1660e01b8152600401602060405180830381865afa1580156142ad573d6000803e3d6000fd5b505050506040513d601f19601f820116820180604052508101906142d191906167fc565b9050831561455257606e546040517fbaa2abde0000000000000000000000000000000000000000000000000000000081526001600160a01b03848116600483015283811660248301526044820188905260006064830181905260848301523060a48301524260c48301529091169063baa2abde9060e40160408051808303816000875af1158015614366573d6000803e3d6000fd5b505050506040513d601f19601f8201168201806040525081019061438a9190616819565b5050866001600160a01b0316826001600160a01b03161415614424576040516370a0823160e01b815230600482015261441e908790839085906001600160a01b038316906370a08231906024015b602060405180830381865afa1580156143f5573d6000803e3d6000fd5b505050506040513d601f19601f820116820180604052508101906144199190616610565b61408c565b506144e1565b866001600160a01b0316816001600160a01b03161415614474576040516370a0823160e01b815230600482015261441e908790849084906001600160a01b038316906370a08231906024016143d8565b60405162461bcd60e51b8152602060048201526024808201527f746f6b656e4f7574206973206e6f74206120746f6b656e205f696e207468652060448201527f70616972000000000000000000000000000000000000000000000000000000006064820152608401610c54565b6040516370a0823160e01b81523060048201526001600160a01b038816906370a0823190602401602060405180830381865afa158015614525573d6000803e3d6000fd5b505050506040513d601f19601f820116820180604052508101906145499190616610565b92505050611618565b6000806000886001600160a01b0316630902f1ac6040518163ffffffff1660e01b8152600401606060405180830381865afa158015614595573d6000803e3d6000fd5b505050506040513d601f19601f820116820180604052508101906145b9919061677f565b925092509250896001600160a01b0316856001600160a01b03161415614794576145f9898b86614419876dffffffffffffffffffffffffffff168d61582c565b50606e546040516370a0823160e01b81523060048201526001600160a01b039182169163e8e337009188918891908316906370a0823190602401602060405180830381865afa158015614650573d6000803e3d6000fd5b505050506040513d601f19601f820116820180604052508101906146749190616610565b6040516370a0823160e01b81523060048201526001600160a01b038a16906370a0823190602401602060405180830381865afa1580156146b8573d6000803e3d6000fd5b505050506040513d601f19601f820116820180604052508101906146dc9190616610565b6040517fffffffff0000000000000000000000000000000000000000000000000000000060e087901b1681526001600160a01b0394851660048201529390921660248401526044830152606482015260006084820181905260a48201523060c48201524260e4820152610104016060604051808303816000875af1158015614768573d6000803e3d6000fd5b505050506040513d601f19601f8201168201806040525081019061478c919061683d565b5050506147ce565b896001600160a01b0316846001600160a01b03161415614474576145f9898b87614419866dffffffffffffffffffffffffffff168d61582c565b6040516370a0823160e01b81523060048201526001600160a01b038a16906370a0823190602401602060405180830381865afa158015614812573d6000803e3d6000fd5b505050506040513d601f19601f820116820180604052508101906148369190616610565b95505050505050611618565b60008084600f0b1215614c5b5781600f0b6000191415614b52576148658461686b565b9350600084600f0b67ffffffffffffffff81111561488557614885615bfb565b6040519080825280602002602001820160405280156148ae578160200160208202803683370190505b509050858185600f0b815181106148c7576148c7616142565b60200260200101818152505084600f0b600214156149a057866001600160a01b0316630b4c7e4d60405180604001604052808460008151811061490c5761490c616142565b602002602001015181526020018460018151811061492c5761492c616142565b602002602001015181525060006040518363ffffffff1660e01b81526004016149569291906168cd565b6020604051808303816000875af1158015614975573d6000803e3d6000fd5b505050506040513d601f19601f820116820180604052508101906149999190616610565b9150614b4c565b84600f0b60031415614a4357866001600160a01b0316634515cef36040518060600160405280846000815181106149d9576149d9616142565b60200260200101518152602001846001815181106149f9576149f9616142565b6020026020010151815260200184600281518110614a1957614a19616142565b602002602001015181525060006040518363ffffffff1660e01b815260040161495692919061690b565b84600f0b60041415614b4c57866001600160a01b031663029b2f34604051806080016040528084600081518110614a7c57614a7c616142565b6020026020010151815260200184600181518110614a9c57614a9c616142565b6020026020010151815260200184600281518110614abc57614abc616142565b6020026020010151815260200184600381518110614adc57614adc616142565b602002602001015181525060006040518363ffffffff1660e01b8152600401614b06929190616949565b6020604051808303816000875af1158015614b25573d6000803e3d6000fd5b505050506040513d601f19601f82011682018060405250810190614b499190616610565b91505b506116f4565b82600f0b6000191415614bfc576040517f1a4d01d200000000000000000000000000000000000000000000000000000000815260048101869052600f83900b6024820152600060448201526001600160a01b03871690631a4d01d2906064015b6020604051808303816000875af1158015614bd1573d6000803e3d6000fd5b505050506040513d601f19601f82011682018060405250810190614bf59190616610565b90506116f4565b6040517f3df02124000000000000000000000000000000000000000000000000000000008152600f84810b600483015283900b602482015260448101869052600060648201526001600160a01b03871690633df0212490608401614bb2565b600084600f0b13156116f45781600f0b6000191415614ed257600084600f0b67ffffffffffffffff811115614c9257614c92615bfb565b604051908082528060200260200182016040528015614cbb578160200160208202803683370190505b509050858185600f0b81518110614cd457614cd4616142565b60200260200101818152505084600f0b60021415614d6657866001600160a01b031663ee22be23604051806040016040528084600081518110614d1957614d19616142565b6020026020010151815260200184600181518110614d3957614d39616142565b6020026020010151815250600060016040518463ffffffff1660e01b815260040161495693929190616964565b84600f0b60031415614e0c57866001600160a01b0316632b6e993a604051806060016040528084600081518110614d9f57614d9f616142565b6020026020010151815260200184600181518110614dbf57614dbf616142565b6020026020010151815260200184600281518110614ddf57614ddf616142565b6020026020010151815250600060016040518463ffffffff1660e01b815260040161495693929190616988565b84600f0b60041415614b4c57866001600160a01b031663dc3a2d81604051806080016040528084600081518110614e4557614e45616142565b6020026020010151815260200184600181518110614e6557614e65616142565b6020026020010151815260200184600281518110614e8557614e85616142565b6020026020010151815260200184600381518110614ea557614ea5616142565b6020026020010151815250600060016040518463ffffffff1660e01b8152600401614b06939291906169ac565b6040517fa6417ed6000000000000000000000000000000000000000000000000000000008152600f84810b600483015283900b602482015260448101869052600060648201526001600160a01b0387169063a6417ed6906084016020604051808303816000875af1158015614f4b573d6000803e3d6000fd5b505050506040513d601f19601f82011682018060405250810190614f6f9190616610565b98975050505050505050565b60008215614ff05773b31f66aa3c1e785363f0875a1b74e27b85fd66c76001600160a01b031663d0e30db0836040518263ffffffff1660e01b81526004016000604051808303818588803b158015614fd257600080fd5b505af1158015614fe6573d6000803e3d6000fd5b505050505061506f565b6040517f2e1a7d4d0000000000000000000000000000000000000000000000000000000081526004810183905273b31f66aa3c1e785363f0875a1b74e27b85fd66c790632e1a7d4d90602401600060405180830381600087803b15801561505657600080fd5b505af115801561506a573d6000803e3d6000fd5b505050505b50919050565b6000826001600160a01b0316846001600160a01b03161415615126576040517fdb006a75000000000000000000000000000000000000000000000000000000008152600481018390526001600160a01b0384169063db006a75906024016020604051808303816000875af11580156150f1573d6000803e3d6000fd5b505050506040513d601f19601f820116820180604052508101906151159190616610565b1561511f57600080fd5b50476110b5565b826001600160a01b0316631249c58b836040518263ffffffff1660e01b81526004016000604051808303818588803b15801561516157600080fd5b505af1158015615175573d6000803e3d6000fd5b50506040516370a0823160e01b81523060048201526001600160a01b03871693506370a08231925060240190505b602060405180830381865afa1580156151c0573d6000803e3d6000fd5b505050506040513d601f19601f820116820180604052508101906151e49190616610565b90506110b5565b600081600f0b600314156153355782156152a0576071546040517f69328dec0000000000000000000000000000000000000000000000000000000081526001600160a01b03878116600483015260248201879052306044830152909116906369328dec906064015b6020604051808303816000875af1158015615272573d6000803e3d6000fd5b505050506040513d601f19601f820116820180604052508101906152969190616610565b9350839050611618565b6071546040517f617ba0370000000000000000000000000000000000000000000000000000000081526001600160a01b03878116600483015260248201879052306044830152600060648301529091169063617ba037906084015b600060405180830381600087803b15801561531557600080fd5b505af1158015615329573d6000803e3d6000fd5b50505050839050611618565b821561539357606f546040517f69328dec0000000000000000000000000000000000000000000000000000000081526001600160a01b03878116600483015260248201879052306044830152909116906369328dec90606401615253565b606f546040517fe8eda9df0000000000000000000000000000000000000000000000000000000081526001600160a01b03878116600483015260248201879052306044830152600060648301529091169063e8eda9df906084016152fb565b6000826001600160a01b0316846001600160a01b03161415615573576040517fdb006a75000000000000000000000000000000000000000000000000000000008152600481018390526001600160a01b0384169063db006a75906024016020604051808303816000875af115801561546e573d6000803e3d6000fd5b505050506040513d601f19601f820116820180604052508101906154929190616610565b1561549c57600080fd5b6000836001600160a01b0316636f307dc36040518163ffffffff1660e01b8152600401602060405180830381865afa1580156154dc573d6000803e3d6000fd5b505050506040513d601f19601f8201168201806040525081019061550091906167fc565b6040516370a0823160e01b81523060048201529091506001600160a01b038216906370a0823190602401602060405180830381865afa158015615547573d6000803e3d6000fd5b505050506040513d601f19601f8201168201806040525081019061556b9190616610565b9150506110b5565b6040517fa0712d68000000000000000000000000000000000000000000000000000000008152600481018390526001600160a01b0384169063a0712d68906024016020604051808303816000875af11580156155d3573d6000803e3d6000fd5b505050506040513d601f19601f820116820180604052508101906155f79190616610565b1561560157600080fd5b6040516370a0823160e01b81523060048201526001600160a01b038416906370a08231906024016151a3565b6000826001600160a01b0316846001600160a01b031614156156aa576040517fdb006a75000000000000000000000000000000000000000000000000000000008152600481018390526001600160a01b0384169063db006a75906024015b6020604051808303816000875af11580156151c0573d6000803e3d6000fd5b6040517fb6b55f25000000000000000000000000000000000000000000000000000000008152600481018390526001600160a01b0384169063b6b55f259060240161568b565b60008084116157675760405162461bcd60e51b815260206004820152602b60248201527f556e697377617056324c6962726172793a20494e53554646494349454e545f4960448201527f4e5055545f414d4f554e540000000000000000000000000000000000000000006064820152608401610c54565b6000831180156157775750600082115b6157e95760405162461bcd60e51b815260206004820152602860248201527f556e697377617056324c6962726172793a20494e53554646494349454e545f4c60448201527f49515549444954590000000000000000000000000000000000000000000000006064820152608401610c54565b60006157f76103e586616186565b905060006158058483616186565b90506000826158166103e888616186565b615820919061616e565b90506116f481836161a5565b600080620f2ad961584085620f3c64616186565b61584a91906161a5565b905060006158588580616186565b61586590623cda29616186565b8561587386623cab64616186565b61587d9190616186565b615887919061616e565b905081620f2ad9615897836158c0565b6158a3906101f4616186565b6158ad91906161a5565b6158b791906161c7565b95945050505050565b60018170010000000000000000000000000000000081106158e65760409190911b9060801c5b6801000000000000000081106159015760209190911b9060401c5b64010000000081106159185760109190911b9060201c5b62010000811061592d5760089190911b9060101c5b61010081106159415760049190911b9060081c5b601081106159545760029190911b9060041c5b60088110615963578160011b91505b5080820401600190811c80830401811c80830401811c80830401811c80830401811c80830401811c80830401901c8082048181101561506f5792915050565b508054600082556006029060005260206000209081019061292b9190615a47565b8280546159cf9061610d565b90600052602060002090601f0160209004810192826159f15760008555615a37565b82601f10615a0a57805160ff1916838001178555615a37565b82800160010185558215615a37579182015b82811115615a37578251825591602001919060010190615a1c565b50615a43929150615ac3565b5090565b5b80821115615a4357805473ffffffffffffffffffffffffffffffffffffffff1990811682556000600183018190556002830180548316905560038301805490921690915560048201556005810180547fffffffffffffffffffffffffffffffff00000000000000000000000000000000169055600601615a48565b5b80821115615a435760008155600101615ac4565b6001600160a01b038116811461292b57600080fd5b803561344181615ad8565b600060208284031215615b0a57600080fd5b81356110b581615ad8565b6000815180845260005b81811015615b3b57602081850181015186830182015201615b1f565b81811115615b4d576000602083870101525b50601f01601f19169290920160200192915050565b6020815260006110b56020830184615b15565b60008060408385031215615b8857600080fd5b8235615b9381615ad8565b946020939093013593505050565b600060208284031215615bb357600080fd5b5035919050565b600080600060608486031215615bcf57600080fd5b8335615bda81615ad8565b92506020840135615bea81615ad8565b929592945050506040919091013590565b634e487b7160e01b600052604160045260246000fd5b600082601f830112615c2257600080fd5b813567ffffffffffffffff80821115615c3d57615c3d615bfb565b604051601f8301601f19908116603f01168101908282118183101715615c6557615c65615bfb565b81604052838152866020858801011115615c7e57600080fd5b836020870160208301376000602085830101528094505050505092915050565b600080600080600080600060e0888a031215615cb957600080fd5b8735615cc481615ad8565b9650602088013567ffffffffffffffff80821115615ce157600080fd5b615ced8b838c01615c11565b975060408a0135915080821115615d0357600080fd5b50615d108a828b01615c11565b955050606088013593506080880135925060a0880135915060c0880135615d3681615ad8565b8091505092959891949750929550565b60008060208385031215615d5957600080fd5b823567ffffffffffffffff80821115615d7157600080fd5b818501915085601f830112615d8557600080fd5b813581811115615d9457600080fd5b866020828501011115615da657600080fd5b60209290920196919550909350505050565b600080600060608486031215615dcd57600080fd5b833592506020840135615ddf81615ad8565b91506040840135615def81615ad8565b809150509250925092565b60ff8116811461292b57600080fd5b600080600080600080600080610100898b031215615e2657600080fd5b883597506020890135615e3881615ad8565b96506040890135615e4881615ad8565b9550606089013594506080890135935060a0890135615e6681615dfa565b979a969950949793969295929450505060c08201359160e0013590565b60008060008060008060c08789031215615e9c57600080fd5b8635955060208701359450604087013593506060870135615ebc81615dfa565b9598949750929560808101359460a0909101359350915050565b60008060408385031215615ee957600080fd5b50508035926020909101359150565b6000806000806000806000806000806101408b8d031215615f1857600080fd5b615f218b615aed565b995060208b013567ffffffffffffffff80821115615f3e57600080fd5b615f4a8e838f01615c11565b9a5060408d0135915080821115615f6057600080fd5b50615f6d8d828e01615c11565b98505060608b0135965060808b0135955060a08b01359450615f9160c08c01615aed565b9350615f9f60e08c01615aed565b9250615fae6101008c01615aed565b9150615fbd6101208c01615aed565b90509295989b9194979a5092959850565b60008060008060608587031215615fe457600080fd5b8435615fef81615ad8565b93506020850135615fff81615ad8565b9250604085013567ffffffffffffffff8082111561601c57600080fd5b818701915087601f83011261603057600080fd5b81358181111561603f57600080fd5b88602060e08302850101111561605457600080fd5b95989497505060200194505050565b6000806040838503121561607657600080fd5b823561608181615ad8565b9150602083013561609181615ad8565b809150509250929050565b600080600080600080600060e0888a0312156160b757600080fd5b87356160c281615ad8565b965060208801356160d281615ad8565b9550604088013594506060880135935060808801356160f081615dfa565b9699959850939692959460a0840135945060c09093013592915050565b600181811c9082168061612157607f821691505b6020821081141561506f57634e487b7160e01b600052602260045260246000fd5b634e487b7160e01b600052603260045260246000fd5b634e487b7160e01b600052601160045260246000fd5b6000821982111561618157616181616158565b500190565b60008160001904831182151516156161a0576161a0616158565b500290565b6000826161c257634e487b7160e01b600052601260045260246000fd5b500490565b6000828210156161d9576161d9616158565b500390565b6000602082840312156161f057600080fd5b81516110b581615dfa565b60208152816020820152818360408301376000818301604090810191909152601f909201601f19160101919050565b60006020828403121561623c57600080fd5b815180151581146110b557600080fd5b80600f0b811461292b57600080fd5b60008135610d818161624c565b813561627381615ad8565b815473ffffffffffffffffffffffffffffffffffffffff19166001600160a01b038216178255506020820135600182015560408201356162b281615ad8565b60028201805473ffffffffffffffffffffffffffffffffffffffff19166001600160a01b0383161790555060608201356162eb81615ad8565b60038201805473ffffffffffffffffffffffffffffffffffffffff19166001600160a01b038316179055506004810160808301356163288161624c565b81547fffffffffffffffffffffffffffffffff00000000000000000000000000000000166fffffffffffffffffffffffffffffffff82161782555060a08301356163718161624c565b81546fffffffffffffffffffffffffffffffff1660809190911b7fffffffffffffffffffffffffffffffff00000000000000000000000000000000161790556164036163bf60c0840161625b565b600583017fffffffffffffffffffffffffffffffff00000000000000000000000000000000815416826fffffffffffffffffffffffffffffffff1681178255505050565b5050565b600060001982141561641b5761641b616158565b5060010190565b80356134418161624c565b600060608083016001600160a01b03808916855260208189168187015260408481880152838885526080945084880190508960005b8a81101561650e57813561647581615ad8565b8616835281850135858401528382013561648e81615ad8565b861683850152818801356164a181615ad8565b8616838901526164b2828801616422565b6164c088850182600f0b9052565b5060a06164ce818401616422565b6164dc82860182600f0b9052565b505060c06164eb818401616422565b6164f982860182600f0b9052565b505060e0928301929190910190600101616462565b50909c9b505050505050505050505050565b600181815b8085111561655b57816000190482111561654157616541616158565b8085161561654e57918102915b93841c9390800290616525565b509250929050565b60008261657257506001610d81565b8161657f57506000610d81565b8160018114616595576002811461659f576165bb565b6001915050610d81565b60ff8411156165b0576165b0616158565b50506001821b610d81565b5060208310610133831016604e8410600b84101617156165de575081810a610d81565b6165e88383616520565b80600019048211156165fc576165fc616158565b029392505050565b60006110b58383616563565b60006020828403121561662257600080fd5b5051919050565b805169ffffffffffffffffffff8116811461344157600080fd5b600080600080600060a0868803121561665b57600080fd5b61666486616629565b945060208601519350604086015192506060860151915061668760808701616629565b90509295509295909350565b600060ff821660ff8416808210156166ad576166ad616158565b90039392505050565b60006110b560ff841683616563565b600080835481600182811c9150808316806166e157607f831692505b602080841082141561670157634e487b7160e01b86526022600452602486fd5b818015616715576001811461672657616753565b60ff19861689528489019650616753565b60008a81526020902060005b8681101561674b5781548b820152908501908301616732565b505084890196505b509498975050505050505050565b80516dffffffffffffffffffffffffffff8116811461344157600080fd5b60008060006060848603121561679457600080fd5b61679d84616761565b92506167ab60208501616761565b9150604084015163ffffffff81168114615def57600080fd5b8481528360208201526001600160a01b03831660408201526080606082015260006167f26080830184615b15565b9695505050505050565b60006020828403121561680e57600080fd5b81516110b581615ad8565b6000806040838503121561682c57600080fd5b505080516020909101519092909150565b60008060006060848603121561685257600080fd5b8351925060208401519150604084015190509250925092565b600081600f0b7fffffffffffffffffffffffffffffffff800000000000000000000000000000008114156168a1576168a1616158565b60000392915050565b8060005b60028110156126985781518452602093840193909101906001016168ae565b606081016168db82856168aa565b8260408301529392505050565b8060005b60038110156126985781518452602093840193909101906001016168ec565b6080810161691982856168e8565b8260608301529392505050565b8060005b600481101561269857815184526020938401939091019060010161692a565b60a081016169578285616926565b8260808301529392505050565b6080810161697282866168aa565b8360408301528215156060830152949350505050565b60a0810161699682866168e8565b8360608301528215156080830152949350505050565b60c081016169ba8286616926565b83608083015282151560a083015294935050505056fea2646970667358221220173e12dfe72cbd605667953ad640ae2180e7f767043ef576ebf9ed8ab07f22df64736f6c634300080a0033",
    "linkReferences": {}
  }
}