{
  "abi": [
    {
      "anonymous": false,
      "inputs": [
        {
          "indexed": false,
          "internalType": "address",
          "name": "caller",
          "type": "address"
        },
        {
          "indexed": false,
          "internalType": "uint256",
          "name": "amount",
          "type": "uint256"
        }
      ],
      "name": "AdminFeePaid",
      "type": "event"
    },
    {
      "anonymous": false,
      "inputs": [
        {
          "indexed": true,
          "internalType": "address",
          "name": "owner",
          "type": "address"
        },
        {
          "indexed": true,
          "internalType": "address",
          "name": "spender",
          "type": "address"
        },
        {
          "indexed": false,
          "internalType": "uint256",
          "name": "amount",
          "type": "uint256"
        }
      ],
      "name": "Approval",
      "type": "event"
    },
    {
      "anonymous": false,
      "inputs": [
        {
          "indexed": false,
          "internalType": "address",
          "name": "caller",
          "type": "address"
        },
        {
          "indexed": false,
          "internalType": "uint256",
          "name": "amount",
          "type": "uint256"
        }
      ],
      "name": "CallerFeePaid",
      "type": "event"
    },
    {
      "anonymous": false,
      "inputs": [
        {
          "indexed": true,
          "internalType": "address",
          "name": "caller",
          "type": "address"
        },
        {
          "indexed": true,
          "internalType": "address",
          "name": "owner",
          "type": "address"
        },
        {
          "indexed": false,
          "internalType": "uint256",
          "name": "assets",
          "type": "uint256"
        },
        {
          "indexed": false,
          "internalType": "uint256",
          "name": "shares",
          "type": "uint256"
        }
      ],
      "name": "Deposit",
      "type": "event"
    },
    {
      "anonymous": false,
      "inputs": [
        {
          "indexed": false,
          "internalType": "uint8",
          "name": "version",
          "type": "uint8"
        }
      ],
      "name": "Initialized",
      "type": "event"
    },
    {
      "anonymous": false,
      "inputs": [
        {
          "indexed": true,
          "internalType": "address",
          "name": "previousOwner",
          "type": "address"
        },
        {
          "indexed": true,
          "internalType": "address",
          "name": "newOwner",
          "type": "address"
        }
      ],
      "name": "OwnershipTransferred",
      "type": "event"
    },
    {
      "anonymous": false,
      "inputs": [
        {
          "indexed": false,
          "internalType": "address",
          "name": "caller",
          "type": "address"
        },
        {
          "indexed": false,
          "internalType": "uint256",
          "name": "preCompound",
          "type": "uint256"
        },
        {
          "indexed": false,
          "internalType": "uint256",
          "name": "postCompound",
          "type": "uint256"
        }
      ],
      "name": "Reinvested",
      "type": "event"
    },
    {
      "anonymous": false,
      "inputs": [
        {
          "indexed": false,
          "internalType": "address",
          "name": "caller",
          "type": "address"
        },
        {
          "indexed": false,
          "internalType": "uint256",
          "name": "index",
          "type": "uint256"
        },
        {
          "indexed": false,
          "internalType": "address",
          "name": "rewardToken",
          "type": "address"
        }
      ],
      "name": "RewardTokenSet",
      "type": "event"
    },
    {
      "anonymous": false,
      "inputs": [
        {
          "indexed": false,
          "internalType": "address",
          "name": "fromToken",
          "type": "address"
        },
        {
          "indexed": false,
          "internalType": "address",
          "name": "toToken",
          "type": "address"
        },
        {
          "components": [
            {
              "internalType": "address",
              "name": "protocolSwapAddress",
              "type": "address"
            },
            {
              "internalType": "uint256",
              "name": "nodeType",
              "type": "uint256"
            },
            {
              "internalType": "address",
              "name": "tokenIn",
              "type": "address"
            },
            {
              "internalType": "address",
              "name": "tokenOut",
              "type": "address"
            },
            {
              "internalType": "int128",
              "name": "_misc",
              "type": "int128"
            },
            {
              "internalType": "int128",
              "name": "_in",
              "type": "int128"
            },
            {
              "internalType": "int128",
              "name": "_out",
              "type": "int128"
            }
          ],
          "indexed": false,
          "internalType": "struct Router.Node[]",
          "name": "path",
          "type": "tuple[]"
        }
      ],
      "name": "RouteSet",
      "type": "event"
    },
    {
      "anonymous": false,
      "inputs": [
        {
          "indexed": false,
          "internalType": "address",
          "name": "caller",
          "type": "address"
        },
        {
          "indexed": false,
          "internalType": "address",
          "name": "startingTokenAddress",
          "type": "address"
        },
        {
          "indexed": false,
          "internalType": "address",
          "name": "endingTokenAddress",
          "type": "address"
        },
        {
          "indexed": false,
          "internalType": "uint256",
          "name": "amount",
          "type": "uint256"
        },
        {
          "indexed": false,
          "internalType": "uint256",
          "name": "minSwapAmount",
          "type": "uint256"
        },
        {
          "indexed": false,
          "internalType": "uint256",
          "name": "actualOut",
          "type": "uint256"
        }
      ],
      "name": "Swap",
      "type": "event"
    },
    {
      "anonymous": false,
      "inputs": [
        {
          "indexed": true,
          "internalType": "address",
          "name": "from",
          "type": "address"
        },
        {
          "indexed": true,
          "internalType": "address",
          "name": "to",
          "type": "address"
        },
        {
          "indexed": false,
          "internalType": "uint256",
          "name": "amount",
          "type": "uint256"
        }
      ],
      "name": "Transfer",
      "type": "event"
    },
    {
      "anonymous": false,
      "inputs": [
        {
          "indexed": true,
          "internalType": "address",
          "name": "caller",
          "type": "address"
        },
        {
          "indexed": true,
          "internalType": "address",
          "name": "receiver",
          "type": "address"
        },
        {
          "indexed": true,
          "internalType": "address",
          "name": "owner",
          "type": "address"
        },
        {
          "indexed": false,
          "internalType": "uint256",
          "name": "assets",
          "type": "uint256"
        },
        {
          "indexed": false,
          "internalType": "uint256",
          "name": "shares",
          "type": "uint256"
        }
      ],
      "name": "Withdraw",
      "type": "event"
    },
    {
      "stateMutability": "payable",
      "type": "fallback"
    },
    {
      "inputs": [],
      "name": "BOpsAddress",
      "outputs": [
        {
          "internalType": "address",
          "name": "",
          "type": "address"
        }
      ],
      "stateMutability": "view",
      "type": "function"
    },
    {
      "inputs": [],
      "name": "DOMAIN_SEPARATOR",
      "outputs": [
        {
          "internalType": "bytes32",
          "name": "",
          "type": "bytes32"
        }
      ],
      "stateMutability": "view",
      "type": "function"
    },
    {
      "inputs": [],
      "name": "FIRST_DONATION",
      "outputs": [
        {
          "internalType": "uint256",
          "name": "",
          "type": "uint256"
        }
      ],
      "stateMutability": "view",
      "type": "function"
    },
    {
      "inputs": [],
      "name": "MIN_FIRST_MINT",
      "outputs": [
        {
          "internalType": "uint256",
          "name": "",
          "type": "uint256"
        }
      ],
      "stateMutability": "view",
      "type": "function"
    },
    {
      "inputs": [],
      "name": "MIN_SWAP",
      "outputs": [
        {
          "internalType": "uint256",
          "name": "",
          "type": "uint256"
        }
      ],
      "stateMutability": "view",
      "type": "function"
    },
    {
      "inputs": [],
      "name": "WAVAX",
      "outputs": [
        {
          "internalType": "contract IWAVAX",
          "name": "",
          "type": "address"
        }
      ],
      "stateMutability": "view",
      "type": "function"
    },
    {
      "inputs": [],
      "name": "aaveLendingPool",
      "outputs": [
        {
          "internalType": "address",
          "name": "",
          "type": "address"
        }
      ],
      "stateMutability": "view",
      "type": "function"
    },
    {
      "inputs": [],
      "name": "aaveLendingPoolV3",
      "outputs": [
        {
          "internalType": "address",
          "name": "",
          "type": "address"
        }
      ],
      "stateMutability": "view",
      "type": "function"
    },
    {
      "inputs": [],
      "name": "adminFee",
      "outputs": [
        {
          "internalType": "uint256",
          "name": "",
          "type": "uint256"
        }
      ],
      "stateMutability": "view",
      "type": "function"
    },
    {
      "inputs": [
        {
          "internalType": "address",
          "name": "",
          "type": "address"
        },
        {
          "internalType": "address",
          "name": "",
          "type": "address"
        }
      ],
      "name": "allowance",
      "outputs": [
        {
          "internalType": "uint256",
          "name": "",
          "type": "uint256"
        }
      ],
      "stateMutability": "view",
      "type": "function"
    },
    {
      "inputs": [
        {
          "internalType": "address",
          "name": "spender",
          "type": "address"
        },
        {
          "internalType": "uint256",
          "name": "amount",
          "type": "uint256"
        }
      ],
      "name": "approve",
      "outputs": [
        {
          "internalType": "bool",
          "name": "",
          "type": "bool"
        }
      ],
      "stateMutability": "nonpayable",
      "type": "function"
    },
    {
      "inputs": [
        {
          "internalType": "address",
          "name": "",
          "type": "address"
        }
      ],
      "name": "balanceOf",
      "outputs": [
        {
          "internalType": "uint256",
          "name": "",
          "type": "uint256"
        }
      ],
      "stateMutability": "view",
      "type": "function"
    },
    {
      "inputs": [],
      "name": "callerFee",
      "outputs": [
        {
          "internalType": "uint256",
          "name": "",
          "type": "uint256"
        }
      ],
      "stateMutability": "view",
      "type": "function"
    },
    {
      "inputs": [],
      "name": "compound",
      "outputs": [
        {
          "internalType": "uint256",
          "name": "",
          "type": "uint256"
        }
      ],
      "stateMutability": "nonpayable",
      "type": "function"
    },
    {
      "inputs": [],
      "name": "decimals",
      "outputs": [
        {
          "internalType": "uint8",
          "name": "",
          "type": "uint8"
        }
      ],
      "stateMutability": "view",
      "type": "function"
    },
    {
      "inputs": [
        {
          "internalType": "address",
          "name": "_to",
          "type": "address"
        },
        {
          "internalType": "uint256",
          "name": "_amt",
          "type": "uint256"
        }
      ],
      "name": "deposit",
      "outputs": [
        {
          "internalType": "uint256",
          "name": "receiptTokens",
          "type": "uint256"
        }
      ],
      "stateMutability": "nonpayable",
      "type": "function"
    },
    {
      "inputs": [
        {
          "internalType": "uint256",
          "name": "_amt",
          "type": "uint256"
        }
      ],
      "name": "deposit",
      "outputs": [
        {
          "internalType": "uint256",
          "name": "",
          "type": "uint256"
        }
      ],
      "stateMutability": "nonpayable",
      "type": "function"
    },
    {
      "inputs": [
        {
          "internalType": "address",
          "name": "_borrower",
          "type": "address"
        },
        {
          "internalType": "address",
          "name": "_to",
          "type": "address"
        },
        {
          "internalType": "uint256",
          "name": "_amt",
          "type": "uint256"
        }
      ],
      "name": "depositFor",
      "outputs": [
        {
          "internalType": "uint256",
          "name": "receiptTokens",
          "type": "uint256"
        }
      ],
      "stateMutability": "nonpayable",
      "type": "function"
    },
    {
      "inputs": [
        {
          "internalType": "uint256",
          "name": "_amt",
          "type": "uint256"
        },
        {
          "internalType": "uint256",
          "name": "_value",
          "type": "uint256"
        },
        {
          "internalType": "uint256",
          "name": "_deadline",
          "type": "uint256"
        },
        {
          "internalType": "uint8",
          "name": "_v",
          "type": "uint8"
        },
        {
          "internalType": "bytes32",
          "name": "_r",
          "type": "bytes32"
        },
        {
          "internalType": "bytes32",
          "name": "_s",
          "type": "bytes32"
        }
      ],
      "name": "depositWithPermit",
      "outputs": [
        {
          "internalType": "uint256",
          "name": "receiptTokens",
          "type": "uint256"
        }
      ],
      "stateMutability": "nonpayable",
      "type": "function"
    },
    {
      "inputs": [
        {
          "internalType": "uint256",
          "name": "_index",
          "type": "uint256"
        }
      ],
      "name": "deprecateRewardToken",
      "outputs": [],
      "stateMutability": "nonpayable",
      "type": "function"
    },
    {
      "inputs": [
        {
          "internalType": "uint256",
          "name": "_amt",
          "type": "uint256"
        }
      ],
      "name": "emergencyRedeem",
      "outputs": [
        {
          "internalType": "uint256",
          "name": "amtToReturn",
          "type": "uint256"
        }
      ],
      "stateMutability": "nonpayable",
      "type": "function"
    },
    {
      "inputs": [],
      "name": "feeRecipient",
      "outputs": [
        {
          "internalType": "address",
          "name": "",
          "type": "address"
        }
      ],
      "stateMutability": "view",
      "type": "function"
    },
    {
      "inputs": [
        {
          "internalType": "uint256",
          "name": "_ind",
          "type": "uint256"
        }
      ],
      "name": "getRewardToken",
      "outputs": [
        {
          "internalType": "address",
          "name": "",
          "type": "address"
        }
      ],
      "stateMutability": "view",
      "type": "function"
    },
    {
      "inputs": [
        {
          "internalType": "address",
          "name": "_underlying",
          "type": "address"
        },
        {
          "internalType": "string",
          "name": "_name",
          "type": "string"
        },
        {
          "internalType": "string",
          "name": "_symbol",
          "type": "string"
        },
        {
          "internalType": "uint256",
          "name": "_adminFee",
          "type": "uint256"
        },
        {
          "internalType": "uint256",
          "name": "_callerFee",
          "type": "uint256"
        },
        {
          "internalType": "uint256",
          "name": "_maxReinvestStale",
          "type": "uint256"
        },
        {
          "internalType": "address",
          "name": "_WAVAX",
          "type": "address"
        }
      ],
      "name": "initialize",
      "outputs": [],
      "stateMutability": "nonpayable",
      "type": "function"
    },
    {
      "inputs": [
        {
          "internalType": "address",
          "name": "_underlying",
          "type": "address"
        },
        {
          "internalType": "string",
          "name": "_name",
          "type": "string"
        },
        {
          "internalType": "string",
          "name": "_symbol",
          "type": "string"
        },
        {
          "internalType": "uint256",
          "name": "_adminFee",
          "type": "uint256"
        },
        {
          "internalType": "uint256",
          "name": "_callerFee",
          "type": "uint256"
        },
        {
          "internalType": "uint256",
          "name": "_maxReinvestStale",
          "type": "uint256"
        },
        {
          "internalType": "address",
          "name": "_WAVAX",
          "type": "address"
        },
        {
          "internalType": "address",
          "name": "_sJOE",
          "type": "address"
        }
      ],
      "name": "initialize",
      "outputs": [],
      "stateMutability": "nonpayable",
      "type": "function"
    },
    {
      "inputs": [],
      "name": "lastReinvestTime",
      "outputs": [
        {
          "internalType": "uint256",
          "name": "",
          "type": "uint256"
        }
      ],
      "stateMutability": "view",
      "type": "function"
    },
    {
      "inputs": [],
      "name": "maxReinvestStale",
      "outputs": [
        {
          "internalType": "uint256",
          "name": "",
          "type": "uint256"
        }
      ],
      "stateMutability": "view",
      "type": "function"
    },
    {
      "inputs": [],
      "name": "name",
      "outputs": [
        {
          "internalType": "string",
          "name": "",
          "type": "string"
        }
      ],
      "stateMutability": "view",
      "type": "function"
    },
    {
      "inputs": [
        {
          "internalType": "address",
          "name": "",
          "type": "address"
        }
      ],
      "name": "nonces",
      "outputs": [
        {
          "internalType": "uint256",
          "name": "",
          "type": "uint256"
        }
      ],
      "stateMutability": "view",
      "type": "function"
    },
    {
      "inputs": [],
      "name": "numRewardTokens",
      "outputs": [
        {
          "internalType": "uint256",
          "name": "",
          "type": "uint256"
        }
      ],
      "stateMutability": "view",
      "type": "function"
    },
    {
      "inputs": [],
      "name": "owner",
      "outputs": [
        {
          "internalType": "address",
          "name": "",
          "type": "address"
        }
      ],
      "stateMutability": "view",
      "type": "function"
    },
    {
      "inputs": [
        {
          "internalType": "address",
          "name": "owner",
          "type": "address"
        },
        {
          "internalType": "address",
          "name": "spender",
          "type": "address"
        },
        {
          "internalType": "uint256",
          "name": "value",
          "type": "uint256"
        },
        {
          "internalType": "uint256",
          "name": "deadline",
          "type": "uint256"
        },
        {
          "internalType": "uint8",
          "name": "v",
          "type": "uint8"
        },
        {
          "internalType": "bytes32",
          "name": "r",
          "type": "bytes32"
        },
        {
          "internalType": "bytes32",
          "name": "s",
          "type": "bytes32"
        }
      ],
      "name": "permit",
      "outputs": [],
      "stateMutability": "nonpayable",
      "type": "function"
    },
    {
      "inputs": [
        {
          "internalType": "address",
          "name": "_token",
          "type": "address"
        }
      ],
      "name": "pushRewardToken",
      "outputs": [],
      "stateMutability": "nonpayable",
      "type": "function"
    },
    {
      "inputs": [],
      "name": "receiptPerUnderlying",
      "outputs": [
        {
          "internalType": "uint256",
          "name": "",
          "type": "uint256"
        }
      ],
      "stateMutability": "view",
      "type": "function"
    },
    {
      "inputs": [
        {
          "internalType": "address",
          "name": "_to",
          "type": "address"
        },
        {
          "internalType": "uint256",
          "name": "_amt",
          "type": "uint256"
        }
      ],
      "name": "redeem",
      "outputs": [
        {
          "internalType": "uint256",
          "name": "amtToReturn",
          "type": "uint256"
        }
      ],
      "stateMutability": "nonpayable",
      "type": "function"
    },
    {
      "inputs": [
        {
          "internalType": "uint256",
          "name": "_amt",
          "type": "uint256"
        }
      ],
      "name": "redeem",
      "outputs": [
        {
          "internalType": "uint256",
          "name": "",
          "type": "uint256"
        }
      ],
      "stateMutability": "nonpayable",
      "type": "function"
    },
    {
      "inputs": [
        {
          "internalType": "uint256",
          "name": "_amt",
          "type": "uint256"
        },
        {
          "internalType": "address",
          "name": "_from",
          "type": "address"
        },
        {
          "internalType": "address",
          "name": "_to",
          "type": "address"
        }
      ],
      "name": "redeemFor",
      "outputs": [
        {
          "internalType": "uint256",
          "name": "amtToReturn",
          "type": "uint256"
        }
      ],
      "stateMutability": "nonpayable",
      "type": "function"
    },
    {
      "inputs": [
        {
          "internalType": "uint256",
          "name": "_amt",
          "type": "uint256"
        },
        {
          "internalType": "address",
          "name": "_from",
          "type": "address"
        },
        {
          "internalType": "address",
          "name": "_to",
          "type": "address"
        },
        {
          "internalType": "uint256",
          "name": "_value",
          "type": "uint256"
        },
        {
          "internalType": "uint256",
          "name": "_deadline",
          "type": "uint256"
        },
        {
          "internalType": "uint8",
          "name": "_v",
          "type": "uint8"
        },
        {
          "internalType": "bytes32",
          "name": "_r",
          "type": "bytes32"
        },
        {
          "internalType": "bytes32",
          "name": "_s",
          "type": "bytes32"
        }
      ],
      "name": "redeemForWithPermit",
      "outputs": [
        {
          "internalType": "uint256",
          "name": "",
          "type": "uint256"
        }
      ],
      "stateMutability": "nonpayable",
      "type": "function"
    },
    {
      "inputs": [],
      "name": "renounceOwnership",
      "outputs": [],
      "stateMutability": "nonpayable",
      "type": "function"
    },
    {
      "inputs": [
        {
          "internalType": "uint256",
          "name": "",
          "type": "uint256"
        }
      ],
      "name": "rewardTokens",
      "outputs": [
        {
          "internalType": "address",
          "name": "",
          "type": "address"
        }
      ],
      "stateMutability": "view",
      "type": "function"
    },
    {
      "inputs": [
        {
          "internalType": "address",
          "name": "",
          "type": "address"
        },
        {
          "internalType": "address",
          "name": "",
          "type": "address"
        },
        {
          "internalType": "uint256",
          "name": "",
          "type": "uint256"
        }
      ],
      "name": "routes",
      "outputs": [
        {
          "internalType": "address",
          "name": "protocolSwapAddress",
          "type": "address"
        },
        {
          "internalType": "uint256",
          "name": "nodeType",
          "type": "uint256"
        },
        {
          "internalType": "address",
          "name": "tokenIn",
          "type": "address"
        },
        {
          "internalType": "address",
          "name": "tokenOut",
          "type": "address"
        },
        {
          "internalType": "int128",
          "name": "_misc",
          "type": "int128"
        },
        {
          "internalType": "int128",
          "name": "_in",
          "type": "int128"
        },
        {
          "internalType": "int128",
          "name": "_out",
          "type": "int128"
        }
      ],
      "stateMutability": "view",
      "type": "function"
    },
    {
      "inputs": [],
      "name": "sJOE",
      "outputs": [
        {
          "internalType": "contract IStableJoeStaking",
          "name": "",
          "type": "address"
        }
      ],
      "stateMutability": "view",
      "type": "function"
    },
    {
      "inputs": [
        {
          "internalType": "address",
          "name": "_aaveLendingPool",
          "type": "address"
        },
        {
          "internalType": "address",
          "name": "_aaveLendingPoolV3",
          "type": "address"
        }
      ],
      "name": "setAAVE",
      "outputs": [],
      "stateMutability": "nonpayable",
      "type": "function"
    },
    {
      "inputs": [
        {
          "internalType": "address",
          "name": "_token",
          "type": "address"
        },
        {
          "internalType": "address",
          "name": "_who",
          "type": "address"
        },
        {
          "internalType": "uint256",
          "name": "_amount",
          "type": "uint256"
        }
      ],
      "name": "setApprovals",
      "outputs": [],
      "stateMutability": "nonpayable",
      "type": "function"
    },
    {
      "inputs": [
        {
          "internalType": "address",
          "name": "_BOpsAddress",
          "type": "address"
        }
      ],
      "name": "setBOps",
      "outputs": [],
      "stateMutability": "nonpayable",
      "type": "function"
    },
    {
      "inputs": [
        {
          "internalType": "uint256",
          "name": "_adminFee",
          "type": "uint256"
        },
        {
          "internalType": "uint256",
          "name": "_callerFee",
          "type": "uint256"
        }
      ],
      "name": "setFee",
      "outputs": [],
      "stateMutability": "nonpayable",
      "type": "function"
    },
    {
      "inputs": [
        {
          "internalType": "address",
          "name": "_feeRecipient",
          "type": "address"
        }
      ],
      "name": "setFeeRecipient",
      "outputs": [],
      "stateMutability": "nonpayable",
      "type": "function"
    },
    {
      "inputs": [
        {
          "internalType": "address",
          "name": "_traderJoeRouter",
          "type": "address"
        }
      ],
      "name": "setJoeRouter",
      "outputs": [],
      "stateMutability": "nonpayable",
      "type": "function"
    },
    {
      "inputs": [
        {
          "internalType": "address",
          "name": "_fromToken",
          "type": "address"
        },
        {
          "internalType": "address",
          "name": "_toToken",
          "type": "address"
        },
        {
          "components": [
            {
              "internalType": "address",
              "name": "protocolSwapAddress",
              "type": "address"
            },
            {
              "internalType": "uint256",
              "name": "nodeType",
              "type": "uint256"
            },
            {
              "internalType": "address",
              "name": "tokenIn",
              "type": "address"
            },
            {
              "internalType": "address",
              "name": "tokenOut",
              "type": "address"
            },
            {
              "internalType": "int128",
              "name": "_misc",
              "type": "int128"
            },
            {
              "internalType": "int128",
              "name": "_in",
              "type": "int128"
            },
            {
              "internalType": "int128",
              "name": "_out",
              "type": "int128"
            }
          ],
          "internalType": "struct Router.Node[]",
          "name": "_path",
          "type": "tuple[]"
        }
      ],
      "name": "setRoute",
      "outputs": [],
      "stateMutability": "nonpayable",
      "type": "function"
    },
    {
      "inputs": [
        {
          "internalType": "uint256",
          "name": "_maxReinvestStale",
          "type": "uint256"
        }
      ],
      "name": "setStale",
      "outputs": [],
      "stateMutability": "nonpayable",
      "type": "function"
    },
    {
      "inputs": [],
      "name": "symbol",
      "outputs": [
        {
          "internalType": "string",
          "name": "",
          "type": "string"
        }
      ],
      "stateMutability": "view",
      "type": "function"
    },
    {
      "inputs": [],
      "name": "totalHoldings",
      "outputs": [
        {
          "internalType": "uint256",
          "name": "",
          "type": "uint256"
        }
      ],
      "stateMutability": "view",
      "type": "function"
    },
    {
      "inputs": [],
      "name": "totalSupply",
      "outputs": [
        {
          "internalType": "uint256",
          "name": "",
          "type": "uint256"
        }
      ],
      "stateMutability": "view",
      "type": "function"
    },
    {
      "inputs": [],
      "name": "traderJoeRouter",
      "outputs": [
        {
          "internalType": "address",
          "name": "",
          "type": "address"
        }
      ],
      "stateMutability": "view",
      "type": "function"
    },
    {
      "inputs": [
        {
          "internalType": "address",
          "name": "to",
          "type": "address"
        },
        {
          "internalType": "uint256",
          "name": "amount",
          "type": "uint256"
        }
      ],
      "name": "transfer",
      "outputs": [
        {
          "internalType": "bool",
          "name": "",
          "type": "bool"
        }
      ],
      "stateMutability": "nonpayable",
      "type": "function"
    },
    {
      "inputs": [
        {
          "internalType": "address",
          "name": "from",
          "type": "address"
        },
        {
          "internalType": "address",
          "name": "to",
          "type": "address"
        },
        {
          "internalType": "uint256",
          "name": "amount",
          "type": "uint256"
        }
      ],
      "name": "transferFrom",
      "outputs": [
        {
          "internalType": "bool",
          "name": "",
          "type": "bool"
        }
      ],
      "stateMutability": "nonpayable",
      "type": "function"
    },
    {
      "inputs": [
        {
          "internalType": "address",
          "name": "newOwner",
          "type": "address"
        }
      ],
      "name": "transferOwnership",
      "outputs": [],
      "stateMutability": "nonpayable",
      "type": "function"
    },
    {
      "inputs": [],
      "name": "underlying",
      "outputs": [
        {
          "internalType": "contract ERC20",
          "name": "",
          "type": "address"
        }
      ],
      "stateMutability": "view",
      "type": "function"
    },
    {
      "inputs": [],
      "name": "underlyingDecimal",
      "outputs": [
        {
          "internalType": "uint256",
          "name": "",
          "type": "uint256"
        }
      ],
      "stateMutability": "view",
      "type": "function"
    },
    {
      "inputs": [],
      "name": "underlyingPerReceipt",
      "outputs": [
        {
          "internalType": "uint256",
          "name": "",
          "type": "uint256"
        }
      ],
      "stateMutability": "view",
      "type": "function"
    },
    {
      "inputs": [
        {
          "internalType": "uint256",
          "name": "_amt",
          "type": "uint256"
        }
      ],
      "name": "withdraw",
      "outputs": [
        {
          "internalType": "uint256",
          "name": "",
          "type": "uint256"
        }
      ],
      "stateMutability": "nonpayable",
      "type": "function"
    },
    {
      "inputs": [
        {
          "internalType": "uint256",
          "name": "_amt",
          "type": "uint256"
        },
        {
          "internalType": "address",
          "name": "_from",
          "type": "address"
        },
        {
          "internalType": "address",
          "name": "_to",
          "type": "address"
        }
      ],
      "name": "withdrawFor",
      "outputs": [
        {
          "internalType": "uint256",
          "name": "",
          "type": "uint256"
        }
      ],
      "stateMutability": "nonpayable",
      "type": "function"
    }
  ],
  "bytecode": {
    "object": "0x608060405234801561001057600080fd5b506167fe80620000216000396000f3fe6080604052600436106103805760003560e01c806373b295c2116101cf578063c5c7003511610101578063e32d5cf81161009a578063f2fde38b1161006c578063f2fde38b14610ad0578063f69e204614610af0578063f74877b514610b05578063fac991cc14610b2557005b8063e32d5cf814610a5b578063e74b981b14610a7b578063e9d337b814610a9b578063e9ec2e9914610abb57005b8063db006a75116100d3578063db006a75146104f0578063dd62ed3e146109f8578063dfa2b90114610a30578063e0794ec514610a4657005b8063c5c700351461098b578063cb8dd1d7146109a3578063cc6e8112146109b8578063d505accf146109d857005b806395d89b4111610173578063b353379311610145578063b353379314610912578063b3db428b1461092b578063b6b55f251461094b578063bf56700a1461096b57005b806395d89b41146108a7578063a0be06f9146108bc578063a57f8cb7146108d2578063a9059cbb146108f257005b80637ecebe00116101ac5780637ecebe001461082657806385a393bb146108535780638da5cb5b146108695780639203430e1461088757005b806373b295c2146107cb5780637b5dbbdd146107eb5780637bb7bed11461080657005b80633d61b286116102b357806352f7c9881161024c5780636f307dc31161021e5780636f307dc31461074957806370a0823114610769578063715018a61461079657806373aeea36146107ab57005b806352f7c9881461067c5780635c0bfa881461069c578063600c557d146106bc578063647f34301461072957005b80634cdf0392116102855780634cdf0392146105fc5780634fb15b3f1461061c578063504a75de1461063c578063515bc3231461065c57005b80633d61b2861461058757806346904840146105a757806347e7ef24146105c75780634a7e5cbb146105e757005b80631e9a6950116103255780632faff427116102f75780632faff42714610510578063313ce5671461053057806334d441d01461055c5780633644e5151461057257005b80631e9a69501461048f57806323b872dd146104af5780632b1dab80146104cf5780632e1a7d4d146104f057005b8063134b6edb1161035e578063134b6edb146103fd57806318160ddd1461043557806319b333e5146104595780631e0b80531461046f57005b8063026b49a71461038257806306fdde03146103a2578063095ea7b3146103cd575b005b34801561038e57600080fd5b5061038061039d366004615a16565b610b45565b3480156103ae57600080fd5b506103b7610bd3565b6040516103c49190615a80565b60405180910390f35b3480156103d957600080fd5b506103ed6103e8366004615a93565b610c61565b60405190151581526020016103c4565b34801561040957600080fd5b5061041d610418366004615abf565b610cce565b6040516001600160a01b0390911681526020016103c4565b34801561044157600080fd5b5061044b60035481565b6040519081526020016103c4565b34801561046557600080fd5b5061044b60d75481565b34801561047b57600080fd5b5061038061048a366004615abf565b610cfe565b34801561049b57600080fd5b5061044b6104aa366004615a93565b610def565b3480156104bb57600080fd5b506103ed6104ca366004615ad8565b610f0f565b3480156104db57600080fd5b5061010f5461041d906001600160a01b031681565b3480156104fc57600080fd5b5061044b61050b366004615abf565b611003565b34801561051c57600080fd5b50606e5461041d906001600160a01b031681565b34801561053c57600080fd5b5060025461054a9060ff1681565b60405160ff90911681526020016103c4565b34801561056857600080fd5b5061044b60db5481565b34801561057e57600080fd5b5061044b61100f565b34801561059357600080fd5b5061044b6105a2366004615abf565b61102e565b3480156105b357600080fd5b5060d95461041d906001600160a01b031681565b3480156105d357600080fd5b5061044b6105e2366004615a93565b611123565b3480156105f357600080fd5b5060d65461044b565b34801561060857600080fd5b50610380610617366004615bbc565b611332565b34801561062857600080fd5b5061044b610637366004615c64565b6114dc565b34801561064857600080fd5b5061044b610657366004615cb5565b6114f1565b34801561066857600080fd5b5061044b610677366004615d2f565b61151a565b34801561068857600080fd5b50610380610697366004615d82565b6115d0565b3480156106a857600080fd5b5061044b6106b7366004615c64565b611650565b3480156106c857600080fd5b506106dc6106d7366004615ad8565b6117e8565b604080516001600160a01b039889168152602081019790975294871694860194909452919094166060840152600f93840b6080840152830b60a083015290910b60c082015260e0016103c4565b34801561073557600080fd5b50610380610744366004615a16565b611878565b34801561075557600080fd5b5060d55461041d906001600160a01b031681565b34801561077557600080fd5b5061044b610784366004615a16565b60046020526000908152604090205481565b3480156107a257600080fd5b50610380611901565b3480156107b757600080fd5b506103806107c6366004615da4565b611967565b3480156107d757600080fd5b5060dd5461041d906001600160a01b031681565b3480156107f757600080fd5b5061044b662386f26fc1000081565b34801561081257600080fd5b5061041d610821366004615abf565b611aba565b34801561083257600080fd5b5061044b610841366004615a16565b60086020526000908152604090205481565b34801561085f57600080fd5b5061044b60d85481565b34801561087557600080fd5b50603c546001600160a01b031661041d565b34801561089357600080fd5b5060715461041d906001600160a01b031681565b3480156108b357600080fd5b506103b7611ae4565b3480156108c857600080fd5b5061044b60da5481565b3480156108de57600080fd5b506103806108ed366004615a16565b611af1565b3480156108fe57600080fd5b506103ed61090d366004615a93565b611c00565b34801561091e57600080fd5b5061044b64e8d4a5100081565b34801561093757600080fd5b5061044b610946366004615ad8565b611c78565b34801561095757600080fd5b5061044b610966366004615abf565b611ed3565b34801561097757600080fd5b50610380610986366004615e39565b611edf565b34801561099757600080fd5b5061044b6305f5e10081565b3480156109af57600080fd5b5061044b611f74565b3480156109c457600080fd5b5060dc5461041d906001600160a01b031681565b3480156109e457600080fd5b506103806109f3366004615e72565b612045565b348015610a0457600080fd5b5061044b610a13366004615e39565b600560209081526000928352604080842090915290825290205481565b348015610a3c57600080fd5b5061044b60d45481565b348015610a5257600080fd5b5061044b6122b3565b348015610a6757600080fd5b50610380610a76366004615ad8565b612380565b348015610a8757600080fd5b50610380610a96366004615a16565b61246c565b348015610aa757600080fd5b50606f5461041d906001600160a01b031681565b348015610ac757600080fd5b5061044b6124f5565b348015610adc57600080fd5b50610380610aeb366004615a16565b61258d565b348015610afc57600080fd5b5061044b61266f565b348015610b1157600080fd5b50610380610b20366004615abf565b6126db565b348015610b3157600080fd5b50610380610b40366004615ee3565b61273a565b603c546001600160a01b03163314610ba45760405162461bcd60e51b815260206004820181905260248201527f4f776e61626c653a2063616c6c6572206973206e6f7420746865206f776e657260448201526064015b60405180910390fd5b606e805473ffffffffffffffffffffffffffffffffffffffff19166001600160a01b0392909216919091179055565b60008054610be090615f9e565b80601f0160208091040260200160405190810160405280929190818152602001828054610c0c90615f9e565b8015610c595780601f10610c2e57610100808354040283529160200191610c59565b820191906000526020600020905b815481529060010190602001808311610c3c57829003601f168201915b505050505081565b3360008181526005602090815260408083206001600160a01b038716808552925280832085905551919290917f8c5be1e5ebec7d5bd14f71427d1e84f3dd0314c0f7b2291e5b200ac8c7c3b92590610cbc9086815260200190565b60405180910390a35060015b92915050565b600060d68281548110610ce357610ce3615fd3565b6000918252602090912001546001600160a01b031692915050565b603c546001600160a01b03163314610d585760405162461bcd60e51b815260206004820181905260248201527f4f776e61626c653a2063616c6c6572206973206e6f7420746865206f776e65726044820152606401610b9b565b60d6548110610da95760405162461bcd60e51b815260206004820152600d60248201527f4f7574206f6620626f756e6473000000000000000000000000000000000000006044820152606401610b9b565b600060d68281548110610dbe57610dbe615fd3565b9060005260206000200160006101000a8154816001600160a01b0302191690836001600160a01b0316021790555050565b6000600260a2541415610e445760405162461bcd60e51b815260206004820152601f60248201527f5265656e7472616e637947756172643a207265656e7472616e742063616c6c006044820152606401610b9b565b600260a25560d85460d754610e599190615fff565b421115610e6a57610e6861280a565b505b670de0b6b3a764000082610e7c611f74565b610e869190616017565b610e909190616036565b9050610e9b81612d82565b610ea53383612dfe565b60d554610ebc906001600160a01b03168483612e7a565b604080518281526020810184905233916001600160a01b0386169183917ffbde797d201c681b91056529119e0b02407c7bb96a4a2c75c01fc9667232c8db910160405180910390a4600160a25592915050565b6001600160a01b03831660009081526005602090815260408083203384529091528120546000198114610f6b57610f468382616058565b6001600160a01b03861660009081526005602090815260408083203384529091529020555b6001600160a01b03851660009081526004602052604081208054859290610f93908490616058565b90915550506001600160a01b03808516600081815260046020526040908190208054870190555190918716907fddf252ad1be2c89b69c2b068fc378daa952ba7f163c4a11628f55a4df523b3ef90610fee9087815260200190565b60405180910390a360019150505b9392505050565b6000610cc83383610def565b6000600654461461102757611022612f19565b905090565b5060075490565b6000600260a25414156110835760405162461bcd60e51b815260206004820152601f60248201527f5265656e7472616e637947756172643a207265656e7472616e742063616c6c006044820152606401610b9b565b600260a255670de0b6b3a76400008261109a611f74565b6110a49190616017565b6110ae9190616036565b90506110b981612d82565b6110c33383612dfe565b60d5546110da906001600160a01b03163383612e7a565b60408051828152602081018490523391829182917ffbde797d201c681b91056529119e0b02407c7bb96a4a2c75c01fc9667232c8db910160405180910390a4600160a255919050565b6000600260a25414156111785760405162461bcd60e51b815260206004820152601f60248201527f5265656e7472616e637947756172643a207265656e7472616e742063616c6c006044820152606401610b9b565b600260a255816111ca5760405162461bcd60e51b815260206004820152600860248201527f3020746f6b656e730000000000000000000000000000000000000000000000006044820152606401610b9b565b60d85460d7546111da9190615fff565b4211156111eb576111e961280a565b505b60006111f683612fb3565b9050670de0b6b3a76400008161120a6122b3565b6112149190616017565b61121e9190616036565b9150600354600014156112685764e8d4a5100082101561123d57600080fd5b60d954611257906001600160a01b03166305f5e1006130d1565b6112656305f5e10083616058565b91505b816112b55760405162461bcd60e51b815260206004820152600a60248201527f30207265636569766564000000000000000000000000000000000000000000006044820152606401610b9b565b60d5546112cd906001600160a01b0316333086613135565b6112d6836131da565b6112e084836130d1565b60408051848152602081018490526001600160a01b0386169133917fdcbc1c05240f31ff3ad067ef1ee35ce4997762752e3a095284754544f4c709d7910160405180910390a350600160a25592915050565b600061133e6001613225565b9050801561137357600980547fffffffffffffffffffffffffffffffffffffffffffffffffffffffffffff00ff166101001790555b61137b613360565b6113836133e5565b61138f8787601261346a565b60d5805473ffffffffffffffffffffffffffffffffffffffff19166001600160a01b038a16908117909155604080517f313ce567000000000000000000000000000000000000000000000000000000008152905163313ce567916004808201926020929091908290030181865afa15801561140e573d6000803e3d6000fd5b505050506040513d601f19601f82011682018060405250810190611432919061606f565b60ff1660d45561144285856115d0565b60d883905560dd805473ffffffffffffffffffffffffffffffffffffffff19166001600160a01b03841617905580156114d257600980547fffffffffffffffffffffffffffffffffffffffffffffffffffffffffffff00ff169055604051600181527f7f26b83ff96e1f2b6a682f133852f6798a09c465da95921460cefb38474024989060200160405180910390a15b5050505050505050565b60006114e9848484611650565b949350505050565b600061150288338888888888612045565b61150d898989611650565b9998505050505050505050565b60d5546040517fd505accf000000000000000000000000000000000000000000000000000000008152336004820152306024820152604481018790526064810186905260ff8516608482015260a4810184905260c481018390526000916001600160a01b03169063d505accf9060e401600060405180830381600087803b1580156115a457600080fd5b505af11580156115b8573d6000803e3d6000fd5b505050506115c587611ed3565b979650505050505050565b603c546001600160a01b0316331461162a5760405162461bcd60e51b815260206004820181905260248201527f4f776e61626c653a2063616c6c6572206973206e6f7420746865206f776e65726044820152606401610b9b565b6127108210801561163c575061271081105b61164557600080fd5b60da9190915560db55565b6000600260a25414156116a55760405162461bcd60e51b815260206004820152601f60248201527f5265656e7472616e637947756172643a207265656e7472616e742063616c6c006044820152606401610b9b565b600260a25560d85460d7546116ba9190615fff565b4211156116cb576116c961280a565b505b6001600160a01b0383166000908152600560209081526040808320338452909152902054600019811480159061170a5750336001600160a01b03851614155b1561173e576117198582616058565b6001600160a01b03851660009081526005602090815260408083203384529091529020555b670de0b6b3a764000085611750611f74565b61175a9190616017565b6117649190616036565b915061176f82612d82565b6117798486612dfe565b60d554611790906001600160a01b03168484612e7a565b60408051838152602081018790526001600160a01b03808716929086169133917ffbde797d201c681b91056529119e0b02407c7bb96a4a2c75c01fc9667232c8db910160405180910390a450600160a2559392505050565b6070602052826000526040600020602052816000526040600020818154811061181057600080fd5b60009182526020909120600690910201805460018201546002830154600384015460048501546005909501546001600160a01b039485169850929650908316945090911691600f81810b92700100000000000000000000000000000000909204810b91900b87565b603c546001600160a01b031633146118d25760405162461bcd60e51b815260206004820181905260248201527f4f776e61626c653a2063616c6c6572206973206e6f7420746865206f776e65726044820152606401610b9b565b60dc805473ffffffffffffffffffffffffffffffffffffffff19166001600160a01b0392909216919091179055565b603c546001600160a01b0316331461195b5760405162461bcd60e51b815260206004820181905260248201527f4f776e61626c653a2063616c6c6572206973206e6f7420746865206f776e65726044820152606401610b9b565b61196560006134b5565b565b603c546001600160a01b031633146119c15760405162461bcd60e51b815260206004820181905260248201527f4f776e61626c653a2063616c6c6572206973206e6f7420746865206f776e65726044820152606401610b9b565b6001600160a01b03808516600090815260706020908152604080832093871683529290529081206119f1916158cb565b60005b81811015611a76576001600160a01b038086166000908152607060209081526040808320938816835292905220838383818110611a3357611a33615fd3565b83546001810185556000948552602090942060e090910292909201926006029091019050611a6182826160a8565b50508080611a6e90616247565b9150506119f4565b507f01aa5c4f582e572c83ccd23ac58ee02c7e51aceb9d47d02987f31536b352992f84848484604051611aac949392919061626d565b60405180910390a150505050565b60d68181548110611aca57600080fd5b6000918252602090912001546001600160a01b0316905081565b60018054610be090615f9e565b603c546001600160a01b03163314611b4b5760405162461bcd60e51b815260206004820181905260248201527f4f776e61626c653a2063616c6c6572206973206e6f7420746865206f776e65726044820152606401610b9b565b6001600160a01b038116611ba15760405162461bcd60e51b815260206004820152600960248201527f30206164647265737300000000000000000000000000000000000000000000006044820152606401610b9b565b60d680546001810182556000919091527fe767803f8ecf1dee6bb0345811f7312cda556058b19db6389ad9ae3568643ddd01805473ffffffffffffffffffffffffffffffffffffffff19166001600160a01b0392909216919091179055565b33600090815260046020526040812080548391908390611c21908490616058565b90915550506001600160a01b038316600081815260046020526040908190208054850190555133907fddf252ad1be2c89b69c2b068fc378daa952ba7f163c4a11628f55a4df523b3ef90610cbc9086815260200190565b6000600260a2541415611ccd5760405162461bcd60e51b815260206004820152601f60248201527f5265656e7472616e637947756172643a207265656e7472616e742063616c6c006044820152606401610b9b565b600260a25560dc546001600160a01b03163314611d2c5760405162461bcd60e51b815260206004820152600960248201527f424f7073206f6e6c7900000000000000000000000000000000000000000000006044820152606401610b9b565b60008211611d7c5760405162461bcd60e51b815260206004820152600860248201527f3020746f6b656e730000000000000000000000000000000000000000000000006044820152606401610b9b565b60d85460d754611d8c9190615fff565b421115611d9d57611d9b61280a565b505b6000611da883612fb3565b9050670de0b6b3a764000081611dbc6122b3565b611dc69190616017565b611dd09190616036565b915081611e455760405162461bcd60e51b815260206004820152603760248201527f4465706f73697420616d6f756e7420746f6f20736d616c6c2c20796f7520776960448201527f6c6c206765742030207265636569707420746f6b656e730000000000000000006064820152608401610b9b565b60d554611e5d906001600160a01b0316863086613135565b611e66836131da565b611e7084836130d1565b836001600160a01b0316856001600160a01b03167fdcbc1c05240f31ff3ad067ef1ee35ce4997762752e3a095284754544f4c709d78585604051611ebe929190918252602082015260400190565b60405180910390a350600160a2559392505050565b6000610cc83383611123565b603c546001600160a01b03163314611f395760405162461bcd60e51b815260206004820181905260248201527f4f776e61626c653a2063616c6c6572206973206e6f7420746865206f776e65726044820152606401610b9b565b606f80546001600160a01b0393841673ffffffffffffffffffffffffffffffffffffffff199182161790915560718054929093169116179055565b600060035460001415611f8f5760d45461102290600a616444565b61010f546040517ff2801fe7000000000000000000000000000000000000000000000000000000008152306004820152600060248201819052916001600160a01b03169063f2801fe7906044016040805180830381865afa158015611ff8573d6000803e3d6000fd5b505050506040513d601f19601f8201168201806040525081019061201c9190616450565b5060035490915061203582670de0b6b3a7640000616017565b61203f9190616036565b91505090565b428410156120955760405162461bcd60e51b815260206004820152601760248201527f5045524d49545f444541444c494e455f455850495245440000000000000000006044820152606401610b9b565b600060016120a161100f565b6001600160a01b038a811660008181526008602090815260409182902080546001810190915582517f6e71edae12b1b97f4d1f60370fef10105fa2faae0126114a169c64845d6126c98184015280840194909452938d166060840152608083018c905260a083019390935260c08083018b90528151808403909101815260e0830190915280519201919091207f19010000000000000000000000000000000000000000000000000000000000006101008301526101028201929092526101228101919091526101420160408051601f198184030181528282528051602091820120600084529083018083525260ff871690820152606081018590526080810184905260a0016020604051602081039080840390855afa1580156121c8573d6000803e3d6000fd5b5050604051601f1901519150506001600160a01b038116158015906121fe5750876001600160a01b0316816001600160a01b0316145b61224a5760405162461bcd60e51b815260206004820152600e60248201527f494e56414c49445f5349474e45520000000000000000000000000000000000006044820152606401610b9b565b6001600160a01b0390811660009081526005602090815260408083208a8516808552908352928190208990555188815291928a16917f8c5be1e5ebec7d5bd14f71427d1e84f3dd0314c0f7b2291e5b200ac8c7c3b925910160405180910390a350505050505050565b6000600354600014156122d95760d4546122ce906024616058565b61102290600a616444565b61010f546040517ff2801fe7000000000000000000000000000000000000000000000000000000008152306004820152600060248201819052916001600160a01b03169063f2801fe7906044016040805180830381865afa158015612342573d6000803e3d6000fd5b505050506040513d601f19601f820116820180604052508101906123669190616450565b50905080600354670de0b6b3a76400006120359190616017565b603c546001600160a01b031633146123da5760405162461bcd60e51b815260206004820181905260248201527f4f776e61626c653a2063616c6c6572206973206e6f7420746865206f776e65726044820152606401610b9b565b6040517f095ea7b30000000000000000000000000000000000000000000000000000000081526001600160a01b0383811660048301526024820183905284169063095ea7b3906044016020604051808303816000875af1158015612442573d6000803e3d6000fd5b505050506040513d601f19601f820116820180604052508101906124669190616474565b50505050565b603c546001600160a01b031633146124c65760405162461bcd60e51b815260206004820181905260248201527f4f776e61626c653a2063616c6c6572206973206e6f7420746865206f776e65726044820152606401610b9b565b60d9805473ffffffffffffffffffffffffffffffffffffffff19166001600160a01b0392909216919091179055565b61010f546040517ff2801fe70000000000000000000000000000000000000000000000000000000081523060048201526000602482018190529182916001600160a01b039091169063f2801fe7906044016040805180830381865afa158015612562573d6000803e3d6000fd5b505050506040513d601f19601f820116820180604052508101906125869190616450565b5092915050565b603c546001600160a01b031633146125e75760405162461bcd60e51b815260206004820181905260248201527f4f776e61626c653a2063616c6c6572206973206e6f7420746865206f776e65726044820152606401610b9b565b6001600160a01b0381166126635760405162461bcd60e51b815260206004820152602660248201527f4f776e61626c653a206e6577206f776e657220697320746865207a65726f206160448201527f64647265737300000000000000000000000000000000000000000000000000006064820152608401610b9b565b61266c816134b5565b50565b6000600260a25414156126c45760405162461bcd60e51b815260206004820152601f60248201527f5265656e7472616e637947756172643a207265656e7472616e742063616c6c006044820152606401610b9b565b600260a2556126d161280a565b9050600160a25590565b603c546001600160a01b031633146127355760405162461bcd60e51b815260206004820181905260248201527f4f776e61626c653a2063616c6c6572206973206e6f7420746865206f776e65726044820152606401610b9b565b60d855565b61274988888888888888611332565b61010f805473ffffffffffffffffffffffffffffffffffffffff19166001600160a01b0383811691821790925560d5546040517f095ea7b3000000000000000000000000000000000000000000000000000000008152600481019290925260001960248301529091169063095ea7b3906044016020604051808303816000875af11580156127db573d6000803e3d6000fd5b505050506040513d601f19601f820116820180604052508101906127ff9190616474565b505050505050505050565b60d5544260d7556000906001600160a01b031681612826613514565b9050612830613581565b60005b60d654811015612b295760006001600160a01b031660d6828154811061285b5761285b615fd3565b6000918252602090912001546001600160a01b031614612b1757826001600160a01b031660d6828154811061289257612892615fd3565b6000918252602090912001546001600160a01b031614156128b257612b17565b60016001600160a01b031660d682815481106128d0576128d0615fd3565b6000918252602090912001546001600160a01b031614156129875747662386f26fc100008111156129815760dd60009054906101000a90046001600160a01b03166001600160a01b031663d0e30db0826040518263ffffffff1660e01b81526004016000604051808303818588803b15801561294b57600080fd5b505af115801561295f573d6000803e3d6000fd5b505060dd5461297f93506001600160a01b031691508690508360006135f5565b505b50612b17565b600060d6828154811061299c5761299c615fd3565b6000918252602090912001546040516370a0823160e01b81523060048201526001600160a01b03909116906370a0823190602401602060405180830381865afa1580156129ed573d6000803e3d6000fd5b505050506040513d601f19601f82011682018060405250810190612a119190616496565b9050662386f26fc1000060d68381548110612a2e57612a2e615fd3565b60009182526020918290200154604080517f313ce56700000000000000000000000000000000000000000000000000000000815290516001600160a01b039092169263313ce567926004808401938290030181865afa158015612a95573d6000803e3d6000fd5b505050506040513d601f19601f82011682018060405250810190612ab9919061606f565b612ac49060126164af565b612acf90600a6164d2565b612ad99083616017565b1115612b1557612b1360d68381548110612af557612af5615fd3565b60009182526020822001546001600160a01b031690869084906135f5565b505b505b80612b2181616247565b915050612833565b506000612b34613514565b90506000612b428383616058565b90508015612d7b5760d5546040516370a0823160e01b815230600482015260009184916001600160a01b03909116906370a0823190602401602060405180830381865afa158015612b97573d6000803e3d6000fd5b505050506040513d601f19601f82011682018060405250810190612bbb9190616496565b612bc59084616017565b612bcf9190616036565b9050600061271060da5483612be49190616017565b612bee9190616036565b9050600061271060db5484612c039190616017565b612c0d9190616036565b60d55460d954919250612c2d916001600160a01b03918216911684612e7a565b60d554612c44906001600160a01b03163383612e7a565b60408051338152602081018890529081018690527f7595de4054dcab05a338b0855bb2e6155c81172fc76a0cdc037724df4d7e1c4f9060600160405180910390a160d954604080516001600160a01b039092168252602082018490527f4160cbc62d82681031bd44dffd104f752175f93f9b3c78a5a8f0867c667ee918910160405180910390a160408051338152602081018390527f97c227f091684bc53502ee6cf0e3bd656721fdbe9f1b9fddf678b8979efb5a26910160405180910390a160d5546040516370a0823160e01b8152306004820152612d77916001600160a01b0316906370a0823190602401602060405180830381865afa158015612d4e573d6000803e3d6000fd5b505050506040513d601f19601f82011682018060405250810190612d729190616496565b6131da565b5050505b5050505090565b61010f546040517f2e1a7d4d000000000000000000000000000000000000000000000000000000008152600481018390526001600160a01b0390911690632e1a7d4d906024015b600060405180830381600087803b158015612de357600080fd5b505af1158015612df7573d6000803e3d6000fd5b5050505050565b6001600160a01b03821660009081526004602052604081208054839290612e26908490616058565b90915550506003805482900390556040518181526000906001600160a01b038416907fddf252ad1be2c89b69c2b068fc378daa952ba7f163c4a11628f55a4df523b3ef906020015b60405180910390a35050565b60006040517fa9059cbb000000000000000000000000000000000000000000000000000000008152836004820152826024820152602060006044836000895af13d15601f3d11600160005114161716915050806124665760405162461bcd60e51b815260206004820152600f60248201527f5452414e534645525f4641494c454400000000000000000000000000000000006044820152606401610b9b565b60007f8b73c3c69bb8fe3d512ecc4cf759cc79239f7b179b0ffacaa9a75d522b39400f6000604051612f4b91906164e1565b6040805191829003822060208301939093528101919091527fc89efdaa54c0f20c7adf612882df0950f5a951637e0307cdcb4c672f298b8bc660608201524660808201523060a082015260c00160405160208183030381529060405280519060200120905090565b61010f54604080517fa610708a00000000000000000000000000000000000000000000000000000000815290516000926001600160a01b03169163a610708a9160048083019260209291908290030181865afa158015613017573d6000803e3d6000fd5b505050506040513d601f19601f8201168201806040525081019061303b9190616496565b61010f60009054906101000a90046001600160a01b03166001600160a01b031663cc1252ae6040518163ffffffff1660e01b8152600401602060405180830381865afa15801561308f573d6000803e3d6000fd5b505050506040513d601f19601f820116820180604052508101906130b39190616496565b6130bd9084616017565b6130c79190616036565b610cc89083616058565b80600360008282546130e39190615fff565b90915550506001600160a01b0382166000818152600460209081526040808320805486019055518481527fddf252ad1be2c89b69c2b068fc378daa952ba7f163c4a11628f55a4df523b3ef9101612e6e565b60006040517f23b872dd0000000000000000000000000000000000000000000000000000000081528460048201528360248201528260448201526020600060648360008a5af13d15601f3d1160016000511416171691505080612df75760405162461bcd60e51b815260206004820152601460248201527f5452414e534645525f46524f4d5f4641494c45440000000000000000000000006044820152606401610b9b565b61010f546040517fb6b55f25000000000000000000000000000000000000000000000000000000008152600481018390526001600160a01b039091169063b6b55f2590602401612dc9565b600954600090610100900460ff16156132c4578160ff16600114801561324a5750303b155b6132bc5760405162461bcd60e51b815260206004820152602e60248201527f496e697469616c697a61626c653a20636f6e747261637420697320616c72656160448201527f647920696e697469616c697a65640000000000000000000000000000000000006064820152608401610b9b565b506000919050565b60095460ff8084169116106133415760405162461bcd60e51b815260206004820152602e60248201527f496e697469616c697a61626c653a20636f6e747261637420697320616c72656160448201527f647920696e697469616c697a65640000000000000000000000000000000000006064820152608401610b9b565b506009805460ff191660ff92909216919091179055600190565b919050565b600954610100900460ff166133dd5760405162461bcd60e51b815260206004820152602b60248201527f496e697469616c697a61626c653a20636f6e7472616374206973206e6f74206960448201527f6e697469616c697a696e670000000000000000000000000000000000000000006064820152608401610b9b565b611965613eab565b600954610100900460ff166134625760405162461bcd60e51b815260206004820152602b60248201527f496e697469616c697a61626c653a20636f6e7472616374206973206e6f74206960448201527f6e697469616c697a696e670000000000000000000000000000000000000000006064820152608401610b9b565b611965613f31565b825161347d9060009060208601906158ec565b5081516134919060019060208501906158ec565b506002805460ff191660ff8316179055466006556134ad612f19565b600755505050565b603c80546001600160a01b0383811673ffffffffffffffffffffffffffffffffffffffff19831681179093556040519116919082907f8be0079c531659141344cd1fd0a4f28419497f9722a3daafe3b4186f6b6457e090600090a35050565b60d5546040516370a0823160e01b81523060048201526000916001600160a01b0316906370a0823190602401602060405180830381865afa15801561355d573d6000803e3d6000fd5b505050506040513d601f19601f820116820180604052508101906110229190616496565b61010f546040517fb6b55f25000000000000000000000000000000000000000000000000000000008152600060048201526001600160a01b039091169063b6b55f2590602401600060405180830381600087803b1580156135e157600080fd5b505af1158015612466573d6000803e3d6000fd5b6040516370a0823160e01b815230600482015260009081906001600160a01b038616906370a0823190602401602060405180830381865afa15801561363e573d6000803e3d6000fd5b505050506040513d601f19601f820116820180604052508101906136629190616496565b6001600160a01b038088166000908152607060209081526040808320938a1683529281528282208054845181840281018401909552808552949550919390849084015b828210156137405760008481526020908190206040805160e0810182526006860290920180546001600160a01b03908116845260018083015485870152600283015482169385019390935260038201541660608401526004810154600f81810b6080860152700100000000000000000000000000000000909104810b60a0850152600590910154900b60c083015290835290920191016136a5565b5050505090506000859050600082511161379c5760405162461bcd60e51b815260206004820152600e60248201527f4e6f20726f75746520666f756e640000000000000000000000000000000000006044820152606401610b9b565b60005b8251811015613d51578281815181106137ba576137ba615fd3565b60200260200101516020015160011415613838576138318382815181106137e3576137e3615fd3565b60200260200101516000015184838151811061380157613801615fd3565b60200260200101516040015185848151811061381f5761381f615fd3565b6020026020010151606001518a613fb5565b9650613d3f565b82818151811061384a5761384a615fd3565b602002602001015160200151600214156139405782818151811061387057613870615fd3565b6020026020010151600001516001600160a01b031683828151811061389757613897615fd3565b6020026020010151604001516001600160a01b031614156138f9576138318382815181106138c7576138c7615fd3565b6020026020010151606001518483815181106138e5576138e5615fd3565b60200260200101516000015189600161412f565b61383183828151811061390e5761390e615fd3565b60200260200101516040015184838151811061392c5761392c615fd3565b60200260200101516000015189600061412f565b82818151811061395257613952615fd3565b60200260200101516020015160031415613a235761383183828151811061397b5761397b615fd3565b60200260200101516040015184838151811061399957613999615fd3565b6020026020010151606001518584815181106139b7576139b7615fd3565b6020026020010151600001518a8786815181106139d6576139d6615fd3565b6020026020010151608001518887815181106139f4576139f4615fd3565b602002602001015160a00151898881518110613a1257613a12615fd3565b602002602001015160c0015161476b565b828181518110613a3557613a35615fd3565b60200260200101516020015160041415613a855761383160016001600160a01b0316848381518110613a6957613a69615fd3565b6020026020010151604001516001600160a01b03161488614ea4565b828181518110613a9757613a97615fd3565b60200260200101516020015160051415613af057613831838281518110613ac057613ac0615fd3565b602002602001015160400151848381518110613ade57613ade615fd3565b60200260200101516000015189614f9e565b828181518110613b0257613b02615fd3565b60200260200101516020015160061415613c2157613831838281518110613b2b57613b2b615fd3565b6020026020010151600001516001600160a01b0316848381518110613b5257613b52615fd3565b6020026020010151604001516001600160a01b031614613b8f57838281518110613b7e57613b7e615fd3565b602002602001015160400151613bae565b838281518110613ba157613ba1615fd3565b6020026020010151606001515b88858481518110613bc157613bc1615fd3565b6020026020010151600001516001600160a01b0316868581518110613be857613be8615fd3565b6020026020010151604001516001600160a01b031614868581518110613c1057613c10615fd3565b602002602001015160800151615114565b828181518110613c3357613c33615fd3565b60200260200101516020015160071415613c8c57613831838281518110613c5c57613c5c615fd3565b602002602001015160400151848381518110613c7a57613c7a615fd3565b6020026020010151600001518961531b565b828181518110613c9e57613c9e615fd3565b60200260200101516020015160081415613cf757613831838281518110613cc757613cc7615fd3565b602002602001015160400151848381518110613ce557613ce5615fd3565b60200260200101516000015189615556565b60405162461bcd60e51b815260206004820152601160248201527f556e6b6e6f776e206e6f646520747970650000000000000000000000000000006044820152606401610b9b565b80613d4981616247565b91505061379f565b506040516370a0823160e01b815230600482015260009084906001600160a01b038a16906370a0823190602401602060405180830381865afa158015613d9b573d6000803e3d6000fd5b505050506040513d601f19601f82011682018060405250810190613dbf9190616496565b613dc99190616058565b905085811015613e415760405162461bcd60e51b815260206004820152603560248201527f446964206e6f74207265636569766520656e6f75676820746f6b656e7320746f60448201527f206163636f756e7420666f7220736c69707061676500000000000000000000006064820152608401610b9b565b604080513381526001600160a01b038b811660208301528a1681830152606081018490526080810188905260a0810183905290517fd6d34547c69c5ee3d2667625c188acf1006abb93e0ee7cf03925c67cf77604139181900360c00190a198975050505050505050565b600954610100900460ff16613f285760405162461bcd60e51b815260206004820152602b60248201527f496e697469616c697a61626c653a20636f6e7472616374206973206e6f74206960448201527f6e697469616c697a696e670000000000000000000000000000000000000000006064820152608401610b9b565b611965336134b5565b600954610100900460ff16613fae5760405162461bcd60e51b815260206004820152602b60248201527f496e697469616c697a61626c653a20636f6e7472616374206973206e6f74206960448201527f6e697469616c697a696e670000000000000000000000000000000000000000006064820152608401610b9b565b600160a255565b6000613fc2848684612e7a565b600080600080886001600160a01b0316630902f1ac6040518163ffffffff1660e01b8152600401606060405180830381865afa158015614006573d6000803e3d6000fd5b505050506040513d601f19601f8201168201806040525081019061402a919061659b565b506dffffffffffffffffffffffffffff1691506dffffffffffffffffffffffffffff169150866001600160a01b0316886001600160a01b0316101561407b57614074868383615619565b9250614089565b614086868284615619565b93505b604080516000815260208101918290527f022c0d9f000000000000000000000000000000000000000000000000000000009091526001600160a01b038a169063022c0d9f906140e190879087903090602481016165e0565b600060405180830381600087803b1580156140fb57600080fd5b505af115801561410f573d6000803e3d6000fd5b505050508360001415614122578261150d565b5091979650505050505050565b600080846001600160a01b0316630dfe16816040518163ffffffff1660e01b8152600401602060405180830381865afa158015614170573d6000803e3d6000fd5b505050506040513d601f19601f820116820180604052508101906141949190616618565b90506000856001600160a01b031663d21220a76040518163ffffffff1660e01b8152600401602060405180830381865afa1580156141d6573d6000803e3d6000fd5b505050506040513d601f19601f820116820180604052508101906141fa9190616618565b9050831561447b57606e546040517fbaa2abde0000000000000000000000000000000000000000000000000000000081526001600160a01b03848116600483015283811660248301526044820188905260006064830181905260848301523060a48301524260c48301529091169063baa2abde9060e40160408051808303816000875af115801561428f573d6000803e3d6000fd5b505050506040513d601f19601f820116820180604052508101906142b39190616450565b5050866001600160a01b0316826001600160a01b0316141561434d576040516370a0823160e01b8152306004820152614347908790839085906001600160a01b038316906370a08231906024015b602060405180830381865afa15801561431e573d6000803e3d6000fd5b505050506040513d601f19601f820116820180604052508101906143429190616496565b613fb5565b5061440a565b866001600160a01b0316816001600160a01b0316141561439d576040516370a0823160e01b8152306004820152614347908790849084906001600160a01b038316906370a0823190602401614301565b60405162461bcd60e51b8152602060048201526024808201527f746f6b656e4f7574206973206e6f74206120746f6b656e205f696e207468652060448201527f70616972000000000000000000000000000000000000000000000000000000006064820152608401610b9b565b6040516370a0823160e01b81523060048201526001600160a01b038816906370a0823190602401602060405180830381865afa15801561444e573d6000803e3d6000fd5b505050506040513d601f19601f820116820180604052508101906144729190616496565b925050506114e9565b6000806000886001600160a01b0316630902f1ac6040518163ffffffff1660e01b8152600401606060405180830381865afa1580156144be573d6000803e3d6000fd5b505050506040513d601f19601f820116820180604052508101906144e2919061659b565b925092509250896001600160a01b0316856001600160a01b031614156146bd57614522898b86614342876dffffffffffffffffffffffffffff168d615755565b50606e546040516370a0823160e01b81523060048201526001600160a01b039182169163e8e337009188918891908316906370a0823190602401602060405180830381865afa158015614579573d6000803e3d6000fd5b505050506040513d601f19601f8201168201806040525081019061459d9190616496565b6040516370a0823160e01b81523060048201526001600160a01b038a16906370a0823190602401602060405180830381865afa1580156145e1573d6000803e3d6000fd5b505050506040513d601f19601f820116820180604052508101906146059190616496565b6040517fffffffff0000000000000000000000000000000000000000000000000000000060e087901b1681526001600160a01b0394851660048201529390921660248401526044830152606482015260006084820181905260a48201523060c48201524260e4820152610104016060604051808303816000875af1158015614691573d6000803e3d6000fd5b505050506040513d601f19601f820116820180604052508101906146b59190616635565b5050506146f7565b896001600160a01b0316846001600160a01b0316141561439d57614522898b87614342866dffffffffffffffffffffffffffff168d615755565b6040516370a0823160e01b81523060048201526001600160a01b038a16906370a0823190602401602060405180830381865afa15801561473b573d6000803e3d6000fd5b505050506040513d601f19601f8201168201806040525081019061475f9190616496565b955050505050506114e9565b60008084600f0b1215614b845781600f0b6000191415614a7b5761478e84616663565b9350600084600f0b67ffffffffffffffff8111156147ae576147ae615b19565b6040519080825280602002602001820160405280156147d7578160200160208202803683370190505b509050858185600f0b815181106147f0576147f0615fd3565b60200260200101818152505084600f0b600214156148c957866001600160a01b0316630b4c7e4d60405180604001604052808460008151811061483557614835615fd3565b602002602001015181526020018460018151811061485557614855615fd3565b602002602001015181525060006040518363ffffffff1660e01b815260040161487f9291906166c5565b6020604051808303816000875af115801561489e573d6000803e3d6000fd5b505050506040513d601f19601f820116820180604052508101906148c29190616496565b9150614a75565b84600f0b6003141561496c57866001600160a01b0316634515cef360405180606001604052808460008151811061490257614902615fd3565b602002602001015181526020018460018151811061492257614922615fd3565b602002602001015181526020018460028151811061494257614942615fd3565b602002602001015181525060006040518363ffffffff1660e01b815260040161487f929190616703565b84600f0b60041415614a7557866001600160a01b031663029b2f346040518060800160405280846000815181106149a5576149a5615fd3565b60200260200101518152602001846001815181106149c5576149c5615fd3565b60200260200101518152602001846002815181106149e5576149e5615fd3565b6020026020010151815260200184600381518110614a0557614a05615fd3565b602002602001015181525060006040518363ffffffff1660e01b8152600401614a2f929190616741565b6020604051808303816000875af1158015614a4e573d6000803e3d6000fd5b505050506040513d601f19601f82011682018060405250810190614a729190616496565b91505b506115c5565b82600f0b6000191415614b25576040517f1a4d01d200000000000000000000000000000000000000000000000000000000815260048101869052600f83900b6024820152600060448201526001600160a01b03871690631a4d01d2906064015b6020604051808303816000875af1158015614afa573d6000803e3d6000fd5b505050506040513d601f19601f82011682018060405250810190614b1e9190616496565b90506115c5565b6040517f3df02124000000000000000000000000000000000000000000000000000000008152600f84810b600483015283900b602482015260448101869052600060648201526001600160a01b03871690633df0212490608401614adb565b600084600f0b13156115c55781600f0b6000191415614dfb57600084600f0b67ffffffffffffffff811115614bbb57614bbb615b19565b604051908082528060200260200182016040528015614be4578160200160208202803683370190505b509050858185600f0b81518110614bfd57614bfd615fd3565b60200260200101818152505084600f0b60021415614c8f57866001600160a01b031663ee22be23604051806040016040528084600081518110614c4257614c42615fd3565b6020026020010151815260200184600181518110614c6257614c62615fd3565b6020026020010151815250600060016040518463ffffffff1660e01b815260040161487f9392919061675c565b84600f0b60031415614d3557866001600160a01b0316632b6e993a604051806060016040528084600081518110614cc857614cc8615fd3565b6020026020010151815260200184600181518110614ce857614ce8615fd3565b6020026020010151815260200184600281518110614d0857614d08615fd3565b6020026020010151815250600060016040518463ffffffff1660e01b815260040161487f93929190616780565b84600f0b60041415614a7557866001600160a01b031663dc3a2d81604051806080016040528084600081518110614d6e57614d6e615fd3565b6020026020010151815260200184600181518110614d8e57614d8e615fd3565b6020026020010151815260200184600281518110614dae57614dae615fd3565b6020026020010151815260200184600381518110614dce57614dce615fd3565b6020026020010151815250600060016040518463ffffffff1660e01b8152600401614a2f939291906167a4565b6040517fa6417ed6000000000000000000000000000000000000000000000000000000008152600f84810b600483015283900b602482015260448101869052600060648201526001600160a01b0387169063a6417ed6906084016020604051808303816000875af1158015614e74573d6000803e3d6000fd5b505050506040513d601f19601f82011682018060405250810190614e989190616496565b98975050505050505050565b60008215614f195773b31f66aa3c1e785363f0875a1b74e27b85fd66c76001600160a01b031663d0e30db0836040518263ffffffff1660e01b81526004016000604051808303818588803b158015614efb57600080fd5b505af1158015614f0f573d6000803e3d6000fd5b5050505050614f98565b6040517f2e1a7d4d0000000000000000000000000000000000000000000000000000000081526004810183905273b31f66aa3c1e785363f0875a1b74e27b85fd66c790632e1a7d4d90602401600060405180830381600087803b158015614f7f57600080fd5b505af1158015614f93573d6000803e3d6000fd5b505050505b50919050565b6000826001600160a01b0316846001600160a01b0316141561504f576040517fdb006a75000000000000000000000000000000000000000000000000000000008152600481018390526001600160a01b0384169063db006a75906024016020604051808303816000875af115801561501a573d6000803e3d6000fd5b505050506040513d601f19601f8201168201806040525081019061503e9190616496565b1561504857600080fd5b5047610ffc565b826001600160a01b0316631249c58b836040518263ffffffff1660e01b81526004016000604051808303818588803b15801561508a57600080fd5b505af115801561509e573d6000803e3d6000fd5b50506040516370a0823160e01b81523060048201526001600160a01b03871693506370a08231925060240190505b602060405180830381865afa1580156150e9573d6000803e3d6000fd5b505050506040513d601f19601f8201168201806040525081019061510d9190616496565b9050610ffc565b600081600f0b6003141561525e5782156151c9576071546040517f69328dec0000000000000000000000000000000000000000000000000000000081526001600160a01b03878116600483015260248201879052306044830152909116906369328dec906064015b6020604051808303816000875af115801561519b573d6000803e3d6000fd5b505050506040513d601f19601f820116820180604052508101906151bf9190616496565b93508390506114e9565b6071546040517f617ba0370000000000000000000000000000000000000000000000000000000081526001600160a01b03878116600483015260248201879052306044830152600060648301529091169063617ba037906084015b600060405180830381600087803b15801561523e57600080fd5b505af1158015615252573d6000803e3d6000fd5b505050508390506114e9565b82156152bc57606f546040517f69328dec0000000000000000000000000000000000000000000000000000000081526001600160a01b03878116600483015260248201879052306044830152909116906369328dec9060640161517c565b606f546040517fe8eda9df0000000000000000000000000000000000000000000000000000000081526001600160a01b03878116600483015260248201879052306044830152600060648301529091169063e8eda9df90608401615224565b6000826001600160a01b0316846001600160a01b0316141561549c576040517fdb006a75000000000000000000000000000000000000000000000000000000008152600481018390526001600160a01b0384169063db006a75906024016020604051808303816000875af1158015615397573d6000803e3d6000fd5b505050506040513d601f19601f820116820180604052508101906153bb9190616496565b156153c557600080fd5b6000836001600160a01b0316636f307dc36040518163ffffffff1660e01b8152600401602060405180830381865afa158015615405573d6000803e3d6000fd5b505050506040513d601f19601f820116820180604052508101906154299190616618565b6040516370a0823160e01b81523060048201529091506001600160a01b038216906370a0823190602401602060405180830381865afa158015615470573d6000803e3d6000fd5b505050506040513d601f19601f820116820180604052508101906154949190616496565b915050610ffc565b6040517fa0712d68000000000000000000000000000000000000000000000000000000008152600481018390526001600160a01b0384169063a0712d68906024016020604051808303816000875af11580156154fc573d6000803e3d6000fd5b505050506040513d601f19601f820116820180604052508101906155209190616496565b1561552a57600080fd5b6040516370a0823160e01b81523060048201526001600160a01b038416906370a08231906024016150cc565b6000826001600160a01b0316846001600160a01b031614156155d3576040517fdb006a75000000000000000000000000000000000000000000000000000000008152600481018390526001600160a01b0384169063db006a75906024015b6020604051808303816000875af11580156150e9573d6000803e3d6000fd5b6040517fb6b55f25000000000000000000000000000000000000000000000000000000008152600481018390526001600160a01b0384169063b6b55f25906024016155b4565b60008084116156905760405162461bcd60e51b815260206004820152602b60248201527f556e697377617056324c6962726172793a20494e53554646494349454e545f4960448201527f4e5055545f414d4f554e540000000000000000000000000000000000000000006064820152608401610b9b565b6000831180156156a05750600082115b6157125760405162461bcd60e51b815260206004820152602860248201527f556e697377617056324c6962726172793a20494e53554646494349454e545f4c60448201527f49515549444954590000000000000000000000000000000000000000000000006064820152608401610b9b565b60006157206103e586616017565b9050600061572e8483616017565b905060008261573f6103e888616017565b6157499190615fff565b90506115c58183616036565b600080620f2ad961576985620f3c64616017565b6157739190616036565b905060006157818580616017565b61578e90623cda29616017565b8561579c86623cab64616017565b6157a69190616017565b6157b09190615fff565b905081620f2ad96157c0836157e9565b6157cc906101f4616017565b6157d69190616036565b6157e09190616058565b95945050505050565b600181700100000000000000000000000000000000811061580f5760409190911b9060801c5b68010000000000000000811061582a5760209190911b9060401c5b64010000000081106158415760109190911b9060201c5b6201000081106158565760089190911b9060101c5b610100811061586a5760049190911b9060081c5b6010811061587d5760029190911b9060041c5b6008811061588c578160011b91505b5080820401600190811c80830401811c80830401811c80830401811c80830401811c80830401811c80830401901c80820481811015614f985792915050565b508054600082556006029060005260206000209081019061266c9190615970565b8280546158f890615f9e565b90600052602060002090601f01602090048101928261591a5760008555615960565b82601f1061593357805160ff1916838001178555615960565b82800160010185558215615960579182015b82811115615960578251825591602001919060010190615945565b5061596c9291506159ec565b5090565b5b8082111561596c57805473ffffffffffffffffffffffffffffffffffffffff1990811682556000600183018190556002830180548316905560038301805490921690915560048201556005810180547fffffffffffffffffffffffffffffffff00000000000000000000000000000000169055600601615971565b5b8082111561596c57600081556001016159ed565b6001600160a01b038116811461266c57600080fd5b600060208284031215615a2857600080fd5b8135610ffc81615a01565b6000815180845260005b81811015615a5957602081850181015186830182015201615a3d565b81811115615a6b576000602083870101525b50601f01601f19169290920160200192915050565b602081526000610ffc6020830184615a33565b60008060408385031215615aa657600080fd5b8235615ab181615a01565b946020939093013593505050565b600060208284031215615ad157600080fd5b5035919050565b600080600060608486031215615aed57600080fd5b8335615af881615a01565b92506020840135615b0881615a01565b929592945050506040919091013590565b634e487b7160e01b600052604160045260246000fd5b600082601f830112615b4057600080fd5b813567ffffffffffffffff80821115615b5b57615b5b615b19565b604051601f8301601f19908116603f01168101908282118183101715615b8357615b83615b19565b81604052838152866020858801011115615b9c57600080fd5b836020870160208301376000602085830101528094505050505092915050565b600080600080600080600060e0888a031215615bd757600080fd5b8735615be281615a01565b9650602088013567ffffffffffffffff80821115615bff57600080fd5b615c0b8b838c01615b2f565b975060408a0135915080821115615c2157600080fd5b50615c2e8a828b01615b2f565b955050606088013593506080880135925060a0880135915060c0880135615c5481615a01565b8091505092959891949750929550565b600080600060608486031215615c7957600080fd5b833592506020840135615c8b81615a01565b91506040840135615c9b81615a01565b809150509250925092565b60ff8116811461266c57600080fd5b600080600080600080600080610100898b031215615cd257600080fd5b883597506020890135615ce481615a01565b96506040890135615cf481615a01565b9550606089013594506080890135935060a0890135615d1281615ca6565b979a969950949793969295929450505060c08201359160e0013590565b60008060008060008060c08789031215615d4857600080fd5b8635955060208701359450604087013593506060870135615d6881615ca6565b9598949750929560808101359460a0909101359350915050565b60008060408385031215615d9557600080fd5b50508035926020909101359150565b60008060008060608587031215615dba57600080fd5b8435615dc581615a01565b93506020850135615dd581615a01565b9250604085013567ffffffffffffffff80821115615df257600080fd5b818701915087601f830112615e0657600080fd5b813581811115615e1557600080fd5b88602060e083028501011115615e2a57600080fd5b95989497505060200194505050565b60008060408385031215615e4c57600080fd5b8235615e5781615a01565b91506020830135615e6781615a01565b809150509250929050565b600080600080600080600060e0888a031215615e8d57600080fd5b8735615e9881615a01565b96506020880135615ea881615a01565b955060408801359450606088013593506080880135615ec681615ca6565b9699959850939692959460a0840135945060c09093013592915050565b600080600080600080600080610100898b031215615f0057600080fd5b8835615f0b81615a01565b9750602089013567ffffffffffffffff80821115615f2857600080fd5b615f348c838d01615b2f565b985060408b0135915080821115615f4a57600080fd5b50615f578b828c01615b2f565b965050606089013594506080890135935060a0890135925060c0890135615f7d81615a01565b915060e0890135615f8d81615a01565b809150509295985092959890939650565b600181811c90821680615fb257607f821691505b60208210811415614f9857634e487b7160e01b600052602260045260246000fd5b634e487b7160e01b600052603260045260246000fd5b634e487b7160e01b600052601160045260246000fd5b6000821982111561601257616012615fe9565b500190565b600081600019048311821515161561603157616031615fe9565b500290565b60008261605357634e487b7160e01b600052601260045260246000fd5b500490565b60008282101561606a5761606a615fe9565b500390565b60006020828403121561608157600080fd5b8151610ffc81615ca6565b80600f0b811461266c57600080fd5b60008135610cc88161608c565b81356160b381615a01565b815473ffffffffffffffffffffffffffffffffffffffff19166001600160a01b038216178255506020820135600182015560408201356160f281615a01565b60028201805473ffffffffffffffffffffffffffffffffffffffff19166001600160a01b03831617905550606082013561612b81615a01565b60038201805473ffffffffffffffffffffffffffffffffffffffff19166001600160a01b038316179055506004810160808301356161688161608c565b81547fffffffffffffffffffffffffffffffff00000000000000000000000000000000166fffffffffffffffffffffffffffffffff82161782555060a08301356161b18161608c565b81546fffffffffffffffffffffffffffffffff1660809190911b7fffffffffffffffffffffffffffffffff00000000000000000000000000000000161790556162436161ff60c0840161609b565b600583017fffffffffffffffffffffffffffffffff00000000000000000000000000000000815416826fffffffffffffffffffffffffffffffff1681178255505050565b5050565b600060001982141561625b5761625b615fe9565b5060010190565b803561335b8161608c565b600060608083016001600160a01b03808916855260208189168187015260408481880152838885526080945084880190508960005b8a81101561634e5781356162b581615a01565b861683528185013585840152838201356162ce81615a01565b861683850152818801356162e181615a01565b8616838901526162f2828801616262565b61630088850182600f0b9052565b5060a061630e818401616262565b61631c82860182600f0b9052565b505060c061632b818401616262565b61633982860182600f0b9052565b505060e09283019291909101906001016162a2565b50909c9b505050505050505050505050565b600181815b8085111561639b57816000190482111561638157616381615fe9565b8085161561638e57918102915b93841c9390800290616365565b509250929050565b6000826163b257506001610cc8565b816163bf57506000610cc8565b81600181146163d557600281146163df576163fb565b6001915050610cc8565b60ff8411156163f0576163f0615fe9565b50506001821b610cc8565b5060208310610133831016604e8410600b841016171561641e575081810a610cc8565b6164288383616360565b806000190482111561643c5761643c615fe9565b029392505050565b6000610ffc83836163a3565b6000806040838503121561646357600080fd5b505080516020909101519092909150565b60006020828403121561648657600080fd5b81518015158114610ffc57600080fd5b6000602082840312156164a857600080fd5b5051919050565b600060ff821660ff8416808210156164c9576164c9615fe9565b90039392505050565b6000610ffc60ff8416836163a3565b600080835481600182811c9150808316806164fd57607f831692505b602080841082141561651d57634e487b7160e01b86526022600452602486fd5b81801561653157600181146165425761656f565b60ff1986168952848901965061656f565b60008a81526020902060005b868110156165675781548b82015290850190830161654e565b505084890196505b509498975050505050505050565b80516dffffffffffffffffffffffffffff8116811461335b57600080fd5b6000806000606084860312156165b057600080fd5b6165b98461657d565b92506165c76020850161657d565b9150604084015163ffffffff81168114615c9b57600080fd5b8481528360208201526001600160a01b038316604082015260806060820152600061660e6080830184615a33565b9695505050505050565b60006020828403121561662a57600080fd5b8151610ffc81615a01565b60008060006060848603121561664a57600080fd5b8351925060208401519150604084015190509250925092565b600081600f0b7fffffffffffffffffffffffffffffffff8000000000000000000000000000000081141561669957616699615fe9565b60000392915050565b8060005b60028110156124665781518452602093840193909101906001016166a6565b606081016166d382856166a2565b8260408301529392505050565b8060005b60038110156124665781518452602093840193909101906001016166e4565b6080810161671182856166e0565b8260608301529392505050565b8060005b6004811015612466578151845260209384019390910190600101616722565b60a0810161674f828561671e565b8260808301529392505050565b6080810161676a82866166a2565b8360408301528215156060830152949350505050565b60a0810161678e82866166e0565b8360608301528215156080830152949350505050565b60c081016167b2828661671e565b83608083015282151560a083015294935050505056fea2646970667358221220bedba03d2f88c6688dfd791751fe96ec86650fb54402357a4901f35e3f214ec764736f6c634300080a0033",
    "linkReferences": {}
  }
}