{
  "abi": [
    {
      "anonymous": false,
      "inputs": [
        {
          "indexed": false,
          "internalType": "address",
          "name": "caller",
          "type": "address"
        },
        {
          "indexed": false,
          "internalType": "uint256",
          "name": "amount",
          "type": "uint256"
        }
      ],
      "name": "AdminFeePaid",
      "type": "event"
    },
    {
      "anonymous": false,
      "inputs": [
        {
          "indexed": true,
          "internalType": "address",
          "name": "owner",
          "type": "address"
        },
        {
          "indexed": true,
          "internalType": "address",
          "name": "spender",
          "type": "address"
        },
        {
          "indexed": false,
          "internalType": "uint256",
          "name": "amount",
          "type": "uint256"
        }
      ],
      "name": "Approval",
      "type": "event"
    },
    {
      "anonymous": false,
      "inputs": [
        {
          "indexed": false,
          "internalType": "address",
          "name": "caller",
          "type": "address"
        },
        {
          "indexed": false,
          "internalType": "uint256",
          "name": "amount",
          "type": "uint256"
        }
      ],
      "name": "CallerFeePaid",
      "type": "event"
    },
    {
      "anonymous": false,
      "inputs": [
        {
          "indexed": true,
          "internalType": "address",
          "name": "caller",
          "type": "address"
        },
        {
          "indexed": true,
          "internalType": "address",
          "name": "owner",
          "type": "address"
        },
        {
          "indexed": false,
          "internalType": "uint256",
          "name": "assets",
          "type": "uint256"
        },
        {
          "indexed": false,
          "internalType": "uint256",
          "name": "shares",
          "type": "uint256"
        }
      ],
      "name": "Deposit",
      "type": "event"
    },
    {
      "anonymous": false,
      "inputs": [
        {
          "indexed": false,
          "internalType": "uint8",
          "name": "version",
          "type": "uint8"
        }
      ],
      "name": "Initialized",
      "type": "event"
    },
    {
      "anonymous": false,
      "inputs": [
        {
          "indexed": true,
          "internalType": "address",
          "name": "previousOwner",
          "type": "address"
        },
        {
          "indexed": true,
          "internalType": "address",
          "name": "newOwner",
          "type": "address"
        }
      ],
      "name": "OwnershipTransferred",
      "type": "event"
    },
    {
      "anonymous": false,
      "inputs": [
        {
          "indexed": false,
          "internalType": "address",
          "name": "caller",
          "type": "address"
        },
        {
          "indexed": false,
          "internalType": "uint256",
          "name": "preCompound",
          "type": "uint256"
        },
        {
          "indexed": false,
          "internalType": "uint256",
          "name": "postCompound",
          "type": "uint256"
        }
      ],
      "name": "Reinvested",
      "type": "event"
    },
    {
      "anonymous": false,
      "inputs": [
        {
          "indexed": false,
          "internalType": "address",
          "name": "caller",
          "type": "address"
        },
        {
          "indexed": false,
          "internalType": "uint256",
          "name": "index",
          "type": "uint256"
        },
        {
          "indexed": false,
          "internalType": "address",
          "name": "rewardToken",
          "type": "address"
        }
      ],
      "name": "RewardTokenSet",
      "type": "event"
    },
    {
      "anonymous": false,
      "inputs": [
        {
          "indexed": false,
          "internalType": "address",
          "name": "fromToken",
          "type": "address"
        },
        {
          "indexed": false,
          "internalType": "address",
          "name": "toToken",
          "type": "address"
        },
        {
          "components": [
            {
              "internalType": "address",
              "name": "protocolSwapAddress",
              "type": "address"
            },
            {
              "internalType": "uint256",
              "name": "nodeType",
              "type": "uint256"
            },
            {
              "internalType": "address",
              "name": "tokenIn",
              "type": "address"
            },
            {
              "internalType": "address",
              "name": "tokenOut",
              "type": "address"
            },
            {
              "internalType": "int128",
              "name": "_misc",
              "type": "int128"
            },
            {
              "internalType": "int128",
              "name": "_in",
              "type": "int128"
            },
            {
              "internalType": "int128",
              "name": "_out",
              "type": "int128"
            }
          ],
          "indexed": false,
          "internalType": "struct Router.Node[]",
          "name": "path",
          "type": "tuple[]"
        }
      ],
      "name": "RouteSet",
      "type": "event"
    },
    {
      "anonymous": false,
      "inputs": [
        {
          "indexed": false,
          "internalType": "address",
          "name": "caller",
          "type": "address"
        },
        {
          "indexed": false,
          "internalType": "address",
          "name": "startingTokenAddress",
          "type": "address"
        },
        {
          "indexed": false,
          "internalType": "address",
          "name": "endingTokenAddress",
          "type": "address"
        },
        {
          "indexed": false,
          "internalType": "uint256",
          "name": "amount",
          "type": "uint256"
        },
        {
          "indexed": false,
          "internalType": "uint256",
          "name": "minSwapAmount",
          "type": "uint256"
        },
        {
          "indexed": false,
          "internalType": "uint256",
          "name": "actualOut",
          "type": "uint256"
        }
      ],
      "name": "Swap",
      "type": "event"
    },
    {
      "anonymous": false,
      "inputs": [
        {
          "indexed": true,
          "internalType": "address",
          "name": "from",
          "type": "address"
        },
        {
          "indexed": true,
          "internalType": "address",
          "name": "to",
          "type": "address"
        },
        {
          "indexed": false,
          "internalType": "uint256",
          "name": "amount",
          "type": "uint256"
        }
      ],
      "name": "Transfer",
      "type": "event"
    },
    {
      "anonymous": false,
      "inputs": [
        {
          "indexed": true,
          "internalType": "address",
          "name": "caller",
          "type": "address"
        },
        {
          "indexed": true,
          "internalType": "address",
          "name": "receiver",
          "type": "address"
        },
        {
          "indexed": true,
          "internalType": "address",
          "name": "owner",
          "type": "address"
        },
        {
          "indexed": false,
          "internalType": "uint256",
          "name": "assets",
          "type": "uint256"
        },
        {
          "indexed": false,
          "internalType": "uint256",
          "name": "shares",
          "type": "uint256"
        }
      ],
      "name": "Withdraw",
      "type": "event"
    },
    {
      "stateMutability": "payable",
      "type": "fallback"
    },
    {
      "inputs": [],
      "name": "BOpsAddress",
      "outputs": [
        {
          "internalType": "address",
          "name": "",
          "type": "address"
        }
      ],
      "stateMutability": "view",
      "type": "function"
    },
    {
      "inputs": [],
      "name": "DOMAIN_SEPARATOR",
      "outputs": [
        {
          "internalType": "bytes32",
          "name": "",
          "type": "bytes32"
        }
      ],
      "stateMutability": "view",
      "type": "function"
    },
    {
      "inputs": [],
      "name": "FIRST_DONATION",
      "outputs": [
        {
          "internalType": "uint256",
          "name": "",
          "type": "uint256"
        }
      ],
      "stateMutability": "view",
      "type": "function"
    },
    {
      "inputs": [],
      "name": "MIN_FIRST_MINT",
      "outputs": [
        {
          "internalType": "uint256",
          "name": "",
          "type": "uint256"
        }
      ],
      "stateMutability": "view",
      "type": "function"
    },
    {
      "inputs": [],
      "name": "MIN_SWAP",
      "outputs": [
        {
          "internalType": "uint256",
          "name": "",
          "type": "uint256"
        }
      ],
      "stateMutability": "view",
      "type": "function"
    },
    {
      "inputs": [],
      "name": "WAVAX",
      "outputs": [
        {
          "internalType": "contract IWAVAX",
          "name": "",
          "type": "address"
        }
      ],
      "stateMutability": "view",
      "type": "function"
    },
    {
      "inputs": [],
      "name": "aaveLendingPool",
      "outputs": [
        {
          "internalType": "address",
          "name": "",
          "type": "address"
        }
      ],
      "stateMutability": "view",
      "type": "function"
    },
    {
      "inputs": [],
      "name": "aaveLendingPoolV3",
      "outputs": [
        {
          "internalType": "address",
          "name": "",
          "type": "address"
        }
      ],
      "stateMutability": "view",
      "type": "function"
    },
    {
      "inputs": [],
      "name": "adminFee",
      "outputs": [
        {
          "internalType": "uint256",
          "name": "",
          "type": "uint256"
        }
      ],
      "stateMutability": "view",
      "type": "function"
    },
    {
      "inputs": [
        {
          "internalType": "address",
          "name": "",
          "type": "address"
        },
        {
          "internalType": "address",
          "name": "",
          "type": "address"
        }
      ],
      "name": "allowance",
      "outputs": [
        {
          "internalType": "uint256",
          "name": "",
          "type": "uint256"
        }
      ],
      "stateMutability": "view",
      "type": "function"
    },
    {
      "inputs": [
        {
          "internalType": "address",
          "name": "spender",
          "type": "address"
        },
        {
          "internalType": "uint256",
          "name": "amount",
          "type": "uint256"
        }
      ],
      "name": "approve",
      "outputs": [
        {
          "internalType": "bool",
          "name": "",
          "type": "bool"
        }
      ],
      "stateMutability": "nonpayable",
      "type": "function"
    },
    {
      "inputs": [
        {
          "internalType": "address",
          "name": "",
          "type": "address"
        }
      ],
      "name": "balanceOf",
      "outputs": [
        {
          "internalType": "uint256",
          "name": "",
          "type": "uint256"
        }
      ],
      "stateMutability": "view",
      "type": "function"
    },
    {
      "inputs": [],
      "name": "callerFee",
      "outputs": [
        {
          "internalType": "uint256",
          "name": "",
          "type": "uint256"
        }
      ],
      "stateMutability": "view",
      "type": "function"
    },
    {
      "inputs": [],
      "name": "compound",
      "outputs": [
        {
          "internalType": "uint256",
          "name": "",
          "type": "uint256"
        }
      ],
      "stateMutability": "nonpayable",
      "type": "function"
    },
    {
      "inputs": [],
      "name": "decimals",
      "outputs": [
        {
          "internalType": "uint8",
          "name": "",
          "type": "uint8"
        }
      ],
      "stateMutability": "view",
      "type": "function"
    },
    {
      "inputs": [
        {
          "internalType": "address",
          "name": "_to",
          "type": "address"
        },
        {
          "internalType": "uint256",
          "name": "_amt",
          "type": "uint256"
        }
      ],
      "name": "deposit",
      "outputs": [
        {
          "internalType": "uint256",
          "name": "receiptTokens",
          "type": "uint256"
        }
      ],
      "stateMutability": "nonpayable",
      "type": "function"
    },
    {
      "inputs": [
        {
          "internalType": "uint256",
          "name": "_amt",
          "type": "uint256"
        }
      ],
      "name": "deposit",
      "outputs": [
        {
          "internalType": "uint256",
          "name": "",
          "type": "uint256"
        }
      ],
      "stateMutability": "nonpayable",
      "type": "function"
    },
    {
      "inputs": [
        {
          "internalType": "address",
          "name": "_borrower",
          "type": "address"
        },
        {
          "internalType": "address",
          "name": "_to",
          "type": "address"
        },
        {
          "internalType": "uint256",
          "name": "_amt",
          "type": "uint256"
        }
      ],
      "name": "depositFor",
      "outputs": [
        {
          "internalType": "uint256",
          "name": "receiptTokens",
          "type": "uint256"
        }
      ],
      "stateMutability": "nonpayable",
      "type": "function"
    },
    {
      "inputs": [
        {
          "internalType": "uint256",
          "name": "_amt",
          "type": "uint256"
        },
        {
          "internalType": "uint256",
          "name": "_value",
          "type": "uint256"
        },
        {
          "internalType": "uint256",
          "name": "_deadline",
          "type": "uint256"
        },
        {
          "internalType": "uint8",
          "name": "_v",
          "type": "uint8"
        },
        {
          "internalType": "bytes32",
          "name": "_r",
          "type": "bytes32"
        },
        {
          "internalType": "bytes32",
          "name": "_s",
          "type": "bytes32"
        }
      ],
      "name": "depositWithPermit",
      "outputs": [
        {
          "internalType": "uint256",
          "name": "receiptTokens",
          "type": "uint256"
        }
      ],
      "stateMutability": "nonpayable",
      "type": "function"
    },
    {
      "inputs": [
        {
          "internalType": "uint256",
          "name": "_index",
          "type": "uint256"
        }
      ],
      "name": "deprecateRewardToken",
      "outputs": [],
      "stateMutability": "nonpayable",
      "type": "function"
    },
    {
      "inputs": [
        {
          "internalType": "uint256",
          "name": "_amt",
          "type": "uint256"
        }
      ],
      "name": "emergencyRedeem",
      "outputs": [
        {
          "internalType": "uint256",
          "name": "amtToReturn",
          "type": "uint256"
        }
      ],
      "stateMutability": "nonpayable",
      "type": "function"
    },
    {
      "inputs": [],
      "name": "feeRecipient",
      "outputs": [
        {
          "internalType": "address",
          "name": "",
          "type": "address"
        }
      ],
      "stateMutability": "view",
      "type": "function"
    },
    {
      "inputs": [],
      "name": "gauge",
      "outputs": [
        {
          "internalType": "contract ICRVGauge",
          "name": "",
          "type": "address"
        }
      ],
      "stateMutability": "view",
      "type": "function"
    },
    {
      "inputs": [
        {
          "internalType": "uint256",
          "name": "_ind",
          "type": "uint256"
        }
      ],
      "name": "getRewardToken",
      "outputs": [
        {
          "internalType": "address",
          "name": "",
          "type": "address"
        }
      ],
      "stateMutability": "view",
      "type": "function"
    },
    {
      "inputs": [
        {
          "internalType": "address",
          "name": "_underlying",
          "type": "address"
        },
        {
          "internalType": "string",
          "name": "_name",
          "type": "string"
        },
        {
          "internalType": "string",
          "name": "_symbol",
          "type": "string"
        },
        {
          "internalType": "uint256",
          "name": "_adminFee",
          "type": "uint256"
        },
        {
          "internalType": "uint256",
          "name": "_callerFee",
          "type": "uint256"
        },
        {
          "internalType": "uint256",
          "name": "_maxReinvestStale",
          "type": "uint256"
        },
        {
          "internalType": "address",
          "name": "_WAVAX",
          "type": "address"
        }
      ],
      "name": "initialize",
      "outputs": [],
      "stateMutability": "nonpayable",
      "type": "function"
    },
    {
      "inputs": [
        {
          "internalType": "address",
          "name": "_underlying",
          "type": "address"
        },
        {
          "internalType": "string",
          "name": "_name",
          "type": "string"
        },
        {
          "internalType": "string",
          "name": "_symbol",
          "type": "string"
        },
        {
          "internalType": "uint256",
          "name": "_adminFee",
          "type": "uint256"
        },
        {
          "internalType": "uint256",
          "name": "_callerFee",
          "type": "uint256"
        },
        {
          "internalType": "uint256",
          "name": "_maxReinvestStale",
          "type": "uint256"
        },
        {
          "internalType": "address",
          "name": "_WAVAX",
          "type": "address"
        },
        {
          "internalType": "address",
          "name": "_gauge",
          "type": "address"
        }
      ],
      "name": "initialize",
      "outputs": [],
      "stateMutability": "nonpayable",
      "type": "function"
    },
    {
      "inputs": [],
      "name": "lastReinvestTime",
      "outputs": [
        {
          "internalType": "uint256",
          "name": "",
          "type": "uint256"
        }
      ],
      "stateMutability": "view",
      "type": "function"
    },
    {
      "inputs": [],
      "name": "maxReinvestStale",
      "outputs": [
        {
          "internalType": "uint256",
          "name": "",
          "type": "uint256"
        }
      ],
      "stateMutability": "view",
      "type": "function"
    },
    {
      "inputs": [],
      "name": "name",
      "outputs": [
        {
          "internalType": "string",
          "name": "",
          "type": "string"
        }
      ],
      "stateMutability": "view",
      "type": "function"
    },
    {
      "inputs": [
        {
          "internalType": "address",
          "name": "",
          "type": "address"
        }
      ],
      "name": "nonces",
      "outputs": [
        {
          "internalType": "uint256",
          "name": "",
          "type": "uint256"
        }
      ],
      "stateMutability": "view",
      "type": "function"
    },
    {
      "inputs": [],
      "name": "numRewardTokens",
      "outputs": [
        {
          "internalType": "uint256",
          "name": "",
          "type": "uint256"
        }
      ],
      "stateMutability": "view",
      "type": "function"
    },
    {
      "inputs": [],
      "name": "owner",
      "outputs": [
        {
          "internalType": "address",
          "name": "",
          "type": "address"
        }
      ],
      "stateMutability": "view",
      "type": "function"
    },
    {
      "inputs": [
        {
          "internalType": "address",
          "name": "owner",
          "type": "address"
        },
        {
          "internalType": "address",
          "name": "spender",
          "type": "address"
        },
        {
          "internalType": "uint256",
          "name": "value",
          "type": "uint256"
        },
        {
          "internalType": "uint256",
          "name": "deadline",
          "type": "uint256"
        },
        {
          "internalType": "uint8",
          "name": "v",
          "type": "uint8"
        },
        {
          "internalType": "bytes32",
          "name": "r",
          "type": "bytes32"
        },
        {
          "internalType": "bytes32",
          "name": "s",
          "type": "bytes32"
        }
      ],
      "name": "permit",
      "outputs": [],
      "stateMutability": "nonpayable",
      "type": "function"
    },
    {
      "inputs": [
        {
          "internalType": "address",
          "name": "_token",
          "type": "address"
        }
      ],
      "name": "pushRewardToken",
      "outputs": [],
      "stateMutability": "nonpayable",
      "type": "function"
    },
    {
      "inputs": [],
      "name": "receiptPerUnderlying",
      "outputs": [
        {
          "internalType": "uint256",
          "name": "",
          "type": "uint256"
        }
      ],
      "stateMutability": "view",
      "type": "function"
    },
    {
      "inputs": [
        {
          "internalType": "address",
          "name": "_to",
          "type": "address"
        },
        {
          "internalType": "uint256",
          "name": "_amt",
          "type": "uint256"
        }
      ],
      "name": "redeem",
      "outputs": [
        {
          "internalType": "uint256",
          "name": "amtToReturn",
          "type": "uint256"
        }
      ],
      "stateMutability": "nonpayable",
      "type": "function"
    },
    {
      "inputs": [
        {
          "internalType": "uint256",
          "name": "_amt",
          "type": "uint256"
        }
      ],
      "name": "redeem",
      "outputs": [
        {
          "internalType": "uint256",
          "name": "",
          "type": "uint256"
        }
      ],
      "stateMutability": "nonpayable",
      "type": "function"
    },
    {
      "inputs": [
        {
          "internalType": "uint256",
          "name": "_amt",
          "type": "uint256"
        },
        {
          "internalType": "address",
          "name": "_from",
          "type": "address"
        },
        {
          "internalType": "address",
          "name": "_to",
          "type": "address"
        }
      ],
      "name": "redeemFor",
      "outputs": [
        {
          "internalType": "uint256",
          "name": "amtToReturn",
          "type": "uint256"
        }
      ],
      "stateMutability": "nonpayable",
      "type": "function"
    },
    {
      "inputs": [
        {
          "internalType": "uint256",
          "name": "_amt",
          "type": "uint256"
        },
        {
          "internalType": "address",
          "name": "_from",
          "type": "address"
        },
        {
          "internalType": "address",
          "name": "_to",
          "type": "address"
        },
        {
          "internalType": "uint256",
          "name": "_value",
          "type": "uint256"
        },
        {
          "internalType": "uint256",
          "name": "_deadline",
          "type": "uint256"
        },
        {
          "internalType": "uint8",
          "name": "_v",
          "type": "uint8"
        },
        {
          "internalType": "bytes32",
          "name": "_r",
          "type": "bytes32"
        },
        {
          "internalType": "bytes32",
          "name": "_s",
          "type": "bytes32"
        }
      ],
      "name": "redeemForWithPermit",
      "outputs": [
        {
          "internalType": "uint256",
          "name": "",
          "type": "uint256"
        }
      ],
      "stateMutability": "nonpayable",
      "type": "function"
    },
    {
      "inputs": [],
      "name": "renounceOwnership",
      "outputs": [],
      "stateMutability": "nonpayable",
      "type": "function"
    },
    {
      "inputs": [
        {
          "internalType": "uint256",
          "name": "",
          "type": "uint256"
        }
      ],
      "name": "rewardTokens",
      "outputs": [
        {
          "internalType": "address",
          "name": "",
          "type": "address"
        }
      ],
      "stateMutability": "view",
      "type": "function"
    },
    {
      "inputs": [
        {
          "internalType": "address",
          "name": "",
          "type": "address"
        },
        {
          "internalType": "address",
          "name": "",
          "type": "address"
        },
        {
          "internalType": "uint256",
          "name": "",
          "type": "uint256"
        }
      ],
      "name": "routes",
      "outputs": [
        {
          "internalType": "address",
          "name": "protocolSwapAddress",
          "type": "address"
        },
        {
          "internalType": "uint256",
          "name": "nodeType",
          "type": "uint256"
        },
        {
          "internalType": "address",
          "name": "tokenIn",
          "type": "address"
        },
        {
          "internalType": "address",
          "name": "tokenOut",
          "type": "address"
        },
        {
          "internalType": "int128",
          "name": "_misc",
          "type": "int128"
        },
        {
          "internalType": "int128",
          "name": "_in",
          "type": "int128"
        },
        {
          "internalType": "int128",
          "name": "_out",
          "type": "int128"
        }
      ],
      "stateMutability": "view",
      "type": "function"
    },
    {
      "inputs": [
        {
          "internalType": "address",
          "name": "_aaveLendingPool",
          "type": "address"
        },
        {
          "internalType": "address",
          "name": "_aaveLendingPoolV3",
          "type": "address"
        }
      ],
      "name": "setAAVE",
      "outputs": [],
      "stateMutability": "nonpayable",
      "type": "function"
    },
    {
      "inputs": [
        {
          "internalType": "address",
          "name": "_token",
          "type": "address"
        },
        {
          "internalType": "address",
          "name": "_who",
          "type": "address"
        },
        {
          "internalType": "uint256",
          "name": "_amount",
          "type": "uint256"
        }
      ],
      "name": "setApprovals",
      "outputs": [],
      "stateMutability": "nonpayable",
      "type": "function"
    },
    {
      "inputs": [
        {
          "internalType": "address",
          "name": "_BOpsAddress",
          "type": "address"
        }
      ],
      "name": "setBOps",
      "outputs": [],
      "stateMutability": "nonpayable",
      "type": "function"
    },
    {
      "inputs": [
        {
          "internalType": "uint256",
          "name": "_adminFee",
          "type": "uint256"
        },
        {
          "internalType": "uint256",
          "name": "_callerFee",
          "type": "uint256"
        }
      ],
      "name": "setFee",
      "outputs": [],
      "stateMutability": "nonpayable",
      "type": "function"
    },
    {
      "inputs": [
        {
          "internalType": "address",
          "name": "_feeRecipient",
          "type": "address"
        }
      ],
      "name": "setFeeRecipient",
      "outputs": [],
      "stateMutability": "nonpayable",
      "type": "function"
    },
    {
      "inputs": [
        {
          "internalType": "address",
          "name": "_traderJoeRouter",
          "type": "address"
        }
      ],
      "name": "setJoeRouter",
      "outputs": [],
      "stateMutability": "nonpayable",
      "type": "function"
    },
    {
      "inputs": [
        {
          "internalType": "address",
          "name": "_fromToken",
          "type": "address"
        },
        {
          "internalType": "address",
          "name": "_toToken",
          "type": "address"
        },
        {
          "components": [
            {
              "internalType": "address",
              "name": "protocolSwapAddress",
              "type": "address"
            },
            {
              "internalType": "uint256",
              "name": "nodeType",
              "type": "uint256"
            },
            {
              "internalType": "address",
              "name": "tokenIn",
              "type": "address"
            },
            {
              "internalType": "address",
              "name": "tokenOut",
              "type": "address"
            },
            {
              "internalType": "int128",
              "name": "_misc",
              "type": "int128"
            },
            {
              "internalType": "int128",
              "name": "_in",
              "type": "int128"
            },
            {
              "internalType": "int128",
              "name": "_out",
              "type": "int128"
            }
          ],
          "internalType": "struct Router.Node[]",
          "name": "_path",
          "type": "tuple[]"
        }
      ],
      "name": "setRoute",
      "outputs": [],
      "stateMutability": "nonpayable",
      "type": "function"
    },
    {
      "inputs": [
        {
          "internalType": "uint256",
          "name": "_maxReinvestStale",
          "type": "uint256"
        }
      ],
      "name": "setStale",
      "outputs": [],
      "stateMutability": "nonpayable",
      "type": "function"
    },
    {
      "inputs": [],
      "name": "symbol",
      "outputs": [
        {
          "internalType": "string",
          "name": "",
          "type": "string"
        }
      ],
      "stateMutability": "view",
      "type": "function"
    },
    {
      "inputs": [],
      "name": "totalHoldings",
      "outputs": [
        {
          "internalType": "uint256",
          "name": "",
          "type": "uint256"
        }
      ],
      "stateMutability": "view",
      "type": "function"
    },
    {
      "inputs": [],
      "name": "totalSupply",
      "outputs": [
        {
          "internalType": "uint256",
          "name": "",
          "type": "uint256"
        }
      ],
      "stateMutability": "view",
      "type": "function"
    },
    {
      "inputs": [],
      "name": "traderJoeRouter",
      "outputs": [
        {
          "internalType": "address",
          "name": "",
          "type": "address"
        }
      ],
      "stateMutability": "view",
      "type": "function"
    },
    {
      "inputs": [
        {
          "internalType": "address",
          "name": "to",
          "type": "address"
        },
        {
          "internalType": "uint256",
          "name": "amount",
          "type": "uint256"
        }
      ],
      "name": "transfer",
      "outputs": [
        {
          "internalType": "bool",
          "name": "",
          "type": "bool"
        }
      ],
      "stateMutability": "nonpayable",
      "type": "function"
    },
    {
      "inputs": [
        {
          "internalType": "address",
          "name": "from",
          "type": "address"
        },
        {
          "internalType": "address",
          "name": "to",
          "type": "address"
        },
        {
          "internalType": "uint256",
          "name": "amount",
          "type": "uint256"
        }
      ],
      "name": "transferFrom",
      "outputs": [
        {
          "internalType": "bool",
          "name": "",
          "type": "bool"
        }
      ],
      "stateMutability": "nonpayable",
      "type": "function"
    },
    {
      "inputs": [
        {
          "internalType": "address",
          "name": "newOwner",
          "type": "address"
        }
      ],
      "name": "transferOwnership",
      "outputs": [],
      "stateMutability": "nonpayable",
      "type": "function"
    },
    {
      "inputs": [],
      "name": "underlying",
      "outputs": [
        {
          "internalType": "contract ERC20",
          "name": "",
          "type": "address"
        }
      ],
      "stateMutability": "view",
      "type": "function"
    },
    {
      "inputs": [],
      "name": "underlyingDecimal",
      "outputs": [
        {
          "internalType": "uint256",
          "name": "",
          "type": "uint256"
        }
      ],
      "stateMutability": "view",
      "type": "function"
    },
    {
      "inputs": [],
      "name": "underlyingPerReceipt",
      "outputs": [
        {
          "internalType": "uint256",
          "name": "",
          "type": "uint256"
        }
      ],
      "stateMutability": "view",
      "type": "function"
    },
    {
      "inputs": [
        {
          "internalType": "uint256",
          "name": "_amt",
          "type": "uint256"
        }
      ],
      "name": "withdraw",
      "outputs": [
        {
          "internalType": "uint256",
          "name": "",
          "type": "uint256"
        }
      ],
      "stateMutability": "nonpayable",
      "type": "function"
    },
    {
      "inputs": [
        {
          "internalType": "uint256",
          "name": "_amt",
          "type": "uint256"
        },
        {
          "internalType": "address",
          "name": "_from",
          "type": "address"
        },
        {
          "internalType": "address",
          "name": "_to",
          "type": "address"
        }
      ],
      "name": "withdrawFor",
      "outputs": [
        {
          "internalType": "uint256",
          "name": "",
          "type": "uint256"
        }
      ],
      "stateMutability": "nonpayable",
      "type": "function"
    }
  ],
  "bytecode": {
    "object": "0x608060405234801561001057600080fd5b5061661980620000216000396000f3fe6080604052600436106103805760003560e01c80637b5dbbdd116101cf578063c5c7003511610101578063e32d5cf81161009a578063f2fde38b1161006c578063f2fde38b14610ad0578063f69e204614610af0578063f74877b514610b05578063fac991cc14610b2557005b8063e32d5cf814610a5b578063e74b981b14610a7b578063e9d337b814610a9b578063e9ec2e9914610abb57005b8063db006a75116100d3578063db006a75146104cf578063dd62ed3e146109f8578063dfa2b90114610a30578063e0794ec514610a4657005b8063c5c700351461098b578063cb8dd1d7146109a3578063cc6e8112146109b8578063d505accf146109d857005b8063a0be06f911610173578063b353379311610145578063b353379314610912578063b3db428b1461092b578063b6b55f251461094b578063bf56700a1461096b57005b8063a0be06f91461089b578063a57f8cb7146108b1578063a6f19c84146108d1578063a9059cbb146108f257005b806385a393bb116101ac57806385a393bb146108325780638da5cb5b146108485780639203430e1461086657806395d89b411461088657005b80637b5dbbdd146107ca5780637bb7bed1146107e55780637ecebe001461080557005b806346904840116102b35780635c0bfa881161024c57806370a082311161021e57806370a0823114610748578063715018a61461077557806373aeea361461078a57806373b295c2146107aa57005b80635c0bfa881461067b578063600c557d1461069b578063647f3430146107085780636f307dc31461072857005b80634fb15b3f116102855780634fb15b3f146105fb578063504a75de1461061b578063515bc3231461063b57806352f7c9881461065b57005b8063469048401461058657806347e7ef24146105a65780634a7e5cbb146105c65780634cdf0392146105db57005b80631e9a695011610325578063313ce567116102f7578063313ce5671461050f57806334d441d01461053b5780633644e515146105515780633d61b2861461056657005b80631e9a69501461048f57806323b872dd146104af5780632e1a7d4d146104cf5780632faff427146104ef57005b8063134b6edb1161035e578063134b6edb146103fd57806318160ddd1461043557806319b333e5146104595780631e0b80531461046f57005b8063026b49a71461038257806306fdde03146103a2578063095ea7b3146103cd575b005b34801561038e57600080fd5b5061038061039d366004615831565b610b45565b3480156103ae57600080fd5b506103b7610bd3565b6040516103c4919061589b565b60405180910390f35b3480156103d957600080fd5b506103ed6103e83660046158ae565b610c61565b60405190151581526020016103c4565b34801561040957600080fd5b5061041d6104183660046158da565b610cce565b6040516001600160a01b0390911681526020016103c4565b34801561044157600080fd5b5061044b60035481565b6040519081526020016103c4565b34801561046557600080fd5b5061044b60d75481565b34801561047b57600080fd5b5061038061048a3660046158da565b610cfe565b34801561049b57600080fd5b5061044b6104aa3660046158ae565b610def565b3480156104bb57600080fd5b506103ed6104ca3660046158f3565b610f0f565b3480156104db57600080fd5b5061044b6104ea3660046158da565b611003565b3480156104fb57600080fd5b50606e5461041d906001600160a01b031681565b34801561051b57600080fd5b506002546105299060ff1681565b60405160ff90911681526020016103c4565b34801561054757600080fd5b5061044b60db5481565b34801561055d57600080fd5b5061044b61100f565b34801561057257600080fd5b5061044b6105813660046158da565b61102e565b34801561059257600080fd5b5060d95461041d906001600160a01b031681565b3480156105b257600080fd5b5061044b6105c13660046158ae565b611123565b3480156105d257600080fd5b5060d65461044b565b3480156105e757600080fd5b506103806105f63660046159d7565b611326565b34801561060757600080fd5b5061044b610616366004615a7f565b6114d0565b34801561062757600080fd5b5061044b610636366004615ad0565b6114e5565b34801561064757600080fd5b5061044b610656366004615b4a565b61150e565b34801561066757600080fd5b50610380610676366004615b9d565b6115c4565b34801561068757600080fd5b5061044b610696366004615a7f565b611644565b3480156106a757600080fd5b506106bb6106b63660046158f3565b6117dc565b604080516001600160a01b039889168152602081019790975294871694860194909452919094166060840152600f93840b6080840152830b60a083015290910b60c082015260e0016103c4565b34801561071457600080fd5b50610380610723366004615831565b61186c565b34801561073457600080fd5b5060d55461041d906001600160a01b031681565b34801561075457600080fd5b5061044b610763366004615831565b60046020526000908152604090205481565b34801561078157600080fd5b506103806118f5565b34801561079657600080fd5b506103806107a5366004615bbf565b61195b565b3480156107b657600080fd5b5060dd5461041d906001600160a01b031681565b3480156107d657600080fd5b5061044b662386f26fc1000081565b3480156107f157600080fd5b5061041d6108003660046158da565b611aae565b34801561081157600080fd5b5061044b610820366004615831565b60086020526000908152604090205481565b34801561083e57600080fd5b5061044b60d85481565b34801561085457600080fd5b50603c546001600160a01b031661041d565b34801561087257600080fd5b5060715461041d906001600160a01b031681565b34801561089257600080fd5b506103b7611ad8565b3480156108a757600080fd5b5061044b60da5481565b3480156108bd57600080fd5b506103806108cc366004615831565b611ae5565b3480156108dd57600080fd5b5061010f5461041d906001600160a01b031681565b3480156108fe57600080fd5b506103ed61090d3660046158ae565b611bf4565b34801561091e57600080fd5b5061044b64e8d4a5100081565b34801561093757600080fd5b5061044b6109463660046158f3565b611c6c565b34801561095757600080fd5b5061044b6109663660046158da565b611ebb565b34801561097757600080fd5b50610380610986366004615c54565b611ec7565b34801561099757600080fd5b5061044b6305f5e10081565b3480156109af57600080fd5b5061044b611f5c565b3480156109c457600080fd5b5060dc5461041d906001600160a01b031681565b3480156109e457600080fd5b506103806109f3366004615c8d565b612003565b348015610a0457600080fd5b5061044b610a13366004615c54565b600560209081526000928352604080842090915290825290205481565b348015610a3c57600080fd5b5061044b60d45481565b348015610a5257600080fd5b5061044b612271565b348015610a6757600080fd5b50610380610a763660046158f3565b612319565b348015610a8757600080fd5b50610380610a96366004615831565b612405565b348015610aa757600080fd5b50606f5461041d906001600160a01b031681565b348015610ac757600080fd5b5061044b61248e565b348015610adc57600080fd5b50610380610aeb366004615831565b6124fd565b348015610afc57600080fd5b5061044b6125df565b348015610b1157600080fd5b50610380610b203660046158da565b61264b565b348015610b3157600080fd5b50610380610b40366004615cfe565b6126aa565b603c546001600160a01b03163314610ba45760405162461bcd60e51b815260206004820181905260248201527f4f776e61626c653a2063616c6c6572206973206e6f7420746865206f776e657260448201526064015b60405180910390fd5b606e805473ffffffffffffffffffffffffffffffffffffffff19166001600160a01b0392909216919091179055565b60008054610be090615db9565b80601f0160208091040260200160405190810160405280929190818152602001828054610c0c90615db9565b8015610c595780601f10610c2e57610100808354040283529160200191610c59565b820191906000526020600020905b815481529060010190602001808311610c3c57829003601f168201915b505050505081565b3360008181526005602090815260408083206001600160a01b038716808552925280832085905551919290917f8c5be1e5ebec7d5bd14f71427d1e84f3dd0314c0f7b2291e5b200ac8c7c3b92590610cbc9086815260200190565b60405180910390a35060015b92915050565b600060d68281548110610ce357610ce3615dee565b6000918252602090912001546001600160a01b031692915050565b603c546001600160a01b03163314610d585760405162461bcd60e51b815260206004820181905260248201527f4f776e61626c653a2063616c6c6572206973206e6f7420746865206f776e65726044820152606401610b9b565b60d6548110610da95760405162461bcd60e51b815260206004820152600d60248201527f4f7574206f6620626f756e6473000000000000000000000000000000000000006044820152606401610b9b565b600060d68281548110610dbe57610dbe615dee565b9060005260206000200160006101000a8154816001600160a01b0302191690836001600160a01b0316021790555050565b6000600260a2541415610e445760405162461bcd60e51b815260206004820152601f60248201527f5265656e7472616e637947756172643a207265656e7472616e742063616c6c006044820152606401610b9b565b600260a25560d85460d754610e599190615e1a565b421115610e6a57610e6861277a565b505b670de0b6b3a764000082610e7c611f5c565b610e869190615e32565b610e909190615e51565b9050610e9b81612cf2565b610ea53383612d75565b60d554610ebc906001600160a01b03168483612df1565b604080518281526020810184905233916001600160a01b0386169183917ffbde797d201c681b91056529119e0b02407c7bb96a4a2c75c01fc9667232c8db910160405180910390a4600160a25592915050565b6001600160a01b03831660009081526005602090815260408083203384529091528120546000198114610f6b57610f468382615e73565b6001600160a01b03861660009081526005602090815260408083203384529091529020555b6001600160a01b03851660009081526004602052604081208054859290610f93908490615e73565b90915550506001600160a01b03808516600081815260046020526040908190208054870190555190918716907fddf252ad1be2c89b69c2b068fc378daa952ba7f163c4a11628f55a4df523b3ef90610fee9087815260200190565b60405180910390a360019150505b9392505050565b6000610cc83383610def565b6000600654461461102757611022612e90565b905090565b5060075490565b6000600260a25414156110835760405162461bcd60e51b815260206004820152601f60248201527f5265656e7472616e637947756172643a207265656e7472616e742063616c6c006044820152606401610b9b565b600260a255670de0b6b3a76400008261109a611f5c565b6110a49190615e32565b6110ae9190615e51565b90506110b981612cf2565b6110c33383612d75565b60d5546110da906001600160a01b03163383612df1565b60408051828152602081018490523391829182917ffbde797d201c681b91056529119e0b02407c7bb96a4a2c75c01fc9667232c8db910160405180910390a4600160a255919050565b6000600260a25414156111785760405162461bcd60e51b815260206004820152601f60248201527f5265656e7472616e637947756172643a207265656e7472616e742063616c6c006044820152606401610b9b565b600260a255816111ca5760405162461bcd60e51b815260206004820152600860248201527f3020746f6b656e730000000000000000000000000000000000000000000000006044820152606401610b9b565b60d85460d7546111da9190615e1a565b4211156111eb576111e961277a565b505b81670de0b6b3a7640000816111fe612271565b6112089190615e32565b6112129190615e51565b91506003546000141561125c5764e8d4a5100082101561123157600080fd5b60d95461124b906001600160a01b03166305f5e100612f2a565b6112596305f5e10083615e73565b91505b816112a95760405162461bcd60e51b815260206004820152600a60248201527f30207265636569766564000000000000000000000000000000000000000000006044820152606401610b9b565b60d5546112c1906001600160a01b0316333086612f8e565b6112ca83613033565b6112d48483612f2a565b60408051848152602081018490526001600160a01b0386169133917fdcbc1c05240f31ff3ad067ef1ee35ce4997762752e3a095284754544f4c709d7910160405180910390a350600160a25592915050565b6000611332600161308b565b9050801561136757600980547fffffffffffffffffffffffffffffffffffffffffffffffffffffffffffff00ff166101001790555b61136f6131c6565b61137761324b565b611383878760126132d0565b60d5805473ffffffffffffffffffffffffffffffffffffffff19166001600160a01b038a16908117909155604080517f313ce567000000000000000000000000000000000000000000000000000000008152905163313ce567916004808201926020929091908290030181865afa158015611402573d6000803e3d6000fd5b505050506040513d601f19601f820116820180604052508101906114269190615e8a565b60ff1660d45561143685856115c4565b60d883905560dd805473ffffffffffffffffffffffffffffffffffffffff19166001600160a01b03841617905580156114c657600980547fffffffffffffffffffffffffffffffffffffffffffffffffffffffffffff00ff169055604051600181527f7f26b83ff96e1f2b6a682f133852f6798a09c465da95921460cefb38474024989060200160405180910390a15b5050505050505050565b60006114dd848484611644565b949350505050565b60006114f688338888888888612003565b611501898989611644565b9998505050505050505050565b60d5546040517fd505accf000000000000000000000000000000000000000000000000000000008152336004820152306024820152604481018790526064810186905260ff8516608482015260a4810184905260c481018390526000916001600160a01b03169063d505accf9060e401600060405180830381600087803b15801561159857600080fd5b505af11580156115ac573d6000803e3d6000fd5b505050506115b987611ebb565b979650505050505050565b603c546001600160a01b0316331461161e5760405162461bcd60e51b815260206004820181905260248201527f4f776e61626c653a2063616c6c6572206973206e6f7420746865206f776e65726044820152606401610b9b565b61271082108015611630575061271081105b61163957600080fd5b60da9190915560db55565b6000600260a25414156116995760405162461bcd60e51b815260206004820152601f60248201527f5265656e7472616e637947756172643a207265656e7472616e742063616c6c006044820152606401610b9b565b600260a25560d85460d7546116ae9190615e1a565b4211156116bf576116bd61277a565b505b6001600160a01b038316600090815260056020908152604080832033845290915290205460001981148015906116fe5750336001600160a01b03851614155b156117325761170d8582615e73565b6001600160a01b03851660009081526005602090815260408083203384529091529020555b670de0b6b3a764000085611744611f5c565b61174e9190615e32565b6117589190615e51565b915061176382612cf2565b61176d8486612d75565b60d554611784906001600160a01b03168484612df1565b60408051838152602081018790526001600160a01b03808716929086169133917ffbde797d201c681b91056529119e0b02407c7bb96a4a2c75c01fc9667232c8db910160405180910390a450600160a2559392505050565b6070602052826000526040600020602052816000526040600020818154811061180457600080fd5b60009182526020909120600690910201805460018201546002830154600384015460048501546005909501546001600160a01b039485169850929650908316945090911691600f81810b92700100000000000000000000000000000000909204810b91900b87565b603c546001600160a01b031633146118c65760405162461bcd60e51b815260206004820181905260248201527f4f776e61626c653a2063616c6c6572206973206e6f7420746865206f776e65726044820152606401610b9b565b60dc805473ffffffffffffffffffffffffffffffffffffffff19166001600160a01b0392909216919091179055565b603c546001600160a01b0316331461194f5760405162461bcd60e51b815260206004820181905260248201527f4f776e61626c653a2063616c6c6572206973206e6f7420746865206f776e65726044820152606401610b9b565b611959600061331b565b565b603c546001600160a01b031633146119b55760405162461bcd60e51b815260206004820181905260248201527f4f776e61626c653a2063616c6c6572206973206e6f7420746865206f776e65726044820152606401610b9b565b6001600160a01b03808516600090815260706020908152604080832093871683529290529081206119e5916156e6565b60005b81811015611a6a576001600160a01b038086166000908152607060209081526040808320938816835292905220838383818110611a2757611a27615dee565b83546001810185556000948552602090942060e090910292909201926006029091019050611a558282615ec3565b50508080611a6290616062565b9150506119e8565b507f01aa5c4f582e572c83ccd23ac58ee02c7e51aceb9d47d02987f31536b352992f84848484604051611aa09493929190616088565b60405180910390a150505050565b60d68181548110611abe57600080fd5b6000918252602090912001546001600160a01b0316905081565b60018054610be090615db9565b603c546001600160a01b03163314611b3f5760405162461bcd60e51b815260206004820181905260248201527f4f776e61626c653a2063616c6c6572206973206e6f7420746865206f776e65726044820152606401610b9b565b6001600160a01b038116611b955760405162461bcd60e51b815260206004820152600960248201527f30206164647265737300000000000000000000000000000000000000000000006044820152606401610b9b565b60d680546001810182556000919091527fe767803f8ecf1dee6bb0345811f7312cda556058b19db6389ad9ae3568643ddd01805473ffffffffffffffffffffffffffffffffffffffff19166001600160a01b0392909216919091179055565b33600090815260046020526040812080548391908390611c15908490615e73565b90915550506001600160a01b038316600081815260046020526040908190208054850190555133907fddf252ad1be2c89b69c2b068fc378daa952ba7f163c4a11628f55a4df523b3ef90610cbc9086815260200190565b6000600260a2541415611cc15760405162461bcd60e51b815260206004820152601f60248201527f5265656e7472616e637947756172643a207265656e7472616e742063616c6c006044820152606401610b9b565b600260a25560dc546001600160a01b03163314611d205760405162461bcd60e51b815260206004820152600960248201527f424f7073206f6e6c7900000000000000000000000000000000000000000000006044820152606401610b9b565b60008211611d705760405162461bcd60e51b815260206004820152600860248201527f3020746f6b656e730000000000000000000000000000000000000000000000006044820152606401610b9b565b60d85460d754611d809190615e1a565b421115611d9157611d8f61277a565b505b81670de0b6b3a764000081611da4612271565b611dae9190615e32565b611db89190615e51565b915081611e2d5760405162461bcd60e51b815260206004820152603760248201527f4465706f73697420616d6f756e7420746f6f20736d616c6c2c20796f7520776960448201527f6c6c206765742030207265636569707420746f6b656e730000000000000000006064820152608401610b9b565b60d554611e45906001600160a01b0316863086612f8e565b611e4e83613033565b611e588483612f2a565b836001600160a01b0316856001600160a01b03167fdcbc1c05240f31ff3ad067ef1ee35ce4997762752e3a095284754544f4c709d78585604051611ea6929190918252602082015260400190565b60405180910390a350600160a2559392505050565b6000610cc83383611123565b603c546001600160a01b03163314611f215760405162461bcd60e51b815260206004820181905260248201527f4f776e61626c653a2063616c6c6572206973206e6f7420746865206f776e65726044820152606401610b9b565b606f80546001600160a01b0393841673ffffffffffffffffffffffffffffffffffffffff199182161790915560718054929093169116179055565b600060035460001415611f775760d45461102290600a61625f565b60035461010f546040516370a0823160e01b81523060048201526001600160a01b03909116906370a0823190602401602060405180830381865afa158015611fc3573d6000803e3d6000fd5b505050506040513d601f19601f82011682018060405250810190611fe7919061626b565b611ff990670de0b6b3a7640000615e32565b6110229190615e51565b428410156120535760405162461bcd60e51b815260206004820152601760248201527f5045524d49545f444541444c494e455f455850495245440000000000000000006044820152606401610b9b565b6000600161205f61100f565b6001600160a01b038a811660008181526008602090815260409182902080546001810190915582517f6e71edae12b1b97f4d1f60370fef10105fa2faae0126114a169c64845d6126c98184015280840194909452938d166060840152608083018c905260a083019390935260c08083018b90528151808403909101815260e0830190915280519201919091207f19010000000000000000000000000000000000000000000000000000000000006101008301526101028201929092526101228101919091526101420160408051601f198184030181528282528051602091820120600084529083018083525260ff871690820152606081018590526080810184905260a0016020604051602081039080840390855afa158015612186573d6000803e3d6000fd5b5050604051601f1901519150506001600160a01b038116158015906121bc5750876001600160a01b0316816001600160a01b0316145b6122085760405162461bcd60e51b815260206004820152600e60248201527f494e56414c49445f5349474e45520000000000000000000000000000000000006044820152606401610b9b565b6001600160a01b0390811660009081526005602090815260408083208a8516808552908352928190208990555188815291928a16917f8c5be1e5ebec7d5bd14f71427d1e84f3dd0314c0f7b2291e5b200ac8c7c3b925910160405180910390a350505050505050565b6000600354600014156122975760d45461228c906024615e73565b61102290600a61625f565b61010f546040516370a0823160e01b81523060048201526001600160a01b03909116906370a0823190602401602060405180830381865afa1580156122e0573d6000803e3d6000fd5b505050506040513d601f19601f82011682018060405250810190612304919061626b565b600354611ff990670de0b6b3a7640000615e32565b603c546001600160a01b031633146123735760405162461bcd60e51b815260206004820181905260248201527f4f776e61626c653a2063616c6c6572206973206e6f7420746865206f776e65726044820152606401610b9b565b6040517f095ea7b30000000000000000000000000000000000000000000000000000000081526001600160a01b0383811660048301526024820183905284169063095ea7b3906044016020604051808303816000875af11580156123db573d6000803e3d6000fd5b505050506040513d601f19601f820116820180604052508101906123ff9190616284565b50505050565b603c546001600160a01b0316331461245f5760405162461bcd60e51b815260206004820181905260248201527f4f776e61626c653a2063616c6c6572206973206e6f7420746865206f776e65726044820152606401610b9b565b60d9805473ffffffffffffffffffffffffffffffffffffffff19166001600160a01b0392909216919091179055565b61010f546040516370a0823160e01b81523060048201526000916001600160a01b0316906370a08231906024015b602060405180830381865afa1580156124d9573d6000803e3d6000fd5b505050506040513d601f19601f82011682018060405250810190611022919061626b565b603c546001600160a01b031633146125575760405162461bcd60e51b815260206004820181905260248201527f4f776e61626c653a2063616c6c6572206973206e6f7420746865206f776e65726044820152606401610b9b565b6001600160a01b0381166125d35760405162461bcd60e51b815260206004820152602660248201527f4f776e61626c653a206e6577206f776e657220697320746865207a65726f206160448201527f64647265737300000000000000000000000000000000000000000000000000006064820152608401610b9b565b6125dc8161331b565b50565b6000600260a25414156126345760405162461bcd60e51b815260206004820152601f60248201527f5265656e7472616e637947756172643a207265656e7472616e742063616c6c006044820152606401610b9b565b600260a25561264161277a565b9050600160a25590565b603c546001600160a01b031633146126a55760405162461bcd60e51b815260206004820181905260248201527f4f776e61626c653a2063616c6c6572206973206e6f7420746865206f776e65726044820152606401610b9b565b60d855565b6126b988888888888888611326565b61010f805473ffffffffffffffffffffffffffffffffffffffff19166001600160a01b0383811691821790925560d5546040517f095ea7b3000000000000000000000000000000000000000000000000000000008152600481019290925260001960248301529091169063095ea7b3906044016020604051808303816000875af115801561274b573d6000803e3d6000fd5b505050506040513d601f19601f8201168201806040525081019061276f9190616284565b505050505050505050565b60d5544260d7556000906001600160a01b03168161279661337a565b90506127a06133ab565b60005b60d654811015612a995760006001600160a01b031660d682815481106127cb576127cb615dee565b6000918252602090912001546001600160a01b031614612a8757826001600160a01b031660d6828154811061280257612802615dee565b6000918252602090912001546001600160a01b0316141561282257612a87565b60016001600160a01b031660d6828154811061284057612840615dee565b6000918252602090912001546001600160a01b031614156128f75747662386f26fc100008111156128f15760dd60009054906101000a90046001600160a01b03166001600160a01b031663d0e30db0826040518263ffffffff1660e01b81526004016000604051808303818588803b1580156128bb57600080fd5b505af11580156128cf573d6000803e3d6000fd5b505060dd546128ef93506001600160a01b03169150869050836000613410565b505b50612a87565b600060d6828154811061290c5761290c615dee565b6000918252602090912001546040516370a0823160e01b81523060048201526001600160a01b03909116906370a0823190602401602060405180830381865afa15801561295d573d6000803e3d6000fd5b505050506040513d601f19601f82011682018060405250810190612981919061626b565b9050662386f26fc1000060d6838154811061299e5761299e615dee565b60009182526020918290200154604080517f313ce56700000000000000000000000000000000000000000000000000000000815290516001600160a01b039092169263313ce567926004808401938290030181865afa158015612a05573d6000803e3d6000fd5b505050506040513d601f19601f82011682018060405250810190612a299190615e8a565b612a349060126162a6565b612a3f90600a6162c9565b612a499083615e32565b1115612a8557612a8360d68381548110612a6557612a65615dee565b60009182526020822001546001600160a01b03169086908490613410565b505b505b80612a9181616062565b9150506127a3565b506000612aa461337a565b90506000612ab28383615e73565b90508015612ceb5760d5546040516370a0823160e01b815230600482015260009184916001600160a01b03909116906370a0823190602401602060405180830381865afa158015612b07573d6000803e3d6000fd5b505050506040513d601f19601f82011682018060405250810190612b2b919061626b565b612b359084615e32565b612b3f9190615e51565b9050600061271060da5483612b549190615e32565b612b5e9190615e51565b9050600061271060db5484612b739190615e32565b612b7d9190615e51565b60d55460d954919250612b9d916001600160a01b03918216911684612df1565b60d554612bb4906001600160a01b03163383612df1565b60408051338152602081018890529081018690527f7595de4054dcab05a338b0855bb2e6155c81172fc76a0cdc037724df4d7e1c4f9060600160405180910390a160d954604080516001600160a01b039092168252602082018490527f4160cbc62d82681031bd44dffd104f752175f93f9b3c78a5a8f0867c667ee918910160405180910390a160408051338152602081018390527f97c227f091684bc53502ee6cf0e3bd656721fdbe9f1b9fddf678b8979efb5a26910160405180910390a160d5546040516370a0823160e01b8152306004820152612ce7916001600160a01b0316906370a0823190602401602060405180830381865afa158015612cbe573d6000803e3d6000fd5b505050506040513d601f19601f82011682018060405250810190612ce2919061626b565b613033565b5050505b5050505090565b61010f546040517f38d0743600000000000000000000000000000000000000000000000000000000815260048101839052600160248201526001600160a01b03909116906338d07436906044015b600060405180830381600087803b158015612d5a57600080fd5b505af1158015612d6e573d6000803e3d6000fd5b5050505050565b6001600160a01b03821660009081526004602052604081208054839290612d9d908490615e73565b90915550506003805482900390556040518181526000906001600160a01b038416907fddf252ad1be2c89b69c2b068fc378daa952ba7f163c4a11628f55a4df523b3ef906020015b60405180910390a35050565b60006040517fa9059cbb000000000000000000000000000000000000000000000000000000008152836004820152826024820152602060006044836000895af13d15601f3d11600160005114161716915050806123ff5760405162461bcd60e51b815260206004820152600f60248201527f5452414e534645525f4641494c454400000000000000000000000000000000006044820152606401610b9b565b60007f8b73c3c69bb8fe3d512ecc4cf759cc79239f7b179b0ffacaa9a75d522b39400f6000604051612ec291906162d8565b6040805191829003822060208301939093528101919091527fc89efdaa54c0f20c7adf612882df0950f5a951637e0307cdcb4c672f298b8bc660608201524660808201523060a082015260c00160405160208183030381529060405280519060200120905090565b8060036000828254612f3c9190615e1a565b90915550506001600160a01b0382166000818152600460209081526040808320805486019055518481527fddf252ad1be2c89b69c2b068fc378daa952ba7f163c4a11628f55a4df523b3ef9101612de5565b60006040517f23b872dd0000000000000000000000000000000000000000000000000000000081528460048201528360248201528260448201526020600060648360008a5af13d15601f3d1160016000511416171691505080612d6e5760405162461bcd60e51b815260206004820152601460248201527f5452414e534645525f46524f4d5f4641494c45440000000000000000000000006044820152606401610b9b565b61010f546040517f83df674700000000000000000000000000000000000000000000000000000000815260048101839052306024820152600160448201526001600160a01b03909116906383df674790606401612d40565b600954600090610100900460ff161561312a578160ff1660011480156130b05750303b155b6131225760405162461bcd60e51b815260206004820152602e60248201527f496e697469616c697a61626c653a20636f6e747261637420697320616c72656160448201527f647920696e697469616c697a65640000000000000000000000000000000000006064820152608401610b9b565b506000919050565b60095460ff8084169116106131a75760405162461bcd60e51b815260206004820152602e60248201527f496e697469616c697a61626c653a20636f6e747261637420697320616c72656160448201527f647920696e697469616c697a65640000000000000000000000000000000000006064820152608401610b9b565b506009805460ff191660ff92909216919091179055600190565b919050565b600954610100900460ff166132435760405162461bcd60e51b815260206004820152602b60248201527f496e697469616c697a61626c653a20636f6e7472616374206973206e6f74206960448201527f6e697469616c697a696e670000000000000000000000000000000000000000006064820152608401610b9b565b611959613cc6565b600954610100900460ff166132c85760405162461bcd60e51b815260206004820152602b60248201527f496e697469616c697a61626c653a20636f6e7472616374206973206e6f74206960448201527f6e697469616c697a696e670000000000000000000000000000000000000000006064820152608401610b9b565b611959613d4c565b82516132e3906000906020860190615707565b5081516132f7906001906020850190615707565b506002805460ff191660ff831617905546600655613313612e90565b600755505050565b603c80546001600160a01b0383811673ffffffffffffffffffffffffffffffffffffffff19831681179093556040519116919082907f8be0079c531659141344cd1fd0a4f28419497f9722a3daafe3b4186f6b6457e090600090a35050565b60d5546040516370a0823160e01b81523060048201526000916001600160a01b0316906370a08231906024016124bc565b61010f60009054906101000a90046001600160a01b03166001600160a01b031663e6f1daf26040518163ffffffff1660e01b8152600401600060405180830381600087803b1580156133fc57600080fd5b505af11580156123ff573d6000803e3d6000fd5b6040516370a0823160e01b815230600482015260009081906001600160a01b038616906370a0823190602401602060405180830381865afa158015613459573d6000803e3d6000fd5b505050506040513d601f19601f8201168201806040525081019061347d919061626b565b6001600160a01b038088166000908152607060209081526040808320938a1683529281528282208054845181840281018401909552808552949550919390849084015b8282101561355b5760008481526020908190206040805160e0810182526006860290920180546001600160a01b03908116845260018083015485870152600283015482169385019390935260038201541660608401526004810154600f81810b6080860152700100000000000000000000000000000000909104810b60a0850152600590910154900b60c083015290835290920191016134c0565b505050509050600085905060008251116135b75760405162461bcd60e51b815260206004820152600e60248201527f4e6f20726f75746520666f756e640000000000000000000000000000000000006044820152606401610b9b565b60005b8251811015613b6c578281815181106135d5576135d5615dee565b602002602001015160200151600114156136535761364c8382815181106135fe576135fe615dee565b60200260200101516000015184838151811061361c5761361c615dee565b60200260200101516040015185848151811061363a5761363a615dee565b6020026020010151606001518a613dd0565b9650613b5a565b82818151811061366557613665615dee565b6020026020010151602001516002141561375b5782818151811061368b5761368b615dee565b6020026020010151600001516001600160a01b03168382815181106136b2576136b2615dee565b6020026020010151604001516001600160a01b031614156137145761364c8382815181106136e2576136e2615dee565b60200260200101516060015184838151811061370057613700615dee565b602002602001015160000151896001613f4a565b61364c83828151811061372957613729615dee565b60200260200101516040015184838151811061374757613747615dee565b602002602001015160000151896000613f4a565b82818151811061376d5761376d615dee565b6020026020010151602001516003141561383e5761364c83828151811061379657613796615dee565b6020026020010151604001518483815181106137b4576137b4615dee565b6020026020010151606001518584815181106137d2576137d2615dee565b6020026020010151600001518a8786815181106137f1576137f1615dee565b60200260200101516080015188878151811061380f5761380f615dee565b602002602001015160a0015189888151811061382d5761382d615dee565b602002602001015160c00151614586565b82818151811061385057613850615dee565b602002602001015160200151600414156138a05761364c60016001600160a01b031684838151811061388457613884615dee565b6020026020010151604001516001600160a01b03161488614cbf565b8281815181106138b2576138b2615dee565b6020026020010151602001516005141561390b5761364c8382815181106138db576138db615dee565b6020026020010151604001518483815181106138f9576138f9615dee565b60200260200101516000015189614db9565b82818151811061391d5761391d615dee565b60200260200101516020015160061415613a3c5761364c83828151811061394657613946615dee565b6020026020010151600001516001600160a01b031684838151811061396d5761396d615dee565b6020026020010151604001516001600160a01b0316146139aa5783828151811061399957613999615dee565b6020026020010151604001516139c9565b8382815181106139bc576139bc615dee565b6020026020010151606001515b888584815181106139dc576139dc615dee565b6020026020010151600001516001600160a01b0316868581518110613a0357613a03615dee565b6020026020010151604001516001600160a01b031614868581518110613a2b57613a2b615dee565b602002602001015160800151614f2f565b828181518110613a4e57613a4e615dee565b60200260200101516020015160071415613aa75761364c838281518110613a7757613a77615dee565b602002602001015160400151848381518110613a9557613a95615dee565b60200260200101516000015189615136565b828181518110613ab957613ab9615dee565b60200260200101516020015160081415613b125761364c838281518110613ae257613ae2615dee565b602002602001015160400151848381518110613b0057613b00615dee565b60200260200101516000015189615371565b60405162461bcd60e51b815260206004820152601160248201527f556e6b6e6f776e206e6f646520747970650000000000000000000000000000006044820152606401610b9b565b80613b6481616062565b9150506135ba565b506040516370a0823160e01b815230600482015260009084906001600160a01b038a16906370a0823190602401602060405180830381865afa158015613bb6573d6000803e3d6000fd5b505050506040513d601f19601f82011682018060405250810190613bda919061626b565b613be49190615e73565b905085811015613c5c5760405162461bcd60e51b815260206004820152603560248201527f446964206e6f74207265636569766520656e6f75676820746f6b656e7320746f60448201527f206163636f756e7420666f7220736c69707061676500000000000000000000006064820152608401610b9b565b604080513381526001600160a01b038b811660208301528a1681830152606081018490526080810188905260a0810183905290517fd6d34547c69c5ee3d2667625c188acf1006abb93e0ee7cf03925c67cf77604139181900360c00190a198975050505050505050565b600954610100900460ff16613d435760405162461bcd60e51b815260206004820152602b60248201527f496e697469616c697a61626c653a20636f6e7472616374206973206e6f74206960448201527f6e697469616c697a696e670000000000000000000000000000000000000000006064820152608401610b9b565b6119593361331b565b600954610100900460ff16613dc95760405162461bcd60e51b815260206004820152602b60248201527f496e697469616c697a61626c653a20636f6e7472616374206973206e6f74206960448201527f6e697469616c697a696e670000000000000000000000000000000000000000006064820152608401610b9b565b600160a255565b6000613ddd848684612df1565b600080600080886001600160a01b0316630902f1ac6040518163ffffffff1660e01b8152600401606060405180830381865afa158015613e21573d6000803e3d6000fd5b505050506040513d601f19601f82011682018060405250810190613e459190616392565b506dffffffffffffffffffffffffffff1691506dffffffffffffffffffffffffffff169150866001600160a01b0316886001600160a01b03161015613e9657613e8f868383615434565b9250613ea4565b613ea1868284615434565b93505b604080516000815260208101918290527f022c0d9f000000000000000000000000000000000000000000000000000000009091526001600160a01b038a169063022c0d9f90613efc90879087903090602481016163d7565b600060405180830381600087803b158015613f1657600080fd5b505af1158015613f2a573d6000803e3d6000fd5b505050508360001415613f3d5782611501565b5091979650505050505050565b600080846001600160a01b0316630dfe16816040518163ffffffff1660e01b8152600401602060405180830381865afa158015613f8b573d6000803e3d6000fd5b505050506040513d601f19601f82011682018060405250810190613faf919061640f565b90506000856001600160a01b031663d21220a76040518163ffffffff1660e01b8152600401602060405180830381865afa158015613ff1573d6000803e3d6000fd5b505050506040513d601f19601f82011682018060405250810190614015919061640f565b9050831561429657606e546040517fbaa2abde0000000000000000000000000000000000000000000000000000000081526001600160a01b03848116600483015283811660248301526044820188905260006064830181905260848301523060a48301524260c48301529091169063baa2abde9060e40160408051808303816000875af11580156140aa573d6000803e3d6000fd5b505050506040513d601f19601f820116820180604052508101906140ce919061642c565b5050866001600160a01b0316826001600160a01b03161415614168576040516370a0823160e01b8152306004820152614162908790839085906001600160a01b038316906370a08231906024015b602060405180830381865afa158015614139573d6000803e3d6000fd5b505050506040513d601f19601f8201168201806040525081019061415d919061626b565b613dd0565b50614225565b866001600160a01b0316816001600160a01b031614156141b8576040516370a0823160e01b8152306004820152614162908790849084906001600160a01b038316906370a082319060240161411c565b60405162461bcd60e51b8152602060048201526024808201527f746f6b656e4f7574206973206e6f74206120746f6b656e205f696e207468652060448201527f70616972000000000000000000000000000000000000000000000000000000006064820152608401610b9b565b6040516370a0823160e01b81523060048201526001600160a01b038816906370a0823190602401602060405180830381865afa158015614269573d6000803e3d6000fd5b505050506040513d601f19601f8201168201806040525081019061428d919061626b565b925050506114dd565b6000806000886001600160a01b0316630902f1ac6040518163ffffffff1660e01b8152600401606060405180830381865afa1580156142d9573d6000803e3d6000fd5b505050506040513d601f19601f820116820180604052508101906142fd9190616392565b925092509250896001600160a01b0316856001600160a01b031614156144d85761433d898b8661415d876dffffffffffffffffffffffffffff168d615570565b50606e546040516370a0823160e01b81523060048201526001600160a01b039182169163e8e337009188918891908316906370a0823190602401602060405180830381865afa158015614394573d6000803e3d6000fd5b505050506040513d601f19601f820116820180604052508101906143b8919061626b565b6040516370a0823160e01b81523060048201526001600160a01b038a16906370a0823190602401602060405180830381865afa1580156143fc573d6000803e3d6000fd5b505050506040513d601f19601f82011682018060405250810190614420919061626b565b6040517fffffffff0000000000000000000000000000000000000000000000000000000060e087901b1681526001600160a01b0394851660048201529390921660248401526044830152606482015260006084820181905260a48201523060c48201524260e4820152610104016060604051808303816000875af11580156144ac573d6000803e3d6000fd5b505050506040513d601f19601f820116820180604052508101906144d09190616450565b505050614512565b896001600160a01b0316846001600160a01b031614156141b85761433d898b8761415d866dffffffffffffffffffffffffffff168d615570565b6040516370a0823160e01b81523060048201526001600160a01b038a16906370a0823190602401602060405180830381865afa158015614556573d6000803e3d6000fd5b505050506040513d601f19601f8201168201806040525081019061457a919061626b565b955050505050506114dd565b60008084600f0b121561499f5781600f0b6000191415614896576145a98461647e565b9350600084600f0b67ffffffffffffffff8111156145c9576145c9615934565b6040519080825280602002602001820160405280156145f2578160200160208202803683370190505b509050858185600f0b8151811061460b5761460b615dee565b60200260200101818152505084600f0b600214156146e457866001600160a01b0316630b4c7e4d60405180604001604052808460008151811061465057614650615dee565b602002602001015181526020018460018151811061467057614670615dee565b602002602001015181525060006040518363ffffffff1660e01b815260040161469a9291906164e0565b6020604051808303816000875af11580156146b9573d6000803e3d6000fd5b505050506040513d601f19601f820116820180604052508101906146dd919061626b565b9150614890565b84600f0b6003141561478757866001600160a01b0316634515cef360405180606001604052808460008151811061471d5761471d615dee565b602002602001015181526020018460018151811061473d5761473d615dee565b602002602001015181526020018460028151811061475d5761475d615dee565b602002602001015181525060006040518363ffffffff1660e01b815260040161469a92919061651e565b84600f0b6004141561489057866001600160a01b031663029b2f346040518060800160405280846000815181106147c0576147c0615dee565b60200260200101518152602001846001815181106147e0576147e0615dee565b602002602001015181526020018460028151811061480057614800615dee565b602002602001015181526020018460038151811061482057614820615dee565b602002602001015181525060006040518363ffffffff1660e01b815260040161484a92919061655c565b6020604051808303816000875af1158015614869573d6000803e3d6000fd5b505050506040513d601f19601f8201168201806040525081019061488d919061626b565b91505b506115b9565b82600f0b6000191415614940576040517f1a4d01d200000000000000000000000000000000000000000000000000000000815260048101869052600f83900b6024820152600060448201526001600160a01b03871690631a4d01d2906064015b6020604051808303816000875af1158015614915573d6000803e3d6000fd5b505050506040513d601f19601f82011682018060405250810190614939919061626b565b90506115b9565b6040517f3df02124000000000000000000000000000000000000000000000000000000008152600f84810b600483015283900b602482015260448101869052600060648201526001600160a01b03871690633df02124906084016148f6565b600084600f0b13156115b95781600f0b6000191415614c1657600084600f0b67ffffffffffffffff8111156149d6576149d6615934565b6040519080825280602002602001820160405280156149ff578160200160208202803683370190505b509050858185600f0b81518110614a1857614a18615dee565b60200260200101818152505084600f0b60021415614aaa57866001600160a01b031663ee22be23604051806040016040528084600081518110614a5d57614a5d615dee565b6020026020010151815260200184600181518110614a7d57614a7d615dee565b6020026020010151815250600060016040518463ffffffff1660e01b815260040161469a93929190616577565b84600f0b60031415614b5057866001600160a01b0316632b6e993a604051806060016040528084600081518110614ae357614ae3615dee565b6020026020010151815260200184600181518110614b0357614b03615dee565b6020026020010151815260200184600281518110614b2357614b23615dee565b6020026020010151815250600060016040518463ffffffff1660e01b815260040161469a9392919061659b565b84600f0b6004141561489057866001600160a01b031663dc3a2d81604051806080016040528084600081518110614b8957614b89615dee565b6020026020010151815260200184600181518110614ba957614ba9615dee565b6020026020010151815260200184600281518110614bc957614bc9615dee565b6020026020010151815260200184600381518110614be957614be9615dee565b6020026020010151815250600060016040518463ffffffff1660e01b815260040161484a939291906165bf565b6040517fa6417ed6000000000000000000000000000000000000000000000000000000008152600f84810b600483015283900b602482015260448101869052600060648201526001600160a01b0387169063a6417ed6906084016020604051808303816000875af1158015614c8f573d6000803e3d6000fd5b505050506040513d601f19601f82011682018060405250810190614cb3919061626b565b98975050505050505050565b60008215614d345773b31f66aa3c1e785363f0875a1b74e27b85fd66c76001600160a01b031663d0e30db0836040518263ffffffff1660e01b81526004016000604051808303818588803b158015614d1657600080fd5b505af1158015614d2a573d6000803e3d6000fd5b5050505050614db3565b6040517f2e1a7d4d0000000000000000000000000000000000000000000000000000000081526004810183905273b31f66aa3c1e785363f0875a1b74e27b85fd66c790632e1a7d4d90602401600060405180830381600087803b158015614d9a57600080fd5b505af1158015614dae573d6000803e3d6000fd5b505050505b50919050565b6000826001600160a01b0316846001600160a01b03161415614e6a576040517fdb006a75000000000000000000000000000000000000000000000000000000008152600481018390526001600160a01b0384169063db006a75906024016020604051808303816000875af1158015614e35573d6000803e3d6000fd5b505050506040513d601f19601f82011682018060405250810190614e59919061626b565b15614e6357600080fd5b5047610ffc565b826001600160a01b0316631249c58b836040518263ffffffff1660e01b81526004016000604051808303818588803b158015614ea557600080fd5b505af1158015614eb9573d6000803e3d6000fd5b50506040516370a0823160e01b81523060048201526001600160a01b03871693506370a08231925060240190505b602060405180830381865afa158015614f04573d6000803e3d6000fd5b505050506040513d601f19601f82011682018060405250810190614f28919061626b565b9050610ffc565b600081600f0b60031415615079578215614fe4576071546040517f69328dec0000000000000000000000000000000000000000000000000000000081526001600160a01b03878116600483015260248201879052306044830152909116906369328dec906064015b6020604051808303816000875af1158015614fb6573d6000803e3d6000fd5b505050506040513d601f19601f82011682018060405250810190614fda919061626b565b93508390506114dd565b6071546040517f617ba0370000000000000000000000000000000000000000000000000000000081526001600160a01b03878116600483015260248201879052306044830152600060648301529091169063617ba037906084015b600060405180830381600087803b15801561505957600080fd5b505af115801561506d573d6000803e3d6000fd5b505050508390506114dd565b82156150d757606f546040517f69328dec0000000000000000000000000000000000000000000000000000000081526001600160a01b03878116600483015260248201879052306044830152909116906369328dec90606401614f97565b606f546040517fe8eda9df0000000000000000000000000000000000000000000000000000000081526001600160a01b03878116600483015260248201879052306044830152600060648301529091169063e8eda9df9060840161503f565b6000826001600160a01b0316846001600160a01b031614156152b7576040517fdb006a75000000000000000000000000000000000000000000000000000000008152600481018390526001600160a01b0384169063db006a75906024016020604051808303816000875af11580156151b2573d6000803e3d6000fd5b505050506040513d601f19601f820116820180604052508101906151d6919061626b565b156151e057600080fd5b6000836001600160a01b0316636f307dc36040518163ffffffff1660e01b8152600401602060405180830381865afa158015615220573d6000803e3d6000fd5b505050506040513d601f19601f82011682018060405250810190615244919061640f565b6040516370a0823160e01b81523060048201529091506001600160a01b038216906370a0823190602401602060405180830381865afa15801561528b573d6000803e3d6000fd5b505050506040513d601f19601f820116820180604052508101906152af919061626b565b915050610ffc565b6040517fa0712d68000000000000000000000000000000000000000000000000000000008152600481018390526001600160a01b0384169063a0712d68906024016020604051808303816000875af1158015615317573d6000803e3d6000fd5b505050506040513d601f19601f8201168201806040525081019061533b919061626b565b1561534557600080fd5b6040516370a0823160e01b81523060048201526001600160a01b038416906370a0823190602401614ee7565b6000826001600160a01b0316846001600160a01b031614156153ee576040517fdb006a75000000000000000000000000000000000000000000000000000000008152600481018390526001600160a01b0384169063db006a75906024015b6020604051808303816000875af1158015614f04573d6000803e3d6000fd5b6040517fb6b55f25000000000000000000000000000000000000000000000000000000008152600481018390526001600160a01b0384169063b6b55f25906024016153cf565b60008084116154ab5760405162461bcd60e51b815260206004820152602b60248201527f556e697377617056324c6962726172793a20494e53554646494349454e545f4960448201527f4e5055545f414d4f554e540000000000000000000000000000000000000000006064820152608401610b9b565b6000831180156154bb5750600082115b61552d5760405162461bcd60e51b815260206004820152602860248201527f556e697377617056324c6962726172793a20494e53554646494349454e545f4c60448201527f49515549444954590000000000000000000000000000000000000000000000006064820152608401610b9b565b600061553b6103e586615e32565b905060006155498483615e32565b905060008261555a6103e888615e32565b6155649190615e1a565b90506115b98183615e51565b600080620f2ad961558485620f3c64615e32565b61558e9190615e51565b9050600061559c8580615e32565b6155a990623cda29615e32565b856155b786623cab64615e32565b6155c19190615e32565b6155cb9190615e1a565b905081620f2ad96155db83615604565b6155e7906101f4615e32565b6155f19190615e51565b6155fb9190615e73565b95945050505050565b600181700100000000000000000000000000000000811061562a5760409190911b9060801c5b6801000000000000000081106156455760209190911b9060401c5b640100000000811061565c5760109190911b9060201c5b6201000081106156715760089190911b9060101c5b61010081106156855760049190911b9060081c5b601081106156985760029190911b9060041c5b600881106156a7578160011b91505b5080820401600190811c80830401811c80830401811c80830401811c80830401811c80830401811c80830401901c80820481811015614db35792915050565b50805460008255600602906000526020600020908101906125dc919061578b565b82805461571390615db9565b90600052602060002090601f016020900481019282615735576000855561577b565b82601f1061574e57805160ff191683800117855561577b565b8280016001018555821561577b579182015b8281111561577b578251825591602001919060010190615760565b50615787929150615807565b5090565b5b8082111561578757805473ffffffffffffffffffffffffffffffffffffffff1990811682556000600183018190556002830180548316905560038301805490921690915560048201556005810180547fffffffffffffffffffffffffffffffff0000000000000000000000000000000016905560060161578c565b5b808211156157875760008155600101615808565b6001600160a01b03811681146125dc57600080fd5b60006020828403121561584357600080fd5b8135610ffc8161581c565b6000815180845260005b8181101561587457602081850181015186830182015201615858565b81811115615886576000602083870101525b50601f01601f19169290920160200192915050565b602081526000610ffc602083018461584e565b600080604083850312156158c157600080fd5b82356158cc8161581c565b946020939093013593505050565b6000602082840312156158ec57600080fd5b5035919050565b60008060006060848603121561590857600080fd5b83356159138161581c565b925060208401356159238161581c565b929592945050506040919091013590565b634e487b7160e01b600052604160045260246000fd5b600082601f83011261595b57600080fd5b813567ffffffffffffffff8082111561597657615976615934565b604051601f8301601f19908116603f0116810190828211818310171561599e5761599e615934565b816040528381528660208588010111156159b757600080fd5b836020870160208301376000602085830101528094505050505092915050565b600080600080600080600060e0888a0312156159f257600080fd5b87356159fd8161581c565b9650602088013567ffffffffffffffff80821115615a1a57600080fd5b615a268b838c0161594a565b975060408a0135915080821115615a3c57600080fd5b50615a498a828b0161594a565b955050606088013593506080880135925060a0880135915060c0880135615a6f8161581c565b8091505092959891949750929550565b600080600060608486031215615a9457600080fd5b833592506020840135615aa68161581c565b91506040840135615ab68161581c565b809150509250925092565b60ff811681146125dc57600080fd5b600080600080600080600080610100898b031215615aed57600080fd5b883597506020890135615aff8161581c565b96506040890135615b0f8161581c565b9550606089013594506080890135935060a0890135615b2d81615ac1565b979a969950949793969295929450505060c08201359160e0013590565b60008060008060008060c08789031215615b6357600080fd5b8635955060208701359450604087013593506060870135615b8381615ac1565b9598949750929560808101359460a0909101359350915050565b60008060408385031215615bb057600080fd5b50508035926020909101359150565b60008060008060608587031215615bd557600080fd5b8435615be08161581c565b93506020850135615bf08161581c565b9250604085013567ffffffffffffffff80821115615c0d57600080fd5b818701915087601f830112615c2157600080fd5b813581811115615c3057600080fd5b88602060e083028501011115615c4557600080fd5b95989497505060200194505050565b60008060408385031215615c6757600080fd5b8235615c728161581c565b91506020830135615c828161581c565b809150509250929050565b600080600080600080600060e0888a031215615ca857600080fd5b8735615cb38161581c565b96506020880135615cc38161581c565b955060408801359450606088013593506080880135615ce181615ac1565b9699959850939692959460a0840135945060c09093013592915050565b600080600080600080600080610100898b031215615d1b57600080fd5b8835615d268161581c565b9750602089013567ffffffffffffffff80821115615d4357600080fd5b615d4f8c838d0161594a565b985060408b0135915080821115615d6557600080fd5b50615d728b828c0161594a565b965050606089013594506080890135935060a0890135925060c0890135615d988161581c565b915060e0890135615da88161581c565b809150509295985092959890939650565b600181811c90821680615dcd57607f821691505b60208210811415614db357634e487b7160e01b600052602260045260246000fd5b634e487b7160e01b600052603260045260246000fd5b634e487b7160e01b600052601160045260246000fd5b60008219821115615e2d57615e2d615e04565b500190565b6000816000190483118215151615615e4c57615e4c615e04565b500290565b600082615e6e57634e487b7160e01b600052601260045260246000fd5b500490565b600082821015615e8557615e85615e04565b500390565b600060208284031215615e9c57600080fd5b8151610ffc81615ac1565b80600f0b81146125dc57600080fd5b60008135610cc881615ea7565b8135615ece8161581c565b815473ffffffffffffffffffffffffffffffffffffffff19166001600160a01b03821617825550602082013560018201556040820135615f0d8161581c565b60028201805473ffffffffffffffffffffffffffffffffffffffff19166001600160a01b038316179055506060820135615f468161581c565b60038201805473ffffffffffffffffffffffffffffffffffffffff19166001600160a01b03831617905550600481016080830135615f8381615ea7565b81547fffffffffffffffffffffffffffffffff00000000000000000000000000000000166fffffffffffffffffffffffffffffffff82161782555060a0830135615fcc81615ea7565b81546fffffffffffffffffffffffffffffffff1660809190911b7fffffffffffffffffffffffffffffffff000000000000000000000000000000001617905561605e61601a60c08401615eb6565b600583017fffffffffffffffffffffffffffffffff00000000000000000000000000000000815416826fffffffffffffffffffffffffffffffff1681178255505050565b5050565b600060001982141561607657616076615e04565b5060010190565b80356131c181615ea7565b600060608083016001600160a01b03808916855260208189168187015260408481880152838885526080945084880190508960005b8a8110156161695781356160d08161581c565b861683528185013585840152838201356160e98161581c565b861683850152818801356160fc8161581c565b86168389015261610d82880161607d565b61611b88850182600f0b9052565b5060a061612981840161607d565b61613782860182600f0b9052565b505060c061614681840161607d565b61615482860182600f0b9052565b505060e09283019291909101906001016160bd565b50909c9b505050505050505050505050565b600181815b808511156161b657816000190482111561619c5761619c615e04565b808516156161a957918102915b93841c9390800290616180565b509250929050565b6000826161cd57506001610cc8565b816161da57506000610cc8565b81600181146161f057600281146161fa57616216565b6001915050610cc8565b60ff84111561620b5761620b615e04565b50506001821b610cc8565b5060208310610133831016604e8410600b8410161715616239575081810a610cc8565b616243838361617b565b806000190482111561625757616257615e04565b029392505050565b6000610ffc83836161be565b60006020828403121561627d57600080fd5b5051919050565b60006020828403121561629657600080fd5b81518015158114610ffc57600080fd5b600060ff821660ff8416808210156162c0576162c0615e04565b90039392505050565b6000610ffc60ff8416836161be565b600080835481600182811c9150808316806162f457607f831692505b602080841082141561631457634e487b7160e01b86526022600452602486fd5b818015616328576001811461633957616366565b60ff19861689528489019650616366565b60008a81526020902060005b8681101561635e5781548b820152908501908301616345565b505084890196505b509498975050505050505050565b80516dffffffffffffffffffffffffffff811681146131c157600080fd5b6000806000606084860312156163a757600080fd5b6163b084616374565b92506163be60208501616374565b9150604084015163ffffffff81168114615ab657600080fd5b8481528360208201526001600160a01b0383166040820152608060608201526000616405608083018461584e565b9695505050505050565b60006020828403121561642157600080fd5b8151610ffc8161581c565b6000806040838503121561643f57600080fd5b505080516020909101519092909150565b60008060006060848603121561646557600080fd5b8351925060208401519150604084015190509250925092565b600081600f0b7fffffffffffffffffffffffffffffffff800000000000000000000000000000008114156164b4576164b4615e04565b60000392915050565b8060005b60028110156123ff5781518452602093840193909101906001016164c1565b606081016164ee82856164bd565b8260408301529392505050565b8060005b60038110156123ff5781518452602093840193909101906001016164ff565b6080810161652c82856164fb565b8260608301529392505050565b8060005b60048110156123ff57815184526020938401939091019060010161653d565b60a0810161656a8285616539565b8260808301529392505050565b6080810161658582866164bd565b8360408301528215156060830152949350505050565b60a081016165a982866164fb565b8360608301528215156080830152949350505050565b60c081016165cd8286616539565b83608083015282151560a083015294935050505056fea264697066735822122073ebf44ec91250794840172c61c00b36ff1ae7bdb2b2c2e7ba16d26c2c14d0bb64736f6c634300080a0033",
    "linkReferences": {}
  }
}