{
  "abi": [
    {
      "inputs": [],
      "stateMutability": "nonpayable",
      "type": "constructor"
    },
    {
      "anonymous": false,
      "inputs": [
        {
          "indexed": false,
          "internalType": "uint8",
          "name": "version",
          "type": "uint8"
        }
      ],
      "name": "Initialized",
      "type": "event"
    },
    {
      "anonymous": false,
      "inputs": [
        {
          "indexed": true,
          "internalType": "address",
          "name": "previousOwner",
          "type": "address"
        },
        {
          "indexed": true,
          "internalType": "address",
          "name": "newOwner",
          "type": "address"
        }
      ],
      "name": "OwnershipTransferred",
      "type": "event"
    },
    {
      "anonymous": false,
      "inputs": [
        {
          "indexed": false,
          "internalType": "address",
          "name": "fromToken",
          "type": "address"
        },
        {
          "indexed": false,
          "internalType": "address",
          "name": "toToken",
          "type": "address"
        },
        {
          "components": [
            {
              "internalType": "address",
              "name": "protocolSwapAddress",
              "type": "address"
            },
            {
              "internalType": "uint256",
              "name": "nodeType",
              "type": "uint256"
            },
            {
              "internalType": "address",
              "name": "tokenIn",
              "type": "address"
            },
            {
              "internalType": "address",
              "name": "tokenOut",
              "type": "address"
            },
            {
              "internalType": "int128",
              "name": "_misc",
              "type": "int128"
            },
            {
              "internalType": "int128",
              "name": "_in",
              "type": "int128"
            },
            {
              "internalType": "int128",
              "name": "_out",
              "type": "int128"
            }
          ],
          "indexed": false,
          "internalType": "struct Router.Node[]",
          "name": "path",
          "type": "tuple[]"
        }
      ],
      "name": "RouteSet",
      "type": "event"
    },
    {
      "anonymous": false,
      "inputs": [
        {
          "indexed": false,
          "internalType": "address",
          "name": "caller",
          "type": "address"
        },
        {
          "indexed": false,
          "internalType": "address",
          "name": "startingTokenAddress",
          "type": "address"
        },
        {
          "indexed": false,
          "internalType": "address",
          "name": "endingTokenAddress",
          "type": "address"
        },
        {
          "indexed": false,
          "internalType": "uint256",
          "name": "amount",
          "type": "uint256"
        },
        {
          "indexed": false,
          "internalType": "uint256",
          "name": "minSwapAmount",
          "type": "uint256"
        },
        {
          "indexed": false,
          "internalType": "uint256",
          "name": "actualOut",
          "type": "uint256"
        }
      ],
      "name": "Swap",
      "type": "event"
    },
    {
      "stateMutability": "payable",
      "type": "fallback"
    },
    {
      "inputs": [],
      "name": "aaveLendingPool",
      "outputs": [
        {
          "internalType": "address",
          "name": "",
          "type": "address"
        }
      ],
      "stateMutability": "view",
      "type": "function"
    },
    {
      "inputs": [],
      "name": "aaveLendingPoolV3",
      "outputs": [
        {
          "internalType": "address",
          "name": "",
          "type": "address"
        }
      ],
      "stateMutability": "view",
      "type": "function"
    },
    {
      "inputs": [
        {
          "internalType": "address",
          "name": "_startingTokenAddress",
          "type": "address"
        },
        {
          "internalType": "address",
          "name": "_endingTokenAddress",
          "type": "address"
        },
        {
          "internalType": "uint256",
          "name": "_amount",
          "type": "uint256"
        },
        {
          "internalType": "uint256",
          "name": "_minSwapAmount",
          "type": "uint256"
        }
      ],
      "name": "fullTx",
      "outputs": [
        {
          "internalType": "uint256",
          "name": "amountOut",
          "type": "uint256"
        }
      ],
      "stateMutability": "nonpayable",
      "type": "function"
    },
    {
      "inputs": [],
      "name": "initialize",
      "outputs": [],
      "stateMutability": "nonpayable",
      "type": "function"
    },
    {
      "inputs": [],
      "name": "owner",
      "outputs": [
        {
          "internalType": "address",
          "name": "",
          "type": "address"
        }
      ],
      "stateMutability": "view",
      "type": "function"
    },
    {
      "inputs": [],
      "name": "renounceOwnership",
      "outputs": [],
      "stateMutability": "nonpayable",
      "type": "function"
    },
    {
      "inputs": [
        {
          "internalType": "address",
          "name": "_toUser",
          "type": "address"
        },
        {
          "internalType": "address",
          "name": "_startingTokenAddress",
          "type": "address"
        },
        {
          "internalType": "address",
          "name": "_endingTokenAddress",
          "type": "address"
        },
        {
          "internalType": "uint256",
          "name": "_amount",
          "type": "uint256"
        },
        {
          "internalType": "uint256",
          "name": "_minSwapAmount",
          "type": "uint256"
        }
      ],
      "name": "route",
      "outputs": [
        {
          "internalType": "uint256",
          "name": "amountOut",
          "type": "uint256"
        }
      ],
      "stateMutability": "nonpayable",
      "type": "function"
    },
    {
      "inputs": [
        {
          "internalType": "address",
          "name": "",
          "type": "address"
        },
        {
          "internalType": "address",
          "name": "",
          "type": "address"
        },
        {
          "internalType": "uint256",
          "name": "",
          "type": "uint256"
        }
      ],
      "name": "routes",
      "outputs": [
        {
          "internalType": "address",
          "name": "protocolSwapAddress",
          "type": "address"
        },
        {
          "internalType": "uint256",
          "name": "nodeType",
          "type": "uint256"
        },
        {
          "internalType": "address",
          "name": "tokenIn",
          "type": "address"
        },
        {
          "internalType": "address",
          "name": "tokenOut",
          "type": "address"
        },
        {
          "internalType": "int128",
          "name": "_misc",
          "type": "int128"
        },
        {
          "internalType": "int128",
          "name": "_in",
          "type": "int128"
        },
        {
          "internalType": "int128",
          "name": "_out",
          "type": "int128"
        }
      ],
      "stateMutability": "view",
      "type": "function"
    },
    {
      "inputs": [
        {
          "internalType": "address",
          "name": "_aaveLendingPool",
          "type": "address"
        },
        {
          "internalType": "address",
          "name": "_aaveLendingPoolV3",
          "type": "address"
        }
      ],
      "name": "setAAVE",
      "outputs": [],
      "stateMutability": "nonpayable",
      "type": "function"
    },
    {
      "inputs": [
        {
          "internalType": "address",
          "name": "_token",
          "type": "address"
        },
        {
          "internalType": "address",
          "name": "_who",
          "type": "address"
        },
        {
          "internalType": "uint256",
          "name": "_amount",
          "type": "uint256"
        }
      ],
      "name": "setApprovals",
      "outputs": [],
      "stateMutability": "nonpayable",
      "type": "function"
    },
    {
      "inputs": [
        {
          "internalType": "address",
          "name": "_traderJoeRouter",
          "type": "address"
        }
      ],
      "name": "setJoeRouter",
      "outputs": [],
      "stateMutability": "nonpayable",
      "type": "function"
    },
    {
      "inputs": [
        {
          "internalType": "address",
          "name": "_fromToken",
          "type": "address"
        },
        {
          "internalType": "address",
          "name": "_toToken",
          "type": "address"
        },
        {
          "components": [
            {
              "internalType": "address",
              "name": "protocolSwapAddress",
              "type": "address"
            },
            {
              "internalType": "uint256",
              "name": "nodeType",
              "type": "uint256"
            },
            {
              "internalType": "address",
              "name": "tokenIn",
              "type": "address"
            },
            {
              "internalType": "address",
              "name": "tokenOut",
              "type": "address"
            },
            {
              "internalType": "int128",
              "name": "_misc",
              "type": "int128"
            },
            {
              "internalType": "int128",
              "name": "_in",
              "type": "int128"
            },
            {
              "internalType": "int128",
              "name": "_out",
              "type": "int128"
            }
          ],
          "internalType": "struct Router.Node[]",
          "name": "_path",
          "type": "tuple[]"
        }
      ],
      "name": "setRoute",
      "outputs": [],
      "stateMutability": "nonpayable",
      "type": "function"
    },
    {
      "inputs": [],
      "name": "traderJoeRouter",
      "outputs": [
        {
          "internalType": "address",
          "name": "",
          "type": "address"
        }
      ],
      "stateMutability": "view",
      "type": "function"
    },
    {
      "inputs": [
        {
          "internalType": "address",
          "name": "newOwner",
          "type": "address"
        }
      ],
      "name": "transferOwnership",
      "outputs": [],
      "stateMutability": "nonpayable",
      "type": "function"
    },
    {
      "inputs": [
        {
          "internalType": "address",
          "name": "_toUser",
          "type": "address"
        },
        {
          "internalType": "address",
          "name": "_startingTokenAddress",
          "type": "address"
        },
        {
          "internalType": "address",
          "name": "_endingTokenAddress",
          "type": "address"
        },
        {
          "internalType": "uint256",
          "name": "_amount",
          "type": "uint256"
        },
        {
          "internalType": "uint256",
          "name": "_minSwapAmount",
          "type": "uint256"
        }
      ],
      "name": "unRoute",
      "outputs": [
        {
          "internalType": "uint256",
          "name": "amountOut",
          "type": "uint256"
        }
      ],
      "stateMutability": "nonpayable",
      "type": "function"
    }
  ],
  "bytecode": {
    "object": "0x608060405260016099553480156200001657600080fd5b506200002162000027565b620002de565b6000620000356001620000a2565b905080156200004e576000805461ff0019166101001790555b62000058620001b4565b80156200009f576000805461ff0019169055604051600181527f7f26b83ff96e1f2b6a682f133852f6798a09c465da95921460cefb38474024989060200160405180910390a15b50565b60008054610100900460ff16156200013b578160ff166001148015620000db5750620000d9306200021c60201b620009f21760201c565b155b620001335760405162461bcd60e51b815260206004820152602e602482015260008051602062003c8383398151915260448201526d191e481a5b9a5d1a585b1a5e995960921b60648201526084015b60405180910390fd5b506000919050565b60005460ff8084169116106200019a5760405162461bcd60e51b815260206004820152602e602482015260008051602062003c8383398151915260448201526d191e481a5b9a5d1a585b1a5e995960921b60648201526084016200012a565b506000805460ff191660ff92909216919091179055600190565b600054610100900460ff16620002105760405162461bcd60e51b815260206004820152602b602482015260008051602062003ca383398151915260448201526a6e697469616c697a696e6760a81b60648201526084016200012a565b6200021a6200022b565b565b6001600160a01b03163b151590565b600054610100900460ff16620002875760405162461bcd60e51b815260206004820152602b602482015260008051602062003ca383398151915260448201526a6e697469616c697a696e6760a81b60648201526084016200012a565b6200021a33603380546001600160a01b038381166001600160a01b0319831681179093556040519116919082907f8be0079c531659141344cd1fd0a4f28419497f9722a3daafe3b4186f6b6457e090600090a35050565b61399580620002ee6000396000f3fe6080604052600436106100df5760003560e01c80638129fc1c11610084578063bf56700a11610056578063bf56700a14610281578063e32d5cf8146102a1578063e9d337b8146102c1578063f2fde38b146102e157005b80638129fc1c1461022e5780638da5cb5b146102435780639203430e14610261578063a7b8a5371461016c57005b806340dbf962116100bd57806340dbf9621461016c578063600c557d1461018c578063715018a6146101f957806373aeea361461020e57005b8063026b49a7146100e15780631ab22bbd146101015780632faff42714610134575b005b3480156100ed57600080fd5b506100df6100fc366004613093565b610301565b34801561010d57600080fd5b5061012161011c3660046130b0565b61038f565b6040519081526020015b60405180910390f35b34801561014057600080fd5b50606554610154906001600160a01b031681565b6040516001600160a01b03909116815260200161012b565b34801561017857600080fd5b506101216101873660046130f6565b61041a565b34801561019857600080fd5b506101ac6101a7366004613151565b61049a565b604080516001600160a01b039889168152602081019790975294871694860194909452919094166060840152600f93840b6080840152830b60a083015290910b60c082015260e00161012b565b34801561020557600080fd5b506100df61052a565b34801561021a57600080fd5b506100df610229366004613192565b610590565b34801561023a57600080fd5b506100df6106e3565b34801561024f57600080fd5b506033546001600160a01b0316610154565b34801561026d57600080fd5b50606854610154906001600160a01b031681565b34801561028d57600080fd5b506100df61029c366004613227565b610792565b3480156102ad57600080fd5b506100df6102bc366004613151565b610827565b3480156102cd57600080fd5b50606654610154906001600160a01b031681565b3480156102ed57600080fd5b506100df6102fc366004613093565b610913565b6033546001600160a01b031633146103605760405162461bcd60e51b815260206004820181905260248201527f4f776e61626c653a2063616c6c6572206973206e6f7420746865206f776e657260448201526064015b60405180910390fd5b6065805473ffffffffffffffffffffffffffffffffffffffff19166001600160a01b0392909216919091179055565b60006099546001146103e35760405162461bcd60e51b815260206004820152600a60248201527f5245454e5452414e4359000000000000000000000000000000000000000000006044820152606401610357565b60026099556103f485333086610a01565b61040085858585610aad565b905061040d843383611365565b6001609955949350505050565b600060995460011461046e5760405162461bcd60e51b815260206004820152600a60248201527f5245454e5452414e4359000000000000000000000000000000000000000000006044820152606401610357565b600260995561047f85858585610aad565b905061048c848783611365565b600160995595945050505050565b606760205282600052604060002060205281600052604060002081815481106104c257600080fd5b60009182526020909120600690910201805460018201546002830154600384015460048501546005909501546001600160a01b039485169850929650908316945090911691600f81810b92700100000000000000000000000000000000909204810b91900b87565b6033546001600160a01b031633146105845760405162461bcd60e51b815260206004820181905260248201527f4f776e61626c653a2063616c6c6572206973206e6f7420746865206f776e65726044820152606401610357565b61058e6000611404565b565b6033546001600160a01b031633146105ea5760405162461bcd60e51b815260206004820181905260248201527f4f776e61626c653a2063616c6c6572206973206e6f7420746865206f776e65726044820152606401610357565b6001600160a01b038085166000908152606760209081526040808320938716835292905290812061061a91612fe2565b60005b8181101561069f576001600160a01b03808616600090815260676020908152604080832093881683529290522083838381811061065c5761065c613260565b83546001810185556000948552602090942060e09091029290920192600602909101905061068a82826132b1565b505080806106979061347f565b91505061061d565b507f01aa5c4f582e572c83ccd23ac58ee02c7e51aceb9d47d02987f31536b352992f848484846040516106d594939291906134a5565b60405180910390a150505050565b60006106ef6001611463565b9050801561072457600080547fffffffffffffffffffffffffffffffffffffffffffffffffffffffffffff00ff166101001790555b61072c6115ba565b801561078f57600080547fffffffffffffffffffffffffffffffffffffffffffffffffffffffffffff00ff169055604051600181527f7f26b83ff96e1f2b6a682f133852f6798a09c465da95921460cefb38474024989060200160405180910390a15b50565b6033546001600160a01b031633146107ec5760405162461bcd60e51b815260206004820181905260248201527f4f776e61626c653a2063616c6c6572206973206e6f7420746865206f776e65726044820152606401610357565b606680546001600160a01b0393841673ffffffffffffffffffffffffffffffffffffffff199182161790915560688054929093169116179055565b6033546001600160a01b031633146108815760405162461bcd60e51b815260206004820181905260248201527f4f776e61626c653a2063616c6c6572206973206e6f7420746865206f776e65726044820152606401610357565b6040517f095ea7b30000000000000000000000000000000000000000000000000000000081526001600160a01b0383811660048301526024820183905284169063095ea7b3906044016020604051808303816000875af11580156108e9573d6000803e3d6000fd5b505050506040513d601f19601f8201168201806040525081019061090d9190613598565b50505050565b6033546001600160a01b0316331461096d5760405162461bcd60e51b815260206004820181905260248201527f4f776e61626c653a2063616c6c6572206973206e6f7420746865206f776e65726044820152606401610357565b6001600160a01b0381166109e95760405162461bcd60e51b815260206004820152602660248201527f4f776e61626c653a206e6577206f776e657220697320746865207a65726f206160448201527f64647265737300000000000000000000000000000000000000000000000000006064820152608401610357565b61078f81611404565b6001600160a01b03163b151590565b60006040517f23b872dd0000000000000000000000000000000000000000000000000000000081528460048201528360248201528260448201526020600060648360008a5af13d15601f3d1160016000511416171691505080610aa65760405162461bcd60e51b815260206004820152601460248201527f5452414e534645525f46524f4d5f4641494c45440000000000000000000000006044820152606401610357565b5050505050565b6040516370a0823160e01b815230600482015260009081906001600160a01b038616906370a0823190602401602060405180830381865afa158015610af6573d6000803e3d6000fd5b505050506040513d601f19601f82011682018060405250810190610b1a91906135ba565b6001600160a01b038088166000908152606760209081526040808320938a1683529281528282208054845181840281018401909552808552949550919390849084015b82821015610bf85760008481526020908190206040805160e0810182526006860290920180546001600160a01b03908116845260018083015485870152600283015482169385019390935260038201541660608401526004810154600f81810b6080860152700100000000000000000000000000000000909104810b60a0850152600590910154900b60c08301529083529092019101610b5d565b50505050905060008590506000825111610c545760405162461bcd60e51b815260206004820152600e60248201527f4e6f20726f75746520666f756e640000000000000000000000000000000000006044820152606401610357565b60005b825181101561120957828181518110610c7257610c72613260565b60200260200101516020015160011415610cf057610ce9838281518110610c9b57610c9b613260565b602002602001015160000151848381518110610cb957610cb9613260565b602002602001015160400151858481518110610cd757610cd7613260565b6020026020010151606001518a61163f565b96506111f7565b828181518110610d0257610d02613260565b60200260200101516020015160021415610df857828181518110610d2857610d28613260565b6020026020010151600001516001600160a01b0316838281518110610d4f57610d4f613260565b6020026020010151604001516001600160a01b03161415610db157610ce9838281518110610d7f57610d7f613260565b602002602001015160600151848381518110610d9d57610d9d613260565b6020026020010151600001518960016117bb565b610ce9838281518110610dc657610dc6613260565b602002602001015160400151848381518110610de457610de4613260565b6020026020010151600001518960006117bb565b828181518110610e0a57610e0a613260565b60200260200101516020015160031415610edb57610ce9838281518110610e3357610e33613260565b602002602001015160400151848381518110610e5157610e51613260565b602002602001015160600151858481518110610e6f57610e6f613260565b6020026020010151600001518a878681518110610e8e57610e8e613260565b602002602001015160800151888781518110610eac57610eac613260565b602002602001015160a00151898881518110610eca57610eca613260565b602002602001015160c00151611df7565b828181518110610eed57610eed613260565b60200260200101516020015160041415610f3d57610ce960016001600160a01b0316848381518110610f2157610f21613260565b6020026020010151604001516001600160a01b03161488612532565b828181518110610f4f57610f4f613260565b60200260200101516020015160051415610fa857610ce9838281518110610f7857610f78613260565b602002602001015160400151848381518110610f9657610f96613260565b6020026020010151600001518961262c565b828181518110610fba57610fba613260565b602002602001015160200151600614156110d957610ce9838281518110610fe357610fe3613260565b6020026020010151600001516001600160a01b031684838151811061100a5761100a613260565b6020026020010151604001516001600160a01b0316146110475783828151811061103657611036613260565b602002602001015160400151611066565b83828151811061105957611059613260565b6020026020010151606001515b8885848151811061107957611079613260565b6020026020010151600001516001600160a01b03168685815181106110a0576110a0613260565b6020026020010151604001516001600160a01b0316148685815181106110c8576110c8613260565b6020026020010151608001516127a5565b8281815181106110eb576110eb613260565b6020026020010151602001516007141561114457610ce983828151811061111457611114613260565b60200260200101516040015184838151811061113257611132613260565b602002602001015160000151896129ac565b82818151811061115657611156613260565b602002602001015160200151600814156111af57610ce983828151811061117f5761117f613260565b60200260200101516040015184838151811061119d5761119d613260565b60200260200101516000015189612be7565b60405162461bcd60e51b815260206004820152601160248201527f556e6b6e6f776e206e6f646520747970650000000000000000000000000000006044820152606401610357565b806112018161347f565b915050610c57565b506040516370a0823160e01b815230600482015260009084906001600160a01b038a16906370a0823190602401602060405180830381865afa158015611253573d6000803e3d6000fd5b505050506040513d601f19601f8201168201806040525081019061127791906135ba565b61128191906135d3565b9050858110156112f95760405162461bcd60e51b815260206004820152603560248201527f446964206e6f74207265636569766520656e6f75676820746f6b656e7320746f60448201527f206163636f756e7420666f7220736c69707061676500000000000000000000006064820152608401610357565b604080513381526001600160a01b038b811660208301528a1681830152606081018490526080810188905260a0810183905290517fd6d34547c69c5ee3d2667625c188acf1006abb93e0ee7cf03925c67cf77604139181900360c00190a193505050505b949350505050565b60006040517fa9059cbb000000000000000000000000000000000000000000000000000000008152836004820152826024820152602060006044836000895af13d15601f3d116001600051141617169150508061090d5760405162461bcd60e51b815260206004820152600f60248201527f5452414e534645525f4641494c454400000000000000000000000000000000006044820152606401610357565b603380546001600160a01b0383811673ffffffffffffffffffffffffffffffffffffffff19831681179093556040519116919082907f8be0079c531659141344cd1fd0a4f28419497f9722a3daafe3b4186f6b6457e090600090a35050565b60008054610100900460ff1615611500578160ff1660011480156114865750303b155b6114f85760405162461bcd60e51b815260206004820152602e60248201527f496e697469616c697a61626c653a20636f6e747261637420697320616c72656160448201527f647920696e697469616c697a65640000000000000000000000000000000000006064820152608401610357565b506000919050565b60005460ff80841691161061157d5760405162461bcd60e51b815260206004820152602e60248201527f496e697469616c697a61626c653a20636f6e747261637420697320616c72656160448201527f647920696e697469616c697a65640000000000000000000000000000000000006064820152608401610357565b50600080547fffffffffffffffffffffffffffffffffffffffffffffffffffffffffffffff001660ff92909216919091179055600190565b919050565b600054610100900460ff166116375760405162461bcd60e51b815260206004820152602b60248201527f496e697469616c697a61626c653a20636f6e7472616374206973206e6f74206960448201527f6e697469616c697a696e670000000000000000000000000000000000000000006064820152608401610357565b61058e612caa565b600061164c848684611365565b600080600080886001600160a01b0316630902f1ac6040518163ffffffff1660e01b8152600401606060405180830381865afa158015611690573d6000803e3d6000fd5b505050506040513d601f19601f820116820180604052508101906116b49190613608565b506dffffffffffffffffffffffffffff1691506dffffffffffffffffffffffffffff169150866001600160a01b0316886001600160a01b03161015611705576116fe868383612d30565b9250611713565b611710868284612d30565b93505b604080516000815260208101918290527f022c0d9f000000000000000000000000000000000000000000000000000000009091526001600160a01b038a169063022c0d9f9061176b9087908790309060248101613687565b600060405180830381600087803b15801561178557600080fd5b505af1158015611799573d6000803e3d6000fd5b5050505083600014156117ac57826117ae565b835b9998505050505050505050565b600080846001600160a01b0316630dfe16816040518163ffffffff1660e01b8152600401602060405180830381865afa1580156117fc573d6000803e3d6000fd5b505050506040513d601f19601f820116820180604052508101906118209190613719565b90506000856001600160a01b031663d21220a76040518163ffffffff1660e01b8152600401602060405180830381865afa158015611862573d6000803e3d6000fd5b505050506040513d601f19601f820116820180604052508101906118869190613719565b90508315611b07576065546040517fbaa2abde0000000000000000000000000000000000000000000000000000000081526001600160a01b03848116600483015283811660248301526044820188905260006064830181905260848301523060a48301524260c48301529091169063baa2abde9060e40160408051808303816000875af115801561191b573d6000803e3d6000fd5b505050506040513d601f19601f8201168201806040525081019061193f9190613736565b5050866001600160a01b0316826001600160a01b031614156119d9576040516370a0823160e01b81523060048201526119d3908790839085906001600160a01b038316906370a08231906024015b602060405180830381865afa1580156119aa573d6000803e3d6000fd5b505050506040513d601f19601f820116820180604052508101906119ce91906135ba565b61163f565b50611a96565b866001600160a01b0316816001600160a01b03161415611a29576040516370a0823160e01b81523060048201526119d3908790849084906001600160a01b038316906370a082319060240161198d565b60405162461bcd60e51b8152602060048201526024808201527f746f6b656e4f7574206973206e6f74206120746f6b656e205f696e207468652060448201527f70616972000000000000000000000000000000000000000000000000000000006064820152608401610357565b6040516370a0823160e01b81523060048201526001600160a01b038816906370a0823190602401602060405180830381865afa158015611ada573d6000803e3d6000fd5b505050506040513d601f19601f82011682018060405250810190611afe91906135ba565b9250505061135d565b6000806000886001600160a01b0316630902f1ac6040518163ffffffff1660e01b8152600401606060405180830381865afa158015611b4a573d6000803e3d6000fd5b505050506040513d601f19601f82011682018060405250810190611b6e9190613608565b925092509250896001600160a01b0316856001600160a01b03161415611d4957611bae898b866119ce876dffffffffffffffffffffffffffff168d612e6c565b506065546040516370a0823160e01b81523060048201526001600160a01b039182169163e8e337009188918891908316906370a0823190602401602060405180830381865afa158015611c05573d6000803e3d6000fd5b505050506040513d601f19601f82011682018060405250810190611c2991906135ba565b6040516370a0823160e01b81523060048201526001600160a01b038a16906370a0823190602401602060405180830381865afa158015611c6d573d6000803e3d6000fd5b505050506040513d601f19601f82011682018060405250810190611c9191906135ba565b6040517fffffffff0000000000000000000000000000000000000000000000000000000060e087901b1681526001600160a01b0394851660048201529390921660248401526044830152606482015260006084820181905260a48201523060c48201524260e4820152610104016060604051808303816000875af1158015611d1d573d6000803e3d6000fd5b505050506040513d601f19601f82011682018060405250810190611d41919061375a565b505050611d83565b896001600160a01b0316846001600160a01b03161415611a2957611bae898b876119ce866dffffffffffffffffffffffffffff168d612e6c565b6040516370a0823160e01b81523060048201526001600160a01b038a16906370a0823190602401602060405180830381865afa158015611dc7573d6000803e3d6000fd5b505050506040513d601f19601f82011682018060405250810190611deb91906135ba565b9550505050505061135d565b60008084600f0b12156122105781600f0b600019141561210757611e1a84613788565b9350600084600f0b67ffffffffffffffff811115611e3a57611e3a613658565b604051908082528060200260200182016040528015611e63578160200160208202803683370190505b509050858185600f0b81518110611e7c57611e7c613260565b60200260200101818152505084600f0b60021415611f5557866001600160a01b0316630b4c7e4d604051806040016040528084600081518110611ec157611ec1613260565b6020026020010151815260200184600181518110611ee157611ee1613260565b602002602001015181525060006040518363ffffffff1660e01b8152600401611f0b9291906137ea565b6020604051808303816000875af1158015611f2a573d6000803e3d6000fd5b505050506040513d601f19601f82011682018060405250810190611f4e91906135ba565b9150612101565b84600f0b60031415611ff857866001600160a01b0316634515cef3604051806060016040528084600081518110611f8e57611f8e613260565b6020026020010151815260200184600181518110611fae57611fae613260565b6020026020010151815260200184600281518110611fce57611fce613260565b602002602001015181525060006040518363ffffffff1660e01b8152600401611f0b929190613828565b84600f0b6004141561210157866001600160a01b031663029b2f3460405180608001604052808460008151811061203157612031613260565b602002602001015181526020018460018151811061205157612051613260565b602002602001015181526020018460028151811061207157612071613260565b602002602001015181526020018460038151811061209157612091613260565b602002602001015181525060006040518363ffffffff1660e01b81526004016120bb929190613866565b6020604051808303816000875af11580156120da573d6000803e3d6000fd5b505050506040513d601f19601f820116820180604052508101906120fe91906135ba565b91505b50612527565b82600f0b60001914156121b1576040517f1a4d01d200000000000000000000000000000000000000000000000000000000815260048101869052600f83900b6024820152600060448201526001600160a01b03871690631a4d01d2906064015b6020604051808303816000875af1158015612186573d6000803e3d6000fd5b505050506040513d601f19601f820116820180604052508101906121aa91906135ba565b9050612527565b6040517f3df02124000000000000000000000000000000000000000000000000000000008152600f84810b600483015283900b602482015260448101869052600060648201526001600160a01b03871690633df0212490608401612167565b600084600f0b13156125275781600f0b600019141561248757600084600f0b67ffffffffffffffff81111561224757612247613658565b604051908082528060200260200182016040528015612270578160200160208202803683370190505b509050858185600f0b8151811061228957612289613260565b60200260200101818152505084600f0b6002141561231b57866001600160a01b031663ee22be236040518060400160405280846000815181106122ce576122ce613260565b60200260200101518152602001846001815181106122ee576122ee613260565b6020026020010151815250600060016040518463ffffffff1660e01b8152600401611f0b93929190613881565b84600f0b600314156123c157866001600160a01b0316632b6e993a60405180606001604052808460008151811061235457612354613260565b602002602001015181526020018460018151811061237457612374613260565b602002602001015181526020018460028151811061239457612394613260565b6020026020010151815250600060016040518463ffffffff1660e01b8152600401611f0b939291906138a5565b84600f0b6004141561210157866001600160a01b031663dc3a2d816040518060800160405280846000815181106123fa576123fa613260565b602002602001015181526020018460018151811061241a5761241a613260565b602002602001015181526020018460028151811061243a5761243a613260565b602002602001015181526020018460038151811061245a5761245a613260565b6020026020010151815250600060016040518463ffffffff1660e01b81526004016120bb939291906138c9565b6040517fa6417ed6000000000000000000000000000000000000000000000000000000008152600f84810b600483015283900b602482015260448101869052600060648201526001600160a01b0387169063a6417ed6906084016020604051808303816000875af1158015612500573d6000803e3d6000fd5b505050506040513d601f19601f8201168201806040525081019061252491906135ba565b90505b979650505050505050565b600082156125a75773b31f66aa3c1e785363f0875a1b74e27b85fd66c76001600160a01b031663d0e30db0836040518263ffffffff1660e01b81526004016000604051808303818588803b15801561258957600080fd5b505af115801561259d573d6000803e3d6000fd5b5050505050612626565b6040517f2e1a7d4d0000000000000000000000000000000000000000000000000000000081526004810183905273b31f66aa3c1e785363f0875a1b74e27b85fd66c790632e1a7d4d90602401600060405180830381600087803b15801561260d57600080fd5b505af1158015612621573d6000803e3d6000fd5b505050505b50919050565b6000826001600160a01b0316846001600160a01b031614156126dd576040517fdb006a75000000000000000000000000000000000000000000000000000000008152600481018390526001600160a01b0384169063db006a75906024016020604051808303816000875af11580156126a8573d6000803e3d6000fd5b505050506040513d601f19601f820116820180604052508101906126cc91906135ba565b156126d657600080fd5b504761279e565b826001600160a01b0316631249c58b836040518263ffffffff1660e01b81526004016000604051808303818588803b15801561271857600080fd5b505af115801561272c573d6000803e3d6000fd5b50506040516370a0823160e01b81523060048201526001600160a01b03871693506370a08231925060240190505b602060405180830381865afa158015612777573d6000803e3d6000fd5b505050506040513d601f19601f8201168201806040525081019061279b91906135ba565b90505b9392505050565b600081600f0b600314156128ef57821561285a576068546040517f69328dec0000000000000000000000000000000000000000000000000000000081526001600160a01b03878116600483015260248201879052306044830152909116906369328dec906064015b6020604051808303816000875af115801561282c573d6000803e3d6000fd5b505050506040513d601f19601f8201168201806040525081019061285091906135ba565b935083905061135d565b6068546040517f617ba0370000000000000000000000000000000000000000000000000000000081526001600160a01b03878116600483015260248201879052306044830152600060648301529091169063617ba037906084015b600060405180830381600087803b1580156128cf57600080fd5b505af11580156128e3573d6000803e3d6000fd5b5050505083905061135d565b821561294d576066546040517f69328dec0000000000000000000000000000000000000000000000000000000081526001600160a01b03878116600483015260248201879052306044830152909116906369328dec9060640161280d565b6066546040517fe8eda9df0000000000000000000000000000000000000000000000000000000081526001600160a01b03878116600483015260248201879052306044830152600060648301529091169063e8eda9df906084016128b5565b6000826001600160a01b0316846001600160a01b03161415612b2d576040517fdb006a75000000000000000000000000000000000000000000000000000000008152600481018390526001600160a01b0384169063db006a75906024016020604051808303816000875af1158015612a28573d6000803e3d6000fd5b505050506040513d601f19601f82011682018060405250810190612a4c91906135ba565b15612a5657600080fd5b6000836001600160a01b0316636f307dc36040518163ffffffff1660e01b8152600401602060405180830381865afa158015612a96573d6000803e3d6000fd5b505050506040513d601f19601f82011682018060405250810190612aba9190613719565b6040516370a0823160e01b81523060048201529091506001600160a01b038216906370a0823190602401602060405180830381865afa158015612b01573d6000803e3d6000fd5b505050506040513d601f19601f82011682018060405250810190612b2591906135ba565b91505061279e565b6040517fa0712d68000000000000000000000000000000000000000000000000000000008152600481018390526001600160a01b0384169063a0712d68906024016020604051808303816000875af1158015612b8d573d6000803e3d6000fd5b505050506040513d601f19601f82011682018060405250810190612bb191906135ba565b15612bbb57600080fd5b6040516370a0823160e01b81523060048201526001600160a01b038416906370a082319060240161275a565b6000826001600160a01b0316846001600160a01b03161415612c64576040517fdb006a75000000000000000000000000000000000000000000000000000000008152600481018390526001600160a01b0384169063db006a75906024015b6020604051808303816000875af1158015612777573d6000803e3d6000fd5b6040517fb6b55f25000000000000000000000000000000000000000000000000000000008152600481018390526001600160a01b0384169063b6b55f2590602401612c45565b600054610100900460ff16612d275760405162461bcd60e51b815260206004820152602b60248201527f496e697469616c697a61626c653a20636f6e7472616374206973206e6f74206960448201527f6e697469616c697a696e670000000000000000000000000000000000000000006064820152608401610357565b61058e33611404565b6000808411612da75760405162461bcd60e51b815260206004820152602b60248201527f556e697377617056324c6962726172793a20494e53554646494349454e545f4960448201527f4e5055545f414d4f554e540000000000000000000000000000000000000000006064820152608401610357565b600083118015612db75750600082115b612e295760405162461bcd60e51b815260206004820152602860248201527f556e697377617056324c6962726172793a20494e53554646494349454e545f4c60448201527f49515549444954590000000000000000000000000000000000000000000000006064820152608401610357565b6000612e376103e5866138ed565b90506000612e4584836138ed565b9050600082612e566103e8886138ed565b612e60919061390c565b90506125278183613924565b600080620f2ad9612e8085620f3c646138ed565b612e8a9190613924565b90506000612e9885806138ed565b612ea590623cda296138ed565b85612eb386623cab646138ed565b612ebd91906138ed565b612ec7919061390c565b905081620f2ad9612ed783612f00565b612ee3906101f46138ed565b612eed9190613924565b612ef791906135d3565b95945050505050565b6001817001000000000000000000000000000000008110612f265760409190911b9060801c5b680100000000000000008110612f415760209190911b9060401c5b6401000000008110612f585760109190911b9060201c5b620100008110612f6d5760089190911b9060101c5b6101008110612f815760049190911b9060081c5b60108110612f945760029190911b9060041c5b60088110612fa3578160011b91505b5080820401600190811c80830401811c80830401811c80830401811c80830401811c80830401811c80830401901c808204818110156126265792915050565b508054600082556006029060005260206000209081019061078f91905b8082111561307a57805473ffffffffffffffffffffffffffffffffffffffff1990811682556000600183018190556002830180548316905560038301805490921690915560048201556005810180547fffffffffffffffffffffffffffffffff00000000000000000000000000000000169055600601612fff565b5090565b6001600160a01b038116811461078f57600080fd5b6000602082840312156130a557600080fd5b813561279e8161307e565b600080600080608085870312156130c657600080fd5b84356130d18161307e565b935060208501356130e18161307e565b93969395505050506040820135916060013590565b600080600080600060a0868803121561310e57600080fd5b85356131198161307e565b945060208601356131298161307e565b935060408601356131398161307e565b94979396509394606081013594506080013592915050565b60008060006060848603121561316657600080fd5b83356131718161307e565b925060208401356131818161307e565b929592945050506040919091013590565b600080600080606085870312156131a857600080fd5b84356131b38161307e565b935060208501356131c38161307e565b9250604085013567ffffffffffffffff808211156131e057600080fd5b818701915087601f8301126131f457600080fd5b81358181111561320357600080fd5b88602060e08302850101111561321857600080fd5b95989497505060200194505050565b6000806040838503121561323a57600080fd5b82356132458161307e565b915060208301356132558161307e565b809150509250929050565b7f4e487b7100000000000000000000000000000000000000000000000000000000600052603260045260246000fd5b80600f0b811461078f57600080fd5b600081356132ab8161328f565b92915050565b81356132bc8161307e565b815473ffffffffffffffffffffffffffffffffffffffff19166001600160a01b038216178255506020820135600182015560408201356132fb8161307e565b60028201805473ffffffffffffffffffffffffffffffffffffffff19166001600160a01b0383161790555060608201356133348161307e565b60038201805473ffffffffffffffffffffffffffffffffffffffff19166001600160a01b038316179055506004810160808301356133718161328f565b81547fffffffffffffffffffffffffffffffff00000000000000000000000000000000166fffffffffffffffffffffffffffffffff82161782555060a08301356133ba8161328f565b81546fffffffffffffffffffffffffffffffff1660809190911b7fffffffffffffffffffffffffffffffff000000000000000000000000000000001617905561344c61340860c0840161329e565b600583017fffffffffffffffffffffffffffffffff00000000000000000000000000000000815416826fffffffffffffffffffffffffffffffff1681178255505050565b5050565b7f4e487b7100000000000000000000000000000000000000000000000000000000600052601160045260246000fd5b600060001982141561349357613493613450565b5060010190565b80356115b58161328f565b600060608083016001600160a01b03808916855260208189168187015260408481880152838885526080945084880190508960005b8a8110156135865781356134ed8161307e565b861683528185013585840152838201356135068161307e565b861683850152818801356135198161307e565b86168389015261352a82880161349a565b61353888850182600f0b9052565b5060a061354681840161349a565b61355482860182600f0b9052565b505060c061356381840161349a565b61357182860182600f0b9052565b505060e09283019291909101906001016134da565b50909c9b505050505050505050505050565b6000602082840312156135aa57600080fd5b8151801515811461279e57600080fd5b6000602082840312156135cc57600080fd5b5051919050565b6000828210156135e5576135e5613450565b500390565b80516dffffffffffffffffffffffffffff811681146115b557600080fd5b60008060006060848603121561361d57600080fd5b613626846135ea565b9250613634602085016135ea565b9150604084015163ffffffff8116811461364d57600080fd5b809150509250925092565b7f4e487b7100000000000000000000000000000000000000000000000000000000600052604160045260246000fd5b8481526000602085818401526001600160a01b038516604084015260806060840152835180608085015260005b818110156136d05785810183015185820160a0015282016136b4565b818111156136e257600060a083870101525b50601f017fffffffffffffffffffffffffffffffffffffffffffffffffffffffffffffffe0169290920160a0019695505050505050565b60006020828403121561372b57600080fd5b815161279e8161307e565b6000806040838503121561374957600080fd5b505080516020909101519092909150565b60008060006060848603121561376f57600080fd5b8351925060208401519150604084015190509250925092565b600081600f0b7fffffffffffffffffffffffffffffffff800000000000000000000000000000008114156137be576137be613450565b60000392915050565b8060005b600281101561090d5781518452602093840193909101906001016137cb565b606081016137f882856137c7565b8260408301529392505050565b8060005b600381101561090d578151845260209384019390910190600101613809565b608081016138368285613805565b8260608301529392505050565b8060005b600481101561090d578151845260209384019390910190600101613847565b60a081016138748285613843565b8260808301529392505050565b6080810161388f82866137c7565b8360408301528215156060830152949350505050565b60a081016138b38286613805565b8360608301528215156080830152949350505050565b60c081016138d78286613843565b83608083015282151560a0830152949350505050565b600081600019048311821515161561390757613907613450565b500290565b6000821982111561391f5761391f613450565b500190565b60008261395a577f4e487b7100000000000000000000000000000000000000000000000000000000600052601260045260246000fd5b50049056fea264697066735822122083707673a30384eb4140b74aab57af2f88072067391e1ac26c35259b2125a2d764736f6c634300080a0033496e697469616c697a61626c653a20636f6e747261637420697320616c726561496e697469616c697a61626c653a20636f6e7472616374206973206e6f742069",
    "linkReferences": {}
  }
}