{
  "abi": [
    {
      "anonymous": false,
      "inputs": [
        {
          "indexed": false,
          "internalType": "address",
          "name": "caller",
          "type": "address"
        },
        {
          "indexed": false,
          "internalType": "uint256",
          "name": "amount",
          "type": "uint256"
        }
      ],
      "name": "AdminFeePaid",
      "type": "event"
    },
    {
      "anonymous": false,
      "inputs": [
        {
          "indexed": true,
          "internalType": "address",
          "name": "owner",
          "type": "address"
        },
        {
          "indexed": true,
          "internalType": "address",
          "name": "spender",
          "type": "address"
        },
        {
          "indexed": false,
          "internalType": "uint256",
          "name": "amount",
          "type": "uint256"
        }
      ],
      "name": "Approval",
      "type": "event"
    },
    {
      "anonymous": false,
      "inputs": [
        {
          "indexed": false,
          "internalType": "address",
          "name": "caller",
          "type": "address"
        },
        {
          "indexed": false,
          "internalType": "uint256",
          "name": "amount",
          "type": "uint256"
        }
      ],
      "name": "CallerFeePaid",
      "type": "event"
    },
    {
      "anonymous": false,
      "inputs": [
        {
          "indexed": true,
          "internalType": "address",
          "name": "caller",
          "type": "address"
        },
        {
          "indexed": true,
          "internalType": "address",
          "name": "owner",
          "type": "address"
        },
        {
          "indexed": false,
          "internalType": "uint256",
          "name": "assets",
          "type": "uint256"
        },
        {
          "indexed": false,
          "internalType": "uint256",
          "name": "shares",
          "type": "uint256"
        }
      ],
      "name": "Deposit",
      "type": "event"
    },
    {
      "anonymous": false,
      "inputs": [
        {
          "indexed": false,
          "internalType": "uint8",
          "name": "version",
          "type": "uint8"
        }
      ],
      "name": "Initialized",
      "type": "event"
    },
    {
      "anonymous": false,
      "inputs": [
        {
          "indexed": true,
          "internalType": "address",
          "name": "previousOwner",
          "type": "address"
        },
        {
          "indexed": true,
          "internalType": "address",
          "name": "newOwner",
          "type": "address"
        }
      ],
      "name": "OwnershipTransferred",
      "type": "event"
    },
    {
      "anonymous": false,
      "inputs": [
        {
          "indexed": false,
          "internalType": "address",
          "name": "caller",
          "type": "address"
        },
        {
          "indexed": false,
          "internalType": "uint256",
          "name": "preCompound",
          "type": "uint256"
        },
        {
          "indexed": false,
          "internalType": "uint256",
          "name": "postCompound",
          "type": "uint256"
        }
      ],
      "name": "Reinvested",
      "type": "event"
    },
    {
      "anonymous": false,
      "inputs": [
        {
          "indexed": false,
          "internalType": "address",
          "name": "caller",
          "type": "address"
        },
        {
          "indexed": false,
          "internalType": "uint256",
          "name": "index",
          "type": "uint256"
        },
        {
          "indexed": false,
          "internalType": "address",
          "name": "rewardToken",
          "type": "address"
        }
      ],
      "name": "RewardTokenSet",
      "type": "event"
    },
    {
      "anonymous": false,
      "inputs": [
        {
          "indexed": false,
          "internalType": "address",
          "name": "fromToken",
          "type": "address"
        },
        {
          "indexed": false,
          "internalType": "address",
          "name": "toToken",
          "type": "address"
        },
        {
          "components": [
            {
              "internalType": "address",
              "name": "protocolSwapAddress",
              "type": "address"
            },
            {
              "internalType": "uint256",
              "name": "nodeType",
              "type": "uint256"
            },
            {
              "internalType": "address",
              "name": "tokenIn",
              "type": "address"
            },
            {
              "internalType": "address",
              "name": "tokenOut",
              "type": "address"
            },
            {
              "internalType": "int128",
              "name": "_misc",
              "type": "int128"
            },
            {
              "internalType": "int128",
              "name": "_in",
              "type": "int128"
            },
            {
              "internalType": "int128",
              "name": "_out",
              "type": "int128"
            }
          ],
          "indexed": false,
          "internalType": "struct Router.Node[]",
          "name": "path",
          "type": "tuple[]"
        }
      ],
      "name": "RouteSet",
      "type": "event"
    },
    {
      "anonymous": false,
      "inputs": [
        {
          "indexed": false,
          "internalType": "address",
          "name": "caller",
          "type": "address"
        },
        {
          "indexed": false,
          "internalType": "address",
          "name": "startingTokenAddress",
          "type": "address"
        },
        {
          "indexed": false,
          "internalType": "address",
          "name": "endingTokenAddress",
          "type": "address"
        },
        {
          "indexed": false,
          "internalType": "uint256",
          "name": "amount",
          "type": "uint256"
        },
        {
          "indexed": false,
          "internalType": "uint256",
          "name": "minSwapAmount",
          "type": "uint256"
        },
        {
          "indexed": false,
          "internalType": "uint256",
          "name": "actualOut",
          "type": "uint256"
        }
      ],
      "name": "Swap",
      "type": "event"
    },
    {
      "anonymous": false,
      "inputs": [
        {
          "indexed": true,
          "internalType": "address",
          "name": "from",
          "type": "address"
        },
        {
          "indexed": true,
          "internalType": "address",
          "name": "to",
          "type": "address"
        },
        {
          "indexed": false,
          "internalType": "uint256",
          "name": "amount",
          "type": "uint256"
        }
      ],
      "name": "Transfer",
      "type": "event"
    },
    {
      "anonymous": false,
      "inputs": [
        {
          "indexed": true,
          "internalType": "address",
          "name": "caller",
          "type": "address"
        },
        {
          "indexed": true,
          "internalType": "address",
          "name": "receiver",
          "type": "address"
        },
        {
          "indexed": true,
          "internalType": "address",
          "name": "owner",
          "type": "address"
        },
        {
          "indexed": false,
          "internalType": "uint256",
          "name": "assets",
          "type": "uint256"
        },
        {
          "indexed": false,
          "internalType": "uint256",
          "name": "shares",
          "type": "uint256"
        }
      ],
      "name": "Withdraw",
      "type": "event"
    },
    {
      "stateMutability": "payable",
      "type": "fallback"
    },
    {
      "inputs": [],
      "name": "BOpsAddress",
      "outputs": [
        {
          "internalType": "address",
          "name": "",
          "type": "address"
        }
      ],
      "stateMutability": "view",
      "type": "function"
    },
    {
      "inputs": [],
      "name": "DOMAIN_SEPARATOR",
      "outputs": [
        {
          "internalType": "bytes32",
          "name": "",
          "type": "bytes32"
        }
      ],
      "stateMutability": "view",
      "type": "function"
    },
    {
      "inputs": [],
      "name": "FIRST_DONATION",
      "outputs": [
        {
          "internalType": "uint256",
          "name": "",
          "type": "uint256"
        }
      ],
      "stateMutability": "view",
      "type": "function"
    },
    {
      "inputs": [],
      "name": "MIN_FIRST_MINT",
      "outputs": [
        {
          "internalType": "uint256",
          "name": "",
          "type": "uint256"
        }
      ],
      "stateMutability": "view",
      "type": "function"
    },
    {
      "inputs": [],
      "name": "MIN_SWAP",
      "outputs": [
        {
          "internalType": "uint256",
          "name": "",
          "type": "uint256"
        }
      ],
      "stateMutability": "view",
      "type": "function"
    },
    {
      "inputs": [],
      "name": "WAVAX",
      "outputs": [
        {
          "internalType": "contract IWAVAX",
          "name": "",
          "type": "address"
        }
      ],
      "stateMutability": "view",
      "type": "function"
    },
    {
      "inputs": [],
      "name": "aaveLendingPool",
      "outputs": [
        {
          "internalType": "address",
          "name": "",
          "type": "address"
        }
      ],
      "stateMutability": "view",
      "type": "function"
    },
    {
      "inputs": [],
      "name": "aaveLendingPoolV3",
      "outputs": [
        {
          "internalType": "address",
          "name": "",
          "type": "address"
        }
      ],
      "stateMutability": "view",
      "type": "function"
    },
    {
      "inputs": [],
      "name": "adminFee",
      "outputs": [
        {
          "internalType": "uint256",
          "name": "",
          "type": "uint256"
        }
      ],
      "stateMutability": "view",
      "type": "function"
    },
    {
      "inputs": [
        {
          "internalType": "address",
          "name": "",
          "type": "address"
        },
        {
          "internalType": "address",
          "name": "",
          "type": "address"
        }
      ],
      "name": "allowance",
      "outputs": [
        {
          "internalType": "uint256",
          "name": "",
          "type": "uint256"
        }
      ],
      "stateMutability": "view",
      "type": "function"
    },
    {
      "inputs": [
        {
          "internalType": "address",
          "name": "spender",
          "type": "address"
        },
        {
          "internalType": "uint256",
          "name": "amount",
          "type": "uint256"
        }
      ],
      "name": "approve",
      "outputs": [
        {
          "internalType": "bool",
          "name": "",
          "type": "bool"
        }
      ],
      "stateMutability": "nonpayable",
      "type": "function"
    },
    {
      "inputs": [
        {
          "internalType": "address",
          "name": "",
          "type": "address"
        }
      ],
      "name": "balanceOf",
      "outputs": [
        {
          "internalType": "uint256",
          "name": "",
          "type": "uint256"
        }
      ],
      "stateMutability": "view",
      "type": "function"
    },
    {
      "inputs": [],
      "name": "callerFee",
      "outputs": [
        {
          "internalType": "uint256",
          "name": "",
          "type": "uint256"
        }
      ],
      "stateMutability": "view",
      "type": "function"
    },
    {
      "inputs": [],
      "name": "compound",
      "outputs": [
        {
          "internalType": "uint256",
          "name": "",
          "type": "uint256"
        }
      ],
      "stateMutability": "nonpayable",
      "type": "function"
    },
    {
      "inputs": [],
      "name": "decimals",
      "outputs": [
        {
          "internalType": "uint8",
          "name": "",
          "type": "uint8"
        }
      ],
      "stateMutability": "view",
      "type": "function"
    },
    {
      "inputs": [
        {
          "internalType": "address",
          "name": "_to",
          "type": "address"
        },
        {
          "internalType": "uint256",
          "name": "_amt",
          "type": "uint256"
        }
      ],
      "name": "deposit",
      "outputs": [
        {
          "internalType": "uint256",
          "name": "receiptTokens",
          "type": "uint256"
        }
      ],
      "stateMutability": "nonpayable",
      "type": "function"
    },
    {
      "inputs": [
        {
          "internalType": "uint256",
          "name": "_amt",
          "type": "uint256"
        }
      ],
      "name": "deposit",
      "outputs": [
        {
          "internalType": "uint256",
          "name": "",
          "type": "uint256"
        }
      ],
      "stateMutability": "nonpayable",
      "type": "function"
    },
    {
      "inputs": [
        {
          "internalType": "address",
          "name": "_borrower",
          "type": "address"
        },
        {
          "internalType": "address",
          "name": "_to",
          "type": "address"
        },
        {
          "internalType": "uint256",
          "name": "_amt",
          "type": "uint256"
        }
      ],
      "name": "depositFor",
      "outputs": [
        {
          "internalType": "uint256",
          "name": "receiptTokens",
          "type": "uint256"
        }
      ],
      "stateMutability": "nonpayable",
      "type": "function"
    },
    {
      "inputs": [
        {
          "internalType": "uint256",
          "name": "_amt",
          "type": "uint256"
        },
        {
          "internalType": "uint256",
          "name": "_value",
          "type": "uint256"
        },
        {
          "internalType": "uint256",
          "name": "_deadline",
          "type": "uint256"
        },
        {
          "internalType": "uint8",
          "name": "_v",
          "type": "uint8"
        },
        {
          "internalType": "bytes32",
          "name": "_r",
          "type": "bytes32"
        },
        {
          "internalType": "bytes32",
          "name": "_s",
          "type": "bytes32"
        }
      ],
      "name": "depositWithPermit",
      "outputs": [
        {
          "internalType": "uint256",
          "name": "receiptTokens",
          "type": "uint256"
        }
      ],
      "stateMutability": "nonpayable",
      "type": "function"
    },
    {
      "inputs": [
        {
          "internalType": "uint256",
          "name": "_index",
          "type": "uint256"
        }
      ],
      "name": "deprecateRewardToken",
      "outputs": [],
      "stateMutability": "nonpayable",
      "type": "function"
    },
    {
      "inputs": [
        {
          "internalType": "uint256",
          "name": "_amt",
          "type": "uint256"
        }
      ],
      "name": "emergencyRedeem",
      "outputs": [
        {
          "internalType": "uint256",
          "name": "amtToReturn",
          "type": "uint256"
        }
      ],
      "stateMutability": "nonpayable",
      "type": "function"
    },
    {
      "inputs": [],
      "name": "feeRecipient",
      "outputs": [
        {
          "internalType": "address",
          "name": "",
          "type": "address"
        }
      ],
      "stateMutability": "view",
      "type": "function"
    },
    {
      "inputs": [
        {
          "internalType": "uint256",
          "name": "_ind",
          "type": "uint256"
        }
      ],
      "name": "getRewardToken",
      "outputs": [
        {
          "internalType": "address",
          "name": "",
          "type": "address"
        }
      ],
      "stateMutability": "view",
      "type": "function"
    },
    {
      "inputs": [
        {
          "internalType": "address",
          "name": "_underlying",
          "type": "address"
        },
        {
          "internalType": "string",
          "name": "_name",
          "type": "string"
        },
        {
          "internalType": "string",
          "name": "_symbol",
          "type": "string"
        },
        {
          "internalType": "uint256",
          "name": "_adminFee",
          "type": "uint256"
        },
        {
          "internalType": "uint256",
          "name": "_callerFee",
          "type": "uint256"
        },
        {
          "internalType": "uint256",
          "name": "_maxReinvestStale",
          "type": "uint256"
        },
        {
          "internalType": "address",
          "name": "_WAVAX",
          "type": "address"
        }
      ],
      "name": "initialize",
      "outputs": [],
      "stateMutability": "nonpayable",
      "type": "function"
    },
    {
      "inputs": [
        {
          "internalType": "address",
          "name": "_underlying",
          "type": "address"
        },
        {
          "internalType": "string",
          "name": "_name",
          "type": "string"
        },
        {
          "internalType": "string",
          "name": "_symbol",
          "type": "string"
        },
        {
          "internalType": "uint256",
          "name": "_adminFee",
          "type": "uint256"
        },
        {
          "internalType": "uint256",
          "name": "_callerFee",
          "type": "uint256"
        },
        {
          "internalType": "uint256",
          "name": "_maxReinvestStale",
          "type": "uint256"
        },
        {
          "internalType": "address",
          "name": "_WAVAX",
          "type": "address"
        },
        {
          "internalType": "address",
          "name": "_rewardController",
          "type": "address"
        }
      ],
      "name": "initialize",
      "outputs": [],
      "stateMutability": "nonpayable",
      "type": "function"
    },
    {
      "inputs": [],
      "name": "lastReinvestTime",
      "outputs": [
        {
          "internalType": "uint256",
          "name": "",
          "type": "uint256"
        }
      ],
      "stateMutability": "view",
      "type": "function"
    },
    {
      "inputs": [],
      "name": "maxReinvestStale",
      "outputs": [
        {
          "internalType": "uint256",
          "name": "",
          "type": "uint256"
        }
      ],
      "stateMutability": "view",
      "type": "function"
    },
    {
      "inputs": [],
      "name": "name",
      "outputs": [
        {
          "internalType": "string",
          "name": "",
          "type": "string"
        }
      ],
      "stateMutability": "view",
      "type": "function"
    },
    {
      "inputs": [
        {
          "internalType": "address",
          "name": "",
          "type": "address"
        }
      ],
      "name": "nonces",
      "outputs": [
        {
          "internalType": "uint256",
          "name": "",
          "type": "uint256"
        }
      ],
      "stateMutability": "view",
      "type": "function"
    },
    {
      "inputs": [],
      "name": "numRewardTokens",
      "outputs": [
        {
          "internalType": "uint256",
          "name": "",
          "type": "uint256"
        }
      ],
      "stateMutability": "view",
      "type": "function"
    },
    {
      "inputs": [],
      "name": "owner",
      "outputs": [
        {
          "internalType": "address",
          "name": "",
          "type": "address"
        }
      ],
      "stateMutability": "view",
      "type": "function"
    },
    {
      "inputs": [
        {
          "internalType": "address",
          "name": "owner",
          "type": "address"
        },
        {
          "internalType": "address",
          "name": "spender",
          "type": "address"
        },
        {
          "internalType": "uint256",
          "name": "value",
          "type": "uint256"
        },
        {
          "internalType": "uint256",
          "name": "deadline",
          "type": "uint256"
        },
        {
          "internalType": "uint8",
          "name": "v",
          "type": "uint8"
        },
        {
          "internalType": "bytes32",
          "name": "r",
          "type": "bytes32"
        },
        {
          "internalType": "bytes32",
          "name": "s",
          "type": "bytes32"
        }
      ],
      "name": "permit",
      "outputs": [],
      "stateMutability": "nonpayable",
      "type": "function"
    },
    {
      "inputs": [],
      "name": "previousATokenBalance",
      "outputs": [
        {
          "internalType": "uint256",
          "name": "",
          "type": "uint256"
        }
      ],
      "stateMutability": "view",
      "type": "function"
    },
    {
      "inputs": [
        {
          "internalType": "address",
          "name": "_token",
          "type": "address"
        }
      ],
      "name": "pushRewardToken",
      "outputs": [],
      "stateMutability": "nonpayable",
      "type": "function"
    },
    {
      "inputs": [],
      "name": "receiptPerUnderlying",
      "outputs": [
        {
          "internalType": "uint256",
          "name": "",
          "type": "uint256"
        }
      ],
      "stateMutability": "view",
      "type": "function"
    },
    {
      "inputs": [
        {
          "internalType": "address",
          "name": "_to",
          "type": "address"
        },
        {
          "internalType": "uint256",
          "name": "_amt",
          "type": "uint256"
        }
      ],
      "name": "redeem",
      "outputs": [
        {
          "internalType": "uint256",
          "name": "amtToReturn",
          "type": "uint256"
        }
      ],
      "stateMutability": "nonpayable",
      "type": "function"
    },
    {
      "inputs": [
        {
          "internalType": "uint256",
          "name": "_amt",
          "type": "uint256"
        }
      ],
      "name": "redeem",
      "outputs": [
        {
          "internalType": "uint256",
          "name": "",
          "type": "uint256"
        }
      ],
      "stateMutability": "nonpayable",
      "type": "function"
    },
    {
      "inputs": [
        {
          "internalType": "uint256",
          "name": "_amt",
          "type": "uint256"
        },
        {
          "internalType": "address",
          "name": "_from",
          "type": "address"
        },
        {
          "internalType": "address",
          "name": "_to",
          "type": "address"
        }
      ],
      "name": "redeemFor",
      "outputs": [
        {
          "internalType": "uint256",
          "name": "amtToReturn",
          "type": "uint256"
        }
      ],
      "stateMutability": "nonpayable",
      "type": "function"
    },
    {
      "inputs": [
        {
          "internalType": "uint256",
          "name": "_amt",
          "type": "uint256"
        },
        {
          "internalType": "address",
          "name": "_from",
          "type": "address"
        },
        {
          "internalType": "address",
          "name": "_to",
          "type": "address"
        },
        {
          "internalType": "uint256",
          "name": "_value",
          "type": "uint256"
        },
        {
          "internalType": "uint256",
          "name": "_deadline",
          "type": "uint256"
        },
        {
          "internalType": "uint8",
          "name": "_v",
          "type": "uint8"
        },
        {
          "internalType": "bytes32",
          "name": "_r",
          "type": "bytes32"
        },
        {
          "internalType": "bytes32",
          "name": "_s",
          "type": "bytes32"
        }
      ],
      "name": "redeemForWithPermit",
      "outputs": [
        {
          "internalType": "uint256",
          "name": "",
          "type": "uint256"
        }
      ],
      "stateMutability": "nonpayable",
      "type": "function"
    },
    {
      "inputs": [],
      "name": "renounceOwnership",
      "outputs": [],
      "stateMutability": "nonpayable",
      "type": "function"
    },
    {
      "inputs": [],
      "name": "rewardController",
      "outputs": [
        {
          "internalType": "contract IAaveRewardControllerV3",
          "name": "",
          "type": "address"
        }
      ],
      "stateMutability": "view",
      "type": "function"
    },
    {
      "inputs": [
        {
          "internalType": "uint256",
          "name": "",
          "type": "uint256"
        }
      ],
      "name": "rewardTokens",
      "outputs": [
        {
          "internalType": "address",
          "name": "",
          "type": "address"
        }
      ],
      "stateMutability": "view",
      "type": "function"
    },
    {
      "inputs": [
        {
          "internalType": "address",
          "name": "",
          "type": "address"
        },
        {
          "internalType": "address",
          "name": "",
          "type": "address"
        },
        {
          "internalType": "uint256",
          "name": "",
          "type": "uint256"
        }
      ],
      "name": "routes",
      "outputs": [
        {
          "internalType": "address",
          "name": "protocolSwapAddress",
          "type": "address"
        },
        {
          "internalType": "uint256",
          "name": "nodeType",
          "type": "uint256"
        },
        {
          "internalType": "address",
          "name": "tokenIn",
          "type": "address"
        },
        {
          "internalType": "address",
          "name": "tokenOut",
          "type": "address"
        },
        {
          "internalType": "int128",
          "name": "_misc",
          "type": "int128"
        },
        {
          "internalType": "int128",
          "name": "_in",
          "type": "int128"
        },
        {
          "internalType": "int128",
          "name": "_out",
          "type": "int128"
        }
      ],
      "stateMutability": "view",
      "type": "function"
    },
    {
      "inputs": [
        {
          "internalType": "address",
          "name": "_aaveLendingPool",
          "type": "address"
        },
        {
          "internalType": "address",
          "name": "_aaveLendingPoolV3",
          "type": "address"
        }
      ],
      "name": "setAAVE",
      "outputs": [],
      "stateMutability": "nonpayable",
      "type": "function"
    },
    {
      "inputs": [
        {
          "internalType": "address",
          "name": "_token",
          "type": "address"
        },
        {
          "internalType": "address",
          "name": "_who",
          "type": "address"
        },
        {
          "internalType": "uint256",
          "name": "_amount",
          "type": "uint256"
        }
      ],
      "name": "setApprovals",
      "outputs": [],
      "stateMutability": "nonpayable",
      "type": "function"
    },
    {
      "inputs": [
        {
          "internalType": "address",
          "name": "_BOpsAddress",
          "type": "address"
        }
      ],
      "name": "setBOps",
      "outputs": [],
      "stateMutability": "nonpayable",
      "type": "function"
    },
    {
      "inputs": [
        {
          "internalType": "uint256",
          "name": "_adminFee",
          "type": "uint256"
        },
        {
          "internalType": "uint256",
          "name": "_callerFee",
          "type": "uint256"
        }
      ],
      "name": "setFee",
      "outputs": [],
      "stateMutability": "nonpayable",
      "type": "function"
    },
    {
      "inputs": [
        {
          "internalType": "address",
          "name": "_feeRecipient",
          "type": "address"
        }
      ],
      "name": "setFeeRecipient",
      "outputs": [],
      "stateMutability": "nonpayable",
      "type": "function"
    },
    {
      "inputs": [
        {
          "internalType": "address",
          "name": "_traderJoeRouter",
          "type": "address"
        }
      ],
      "name": "setJoeRouter",
      "outputs": [],
      "stateMutability": "nonpayable",
      "type": "function"
    },
    {
      "inputs": [
        {
          "internalType": "address",
          "name": "_fromToken",
          "type": "address"
        },
        {
          "internalType": "address",
          "name": "_toToken",
          "type": "address"
        },
        {
          "components": [
            {
              "internalType": "address",
              "name": "protocolSwapAddress",
              "type": "address"
            },
            {
              "internalType": "uint256",
              "name": "nodeType",
              "type": "uint256"
            },
            {
              "internalType": "address",
              "name": "tokenIn",
              "type": "address"
            },
            {
              "internalType": "address",
              "name": "tokenOut",
              "type": "address"
            },
            {
              "internalType": "int128",
              "name": "_misc",
              "type": "int128"
            },
            {
              "internalType": "int128",
              "name": "_in",
              "type": "int128"
            },
            {
              "internalType": "int128",
              "name": "_out",
              "type": "int128"
            }
          ],
          "internalType": "struct Router.Node[]",
          "name": "_path",
          "type": "tuple[]"
        }
      ],
      "name": "setRoute",
      "outputs": [],
      "stateMutability": "nonpayable",
      "type": "function"
    },
    {
      "inputs": [
        {
          "internalType": "uint256",
          "name": "_maxReinvestStale",
          "type": "uint256"
        }
      ],
      "name": "setStale",
      "outputs": [],
      "stateMutability": "nonpayable",
      "type": "function"
    },
    {
      "inputs": [],
      "name": "symbol",
      "outputs": [
        {
          "internalType": "string",
          "name": "",
          "type": "string"
        }
      ],
      "stateMutability": "view",
      "type": "function"
    },
    {
      "inputs": [],
      "name": "totalHoldings",
      "outputs": [
        {
          "internalType": "uint256",
          "name": "",
          "type": "uint256"
        }
      ],
      "stateMutability": "nonpayable",
      "type": "function"
    },
    {
      "inputs": [],
      "name": "totalSupply",
      "outputs": [
        {
          "internalType": "uint256",
          "name": "",
          "type": "uint256"
        }
      ],
      "stateMutability": "view",
      "type": "function"
    },
    {
      "inputs": [],
      "name": "traderJoeRouter",
      "outputs": [
        {
          "internalType": "address",
          "name": "",
          "type": "address"
        }
      ],
      "stateMutability": "view",
      "type": "function"
    },
    {
      "inputs": [
        {
          "internalType": "address",
          "name": "to",
          "type": "address"
        },
        {
          "internalType": "uint256",
          "name": "amount",
          "type": "uint256"
        }
      ],
      "name": "transfer",
      "outputs": [
        {
          "internalType": "bool",
          "name": "",
          "type": "bool"
        }
      ],
      "stateMutability": "nonpayable",
      "type": "function"
    },
    {
      "inputs": [
        {
          "internalType": "address",
          "name": "from",
          "type": "address"
        },
        {
          "internalType": "address",
          "name": "to",
          "type": "address"
        },
        {
          "internalType": "uint256",
          "name": "amount",
          "type": "uint256"
        }
      ],
      "name": "transferFrom",
      "outputs": [
        {
          "internalType": "bool",
          "name": "",
          "type": "bool"
        }
      ],
      "stateMutability": "nonpayable",
      "type": "function"
    },
    {
      "inputs": [
        {
          "internalType": "address",
          "name": "newOwner",
          "type": "address"
        }
      ],
      "name": "transferOwnership",
      "outputs": [],
      "stateMutability": "nonpayable",
      "type": "function"
    },
    {
      "inputs": [],
      "name": "underlying",
      "outputs": [
        {
          "internalType": "contract ERC20",
          "name": "",
          "type": "address"
        }
      ],
      "stateMutability": "view",
      "type": "function"
    },
    {
      "inputs": [],
      "name": "underlyingDecimal",
      "outputs": [
        {
          "internalType": "uint256",
          "name": "",
          "type": "uint256"
        }
      ],
      "stateMutability": "view",
      "type": "function"
    },
    {
      "inputs": [],
      "name": "underlyingPerReceipt",
      "outputs": [
        {
          "internalType": "uint256",
          "name": "",
          "type": "uint256"
        }
      ],
      "stateMutability": "view",
      "type": "function"
    },
    {
      "inputs": [
        {
          "internalType": "uint256",
          "name": "_amt",
          "type": "uint256"
        }
      ],
      "name": "withdraw",
      "outputs": [
        {
          "internalType": "uint256",
          "name": "",
          "type": "uint256"
        }
      ],
      "stateMutability": "nonpayable",
      "type": "function"
    },
    {
      "inputs": [
        {
          "internalType": "uint256",
          "name": "_amt",
          "type": "uint256"
        },
        {
          "internalType": "address",
          "name": "_from",
          "type": "address"
        },
        {
          "internalType": "address",
          "name": "_to",
          "type": "address"
        }
      ],
      "name": "withdrawFor",
      "outputs": [
        {
          "internalType": "uint256",
          "name": "",
          "type": "uint256"
        }
      ],
      "stateMutability": "nonpayable",
      "type": "function"
    }
  ],
  "bytecode": {
    "object": "0x608060405234801561001057600080fd5b506168c680620000216000396000f3fe60806040526004361061038b5760003560e01c80637b5dbbdd116101da578063c8509c0a11610101578063e32d5cf81161009a578063f2fde38b1161006c578063f2fde38b14610af2578063f69e204614610b12578063f74877b514610b27578063fac991cc14610b4757005b8063e32d5cf814610a7d578063e74b981b14610a9d578063e9d337b814610abd578063e9ec2e9914610add57005b8063db006a75116100d3578063db006a75146104da578063dd62ed3e14610a1a578063dfa2b90114610a52578063e0794ec514610a6857005b8063c8509c0a146109ae578063cb8dd1d7146109c5578063cc6e8112146109da578063d505accf146109fa57005b8063a0be06f911610173578063b3db428b11610145578063b3db428b14610936578063b6b55f2514610956578063bf56700a14610976578063c5c700351461099657005b8063a0be06f9146108c7578063a57f8cb7146108dd578063a9059cbb146108fd578063b35337931461091d57005b80638cc5ce99116101ac5780638cc5ce99146108535780638da5cb5b146108745780639203430e1461089257806395d89b41146108b257005b80637b5dbbdd146107d55780637bb7bed1146107f05780637ecebe001461081057806385a393bb1461083d57005b806346904840116102be5780635c0bfa881161025757806370a082311161022957806370a0823114610753578063715018a61461078057806373aeea361461079557806373b295c2146107b557005b80635c0bfa8814610686578063600c557d146106a6578063647f3430146107135780636f307dc31461073357005b80634fb15b3f116102905780634fb15b3f14610606578063504a75de14610626578063515bc3231461064657806352f7c9881461066657005b8063469048401461059157806347e7ef24146105b15780634a7e5cbb146105d15780634cdf0392146105e657005b80631e9a695011610330578063313ce56711610302578063313ce5671461051a57806334d441d0146105465780633644e5151461055c5780633d61b2861461057157005b80631e9a69501461049a57806323b872dd146104ba5780632e1a7d4d146104da5780632faff427146104fa57005b8063134b6edb11610369578063134b6edb1461040857806318160ddd1461044057806319b333e5146104645780631e0b80531461047a57005b8063026b49a71461038d57806306fdde03146103ad578063095ea7b3146103d8575b005b34801561039957600080fd5b5061038b6103a836600461592a565b610b67565b3480156103b957600080fd5b506103c2610bf5565b6040516103cf9190615994565b60405180910390f35b3480156103e457600080fd5b506103f86103f33660046159a7565b610c83565b60405190151581526020016103cf565b34801561041457600080fd5b506104286104233660046159d3565b610cf0565b6040516001600160a01b0390911681526020016103cf565b34801561044c57600080fd5b5061045660035481565b6040519081526020016103cf565b34801561047057600080fd5b5061045660d75481565b34801561048657600080fd5b5061038b6104953660046159d3565b610d20565b3480156104a657600080fd5b506104566104b53660046159a7565b610e11565b3480156104c657600080fd5b506103f86104d53660046159ec565b610f31565b3480156104e657600080fd5b506104566104f53660046159d3565b611025565b34801561050657600080fd5b50606e54610428906001600160a01b031681565b34801561052657600080fd5b506002546105349060ff1681565b60405160ff90911681526020016103cf565b34801561055257600080fd5b5061045660db5481565b34801561056857600080fd5b50610456611031565b34801561057d57600080fd5b5061045661058c3660046159d3565b611050565b34801561059d57600080fd5b5060d954610428906001600160a01b031681565b3480156105bd57600080fd5b506104566105cc3660046159a7565b611145565b3480156105dd57600080fd5b5060d654610456565b3480156105f257600080fd5b5061038b610601366004615ae4565b611348565b34801561061257600080fd5b50610456610621366004615b8c565b6114f2565b34801561063257600080fd5b50610456610641366004615bdd565b611507565b34801561065257600080fd5b50610456610661366004615c57565b611530565b34801561067257600080fd5b5061038b610681366004615caa565b6115e6565b34801561069257600080fd5b506104566106a1366004615b8c565b611666565b3480156106b257600080fd5b506106c66106c13660046159ec565b6117fe565b604080516001600160a01b039889168152602081019790975294871694860194909452919094166060840152600f93840b6080840152830b60a083015290910b60c082015260e0016103cf565b34801561071f57600080fd5b5061038b61072e36600461592a565b61188e565b34801561073f57600080fd5b5060d554610428906001600160a01b031681565b34801561075f57600080fd5b5061045661076e36600461592a565b60046020526000908152604090205481565b34801561078c57600080fd5b5061038b611917565b3480156107a157600080fd5b5061038b6107b0366004615ccc565b61197d565b3480156107c157600080fd5b5060dd54610428906001600160a01b031681565b3480156107e157600080fd5b50610456662386f26fc1000081565b3480156107fc57600080fd5b5061042861080b3660046159d3565b611ad0565b34801561081c57600080fd5b5061045661082b36600461592a565b60086020526000908152604090205481565b34801561084957600080fd5b5061045660d85481565b34801561085f57600080fd5b5061010f54610428906001600160a01b031681565b34801561088057600080fd5b50603c546001600160a01b0316610428565b34801561089e57600080fd5b50607154610428906001600160a01b031681565b3480156108be57600080fd5b506103c2611afa565b3480156108d357600080fd5b5061045660da5481565b3480156108e957600080fd5b5061038b6108f836600461592a565b611b07565b34801561090957600080fd5b506103f86109183660046159a7565b611c16565b34801561092957600080fd5b5061045664e8d4a5100081565b34801561094257600080fd5b506104566109513660046159ec565b611c8e565b34801561096257600080fd5b506104566109713660046159d3565b611edd565b34801561098257600080fd5b5061038b610991366004615d61565b611ee9565b3480156109a257600080fd5b506104566305f5e10081565b3480156109ba57600080fd5b506104566101105481565b3480156109d157600080fd5b50610456611f7e565b3480156109e657600080fd5b5060dc54610428906001600160a01b031681565b348015610a0657600080fd5b5061038b610a15366004615d9a565b612024565b348015610a2657600080fd5b50610456610a35366004615d61565b600560209081526000928352604080842090915290825290205481565b348015610a5e57600080fd5b5061045660d45481565b348015610a7457600080fd5b50610456612292565b348015610a8957600080fd5b5061038b610a983660046159ec565b612339565b348015610aa957600080fd5b5061038b610ab836600461592a565b612425565b348015610ac957600080fd5b50606f54610428906001600160a01b031681565b348015610ae957600080fd5b506104566124ae565b348015610afe57600080fd5b5061038b610b0d36600461592a565b61251b565b348015610b1e57600080fd5b506104566125fd565b348015610b3357600080fd5b5061038b610b423660046159d3565b612669565b348015610b5357600080fd5b5061038b610b62366004615e0b565b6126c8565b603c546001600160a01b03163314610bc65760405162461bcd60e51b815260206004820181905260248201527f4f776e61626c653a2063616c6c6572206973206e6f7420746865206f776e657260448201526064015b60405180910390fd5b606e805473ffffffffffffffffffffffffffffffffffffffff19166001600160a01b0392909216919091179055565b60008054610c0290615ec6565b80601f0160208091040260200160405190810160405280929190818152602001828054610c2e90615ec6565b8015610c7b5780601f10610c5057610100808354040283529160200191610c7b565b820191906000526020600020905b815481529060010190602001808311610c5e57829003601f168201915b505050505081565b3360008181526005602090815260408083206001600160a01b038716808552925280832085905551919290917f8c5be1e5ebec7d5bd14f71427d1e84f3dd0314c0f7b2291e5b200ac8c7c3b92590610cde9086815260200190565b60405180910390a35060015b92915050565b600060d68281548110610d0557610d05615efb565b6000918252602090912001546001600160a01b031692915050565b603c546001600160a01b03163314610d7a5760405162461bcd60e51b815260206004820181905260248201527f4f776e61626c653a2063616c6c6572206973206e6f7420746865206f776e65726044820152606401610bbd565b60d6548110610dcb5760405162461bcd60e51b815260206004820152600d60248201527f4f7574206f6620626f756e6473000000000000000000000000000000000000006044820152606401610bbd565b600060d68281548110610de057610de0615efb565b9060005260206000200160006101000a8154816001600160a01b0302191690836001600160a01b0316021790555050565b6000600260a2541415610e665760405162461bcd60e51b815260206004820152601f60248201527f5265656e7472616e637947756172643a207265656e7472616e742063616c6c006044820152606401610bbd565b600260a25560d85460d754610e7b9190615f27565b421115610e8c57610e8a61277f565b505b670de0b6b3a764000082610e9e611f7e565b610ea89190615f3f565b610eb29190615f5e565b9050610ebd81612d01565b610ec73383612d7e565b60d554610ede906001600160a01b03168483612dfa565b604080518281526020810184905233916001600160a01b0386169183917ffbde797d201c681b91056529119e0b02407c7bb96a4a2c75c01fc9667232c8db910160405180910390a4600160a25592915050565b6001600160a01b03831660009081526005602090815260408083203384529091528120546000198114610f8d57610f688382615f80565b6001600160a01b03861660009081526005602090815260408083203384529091529020555b6001600160a01b03851660009081526004602052604081208054859290610fb5908490615f80565b90915550506001600160a01b03808516600081815260046020526040908190208054870190555190918716907fddf252ad1be2c89b69c2b068fc378daa952ba7f163c4a11628f55a4df523b3ef906110109087815260200190565b60405180910390a360019150505b9392505050565b6000610cea3383610e11565b6000600654461461104957611044612e99565b905090565b5060075490565b6000600260a25414156110a55760405162461bcd60e51b815260206004820152601f60248201527f5265656e7472616e637947756172643a207265656e7472616e742063616c6c006044820152606401610bbd565b600260a255670de0b6b3a7640000826110bc611f7e565b6110c69190615f3f565b6110d09190615f5e565b90506110db81612d01565b6110e53383612d7e565b60d5546110fc906001600160a01b03163383612dfa565b60408051828152602081018490523391829182917ffbde797d201c681b91056529119e0b02407c7bb96a4a2c75c01fc9667232c8db910160405180910390a4600160a255919050565b6000600260a254141561119a5760405162461bcd60e51b815260206004820152601f60248201527f5265656e7472616e637947756172643a207265656e7472616e742063616c6c006044820152606401610bbd565b600260a255816111ec5760405162461bcd60e51b815260206004820152600860248201527f3020746f6b656e730000000000000000000000000000000000000000000000006044820152606401610bbd565b60d85460d7546111fc9190615f27565b42111561120d5761120b61277f565b505b81670de0b6b3a764000081611220612292565b61122a9190615f3f565b6112349190615f5e565b91506003546000141561127e5764e8d4a5100082101561125357600080fd5b60d95461126d906001600160a01b03166305f5e100612f33565b61127b6305f5e10083615f80565b91505b816112cb5760405162461bcd60e51b815260206004820152600a60248201527f30207265636569766564000000000000000000000000000000000000000000006044820152606401610bbd565b60d5546112e3906001600160a01b0316333086612f97565b6112ec83613043565b6112f68483612f33565b60408051848152602081018490526001600160a01b0386169133917fdcbc1c05240f31ff3ad067ef1ee35ce4997762752e3a095284754544f4c709d7910160405180910390a350600160a25592915050565b600061135460016130af565b9050801561138957600980547fffffffffffffffffffffffffffffffffffffffffffffffffffffffffffff00ff166101001790555b6113916131ea565b61139961326f565b6113a5878760126132f4565b60d5805473ffffffffffffffffffffffffffffffffffffffff19166001600160a01b038a16908117909155604080517f313ce567000000000000000000000000000000000000000000000000000000008152905163313ce567916004808201926020929091908290030181865afa158015611424573d6000803e3d6000fd5b505050506040513d601f19601f820116820180604052508101906114489190615f97565b60ff1660d45561145885856115e6565b60d883905560dd805473ffffffffffffffffffffffffffffffffffffffff19166001600160a01b03841617905580156114e857600980547fffffffffffffffffffffffffffffffffffffffffffffffffffffffffffff00ff169055604051600181527f7f26b83ff96e1f2b6a682f133852f6798a09c465da95921460cefb38474024989060200160405180910390a15b5050505050505050565b60006114ff848484611666565b949350505050565b600061151888338888888888612024565b611523898989611666565b9998505050505050505050565b60d5546040517fd505accf000000000000000000000000000000000000000000000000000000008152336004820152306024820152604481018790526064810186905260ff8516608482015260a4810184905260c481018390526000916001600160a01b03169063d505accf9060e401600060405180830381600087803b1580156115ba57600080fd5b505af11580156115ce573d6000803e3d6000fd5b505050506115db87611edd565b979650505050505050565b603c546001600160a01b031633146116405760405162461bcd60e51b815260206004820181905260248201527f4f776e61626c653a2063616c6c6572206973206e6f7420746865206f776e65726044820152606401610bbd565b61271082108015611652575061271081105b61165b57600080fd5b60da9190915560db55565b6000600260a25414156116bb5760405162461bcd60e51b815260206004820152601f60248201527f5265656e7472616e637947756172643a207265656e7472616e742063616c6c006044820152606401610bbd565b600260a25560d85460d7546116d09190615f27565b4211156116e1576116df61277f565b505b6001600160a01b038316600090815260056020908152604080832033845290915290205460001981148015906117205750336001600160a01b03851614155b156117545761172f8582615f80565b6001600160a01b03851660009081526005602090815260408083203384529091529020555b670de0b6b3a764000085611766611f7e565b6117709190615f3f565b61177a9190615f5e565b915061178582612d01565b61178f8486612d7e565b60d5546117a6906001600160a01b03168484612dfa565b60408051838152602081018790526001600160a01b03808716929086169133917ffbde797d201c681b91056529119e0b02407c7bb96a4a2c75c01fc9667232c8db910160405180910390a450600160a2559392505050565b6070602052826000526040600020602052816000526040600020818154811061182657600080fd5b60009182526020909120600690910201805460018201546002830154600384015460048501546005909501546001600160a01b039485169850929650908316945090911691600f81810b92700100000000000000000000000000000000909204810b91900b87565b603c546001600160a01b031633146118e85760405162461bcd60e51b815260206004820181905260248201527f4f776e61626c653a2063616c6c6572206973206e6f7420746865206f776e65726044820152606401610bbd565b60dc805473ffffffffffffffffffffffffffffffffffffffff19166001600160a01b0392909216919091179055565b603c546001600160a01b031633146119715760405162461bcd60e51b815260206004820181905260248201527f4f776e61626c653a2063616c6c6572206973206e6f7420746865206f776e65726044820152606401610bbd565b61197b600061333f565b565b603c546001600160a01b031633146119d75760405162461bcd60e51b815260206004820181905260248201527f4f776e61626c653a2063616c6c6572206973206e6f7420746865206f776e65726044820152606401610bbd565b6001600160a01b0380851660009081526070602090815260408083209387168352929052908120611a079161577d565b60005b81811015611a8c576001600160a01b038086166000908152607060209081526040808320938816835292905220838383818110611a4957611a49615efb565b83546001810185556000948552602090942060e090910292909201926006029091019050611a778282615fd0565b50508080611a849061616b565b915050611a0a565b507f01aa5c4f582e572c83ccd23ac58ee02c7e51aceb9d47d02987f31536b352992f84848484604051611ac29493929190616191565b60405180910390a150505050565b60d68181548110611ae057600080fd5b6000918252602090912001546001600160a01b0316905081565b60018054610c0290615ec6565b603c546001600160a01b03163314611b615760405162461bcd60e51b815260206004820181905260248201527f4f776e61626c653a2063616c6c6572206973206e6f7420746865206f776e65726044820152606401610bbd565b6001600160a01b038116611bb75760405162461bcd60e51b815260206004820152600960248201527f30206164647265737300000000000000000000000000000000000000000000006044820152606401610bbd565b60d680546001810182556000919091527fe767803f8ecf1dee6bb0345811f7312cda556058b19db6389ad9ae3568643ddd01805473ffffffffffffffffffffffffffffffffffffffff19166001600160a01b0392909216919091179055565b33600090815260046020526040812080548391908390611c37908490615f80565b90915550506001600160a01b038316600081815260046020526040908190208054850190555133907fddf252ad1be2c89b69c2b068fc378daa952ba7f163c4a11628f55a4df523b3ef90610cde9086815260200190565b6000600260a2541415611ce35760405162461bcd60e51b815260206004820152601f60248201527f5265656e7472616e637947756172643a207265656e7472616e742063616c6c006044820152606401610bbd565b600260a25560dc546001600160a01b03163314611d425760405162461bcd60e51b815260206004820152600960248201527f424f7073206f6e6c7900000000000000000000000000000000000000000000006044820152606401610bbd565b60008211611d925760405162461bcd60e51b815260206004820152600860248201527f3020746f6b656e730000000000000000000000000000000000000000000000006044820152606401610bbd565b60d85460d754611da29190615f27565b421115611db357611db161277f565b505b81670de0b6b3a764000081611dc6612292565b611dd09190615f3f565b611dda9190615f5e565b915081611e4f5760405162461bcd60e51b815260206004820152603760248201527f4465706f73697420616d6f756e7420746f6f20736d616c6c2c20796f7520776960448201527f6c6c206765742030207265636569707420746f6b656e730000000000000000006064820152608401610bbd565b60d554611e67906001600160a01b0316863086612f97565b611e7083613043565b611e7a8483612f33565b836001600160a01b0316856001600160a01b03167fdcbc1c05240f31ff3ad067ef1ee35ce4997762752e3a095284754544f4c709d78585604051611ec8929190918252602082015260400190565b60405180910390a350600160a2559392505050565b6000610cea3383611145565b603c546001600160a01b03163314611f435760405162461bcd60e51b815260206004820181905260248201527f4f776e61626c653a2063616c6c6572206973206e6f7420746865206f776e65726044820152606401610bbd565b606f80546001600160a01b0393841673ffffffffffffffffffffffffffffffffffffffff199182161790915560718054929093169116179055565b600060035460001415611f995760d45461104490600a616368565b60035460d5546040516370a0823160e01b81523060048201526001600160a01b03909116906370a0823190602401602060405180830381865afa158015611fe4573d6000803e3d6000fd5b505050506040513d601f19601f820116820180604052508101906120089190616374565b61201a90670de0b6b3a7640000615f3f565b6110449190615f5e565b428410156120745760405162461bcd60e51b815260206004820152601760248201527f5045524d49545f444541444c494e455f455850495245440000000000000000006044820152606401610bbd565b60006001612080611031565b6001600160a01b038a811660008181526008602090815260409182902080546001810190915582517f6e71edae12b1b97f4d1f60370fef10105fa2faae0126114a169c64845d6126c98184015280840194909452938d166060840152608083018c905260a083019390935260c08083018b90528151808403909101815260e0830190915280519201919091207f19010000000000000000000000000000000000000000000000000000000000006101008301526101028201929092526101228101919091526101420160408051601f198184030181528282528051602091820120600084529083018083525260ff871690820152606081018590526080810184905260a0016020604051602081039080840390855afa1580156121a7573d6000803e3d6000fd5b5050604051601f1901519150506001600160a01b038116158015906121dd5750876001600160a01b0316816001600160a01b0316145b6122295760405162461bcd60e51b815260206004820152600e60248201527f494e56414c49445f5349474e45520000000000000000000000000000000000006044820152606401610bbd565b6001600160a01b0390811660009081526005602090815260408083208a8516808552908352928190208990555188815291928a16917f8c5be1e5ebec7d5bd14f71427d1e84f3dd0314c0f7b2291e5b200ac8c7c3b925910160405180910390a350505050505050565b6000600354600014156122b85760d4546122ad906024615f80565b61104490600a616368565b60d5546040516370a0823160e01b81523060048201526001600160a01b03909116906370a0823190602401602060405180830381865afa158015612300573d6000803e3d6000fd5b505050506040513d601f19601f820116820180604052508101906123249190616374565b60035461201a90670de0b6b3a7640000615f3f565b603c546001600160a01b031633146123935760405162461bcd60e51b815260206004820181905260248201527f4f776e61626c653a2063616c6c6572206973206e6f7420746865206f776e65726044820152606401610bbd565b6040517f095ea7b30000000000000000000000000000000000000000000000000000000081526001600160a01b0383811660048301526024820183905284169063095ea7b3906044016020604051808303816000875af11580156123fb573d6000803e3d6000fd5b505050506040513d601f19601f8201168201806040525081019061241f919061638d565b50505050565b603c546001600160a01b0316331461247f5760405162461bcd60e51b815260206004820181905260248201527f4f776e61626c653a2063616c6c6572206973206e6f7420746865206f776e65726044820152606401610bbd565b60d9805473ffffffffffffffffffffffffffffffffffffffff19166001600160a01b0392909216919091179055565b60d5546040516370a0823160e01b81523060048201526000916001600160a01b0316906370a0823190602401602060405180830381865afa1580156124f7573d6000803e3d6000fd5b505050506040513d601f19601f820116820180604052508101906110449190616374565b603c546001600160a01b031633146125755760405162461bcd60e51b815260206004820181905260248201527f4f776e61626c653a2063616c6c6572206973206e6f7420746865206f776e65726044820152606401610bbd565b6001600160a01b0381166125f15760405162461bcd60e51b815260206004820152602660248201527f4f776e61626c653a206e6577206f776e657220697320746865207a65726f206160448201527f64647265737300000000000000000000000000000000000000000000000000006064820152608401610bbd565b6125fa8161333f565b50565b6000600260a25414156126525760405162461bcd60e51b815260206004820152601f60248201527f5265656e7472616e637947756172643a207265656e7472616e742063616c6c006044820152606401610bbd565b600260a25561265f61277f565b9050600160a25590565b603c546001600160a01b031633146126c35760405162461bcd60e51b815260206004820181905260248201527f4f776e61626c653a2063616c6c6572206973206e6f7420746865206f776e65726044820152606401610bbd565b60d855565b6126d788888888888888611348565b61010f805473ffffffffffffffffffffffffffffffffffffffff19166001600160a01b0383161790556040805160018082528183019092529060208083019080368337505081516127309261011192506020019061579e565b508761011160008154811061274757612747615efb565b9060005260206000200160006101000a8154816001600160a01b0302191690836001600160a01b031602179055505050505050505050565b60d5544260d7556000906001600160a01b03168161279d6101105490565b90506127a761339e565b60005b60d654811015612aa05760006001600160a01b031660d682815481106127d2576127d2615efb565b6000918252602090912001546001600160a01b031614612a8e57826001600160a01b031660d6828154811061280957612809615efb565b6000918252602090912001546001600160a01b0316141561282957612a8e565b60016001600160a01b031660d6828154811061284757612847615efb565b6000918252602090912001546001600160a01b031614156128fe5747662386f26fc100008111156128f85760dd60009054906101000a90046001600160a01b03166001600160a01b031663d0e30db0826040518263ffffffff1660e01b81526004016000604051808303818588803b1580156128c257600080fd5b505af11580156128d6573d6000803e3d6000fd5b505060dd546128f693506001600160a01b03169150869050836000613435565b505b50612a8e565b600060d6828154811061291357612913615efb565b6000918252602090912001546040516370a0823160e01b81523060048201526001600160a01b03909116906370a0823190602401602060405180830381865afa158015612964573d6000803e3d6000fd5b505050506040513d601f19601f820116820180604052508101906129889190616374565b9050662386f26fc1000060d683815481106129a5576129a5615efb565b60009182526020918290200154604080517f313ce56700000000000000000000000000000000000000000000000000000000815290516001600160a01b039092169263313ce567926004808401938290030181865afa158015612a0c573d6000803e3d6000fd5b505050506040513d601f19601f82011682018060405250810190612a309190615f97565b612a3b9060126163af565b612a4690600a6163d2565b612a509083615f3f565b1115612a8c57612a8a60d68381548110612a6c57612a6c615efb565b60009182526020822001546001600160a01b03169086908490613435565b505b505b80612a988161616b565b9150506127aa565b506000612aab6124ae565b90506000612ab98383615f80565b90508015612cf25760d5546040516370a0823160e01b815230600482015260009184916001600160a01b03909116906370a0823190602401602060405180830381865afa158015612b0e573d6000803e3d6000fd5b505050506040513d601f19601f82011682018060405250810190612b329190616374565b612b3c9084615f3f565b612b469190615f5e565b9050600061271060da5483612b5b9190615f3f565b612b659190615f5e565b9050600061271060db5484612b7a9190615f3f565b612b849190615f5e565b60d55460d954919250612ba4916001600160a01b03918216911684612dfa565b60d554612bbb906001600160a01b03163383612dfa565b60408051338152602081018890529081018690527f7595de4054dcab05a338b0855bb2e6155c81172fc76a0cdc037724df4d7e1c4f9060600160405180910390a160d954604080516001600160a01b039092168252602082018490527f4160cbc62d82681031bd44dffd104f752175f93f9b3c78a5a8f0867c667ee918910160405180910390a160408051338152602081018390527f97c227f091684bc53502ee6cf0e3bd656721fdbe9f1b9fddf678b8979efb5a26910160405180910390a160d5546040516370a0823160e01b8152306004820152612cee916001600160a01b0316906370a0823190602401602060405180830381865afa158015612cc5573d6000803e3d6000fd5b505050506040513d601f19601f82011682018060405250810190612ce99190616374565b613043565b5050505b612cfa613ceb565b5050505090565b60d5546040516370a0823160e01b815230600482015282916001600160a01b0316906370a0823190602401602060405180830381865afa158015612d49573d6000803e3d6000fd5b505050506040513d601f19601f82011682018060405250810190612d6d9190616374565b612d779190615f80565b6101105550565b6001600160a01b03821660009081526004602052604081208054839290612da6908490615f80565b90915550506003805482900390556040518181526000906001600160a01b038416907fddf252ad1be2c89b69c2b068fc378daa952ba7f163c4a11628f55a4df523b3ef906020015b60405180910390a35050565b60006040517fa9059cbb000000000000000000000000000000000000000000000000000000008152836004820152826024820152602060006044836000895af13d15601f3d116001600051141617169150508061241f5760405162461bcd60e51b815260206004820152600f60248201527f5452414e534645525f4641494c454400000000000000000000000000000000006044820152606401610bbd565b60007f8b73c3c69bb8fe3d512ecc4cf759cc79239f7b179b0ffacaa9a75d522b39400f6000604051612ecb91906163e1565b6040805191829003822060208301939093528101919091527fc89efdaa54c0f20c7adf612882df0950f5a951637e0307cdcb4c672f298b8bc660608201524660808201523060a082015260c00160405160208183030381529060405280519060200120905090565b8060036000828254612f459190615f27565b90915550506001600160a01b0382166000818152600460209081526040808320805486019055518481527fddf252ad1be2c89b69c2b068fc378daa952ba7f163c4a11628f55a4df523b3ef9101612dee565b60006040517f23b872dd0000000000000000000000000000000000000000000000000000000081528460048201528360248201528260448201526020600060648360008a5af13d15601f3d116001600051141617169150508061303c5760405162461bcd60e51b815260206004820152601460248201527f5452414e534645525f46524f4d5f4641494c45440000000000000000000000006044820152606401610bbd565b5050505050565b60d5546040516370a0823160e01b81523060048201526001600160a01b03909116906370a0823190602401602060405180830381865afa15801561308b573d6000803e3d6000fd5b505050506040513d601f19601f82011682018060405250810190612d779190616374565b600954600090610100900460ff161561314e578160ff1660011480156130d45750303b155b6131465760405162461bcd60e51b815260206004820152602e60248201527f496e697469616c697a61626c653a20636f6e747261637420697320616c72656160448201527f647920696e697469616c697a65640000000000000000000000000000000000006064820152608401610bbd565b506000919050565b60095460ff8084169116106131cb5760405162461bcd60e51b815260206004820152602e60248201527f496e697469616c697a61626c653a20636f6e747261637420697320616c72656160448201527f647920696e697469616c697a65640000000000000000000000000000000000006064820152608401610bbd565b506009805460ff191660ff92909216919091179055600190565b919050565b600954610100900460ff166132675760405162461bcd60e51b815260206004820152602b60248201527f496e697469616c697a61626c653a20636f6e7472616374206973206e6f74206960448201527f6e697469616c697a696e670000000000000000000000000000000000000000006064820152608401610bbd565b61197b613d5d565b600954610100900460ff166132ec5760405162461bcd60e51b815260206004820152602b60248201527f496e697469616c697a61626c653a20636f6e7472616374206973206e6f74206960448201527f6e697469616c697a696e670000000000000000000000000000000000000000006064820152608401610bbd565b61197b613de3565b8251613307906000906020860190615810565b50815161331b906001906020850190615810565b506002805460ff191660ff831617905546600655613337612e99565b600755505050565b603c80546001600160a01b0383811673ffffffffffffffffffffffffffffffffffffffff19831681179093556040519116919082907f8be0079c531659141344cd1fd0a4f28419497f9722a3daafe3b4186f6b6457e090600090a35050565b61010f546040517fbf90f63a0000000000000000000000000000000000000000000000000000000081526001600160a01b039091169063bf90f63a906133ea906101119060040161647d565b6000604051808303816000875af1158015613409573d6000803e3d6000fd5b505050506040513d6000823e601f3d908101601f19168201604052613431919081019061655c565b5050565b6040516370a0823160e01b815230600482015260009081906001600160a01b038616906370a0823190602401602060405180830381865afa15801561347e573d6000803e3d6000fd5b505050506040513d601f19601f820116820180604052508101906134a29190616374565b6001600160a01b038088166000908152607060209081526040808320938a1683529281528282208054845181840281018401909552808552949550919390849084015b828210156135805760008481526020908190206040805160e0810182526006860290920180546001600160a01b03908116845260018083015485870152600283015482169385019390935260038201541660608401526004810154600f81810b6080860152700100000000000000000000000000000000909104810b60a0850152600590910154900b60c083015290835290920191016134e5565b505050509050600085905060008251116135dc5760405162461bcd60e51b815260206004820152600e60248201527f4e6f20726f75746520666f756e640000000000000000000000000000000000006044820152606401610bbd565b60005b8251811015613b91578281815181106135fa576135fa615efb565b602002602001015160200151600114156136785761367183828151811061362357613623615efb565b60200260200101516000015184838151811061364157613641615efb565b60200260200101516040015185848151811061365f5761365f615efb565b6020026020010151606001518a613e67565b9650613b7f565b82818151811061368a5761368a615efb565b60200260200101516020015160021415613780578281815181106136b0576136b0615efb565b6020026020010151600001516001600160a01b03168382815181106136d7576136d7615efb565b6020026020010151604001516001600160a01b031614156137395761367183828151811061370757613707615efb565b60200260200101516060015184838151811061372557613725615efb565b602002602001015160000151896001613fe1565b61367183828151811061374e5761374e615efb565b60200260200101516040015184838151811061376c5761376c615efb565b602002602001015160000151896000613fe1565b82818151811061379257613792615efb565b60200260200101516020015160031415613863576136718382815181106137bb576137bb615efb565b6020026020010151604001518483815181106137d9576137d9615efb565b6020026020010151606001518584815181106137f7576137f7615efb565b6020026020010151600001518a87868151811061381657613816615efb565b60200260200101516080015188878151811061383457613834615efb565b602002602001015160a0015189888151811061385257613852615efb565b602002602001015160c0015161461d565b82818151811061387557613875615efb565b602002602001015160200151600414156138c55761367160016001600160a01b03168483815181106138a9576138a9615efb565b6020026020010151604001516001600160a01b03161488614d56565b8281815181106138d7576138d7615efb565b602002602001015160200151600514156139305761367183828151811061390057613900615efb565b60200260200101516040015184838151811061391e5761391e615efb565b60200260200101516000015189614e50565b82818151811061394257613942615efb565b60200260200101516020015160061415613a615761367183828151811061396b5761396b615efb565b6020026020010151600001516001600160a01b031684838151811061399257613992615efb565b6020026020010151604001516001600160a01b0316146139cf578382815181106139be576139be615efb565b6020026020010151604001516139ee565b8382815181106139e1576139e1615efb565b6020026020010151606001515b88858481518110613a0157613a01615efb565b6020026020010151600001516001600160a01b0316868581518110613a2857613a28615efb565b6020026020010151604001516001600160a01b031614868581518110613a5057613a50615efb565b602002602001015160800151614fc6565b828181518110613a7357613a73615efb565b60200260200101516020015160071415613acc57613671838281518110613a9c57613a9c615efb565b602002602001015160400151848381518110613aba57613aba615efb565b602002602001015160000151896151cd565b828181518110613ade57613ade615efb565b60200260200101516020015160081415613b3757613671838281518110613b0757613b07615efb565b602002602001015160400151848381518110613b2557613b25615efb565b60200260200101516000015189615408565b60405162461bcd60e51b815260206004820152601160248201527f556e6b6e6f776e206e6f646520747970650000000000000000000000000000006044820152606401610bbd565b80613b898161616b565b9150506135df565b506040516370a0823160e01b815230600482015260009084906001600160a01b038a16906370a0823190602401602060405180830381865afa158015613bdb573d6000803e3d6000fd5b505050506040513d601f19601f82011682018060405250810190613bff9190616374565b613c099190615f80565b905085811015613c815760405162461bcd60e51b815260206004820152603560248201527f446964206e6f74207265636569766520656e6f75676820746f6b656e7320746f60448201527f206163636f756e7420666f7220736c69707061676500000000000000000000006064820152608401610bbd565b604080513381526001600160a01b038b811660208301528a1681830152606081018490526080810188905260a0810183905290517fd6d34547c69c5ee3d2667625c188acf1006abb93e0ee7cf03925c67cf77604139181900360c00190a198975050505050505050565b60d5546040516370a0823160e01b81523060048201526001600160a01b03909116906370a0823190602401602060405180830381865afa158015613d33573d6000803e3d6000fd5b505050506040513d601f19601f82011682018060405250810190613d579190616374565b61011055565b600954610100900460ff16613dda5760405162461bcd60e51b815260206004820152602b60248201527f496e697469616c697a61626c653a20636f6e7472616374206973206e6f74206960448201527f6e697469616c697a696e670000000000000000000000000000000000000000006064820152608401610bbd565b61197b3361333f565b600954610100900460ff16613e605760405162461bcd60e51b815260206004820152602b60248201527f496e697469616c697a61626c653a20636f6e7472616374206973206e6f74206960448201527f6e697469616c697a696e670000000000000000000000000000000000000000006064820152608401610bbd565b600160a255565b6000613e74848684612dfa565b600080600080886001600160a01b0316630902f1ac6040518163ffffffff1660e01b8152600401606060405180830381865afa158015613eb8573d6000803e3d6000fd5b505050506040513d601f19601f82011682018060405250810190613edc919061663f565b506dffffffffffffffffffffffffffff1691506dffffffffffffffffffffffffffff169150866001600160a01b0316886001600160a01b03161015613f2d57613f268683836154cb565b9250613f3b565b613f388682846154cb565b93505b604080516000815260208101918290527f022c0d9f000000000000000000000000000000000000000000000000000000009091526001600160a01b038a169063022c0d9f90613f939087908790309060248101616684565b600060405180830381600087803b158015613fad57600080fd5b505af1158015613fc1573d6000803e3d6000fd5b505050508360001415613fd45782611523565b5091979650505050505050565b600080846001600160a01b0316630dfe16816040518163ffffffff1660e01b8152600401602060405180830381865afa158015614022573d6000803e3d6000fd5b505050506040513d601f19601f8201168201806040525081019061404691906166bc565b90506000856001600160a01b031663d21220a76040518163ffffffff1660e01b8152600401602060405180830381865afa158015614088573d6000803e3d6000fd5b505050506040513d601f19601f820116820180604052508101906140ac91906166bc565b9050831561432d57606e546040517fbaa2abde0000000000000000000000000000000000000000000000000000000081526001600160a01b03848116600483015283811660248301526044820188905260006064830181905260848301523060a48301524260c48301529091169063baa2abde9060e40160408051808303816000875af1158015614141573d6000803e3d6000fd5b505050506040513d601f19601f8201168201806040525081019061416591906166d9565b5050866001600160a01b0316826001600160a01b031614156141ff576040516370a0823160e01b81523060048201526141f9908790839085906001600160a01b038316906370a08231906024015b602060405180830381865afa1580156141d0573d6000803e3d6000fd5b505050506040513d601f19601f820116820180604052508101906141f49190616374565b613e67565b506142bc565b866001600160a01b0316816001600160a01b0316141561424f576040516370a0823160e01b81523060048201526141f9908790849084906001600160a01b038316906370a08231906024016141b3565b60405162461bcd60e51b8152602060048201526024808201527f746f6b656e4f7574206973206e6f74206120746f6b656e205f696e207468652060448201527f70616972000000000000000000000000000000000000000000000000000000006064820152608401610bbd565b6040516370a0823160e01b81523060048201526001600160a01b038816906370a0823190602401602060405180830381865afa158015614300573d6000803e3d6000fd5b505050506040513d601f19601f820116820180604052508101906143249190616374565b925050506114ff565b6000806000886001600160a01b0316630902f1ac6040518163ffffffff1660e01b8152600401606060405180830381865afa158015614370573d6000803e3d6000fd5b505050506040513d601f19601f82011682018060405250810190614394919061663f565b925092509250896001600160a01b0316856001600160a01b0316141561456f576143d4898b866141f4876dffffffffffffffffffffffffffff168d615607565b50606e546040516370a0823160e01b81523060048201526001600160a01b039182169163e8e337009188918891908316906370a0823190602401602060405180830381865afa15801561442b573d6000803e3d6000fd5b505050506040513d601f19601f8201168201806040525081019061444f9190616374565b6040516370a0823160e01b81523060048201526001600160a01b038a16906370a0823190602401602060405180830381865afa158015614493573d6000803e3d6000fd5b505050506040513d601f19601f820116820180604052508101906144b79190616374565b6040517fffffffff0000000000000000000000000000000000000000000000000000000060e087901b1681526001600160a01b0394851660048201529390921660248401526044830152606482015260006084820181905260a48201523060c48201524260e4820152610104016060604051808303816000875af1158015614543573d6000803e3d6000fd5b505050506040513d601f19601f8201168201806040525081019061456791906166fd565b5050506145a9565b896001600160a01b0316846001600160a01b0316141561424f576143d4898b876141f4866dffffffffffffffffffffffffffff168d615607565b6040516370a0823160e01b81523060048201526001600160a01b038a16906370a0823190602401602060405180830381865afa1580156145ed573d6000803e3d6000fd5b505050506040513d601f19601f820116820180604052508101906146119190616374565b955050505050506114ff565b60008084600f0b1215614a365781600f0b600019141561492d576146408461672b565b9350600084600f0b67ffffffffffffffff81111561466057614660615a2d565b604051908082528060200260200182016040528015614689578160200160208202803683370190505b509050858185600f0b815181106146a2576146a2615efb565b60200260200101818152505084600f0b6002141561477b57866001600160a01b0316630b4c7e4d6040518060400160405280846000815181106146e7576146e7615efb565b602002602001015181526020018460018151811061470757614707615efb565b602002602001015181525060006040518363ffffffff1660e01b815260040161473192919061678d565b6020604051808303816000875af1158015614750573d6000803e3d6000fd5b505050506040513d601f19601f820116820180604052508101906147749190616374565b9150614927565b84600f0b6003141561481e57866001600160a01b0316634515cef36040518060600160405280846000815181106147b4576147b4615efb565b60200260200101518152602001846001815181106147d4576147d4615efb565b60200260200101518152602001846002815181106147f4576147f4615efb565b602002602001015181525060006040518363ffffffff1660e01b81526004016147319291906167cb565b84600f0b6004141561492757866001600160a01b031663029b2f3460405180608001604052808460008151811061485757614857615efb565b602002602001015181526020018460018151811061487757614877615efb565b602002602001015181526020018460028151811061489757614897615efb565b60200260200101518152602001846003815181106148b7576148b7615efb565b602002602001015181525060006040518363ffffffff1660e01b81526004016148e1929190616809565b6020604051808303816000875af1158015614900573d6000803e3d6000fd5b505050506040513d601f19601f820116820180604052508101906149249190616374565b91505b506115db565b82600f0b60001914156149d7576040517f1a4d01d200000000000000000000000000000000000000000000000000000000815260048101869052600f83900b6024820152600060448201526001600160a01b03871690631a4d01d2906064015b6020604051808303816000875af11580156149ac573d6000803e3d6000fd5b505050506040513d601f19601f820116820180604052508101906149d09190616374565b90506115db565b6040517f3df02124000000000000000000000000000000000000000000000000000000008152600f84810b600483015283900b602482015260448101869052600060648201526001600160a01b03871690633df021249060840161498d565b600084600f0b13156115db5781600f0b6000191415614cad57600084600f0b67ffffffffffffffff811115614a6d57614a6d615a2d565b604051908082528060200260200182016040528015614a96578160200160208202803683370190505b509050858185600f0b81518110614aaf57614aaf615efb565b60200260200101818152505084600f0b60021415614b4157866001600160a01b031663ee22be23604051806040016040528084600081518110614af457614af4615efb565b6020026020010151815260200184600181518110614b1457614b14615efb565b6020026020010151815250600060016040518463ffffffff1660e01b815260040161473193929190616824565b84600f0b60031415614be757866001600160a01b0316632b6e993a604051806060016040528084600081518110614b7a57614b7a615efb565b6020026020010151815260200184600181518110614b9a57614b9a615efb565b6020026020010151815260200184600281518110614bba57614bba615efb565b6020026020010151815250600060016040518463ffffffff1660e01b815260040161473193929190616848565b84600f0b6004141561492757866001600160a01b031663dc3a2d81604051806080016040528084600081518110614c2057614c20615efb565b6020026020010151815260200184600181518110614c4057614c40615efb565b6020026020010151815260200184600281518110614c6057614c60615efb565b6020026020010151815260200184600381518110614c8057614c80615efb565b6020026020010151815250600060016040518463ffffffff1660e01b81526004016148e19392919061686c565b6040517fa6417ed6000000000000000000000000000000000000000000000000000000008152600f84810b600483015283900b602482015260448101869052600060648201526001600160a01b0387169063a6417ed6906084016020604051808303816000875af1158015614d26573d6000803e3d6000fd5b505050506040513d601f19601f82011682018060405250810190614d4a9190616374565b98975050505050505050565b60008215614dcb5773b31f66aa3c1e785363f0875a1b74e27b85fd66c76001600160a01b031663d0e30db0836040518263ffffffff1660e01b81526004016000604051808303818588803b158015614dad57600080fd5b505af1158015614dc1573d6000803e3d6000fd5b5050505050614e4a565b6040517f2e1a7d4d0000000000000000000000000000000000000000000000000000000081526004810183905273b31f66aa3c1e785363f0875a1b74e27b85fd66c790632e1a7d4d90602401600060405180830381600087803b158015614e3157600080fd5b505af1158015614e45573d6000803e3d6000fd5b505050505b50919050565b6000826001600160a01b0316846001600160a01b03161415614f01576040517fdb006a75000000000000000000000000000000000000000000000000000000008152600481018390526001600160a01b0384169063db006a75906024016020604051808303816000875af1158015614ecc573d6000803e3d6000fd5b505050506040513d601f19601f82011682018060405250810190614ef09190616374565b15614efa57600080fd5b504761101e565b826001600160a01b0316631249c58b836040518263ffffffff1660e01b81526004016000604051808303818588803b158015614f3c57600080fd5b505af1158015614f50573d6000803e3d6000fd5b50506040516370a0823160e01b81523060048201526001600160a01b03871693506370a08231925060240190505b602060405180830381865afa158015614f9b573d6000803e3d6000fd5b505050506040513d601f19601f82011682018060405250810190614fbf9190616374565b905061101e565b600081600f0b6003141561511057821561507b576071546040517f69328dec0000000000000000000000000000000000000000000000000000000081526001600160a01b03878116600483015260248201879052306044830152909116906369328dec906064015b6020604051808303816000875af115801561504d573d6000803e3d6000fd5b505050506040513d601f19601f820116820180604052508101906150719190616374565b93508390506114ff565b6071546040517f617ba0370000000000000000000000000000000000000000000000000000000081526001600160a01b03878116600483015260248201879052306044830152600060648301529091169063617ba037906084015b600060405180830381600087803b1580156150f057600080fd5b505af1158015615104573d6000803e3d6000fd5b505050508390506114ff565b821561516e57606f546040517f69328dec0000000000000000000000000000000000000000000000000000000081526001600160a01b03878116600483015260248201879052306044830152909116906369328dec9060640161502e565b606f546040517fe8eda9df0000000000000000000000000000000000000000000000000000000081526001600160a01b03878116600483015260248201879052306044830152600060648301529091169063e8eda9df906084016150d6565b6000826001600160a01b0316846001600160a01b0316141561534e576040517fdb006a75000000000000000000000000000000000000000000000000000000008152600481018390526001600160a01b0384169063db006a75906024016020604051808303816000875af1158015615249573d6000803e3d6000fd5b505050506040513d601f19601f8201168201806040525081019061526d9190616374565b1561527757600080fd5b6000836001600160a01b0316636f307dc36040518163ffffffff1660e01b8152600401602060405180830381865afa1580156152b7573d6000803e3d6000fd5b505050506040513d601f19601f820116820180604052508101906152db91906166bc565b6040516370a0823160e01b81523060048201529091506001600160a01b038216906370a0823190602401602060405180830381865afa158015615322573d6000803e3d6000fd5b505050506040513d601f19601f820116820180604052508101906153469190616374565b91505061101e565b6040517fa0712d68000000000000000000000000000000000000000000000000000000008152600481018390526001600160a01b0384169063a0712d68906024016020604051808303816000875af11580156153ae573d6000803e3d6000fd5b505050506040513d601f19601f820116820180604052508101906153d29190616374565b156153dc57600080fd5b6040516370a0823160e01b81523060048201526001600160a01b038416906370a0823190602401614f7e565b6000826001600160a01b0316846001600160a01b03161415615485576040517fdb006a75000000000000000000000000000000000000000000000000000000008152600481018390526001600160a01b0384169063db006a75906024015b6020604051808303816000875af1158015614f9b573d6000803e3d6000fd5b6040517fb6b55f25000000000000000000000000000000000000000000000000000000008152600481018390526001600160a01b0384169063b6b55f2590602401615466565b60008084116155425760405162461bcd60e51b815260206004820152602b60248201527f556e697377617056324c6962726172793a20494e53554646494349454e545f4960448201527f4e5055545f414d4f554e540000000000000000000000000000000000000000006064820152608401610bbd565b6000831180156155525750600082115b6155c45760405162461bcd60e51b815260206004820152602860248201527f556e697377617056324c6962726172793a20494e53554646494349454e545f4c60448201527f49515549444954590000000000000000000000000000000000000000000000006064820152608401610bbd565b60006155d26103e586615f3f565b905060006155e08483615f3f565b90506000826155f16103e888615f3f565b6155fb9190615f27565b90506115db8183615f5e565b600080620f2ad961561b85620f3c64615f3f565b6156259190615f5e565b905060006156338580615f3f565b61564090623cda29615f3f565b8561564e86623cab64615f3f565b6156589190615f3f565b6156629190615f27565b905081620f2ad96156728361569b565b61567e906101f4615f3f565b6156889190615f5e565b6156929190615f80565b95945050505050565b60018170010000000000000000000000000000000081106156c15760409190911b9060801c5b6801000000000000000081106156dc5760209190911b9060401c5b64010000000081106156f35760109190911b9060201c5b6201000081106157085760089190911b9060101c5b610100811061571c5760049190911b9060081c5b6010811061572f5760029190911b9060041c5b6008811061573e578160011b91505b5080820401600190811c80830401811c80830401811c80830401811c80830401811c80830401811c80830401901c80820481811015614e4a5792915050565b50805460008255600602906000526020600020908101906125fa9190615884565b828054828255906000526020600020908101928215615800579160200282015b82811115615800578251825473ffffffffffffffffffffffffffffffffffffffff19166001600160a01b039091161782556020909201916001909101906157be565b5061580c929150615900565b5090565b82805461581c90615ec6565b90600052602060002090601f01602090048101928261583e5760008555615800565b82601f1061585757805160ff1916838001178555615800565b82800160010185558215615800579182015b82811115615800578251825591602001919060010190615869565b5b8082111561580c57805473ffffffffffffffffffffffffffffffffffffffff1990811682556000600183018190556002830180548316905560038301805490921690915560048201556005810180547fffffffffffffffffffffffffffffffff00000000000000000000000000000000169055600601615885565b5b8082111561580c5760008155600101615901565b6001600160a01b03811681146125fa57600080fd5b60006020828403121561593c57600080fd5b813561101e81615915565b6000815180845260005b8181101561596d57602081850181015186830182015201615951565b8181111561597f576000602083870101525b50601f01601f19169290920160200192915050565b60208152600061101e6020830184615947565b600080604083850312156159ba57600080fd5b82356159c581615915565b946020939093013593505050565b6000602082840312156159e557600080fd5b5035919050565b600080600060608486031215615a0157600080fd5b8335615a0c81615915565b92506020840135615a1c81615915565b929592945050506040919091013590565b634e487b7160e01b600052604160045260246000fd5b604051601f8201601f1916810167ffffffffffffffff81118282101715615a6c57615a6c615a2d565b604052919050565b600082601f830112615a8557600080fd5b813567ffffffffffffffff811115615a9f57615a9f615a2d565b615ab26020601f19601f84011601615a43565b818152846020838601011115615ac757600080fd5b816020850160208301376000918101602001919091529392505050565b600080600080600080600060e0888a031215615aff57600080fd5b8735615b0a81615915565b9650602088013567ffffffffffffffff80821115615b2757600080fd5b615b338b838c01615a74565b975060408a0135915080821115615b4957600080fd5b50615b568a828b01615a74565b955050606088013593506080880135925060a0880135915060c0880135615b7c81615915565b8091505092959891949750929550565b600080600060608486031215615ba157600080fd5b833592506020840135615bb381615915565b91506040840135615bc381615915565b809150509250925092565b60ff811681146125fa57600080fd5b600080600080600080600080610100898b031215615bfa57600080fd5b883597506020890135615c0c81615915565b96506040890135615c1c81615915565b9550606089013594506080890135935060a0890135615c3a81615bce565b979a969950949793969295929450505060c08201359160e0013590565b60008060008060008060c08789031215615c7057600080fd5b8635955060208701359450604087013593506060870135615c9081615bce565b9598949750929560808101359460a0909101359350915050565b60008060408385031215615cbd57600080fd5b50508035926020909101359150565b60008060008060608587031215615ce257600080fd5b8435615ced81615915565b93506020850135615cfd81615915565b9250604085013567ffffffffffffffff80821115615d1a57600080fd5b818701915087601f830112615d2e57600080fd5b813581811115615d3d57600080fd5b88602060e083028501011115615d5257600080fd5b95989497505060200194505050565b60008060408385031215615d7457600080fd5b8235615d7f81615915565b91506020830135615d8f81615915565b809150509250929050565b600080600080600080600060e0888a031215615db557600080fd5b8735615dc081615915565b96506020880135615dd081615915565b955060408801359450606088013593506080880135615dee81615bce565b9699959850939692959460a0840135945060c09093013592915050565b600080600080600080600080610100898b031215615e2857600080fd5b8835615e3381615915565b9750602089013567ffffffffffffffff80821115615e5057600080fd5b615e5c8c838d01615a74565b985060408b0135915080821115615e7257600080fd5b50615e7f8b828c01615a74565b965050606089013594506080890135935060a0890135925060c0890135615ea581615915565b915060e0890135615eb581615915565b809150509295985092959890939650565b600181811c90821680615eda57607f821691505b60208210811415614e4a57634e487b7160e01b600052602260045260246000fd5b634e487b7160e01b600052603260045260246000fd5b634e487b7160e01b600052601160045260246000fd5b60008219821115615f3a57615f3a615f11565b500190565b6000816000190483118215151615615f5957615f59615f11565b500290565b600082615f7b57634e487b7160e01b600052601260045260246000fd5b500490565b600082821015615f9257615f92615f11565b500390565b600060208284031215615fa957600080fd5b815161101e81615bce565b80600f0b81146125fa57600080fd5b60008135610cea81615fb4565b8135615fdb81615915565b815473ffffffffffffffffffffffffffffffffffffffff19166001600160a01b0382161782555060208201356001820155604082013561601a81615915565b60028201805473ffffffffffffffffffffffffffffffffffffffff19166001600160a01b03831617905550606082013561605381615915565b60038201805473ffffffffffffffffffffffffffffffffffffffff19166001600160a01b0383161790555060048101608083013561609081615fb4565b81547fffffffffffffffffffffffffffffffff00000000000000000000000000000000166fffffffffffffffffffffffffffffffff82161782555060a08301356160d981615fb4565b81546fffffffffffffffffffffffffffffffff1660809190911b7fffffffffffffffffffffffffffffffff000000000000000000000000000000001617905561343161612760c08401615fc3565b600583017fffffffffffffffffffffffffffffffff00000000000000000000000000000000815416826fffffffffffffffffffffffffffffffff1681178255505050565b600060001982141561617f5761617f615f11565b5060010190565b80356131e581615fb4565b600060608083016001600160a01b03808916855260208189168187015260408481880152838885526080945084880190508960005b8a8110156162725781356161d981615915565b861683528185013585840152838201356161f281615915565b8616838501528188013561620581615915565b861683890152616216828801616186565b61622488850182600f0b9052565b5060a0616232818401616186565b61624082860182600f0b9052565b505060c061624f818401616186565b61625d82860182600f0b9052565b505060e09283019291909101906001016161c6565b50909c9b505050505050505050505050565b600181815b808511156162bf5781600019048211156162a5576162a5615f11565b808516156162b257918102915b93841c9390800290616289565b509250929050565b6000826162d657506001610cea565b816162e357506000610cea565b81600181146162f957600281146163035761631f565b6001915050610cea565b60ff84111561631457616314615f11565b50506001821b610cea565b5060208310610133831016604e8410600b8410161715616342575081810a610cea565b61634c8383616284565b806000190482111561636057616360615f11565b029392505050565b600061101e83836162c7565b60006020828403121561638657600080fd5b5051919050565b60006020828403121561639f57600080fd5b8151801515811461101e57600080fd5b600060ff821660ff8416808210156163c9576163c9615f11565b90039392505050565b600061101e60ff8416836162c7565b600080835481600182811c9150808316806163fd57607f831692505b602080841082141561641d57634e487b7160e01b86526022600452602486fd5b81801561643157600181146164425761646f565b60ff1986168952848901965061646f565b60008a81526020902060005b868110156164675781548b82015290850190830161644e565b505084890196505b509498975050505050505050565b6020808252825482820181905260008481528281209092916040850190845b818110156164c15783546001600160a01b03168352600193840193928501920161649c565b50909695505050505050565b600067ffffffffffffffff8211156164e7576164e7615a2d565b5060051b60200190565b600082601f83011261650257600080fd5b81516020616517616512836164cd565b615a43565b82815260059290921b8401810191818101908684111561653657600080fd5b8286015b84811015616551578051835291830191830161653a565b509695505050505050565b6000806040838503121561656f57600080fd5b825167ffffffffffffffff8082111561658757600080fd5b818501915085601f83011261659b57600080fd5b815160206165ab616512836164cd565b82815260059290921b840181019181810190898411156165ca57600080fd5b948201945b838610156165f15785516165e281615915565b825294820194908201906165cf565b9188015191965090935050508082111561660a57600080fd5b50616617858286016164f1565b9150509250929050565b80516dffffffffffffffffffffffffffff811681146131e557600080fd5b60008060006060848603121561665457600080fd5b61665d84616621565b925061666b60208501616621565b9150604084015163ffffffff81168114615bc357600080fd5b8481528360208201526001600160a01b03831660408201526080606082015260006166b26080830184615947565b9695505050505050565b6000602082840312156166ce57600080fd5b815161101e81615915565b600080604083850312156166ec57600080fd5b505080516020909101519092909150565b60008060006060848603121561671257600080fd5b8351925060208401519150604084015190509250925092565b600081600f0b7fffffffffffffffffffffffffffffffff8000000000000000000000000000000081141561676157616761615f11565b60000392915050565b8060005b600281101561241f57815184526020938401939091019060010161676e565b6060810161679b828561676a565b8260408301529392505050565b8060005b600381101561241f5781518452602093840193909101906001016167ac565b608081016167d982856167a8565b8260608301529392505050565b8060005b600481101561241f5781518452602093840193909101906001016167ea565b60a0810161681782856167e6565b8260808301529392505050565b60808101616832828661676a565b8360408301528215156060830152949350505050565b60a0810161685682866167a8565b8360608301528215156080830152949350505050565b60c0810161687a82866167e6565b83608083015282151560a083015294935050505056fea2646970667358221220d4b0a4398916a1b89ef4b18a7b40401ac457827b06aad226bd9342d2b45fc25c64736f6c634300080a0033",
    "linkReferences": {}
  }
}