{
  "abi": [
    {
      "anonymous": false,
      "inputs": [
        {
          "indexed": false,
          "internalType": "address",
          "name": "caller",
          "type": "address"
        },
        {
          "indexed": false,
          "internalType": "uint256",
          "name": "amount",
          "type": "uint256"
        }
      ],
      "name": "AdminFeePaid",
      "type": "event"
    },
    {
      "anonymous": false,
      "inputs": [
        {
          "indexed": true,
          "internalType": "address",
          "name": "owner",
          "type": "address"
        },
        {
          "indexed": true,
          "internalType": "address",
          "name": "spender",
          "type": "address"
        },
        {
          "indexed": false,
          "internalType": "uint256",
          "name": "amount",
          "type": "uint256"
        }
      ],
      "name": "Approval",
      "type": "event"
    },
    {
      "anonymous": false,
      "inputs": [
        {
          "indexed": false,
          "internalType": "address",
          "name": "caller",
          "type": "address"
        },
        {
          "indexed": false,
          "internalType": "uint256",
          "name": "amount",
          "type": "uint256"
        }
      ],
      "name": "CallerFeePaid",
      "type": "event"
    },
    {
      "anonymous": false,
      "inputs": [
        {
          "indexed": true,
          "internalType": "address",
          "name": "caller",
          "type": "address"
        },
        {
          "indexed": true,
          "internalType": "address",
          "name": "owner",
          "type": "address"
        },
        {
          "indexed": false,
          "internalType": "uint256",
          "name": "assets",
          "type": "uint256"
        },
        {
          "indexed": false,
          "internalType": "uint256",
          "name": "shares",
          "type": "uint256"
        }
      ],
      "name": "Deposit",
      "type": "event"
    },
    {
      "anonymous": false,
      "inputs": [
        {
          "indexed": false,
          "internalType": "uint8",
          "name": "version",
          "type": "uint8"
        }
      ],
      "name": "Initialized",
      "type": "event"
    },
    {
      "anonymous": false,
      "inputs": [
        {
          "indexed": true,
          "internalType": "address",
          "name": "previousOwner",
          "type": "address"
        },
        {
          "indexed": true,
          "internalType": "address",
          "name": "newOwner",
          "type": "address"
        }
      ],
      "name": "OwnershipTransferred",
      "type": "event"
    },
    {
      "anonymous": false,
      "inputs": [
        {
          "indexed": false,
          "internalType": "address",
          "name": "caller",
          "type": "address"
        },
        {
          "indexed": false,
          "internalType": "uint256",
          "name": "preCompound",
          "type": "uint256"
        },
        {
          "indexed": false,
          "internalType": "uint256",
          "name": "postCompound",
          "type": "uint256"
        }
      ],
      "name": "Reinvested",
      "type": "event"
    },
    {
      "anonymous": false,
      "inputs": [
        {
          "indexed": false,
          "internalType": "address",
          "name": "caller",
          "type": "address"
        },
        {
          "indexed": false,
          "internalType": "uint256",
          "name": "index",
          "type": "uint256"
        },
        {
          "indexed": false,
          "internalType": "address",
          "name": "rewardToken",
          "type": "address"
        }
      ],
      "name": "RewardTokenSet",
      "type": "event"
    },
    {
      "anonymous": false,
      "inputs": [
        {
          "indexed": false,
          "internalType": "address",
          "name": "fromToken",
          "type": "address"
        },
        {
          "indexed": false,
          "internalType": "address",
          "name": "toToken",
          "type": "address"
        },
        {
          "components": [
            {
              "internalType": "address",
              "name": "protocolSwapAddress",
              "type": "address"
            },
            {
              "internalType": "uint256",
              "name": "nodeType",
              "type": "uint256"
            },
            {
              "internalType": "address",
              "name": "tokenIn",
              "type": "address"
            },
            {
              "internalType": "address",
              "name": "tokenOut",
              "type": "address"
            },
            {
              "internalType": "int128",
              "name": "_misc",
              "type": "int128"
            },
            {
              "internalType": "int128",
              "name": "_in",
              "type": "int128"
            },
            {
              "internalType": "int128",
              "name": "_out",
              "type": "int128"
            }
          ],
          "indexed": false,
          "internalType": "struct Router.Node[]",
          "name": "path",
          "type": "tuple[]"
        }
      ],
      "name": "RouteSet",
      "type": "event"
    },
    {
      "anonymous": false,
      "inputs": [
        {
          "indexed": false,
          "internalType": "address",
          "name": "caller",
          "type": "address"
        },
        {
          "indexed": false,
          "internalType": "address",
          "name": "startingTokenAddress",
          "type": "address"
        },
        {
          "indexed": false,
          "internalType": "address",
          "name": "endingTokenAddress",
          "type": "address"
        },
        {
          "indexed": false,
          "internalType": "uint256",
          "name": "amount",
          "type": "uint256"
        },
        {
          "indexed": false,
          "internalType": "uint256",
          "name": "minSwapAmount",
          "type": "uint256"
        },
        {
          "indexed": false,
          "internalType": "uint256",
          "name": "actualOut",
          "type": "uint256"
        }
      ],
      "name": "Swap",
      "type": "event"
    },
    {
      "anonymous": false,
      "inputs": [
        {
          "indexed": true,
          "internalType": "address",
          "name": "from",
          "type": "address"
        },
        {
          "indexed": true,
          "internalType": "address",
          "name": "to",
          "type": "address"
        },
        {
          "indexed": false,
          "internalType": "uint256",
          "name": "amount",
          "type": "uint256"
        }
      ],
      "name": "Transfer",
      "type": "event"
    },
    {
      "anonymous": false,
      "inputs": [
        {
          "indexed": true,
          "internalType": "address",
          "name": "caller",
          "type": "address"
        },
        {
          "indexed": true,
          "internalType": "address",
          "name": "receiver",
          "type": "address"
        },
        {
          "indexed": true,
          "internalType": "address",
          "name": "owner",
          "type": "address"
        },
        {
          "indexed": false,
          "internalType": "uint256",
          "name": "assets",
          "type": "uint256"
        },
        {
          "indexed": false,
          "internalType": "uint256",
          "name": "shares",
          "type": "uint256"
        }
      ],
      "name": "Withdraw",
      "type": "event"
    },
    {
      "stateMutability": "payable",
      "type": "fallback"
    },
    {
      "inputs": [],
      "name": "BOpsAddress",
      "outputs": [
        {
          "internalType": "address",
          "name": "",
          "type": "address"
        }
      ],
      "stateMutability": "view",
      "type": "function"
    },
    {
      "inputs": [],
      "name": "DOMAIN_SEPARATOR",
      "outputs": [
        {
          "internalType": "bytes32",
          "name": "",
          "type": "bytes32"
        }
      ],
      "stateMutability": "view",
      "type": "function"
    },
    {
      "inputs": [],
      "name": "FIRST_DONATION",
      "outputs": [
        {
          "internalType": "uint256",
          "name": "",
          "type": "uint256"
        }
      ],
      "stateMutability": "view",
      "type": "function"
    },
    {
      "inputs": [],
      "name": "MIN_FIRST_MINT",
      "outputs": [
        {
          "internalType": "uint256",
          "name": "",
          "type": "uint256"
        }
      ],
      "stateMutability": "view",
      "type": "function"
    },
    {
      "inputs": [],
      "name": "MIN_SWAP",
      "outputs": [
        {
          "internalType": "uint256",
          "name": "",
          "type": "uint256"
        }
      ],
      "stateMutability": "view",
      "type": "function"
    },
    {
      "inputs": [],
      "name": "WAVAX",
      "outputs": [
        {
          "internalType": "contract IWAVAX",
          "name": "",
          "type": "address"
        }
      ],
      "stateMutability": "view",
      "type": "function"
    },
    {
      "inputs": [],
      "name": "aaveLendingPool",
      "outputs": [
        {
          "internalType": "address",
          "name": "",
          "type": "address"
        }
      ],
      "stateMutability": "view",
      "type": "function"
    },
    {
      "inputs": [],
      "name": "aaveLendingPoolV3",
      "outputs": [
        {
          "internalType": "address",
          "name": "",
          "type": "address"
        }
      ],
      "stateMutability": "view",
      "type": "function"
    },
    {
      "inputs": [],
      "name": "adminFee",
      "outputs": [
        {
          "internalType": "uint256",
          "name": "",
          "type": "uint256"
        }
      ],
      "stateMutability": "view",
      "type": "function"
    },
    {
      "inputs": [
        {
          "internalType": "address",
          "name": "",
          "type": "address"
        },
        {
          "internalType": "address",
          "name": "",
          "type": "address"
        }
      ],
      "name": "allowance",
      "outputs": [
        {
          "internalType": "uint256",
          "name": "",
          "type": "uint256"
        }
      ],
      "stateMutability": "view",
      "type": "function"
    },
    {
      "inputs": [
        {
          "internalType": "address",
          "name": "spender",
          "type": "address"
        },
        {
          "internalType": "uint256",
          "name": "amount",
          "type": "uint256"
        }
      ],
      "name": "approve",
      "outputs": [
        {
          "internalType": "bool",
          "name": "",
          "type": "bool"
        }
      ],
      "stateMutability": "nonpayable",
      "type": "function"
    },
    {
      "inputs": [
        {
          "internalType": "address",
          "name": "",
          "type": "address"
        }
      ],
      "name": "balanceOf",
      "outputs": [
        {
          "internalType": "uint256",
          "name": "",
          "type": "uint256"
        }
      ],
      "stateMutability": "view",
      "type": "function"
    },
    {
      "inputs": [],
      "name": "callerFee",
      "outputs": [
        {
          "internalType": "uint256",
          "name": "",
          "type": "uint256"
        }
      ],
      "stateMutability": "view",
      "type": "function"
    },
    {
      "inputs": [],
      "name": "compound",
      "outputs": [
        {
          "internalType": "uint256",
          "name": "",
          "type": "uint256"
        }
      ],
      "stateMutability": "nonpayable",
      "type": "function"
    },
    {
      "inputs": [],
      "name": "decimals",
      "outputs": [
        {
          "internalType": "uint8",
          "name": "",
          "type": "uint8"
        }
      ],
      "stateMutability": "view",
      "type": "function"
    },
    {
      "inputs": [
        {
          "internalType": "address",
          "name": "_to",
          "type": "address"
        },
        {
          "internalType": "uint256",
          "name": "_amt",
          "type": "uint256"
        }
      ],
      "name": "deposit",
      "outputs": [
        {
          "internalType": "uint256",
          "name": "receiptTokens",
          "type": "uint256"
        }
      ],
      "stateMutability": "nonpayable",
      "type": "function"
    },
    {
      "inputs": [
        {
          "internalType": "uint256",
          "name": "_amt",
          "type": "uint256"
        }
      ],
      "name": "deposit",
      "outputs": [
        {
          "internalType": "uint256",
          "name": "",
          "type": "uint256"
        }
      ],
      "stateMutability": "nonpayable",
      "type": "function"
    },
    {
      "inputs": [
        {
          "internalType": "address",
          "name": "_borrower",
          "type": "address"
        },
        {
          "internalType": "address",
          "name": "_to",
          "type": "address"
        },
        {
          "internalType": "uint256",
          "name": "_amt",
          "type": "uint256"
        }
      ],
      "name": "depositFor",
      "outputs": [
        {
          "internalType": "uint256",
          "name": "receiptTokens",
          "type": "uint256"
        }
      ],
      "stateMutability": "nonpayable",
      "type": "function"
    },
    {
      "inputs": [
        {
          "internalType": "uint256",
          "name": "_amt",
          "type": "uint256"
        },
        {
          "internalType": "uint256",
          "name": "_value",
          "type": "uint256"
        },
        {
          "internalType": "uint256",
          "name": "_deadline",
          "type": "uint256"
        },
        {
          "internalType": "uint8",
          "name": "_v",
          "type": "uint8"
        },
        {
          "internalType": "bytes32",
          "name": "_r",
          "type": "bytes32"
        },
        {
          "internalType": "bytes32",
          "name": "_s",
          "type": "bytes32"
        }
      ],
      "name": "depositWithPermit",
      "outputs": [
        {
          "internalType": "uint256",
          "name": "receiptTokens",
          "type": "uint256"
        }
      ],
      "stateMutability": "nonpayable",
      "type": "function"
    },
    {
      "inputs": [
        {
          "internalType": "uint256",
          "name": "_index",
          "type": "uint256"
        }
      ],
      "name": "deprecateRewardToken",
      "outputs": [],
      "stateMutability": "nonpayable",
      "type": "function"
    },
    {
      "inputs": [
        {
          "internalType": "uint256",
          "name": "_amt",
          "type": "uint256"
        }
      ],
      "name": "emergencyRedeem",
      "outputs": [
        {
          "internalType": "uint256",
          "name": "amtToReturn",
          "type": "uint256"
        }
      ],
      "stateMutability": "nonpayable",
      "type": "function"
    },
    {
      "inputs": [],
      "name": "feeRecipient",
      "outputs": [
        {
          "internalType": "address",
          "name": "",
          "type": "address"
        }
      ],
      "stateMutability": "view",
      "type": "function"
    },
    {
      "inputs": [
        {
          "internalType": "uint256",
          "name": "_ind",
          "type": "uint256"
        }
      ],
      "name": "getRewardToken",
      "outputs": [
        {
          "internalType": "address",
          "name": "",
          "type": "address"
        }
      ],
      "stateMutability": "view",
      "type": "function"
    },
    {
      "inputs": [
        {
          "internalType": "address",
          "name": "_underlying",
          "type": "address"
        },
        {
          "internalType": "string",
          "name": "_name",
          "type": "string"
        },
        {
          "internalType": "string",
          "name": "_symbol",
          "type": "string"
        },
        {
          "internalType": "uint256",
          "name": "_adminFee",
          "type": "uint256"
        },
        {
          "internalType": "uint256",
          "name": "_callerFee",
          "type": "uint256"
        },
        {
          "internalType": "uint256",
          "name": "_maxReinvestStale",
          "type": "uint256"
        },
        {
          "internalType": "address",
          "name": "_WAVAX",
          "type": "address"
        }
      ],
      "name": "initialize",
      "outputs": [],
      "stateMutability": "nonpayable",
      "type": "function"
    },
    {
      "inputs": [],
      "name": "lastReinvestTime",
      "outputs": [
        {
          "internalType": "uint256",
          "name": "",
          "type": "uint256"
        }
      ],
      "stateMutability": "view",
      "type": "function"
    },
    {
      "inputs": [],
      "name": "lastsAVAXUnderlyingBalance",
      "outputs": [
        {
          "internalType": "uint256",
          "name": "",
          "type": "uint256"
        }
      ],
      "stateMutability": "view",
      "type": "function"
    },
    {
      "inputs": [],
      "name": "maxReinvestStale",
      "outputs": [
        {
          "internalType": "uint256",
          "name": "",
          "type": "uint256"
        }
      ],
      "stateMutability": "view",
      "type": "function"
    },
    {
      "inputs": [],
      "name": "name",
      "outputs": [
        {
          "internalType": "string",
          "name": "",
          "type": "string"
        }
      ],
      "stateMutability": "view",
      "type": "function"
    },
    {
      "inputs": [
        {
          "internalType": "address",
          "name": "",
          "type": "address"
        }
      ],
      "name": "nonces",
      "outputs": [
        {
          "internalType": "uint256",
          "name": "",
          "type": "uint256"
        }
      ],
      "stateMutability": "view",
      "type": "function"
    },
    {
      "inputs": [],
      "name": "numRewardTokens",
      "outputs": [
        {
          "internalType": "uint256",
          "name": "",
          "type": "uint256"
        }
      ],
      "stateMutability": "view",
      "type": "function"
    },
    {
      "inputs": [],
      "name": "owner",
      "outputs": [
        {
          "internalType": "address",
          "name": "",
          "type": "address"
        }
      ],
      "stateMutability": "view",
      "type": "function"
    },
    {
      "inputs": [
        {
          "internalType": "address",
          "name": "owner",
          "type": "address"
        },
        {
          "internalType": "address",
          "name": "spender",
          "type": "address"
        },
        {
          "internalType": "uint256",
          "name": "value",
          "type": "uint256"
        },
        {
          "internalType": "uint256",
          "name": "deadline",
          "type": "uint256"
        },
        {
          "internalType": "uint8",
          "name": "v",
          "type": "uint8"
        },
        {
          "internalType": "bytes32",
          "name": "r",
          "type": "bytes32"
        },
        {
          "internalType": "bytes32",
          "name": "s",
          "type": "bytes32"
        }
      ],
      "name": "permit",
      "outputs": [],
      "stateMutability": "nonpayable",
      "type": "function"
    },
    {
      "inputs": [
        {
          "internalType": "address",
          "name": "_token",
          "type": "address"
        }
      ],
      "name": "pushRewardToken",
      "outputs": [],
      "stateMutability": "nonpayable",
      "type": "function"
    },
    {
      "inputs": [],
      "name": "receiptPerUnderlying",
      "outputs": [
        {
          "internalType": "uint256",
          "name": "",
          "type": "uint256"
        }
      ],
      "stateMutability": "view",
      "type": "function"
    },
    {
      "inputs": [
        {
          "internalType": "address",
          "name": "_to",
          "type": "address"
        },
        {
          "internalType": "uint256",
          "name": "_amt",
          "type": "uint256"
        }
      ],
      "name": "redeem",
      "outputs": [
        {
          "internalType": "uint256",
          "name": "amtToReturn",
          "type": "uint256"
        }
      ],
      "stateMutability": "nonpayable",
      "type": "function"
    },
    {
      "inputs": [
        {
          "internalType": "uint256",
          "name": "_amt",
          "type": "uint256"
        }
      ],
      "name": "redeem",
      "outputs": [
        {
          "internalType": "uint256",
          "name": "",
          "type": "uint256"
        }
      ],
      "stateMutability": "nonpayable",
      "type": "function"
    },
    {
      "inputs": [
        {
          "internalType": "uint256",
          "name": "_amt",
          "type": "uint256"
        },
        {
          "internalType": "address",
          "name": "_from",
          "type": "address"
        },
        {
          "internalType": "address",
          "name": "_to",
          "type": "address"
        }
      ],
      "name": "redeemFor",
      "outputs": [
        {
          "internalType": "uint256",
          "name": "amtToReturn",
          "type": "uint256"
        }
      ],
      "stateMutability": "nonpayable",
      "type": "function"
    },
    {
      "inputs": [
        {
          "internalType": "uint256",
          "name": "_amt",
          "type": "uint256"
        },
        {
          "internalType": "address",
          "name": "_from",
          "type": "address"
        },
        {
          "internalType": "address",
          "name": "_to",
          "type": "address"
        },
        {
          "internalType": "uint256",
          "name": "_value",
          "type": "uint256"
        },
        {
          "internalType": "uint256",
          "name": "_deadline",
          "type": "uint256"
        },
        {
          "internalType": "uint8",
          "name": "_v",
          "type": "uint8"
        },
        {
          "internalType": "bytes32",
          "name": "_r",
          "type": "bytes32"
        },
        {
          "internalType": "bytes32",
          "name": "_s",
          "type": "bytes32"
        }
      ],
      "name": "redeemForWithPermit",
      "outputs": [
        {
          "internalType": "uint256",
          "name": "",
          "type": "uint256"
        }
      ],
      "stateMutability": "nonpayable",
      "type": "function"
    },
    {
      "inputs": [],
      "name": "renounceOwnership",
      "outputs": [],
      "stateMutability": "nonpayable",
      "type": "function"
    },
    {
      "inputs": [
        {
          "internalType": "uint256",
          "name": "",
          "type": "uint256"
        }
      ],
      "name": "rewardTokens",
      "outputs": [
        {
          "internalType": "address",
          "name": "",
          "type": "address"
        }
      ],
      "stateMutability": "view",
      "type": "function"
    },
    {
      "inputs": [
        {
          "internalType": "address",
          "name": "",
          "type": "address"
        },
        {
          "internalType": "address",
          "name": "",
          "type": "address"
        },
        {
          "internalType": "uint256",
          "name": "",
          "type": "uint256"
        }
      ],
      "name": "routes",
      "outputs": [
        {
          "internalType": "address",
          "name": "protocolSwapAddress",
          "type": "address"
        },
        {
          "internalType": "uint256",
          "name": "nodeType",
          "type": "uint256"
        },
        {
          "internalType": "address",
          "name": "tokenIn",
          "type": "address"
        },
        {
          "internalType": "address",
          "name": "tokenOut",
          "type": "address"
        },
        {
          "internalType": "int128",
          "name": "_misc",
          "type": "int128"
        },
        {
          "internalType": "int128",
          "name": "_in",
          "type": "int128"
        },
        {
          "internalType": "int128",
          "name": "_out",
          "type": "int128"
        }
      ],
      "stateMutability": "view",
      "type": "function"
    },
    {
      "inputs": [
        {
          "internalType": "address",
          "name": "_aaveLendingPool",
          "type": "address"
        },
        {
          "internalType": "address",
          "name": "_aaveLendingPoolV3",
          "type": "address"
        }
      ],
      "name": "setAAVE",
      "outputs": [],
      "stateMutability": "nonpayable",
      "type": "function"
    },
    {
      "inputs": [
        {
          "internalType": "address",
          "name": "_token",
          "type": "address"
        },
        {
          "internalType": "address",
          "name": "_who",
          "type": "address"
        },
        {
          "internalType": "uint256",
          "name": "_amount",
          "type": "uint256"
        }
      ],
      "name": "setApprovals",
      "outputs": [],
      "stateMutability": "nonpayable",
      "type": "function"
    },
    {
      "inputs": [
        {
          "internalType": "address",
          "name": "_BOpsAddress",
          "type": "address"
        }
      ],
      "name": "setBOps",
      "outputs": [],
      "stateMutability": "nonpayable",
      "type": "function"
    },
    {
      "inputs": [
        {
          "internalType": "uint256",
          "name": "_adminFee",
          "type": "uint256"
        },
        {
          "internalType": "uint256",
          "name": "_callerFee",
          "type": "uint256"
        }
      ],
      "name": "setFee",
      "outputs": [],
      "stateMutability": "nonpayable",
      "type": "function"
    },
    {
      "inputs": [
        {
          "internalType": "address",
          "name": "_feeRecipient",
          "type": "address"
        }
      ],
      "name": "setFeeRecipient",
      "outputs": [],
      "stateMutability": "nonpayable",
      "type": "function"
    },
    {
      "inputs": [
        {
          "internalType": "address",
          "name": "_traderJoeRouter",
          "type": "address"
        }
      ],
      "name": "setJoeRouter",
      "outputs": [],
      "stateMutability": "nonpayable",
      "type": "function"
    },
    {
      "inputs": [
        {
          "internalType": "address",
          "name": "_fromToken",
          "type": "address"
        },
        {
          "internalType": "address",
          "name": "_toToken",
          "type": "address"
        },
        {
          "components": [
            {
              "internalType": "address",
              "name": "protocolSwapAddress",
              "type": "address"
            },
            {
              "internalType": "uint256",
              "name": "nodeType",
              "type": "uint256"
            },
            {
              "internalType": "address",
              "name": "tokenIn",
              "type": "address"
            },
            {
              "internalType": "address",
              "name": "tokenOut",
              "type": "address"
            },
            {
              "internalType": "int128",
              "name": "_misc",
              "type": "int128"
            },
            {
              "internalType": "int128",
              "name": "_in",
              "type": "int128"
            },
            {
              "internalType": "int128",
              "name": "_out",
              "type": "int128"
            }
          ],
          "internalType": "struct Router.Node[]",
          "name": "_path",
          "type": "tuple[]"
        }
      ],
      "name": "setRoute",
      "outputs": [],
      "stateMutability": "nonpayable",
      "type": "function"
    },
    {
      "inputs": [
        {
          "internalType": "uint256",
          "name": "_maxReinvestStale",
          "type": "uint256"
        }
      ],
      "name": "setStale",
      "outputs": [],
      "stateMutability": "nonpayable",
      "type": "function"
    },
    {
      "inputs": [],
      "name": "symbol",
      "outputs": [
        {
          "internalType": "string",
          "name": "",
          "type": "string"
        }
      ],
      "stateMutability": "view",
      "type": "function"
    },
    {
      "inputs": [],
      "name": "totalHoldings",
      "outputs": [
        {
          "internalType": "uint256",
          "name": "",
          "type": "uint256"
        }
      ],
      "stateMutability": "nonpayable",
      "type": "function"
    },
    {
      "inputs": [],
      "name": "totalSupply",
      "outputs": [
        {
          "internalType": "uint256",
          "name": "",
          "type": "uint256"
        }
      ],
      "stateMutability": "view",
      "type": "function"
    },
    {
      "inputs": [],
      "name": "traderJoeRouter",
      "outputs": [
        {
          "internalType": "address",
          "name": "",
          "type": "address"
        }
      ],
      "stateMutability": "view",
      "type": "function"
    },
    {
      "inputs": [
        {
          "internalType": "address",
          "name": "to",
          "type": "address"
        },
        {
          "internalType": "uint256",
          "name": "amount",
          "type": "uint256"
        }
      ],
      "name": "transfer",
      "outputs": [
        {
          "internalType": "bool",
          "name": "",
          "type": "bool"
        }
      ],
      "stateMutability": "nonpayable",
      "type": "function"
    },
    {
      "inputs": [
        {
          "internalType": "address",
          "name": "from",
          "type": "address"
        },
        {
          "internalType": "address",
          "name": "to",
          "type": "address"
        },
        {
          "internalType": "uint256",
          "name": "amount",
          "type": "uint256"
        }
      ],
      "name": "transferFrom",
      "outputs": [
        {
          "internalType": "bool",
          "name": "",
          "type": "bool"
        }
      ],
      "stateMutability": "nonpayable",
      "type": "function"
    },
    {
      "inputs": [
        {
          "internalType": "address",
          "name": "newOwner",
          "type": "address"
        }
      ],
      "name": "transferOwnership",
      "outputs": [],
      "stateMutability": "nonpayable",
      "type": "function"
    },
    {
      "inputs": [],
      "name": "underlying",
      "outputs": [
        {
          "internalType": "contract ERC20",
          "name": "",
          "type": "address"
        }
      ],
      "stateMutability": "view",
      "type": "function"
    },
    {
      "inputs": [],
      "name": "underlyingDecimal",
      "outputs": [
        {
          "internalType": "uint256",
          "name": "",
          "type": "uint256"
        }
      ],
      "stateMutability": "view",
      "type": "function"
    },
    {
      "inputs": [],
      "name": "underlyingPerReceipt",
      "outputs": [
        {
          "internalType": "uint256",
          "name": "",
          "type": "uint256"
        }
      ],
      "stateMutability": "view",
      "type": "function"
    },
    {
      "inputs": [
        {
          "internalType": "uint256",
          "name": "_amt",
          "type": "uint256"
        }
      ],
      "name": "withdraw",
      "outputs": [
        {
          "internalType": "uint256",
          "name": "",
          "type": "uint256"
        }
      ],
      "stateMutability": "nonpayable",
      "type": "function"
    },
    {
      "inputs": [
        {
          "internalType": "uint256",
          "name": "_amt",
          "type": "uint256"
        },
        {
          "internalType": "address",
          "name": "_from",
          "type": "address"
        },
        {
          "internalType": "address",
          "name": "_to",
          "type": "address"
        }
      ],
      "name": "withdrawFor",
      "outputs": [
        {
          "internalType": "uint256",
          "name": "",
          "type": "uint256"
        }
      ],
      "stateMutability": "nonpayable",
      "type": "function"
    }
  ],
  "bytecode": {
    "object": "0x608060405234801561001057600080fd5b5061658d80620000216000396000f3fe6080604052600436106103755760003560e01c806373aeea36116101cf578063bf56700a11610101578063e0794ec51161009a578063e9ec2e991161006c578063e9ec2e9914610aa6578063f2fde38b14610abb578063f69e204614610adb578063f74877b514610af057005b8063e0794ec514610a31578063e32d5cf814610a46578063e74b981b14610a66578063e9d337b814610a8657005b8063d505accf116100d3578063d505accf146109c3578063db006a75146104c4578063dd62ed3e146109e3578063dfa2b90114610a1b57005b8063bf56700a14610956578063c5c7003514610976578063cb8dd1d71461098e578063cc6e8112146109a357005b80639203430e11610173578063a9059cbb11610145578063a9059cbb146108dd578063b3533793146108fd578063b3db428b14610916578063b6b55f251461093657005b80639203430e1461087257806395d89b4114610892578063a0be06f9146108a7578063a57f8cb7146108bd57005b80637bb7bed1116101ac5780637bb7bed1146107f15780637ecebe001461081157806385a393bb1461083e5780638da5cb5b1461085457005b806373aeea361461079657806373b295c2146107b65780637b5dbbdd146107d657005b806346904840116102a8578063515bc3231161024c578063647f34301161021e578063647f3430146107145780636f307dc31461073457806370a0823114610754578063715018a61461078157005b8063515bc3231461064757806352f7c988146106675780635c0bfa8814610687578063600c557d146106a757005b80634cdf0392116102855780634cdf0392146105d05780634d0b0ed0146105f05780634fb15b3f14610607578063504a75de1461062757005b8063469048401461057b57806347e7ef241461059b5780634a7e5cbb146105bb57005b80631e9a69501161031a578063313ce567116102ec578063313ce5671461050457806334d441d0146105305780633644e515146105465780633d61b2861461055b57005b80631e9a69501461048457806323b872dd146104a45780632e1a7d4d146104c45780632faff427146104e457005b8063134b6edb11610353578063134b6edb146103f257806318160ddd1461042a57806319b333e51461044e5780631e0b80531461046457005b8063026b49a71461037757806306fdde0314610397578063095ea7b3146103c2575b005b34801561038357600080fd5b50610375610392366004615860565b610b10565b3480156103a357600080fd5b506103ac610b9e565b6040516103b991906158ca565b60405180910390f35b3480156103ce57600080fd5b506103e26103dd3660046158dd565b610c2c565b60405190151581526020016103b9565b3480156103fe57600080fd5b5061041261040d366004615909565b610c99565b6040516001600160a01b0390911681526020016103b9565b34801561043657600080fd5b5061044060035481565b6040519081526020016103b9565b34801561045a57600080fd5b5061044060d75481565b34801561047057600080fd5b5061037561047f366004615909565b610cc9565b34801561049057600080fd5b5061044061049f3660046158dd565b610dba565b3480156104b057600080fd5b506103e26104bf366004615922565b610eda565b3480156104d057600080fd5b506104406104df366004615909565b610fce565b3480156104f057600080fd5b50606e54610412906001600160a01b031681565b34801561051057600080fd5b5060025461051e9060ff1681565b60405160ff90911681526020016103b9565b34801561053c57600080fd5b5061044060db5481565b34801561055257600080fd5b50610440610fda565b34801561056757600080fd5b50610440610576366004615909565b610ff9565b34801561058757600080fd5b5060d954610412906001600160a01b031681565b3480156105a757600080fd5b506104406105b63660046158dd565b6110ee565b3480156105c757600080fd5b5060d654610440565b3480156105dc57600080fd5b506103756105eb366004615a06565b6112f1565b3480156105fc57600080fd5b5061044061010f5481565b34801561061357600080fd5b50610440610622366004615aae565b61149b565b34801561063357600080fd5b50610440610642366004615aff565b6114b0565b34801561065357600080fd5b50610440610662366004615b79565b6114d9565b34801561067357600080fd5b50610375610682366004615bcc565b61158f565b34801561069357600080fd5b506104406106a2366004615aae565b61160f565b3480156106b357600080fd5b506106c76106c2366004615922565b6117a7565b604080516001600160a01b039889168152602081019790975294871694860194909452919094166060840152600f93840b6080840152830b60a083015290910b60c082015260e0016103b9565b34801561072057600080fd5b5061037561072f366004615860565b611837565b34801561074057600080fd5b5060d554610412906001600160a01b031681565b34801561076057600080fd5b5061044061076f366004615860565b60046020526000908152604090205481565b34801561078d57600080fd5b506103756118c0565b3480156107a257600080fd5b506103756107b1366004615bee565b611926565b3480156107c257600080fd5b5060dd54610412906001600160a01b031681565b3480156107e257600080fd5b50610440662386f26fc1000081565b3480156107fd57600080fd5b5061041261080c366004615909565b611a79565b34801561081d57600080fd5b5061044061082c366004615860565b60086020526000908152604090205481565b34801561084a57600080fd5b5061044060d85481565b34801561086057600080fd5b50603c546001600160a01b0316610412565b34801561087e57600080fd5b50607154610412906001600160a01b031681565b34801561089e57600080fd5b506103ac611aa3565b3480156108b357600080fd5b5061044060da5481565b3480156108c957600080fd5b506103756108d8366004615860565b611ab0565b3480156108e957600080fd5b506103e26108f83660046158dd565b611bbf565b34801561090957600080fd5b5061044064e8d4a5100081565b34801561092257600080fd5b50610440610931366004615922565b611c37565b34801561094257600080fd5b50610440610951366004615909565b611e86565b34801561096257600080fd5b50610375610971366004615c83565b611e92565b34801561098257600080fd5b506104406305f5e10081565b34801561099a57600080fd5b50610440611f27565b3480156109af57600080fd5b5060dc54610412906001600160a01b031681565b3480156109cf57600080fd5b506103756109de366004615cbc565b611fcd565b3480156109ef57600080fd5b506104406109fe366004615c83565b600560209081526000928352604080842090915290825290205481565b348015610a2757600080fd5b5061044060d45481565b348015610a3d57600080fd5b5061044061223b565b348015610a5257600080fd5b50610375610a61366004615922565b6122e2565b348015610a7257600080fd5b50610375610a81366004615860565b6123ce565b348015610a9257600080fd5b50606f54610412906001600160a01b031681565b348015610ab257600080fd5b50610440612457565b348015610ac757600080fd5b50610375610ad6366004615860565b61252d565b348015610ae757600080fd5b5061044061260f565b348015610afc57600080fd5b50610375610b0b366004615909565b61267b565b603c546001600160a01b03163314610b6f5760405162461bcd60e51b815260206004820181905260248201527f4f776e61626c653a2063616c6c6572206973206e6f7420746865206f776e657260448201526064015b60405180910390fd5b606e805473ffffffffffffffffffffffffffffffffffffffff19166001600160a01b0392909216919091179055565b60008054610bab90615d2d565b80601f0160208091040260200160405190810160405280929190818152602001828054610bd790615d2d565b8015610c245780601f10610bf957610100808354040283529160200191610c24565b820191906000526020600020905b815481529060010190602001808311610c0757829003601f168201915b505050505081565b3360008181526005602090815260408083206001600160a01b038716808552925280832085905551919290917f8c5be1e5ebec7d5bd14f71427d1e84f3dd0314c0f7b2291e5b200ac8c7c3b92590610c879086815260200190565b60405180910390a35060015b92915050565b600060d68281548110610cae57610cae615d62565b6000918252602090912001546001600160a01b031692915050565b603c546001600160a01b03163314610d235760405162461bcd60e51b815260206004820181905260248201527f4f776e61626c653a2063616c6c6572206973206e6f7420746865206f776e65726044820152606401610b66565b60d6548110610d745760405162461bcd60e51b815260206004820152600d60248201527f4f7574206f6620626f756e6473000000000000000000000000000000000000006044820152606401610b66565b600060d68281548110610d8957610d89615d62565b9060005260206000200160006101000a8154816001600160a01b0302191690836001600160a01b0316021790555050565b6000600260a2541415610e0f5760405162461bcd60e51b815260206004820152601f60248201527f5265656e7472616e637947756172643a207265656e7472616e742063616c6c006044820152606401610b66565b600260a25560d85460d754610e249190615d8e565b421115610e3557610e336126da565b505b670de0b6b3a764000082610e47611f27565b610e519190615da6565b610e5b9190615dc5565b9050610e6681612c54565b610e703383612d3c565b60d554610e87906001600160a01b03168483612db8565b604080518281526020810184905233916001600160a01b0386169183917ffbde797d201c681b91056529119e0b02407c7bb96a4a2c75c01fc9667232c8db910160405180910390a4600160a25592915050565b6001600160a01b03831660009081526005602090815260408083203384529091528120546000198114610f3657610f118382615de7565b6001600160a01b03861660009081526005602090815260408083203384529091529020555b6001600160a01b03851660009081526004602052604081208054859290610f5e908490615de7565b90915550506001600160a01b03808516600081815260046020526040908190208054870190555190918716907fddf252ad1be2c89b69c2b068fc378daa952ba7f163c4a11628f55a4df523b3ef90610fb99087815260200190565b60405180910390a360019150505b9392505050565b6000610c933383610dba565b60006006544614610ff257610fed612e57565b905090565b5060075490565b6000600260a254141561104e5760405162461bcd60e51b815260206004820152601f60248201527f5265656e7472616e637947756172643a207265656e7472616e742063616c6c006044820152606401610b66565b600260a255670de0b6b3a764000082611065611f27565b61106f9190615da6565b6110799190615dc5565b905061108481612c54565b61108e3383612d3c565b60d5546110a5906001600160a01b03163383612db8565b60408051828152602081018490523391829182917ffbde797d201c681b91056529119e0b02407c7bb96a4a2c75c01fc9667232c8db910160405180910390a4600160a255919050565b6000600260a25414156111435760405162461bcd60e51b815260206004820152601f60248201527f5265656e7472616e637947756172643a207265656e7472616e742063616c6c006044820152606401610b66565b600260a255816111955760405162461bcd60e51b815260206004820152600860248201527f3020746f6b656e730000000000000000000000000000000000000000000000006044820152606401610b66565b60d85460d7546111a59190615d8e565b4211156111b6576111b46126da565b505b81670de0b6b3a7640000816111c961223b565b6111d39190615da6565b6111dd9190615dc5565b9150600354600014156112275764e8d4a510008210156111fc57600080fd5b60d954611216906001600160a01b03166305f5e100612ef1565b6112246305f5e10083615de7565b91505b816112745760405162461bcd60e51b815260206004820152600a60248201527f30207265636569766564000000000000000000000000000000000000000000006044820152606401610b66565b60d55461128c906001600160a01b0316333086612f55565b61129583613001565b61129f8483612ef1565b60408051848152602081018490526001600160a01b0386169133917fdcbc1c05240f31ff3ad067ef1ee35ce4997762752e3a095284754544f4c709d7910160405180910390a350600160a25592915050565b60006112fd6001613075565b9050801561133257600980547fffffffffffffffffffffffffffffffffffffffffffffffffffffffffffff00ff166101001790555b61133a6131b0565b611342613235565b61134e878760126132ba565b60d5805473ffffffffffffffffffffffffffffffffffffffff19166001600160a01b038a16908117909155604080517f313ce567000000000000000000000000000000000000000000000000000000008152905163313ce567916004808201926020929091908290030181865afa1580156113cd573d6000803e3d6000fd5b505050506040513d601f19601f820116820180604052508101906113f19190615dfe565b60ff1660d455611401858561158f565b60d883905560dd805473ffffffffffffffffffffffffffffffffffffffff19166001600160a01b038416179055801561149157600980547fffffffffffffffffffffffffffffffffffffffffffffffffffffffffffff00ff169055604051600181527f7f26b83ff96e1f2b6a682f133852f6798a09c465da95921460cefb38474024989060200160405180910390a15b5050505050505050565b60006114a884848461160f565b949350505050565b60006114c188338888888888611fcd565b6114cc89898961160f565b9998505050505050505050565b60d5546040517fd505accf000000000000000000000000000000000000000000000000000000008152336004820152306024820152604481018790526064810186905260ff8516608482015260a4810184905260c481018390526000916001600160a01b03169063d505accf9060e401600060405180830381600087803b15801561156357600080fd5b505af1158015611577573d6000803e3d6000fd5b5050505061158487611e86565b979650505050505050565b603c546001600160a01b031633146115e95760405162461bcd60e51b815260206004820181905260248201527f4f776e61626c653a2063616c6c6572206973206e6f7420746865206f776e65726044820152606401610b66565b612710821080156115fb575061271081105b61160457600080fd5b60da9190915560db55565b6000600260a25414156116645760405162461bcd60e51b815260206004820152601f60248201527f5265656e7472616e637947756172643a207265656e7472616e742063616c6c006044820152606401610b66565b600260a25560d85460d7546116799190615d8e565b42111561168a576116886126da565b505b6001600160a01b038316600090815260056020908152604080832033845290915290205460001981148015906116c95750336001600160a01b03851614155b156116fd576116d88582615de7565b6001600160a01b03851660009081526005602090815260408083203384529091529020555b670de0b6b3a76400008561170f611f27565b6117199190615da6565b6117239190615dc5565b915061172e82612c54565b6117388486612d3c565b60d55461174f906001600160a01b03168484612db8565b60408051838152602081018790526001600160a01b03808716929086169133917ffbde797d201c681b91056529119e0b02407c7bb96a4a2c75c01fc9667232c8db910160405180910390a450600160a2559392505050565b607060205282600052604060002060205281600052604060002081815481106117cf57600080fd5b60009182526020909120600690910201805460018201546002830154600384015460048501546005909501546001600160a01b039485169850929650908316945090911691600f81810b92700100000000000000000000000000000000909204810b91900b87565b603c546001600160a01b031633146118915760405162461bcd60e51b815260206004820181905260248201527f4f776e61626c653a2063616c6c6572206973206e6f7420746865206f776e65726044820152606401610b66565b60dc805473ffffffffffffffffffffffffffffffffffffffff19166001600160a01b0392909216919091179055565b603c546001600160a01b0316331461191a5760405162461bcd60e51b815260206004820181905260248201527f4f776e61626c653a2063616c6c6572206973206e6f7420746865206f776e65726044820152606401610b66565b6119246000613305565b565b603c546001600160a01b031633146119805760405162461bcd60e51b815260206004820181905260248201527f4f776e61626c653a2063616c6c6572206973206e6f7420746865206f776e65726044820152606401610b66565b6001600160a01b03808516600090815260706020908152604080832093871683529290529081206119b091615715565b60005b81811015611a35576001600160a01b0380861660009081526070602090815260408083209388168352929052208383838181106119f2576119f2615d62565b83546001810185556000948552602090942060e090910292909201926006029091019050611a208282615e37565b50508080611a2d90615fd6565b9150506119b3565b507f01aa5c4f582e572c83ccd23ac58ee02c7e51aceb9d47d02987f31536b352992f84848484604051611a6b9493929190615ffc565b60405180910390a150505050565b60d68181548110611a8957600080fd5b6000918252602090912001546001600160a01b0316905081565b60018054610bab90615d2d565b603c546001600160a01b03163314611b0a5760405162461bcd60e51b815260206004820181905260248201527f4f776e61626c653a2063616c6c6572206973206e6f7420746865206f776e65726044820152606401610b66565b6001600160a01b038116611b605760405162461bcd60e51b815260206004820152600960248201527f30206164647265737300000000000000000000000000000000000000000000006044820152606401610b66565b60d680546001810182556000919091527fe767803f8ecf1dee6bb0345811f7312cda556058b19db6389ad9ae3568643ddd01805473ffffffffffffffffffffffffffffffffffffffff19166001600160a01b0392909216919091179055565b33600090815260046020526040812080548391908390611be0908490615de7565b90915550506001600160a01b038316600081815260046020526040908190208054850190555133907fddf252ad1be2c89b69c2b068fc378daa952ba7f163c4a11628f55a4df523b3ef90610c879086815260200190565b6000600260a2541415611c8c5760405162461bcd60e51b815260206004820152601f60248201527f5265656e7472616e637947756172643a207265656e7472616e742063616c6c006044820152606401610b66565b600260a25560dc546001600160a01b03163314611ceb5760405162461bcd60e51b815260206004820152600960248201527f424f7073206f6e6c7900000000000000000000000000000000000000000000006044820152606401610b66565b60008211611d3b5760405162461bcd60e51b815260206004820152600860248201527f3020746f6b656e730000000000000000000000000000000000000000000000006044820152606401610b66565b60d85460d754611d4b9190615d8e565b421115611d5c57611d5a6126da565b505b81670de0b6b3a764000081611d6f61223b565b611d799190615da6565b611d839190615dc5565b915081611df85760405162461bcd60e51b815260206004820152603760248201527f4465706f73697420616d6f756e7420746f6f20736d616c6c2c20796f7520776960448201527f6c6c206765742030207265636569707420746f6b656e730000000000000000006064820152608401610b66565b60d554611e10906001600160a01b0316863086612f55565b611e1983613001565b611e238483612ef1565b836001600160a01b0316856001600160a01b03167fdcbc1c05240f31ff3ad067ef1ee35ce4997762752e3a095284754544f4c709d78585604051611e71929190918252602082015260400190565b60405180910390a350600160a2559392505050565b6000610c9333836110ee565b603c546001600160a01b03163314611eec5760405162461bcd60e51b815260206004820181905260248201527f4f776e61626c653a2063616c6c6572206973206e6f7420746865206f776e65726044820152606401610b66565b606f80546001600160a01b0393841673ffffffffffffffffffffffffffffffffffffffff199182161790915560718054929093169116179055565b600060035460001415611f425760d454610fed90600a6161d3565b60035460d5546040516370a0823160e01b81523060048201526001600160a01b03909116906370a0823190602401602060405180830381865afa158015611f8d573d6000803e3d6000fd5b505050506040513d601f19601f82011682018060405250810190611fb191906161df565b611fc390670de0b6b3a7640000615da6565b610fed9190615dc5565b4284101561201d5760405162461bcd60e51b815260206004820152601760248201527f5045524d49545f444541444c494e455f455850495245440000000000000000006044820152606401610b66565b60006001612029610fda565b6001600160a01b038a811660008181526008602090815260409182902080546001810190915582517f6e71edae12b1b97f4d1f60370fef10105fa2faae0126114a169c64845d6126c98184015280840194909452938d166060840152608083018c905260a083019390935260c08083018b90528151808403909101815260e0830190915280519201919091207f19010000000000000000000000000000000000000000000000000000000000006101008301526101028201929092526101228101919091526101420160408051601f198184030181528282528051602091820120600084529083018083525260ff871690820152606081018590526080810184905260a0016020604051602081039080840390855afa158015612150573d6000803e3d6000fd5b5050604051601f1901519150506001600160a01b038116158015906121865750876001600160a01b0316816001600160a01b0316145b6121d25760405162461bcd60e51b815260206004820152600e60248201527f494e56414c49445f5349474e45520000000000000000000000000000000000006044820152606401610b66565b6001600160a01b0390811660009081526005602090815260408083208a8516808552908352928190208990555188815291928a16917f8c5be1e5ebec7d5bd14f71427d1e84f3dd0314c0f7b2291e5b200ac8c7c3b925910160405180910390a350505050505050565b6000600354600014156122615760d454612256906024615de7565b610fed90600a6161d3565b60d5546040516370a0823160e01b81523060048201526001600160a01b03909116906370a0823190602401602060405180830381865afa1580156122a9573d6000803e3d6000fd5b505050506040513d601f19601f820116820180604052508101906122cd91906161df565b600354611fc390670de0b6b3a7640000615da6565b603c546001600160a01b0316331461233c5760405162461bcd60e51b815260206004820181905260248201527f4f776e61626c653a2063616c6c6572206973206e6f7420746865206f776e65726044820152606401610b66565b6040517f095ea7b30000000000000000000000000000000000000000000000000000000081526001600160a01b0383811660048301526024820183905284169063095ea7b3906044016020604051808303816000875af11580156123a4573d6000803e3d6000fd5b505050506040513d601f19601f820116820180604052508101906123c891906161f8565b50505050565b603c546001600160a01b031633146124285760405162461bcd60e51b815260206004820181905260248201527f4f776e61626c653a2063616c6c6572206973206e6f7420746865206f776e65726044820152606401610b66565b60d9805473ffffffffffffffffffffffffffffffffffffffff19166001600160a01b0392909216919091179055565b60d5546040516370a0823160e01b81523060048201526000916001600160a01b031690634a36d6c19082906370a0823190602401602060405180830381865afa1580156124a8573d6000803e3d6000fd5b505050506040513d601f19601f820116820180604052508101906124cc91906161df565b6040518263ffffffff1660e01b81526004016124ea91815260200190565b6020604051808303816000875af1158015612509573d6000803e3d6000fd5b505050506040513d601f19601f82011682018060405250810190610fed91906161df565b603c546001600160a01b031633146125875760405162461bcd60e51b815260206004820181905260248201527f4f776e61626c653a2063616c6c6572206973206e6f7420746865206f776e65726044820152606401610b66565b6001600160a01b0381166126035760405162461bcd60e51b815260206004820152602660248201527f4f776e61626c653a206e6577206f776e657220697320746865207a65726f206160448201527f64647265737300000000000000000000000000000000000000000000000000006064820152608401610b66565b61260c81613305565b50565b6000600260a25414156126645760405162461bcd60e51b815260206004820152601f60248201527f5265656e7472616e637947756172643a207265656e7472616e742063616c6c006044820152606401610b66565b600260a2556126716126da565b9050600160a25590565b603c546001600160a01b031633146126d55760405162461bcd60e51b815260206004820181905260248201527f4f776e61626c653a2063616c6c6572206973206e6f7420746865206f776e65726044820152606401610b66565b60d855565b60d5544260d7556000906001600160a01b0316816126f861010f5490565b905060005b60d6548110156129f35760006001600160a01b031660d6828154811061272557612725615d62565b6000918252602090912001546001600160a01b0316146129e157826001600160a01b031660d6828154811061275c5761275c615d62565b6000918252602090912001546001600160a01b0316141561277c576129e1565b60016001600160a01b031660d6828154811061279a5761279a615d62565b6000918252602090912001546001600160a01b031614156128515747662386f26fc1000081111561284b5760dd60009054906101000a90046001600160a01b03166001600160a01b031663d0e30db0826040518263ffffffff1660e01b81526004016000604051808303818588803b15801561281557600080fd5b505af1158015612829573d6000803e3d6000fd5b505060dd5461284993506001600160a01b03169150869050836000613364565b505b506129e1565b600060d6828154811061286657612866615d62565b6000918252602090912001546040516370a0823160e01b81523060048201526001600160a01b03909116906370a0823190602401602060405180830381865afa1580156128b7573d6000803e3d6000fd5b505050506040513d601f19601f820116820180604052508101906128db91906161df565b9050662386f26fc1000060d683815481106128f8576128f8615d62565b60009182526020918290200154604080517f313ce56700000000000000000000000000000000000000000000000000000000815290516001600160a01b039092169263313ce567926004808401938290030181865afa15801561295f573d6000803e3d6000fd5b505050506040513d601f19601f820116820180604052508101906129839190615dfe565b61298e90601261621a565b61299990600a61623d565b6129a39083615da6565b11156129df576129dd60d683815481106129bf576129bf615d62565b60009182526020822001546001600160a01b03169086908490613364565b505b505b806129eb81615fd6565b9150506126fd565b5060006129fe612457565b90506000612a0c8383615de7565b90508015612c455760d5546040516370a0823160e01b815230600482015260009184916001600160a01b03909116906370a0823190602401602060405180830381865afa158015612a61573d6000803e3d6000fd5b505050506040513d601f19601f82011682018060405250810190612a8591906161df565b612a8f9084615da6565b612a999190615dc5565b9050600061271060da5483612aae9190615da6565b612ab89190615dc5565b9050600061271060db5484612acd9190615da6565b612ad79190615dc5565b60d55460d954919250612af7916001600160a01b03918216911684612db8565b60d554612b0e906001600160a01b03163383612db8565b60408051338152602081018890529081018690527f7595de4054dcab05a338b0855bb2e6155c81172fc76a0cdc037724df4d7e1c4f9060600160405180910390a160d954604080516001600160a01b039092168252602082018490527f4160cbc62d82681031bd44dffd104f752175f93f9b3c78a5a8f0867c667ee918910160405180910390a160408051338152602081018390527f97c227f091684bc53502ee6cf0e3bd656721fdbe9f1b9fddf678b8979efb5a26910160405180910390a160d5546040516370a0823160e01b8152306004820152612c41916001600160a01b0316906370a0823190602401602060405180830381865afa158015612c18573d6000803e3d6000fd5b505050506040513d601f19601f82011682018060405250810190612c3c91906161df565b613001565b5050505b612c4d613c1a565b5050505090565b60d5546040516370a0823160e01b81523060048201526001600160a01b0390911690634a36d6c190839083906370a0823190602401602060405180830381865afa158015612ca6573d6000803e3d6000fd5b505050506040513d601f19601f82011682018060405250810190612cca91906161df565b612cd49190615de7565b6040518263ffffffff1660e01b8152600401612cf291815260200190565b6020604051808303816000875af1158015612d11573d6000803e3d6000fd5b505050506040513d601f19601f82011682018060405250810190612d3591906161df565b61010f5550565b6001600160a01b03821660009081526004602052604081208054839290612d64908490615de7565b90915550506003805482900390556040518181526000906001600160a01b038416907fddf252ad1be2c89b69c2b068fc378daa952ba7f163c4a11628f55a4df523b3ef906020015b60405180910390a35050565b60006040517fa9059cbb000000000000000000000000000000000000000000000000000000008152836004820152826024820152602060006044836000895af13d15601f3d11600160005114161716915050806123c85760405162461bcd60e51b815260206004820152600f60248201527f5452414e534645525f4641494c454400000000000000000000000000000000006044820152606401610b66565b60007f8b73c3c69bb8fe3d512ecc4cf759cc79239f7b179b0ffacaa9a75d522b39400f6000604051612e89919061624c565b6040805191829003822060208301939093528101919091527fc89efdaa54c0f20c7adf612882df0950f5a951637e0307cdcb4c672f298b8bc660608201524660808201523060a082015260c00160405160208183030381529060405280519060200120905090565b8060036000828254612f039190615d8e565b90915550506001600160a01b0382166000818152600460209081526040808320805486019055518481527fddf252ad1be2c89b69c2b068fc378daa952ba7f163c4a11628f55a4df523b3ef9101612dac565b60006040517f23b872dd0000000000000000000000000000000000000000000000000000000081528460048201528360248201528260448201526020600060648360008a5af13d15601f3d1160016000511416171691505080612ffa5760405162461bcd60e51b815260206004820152601460248201527f5452414e534645525f46524f4d5f4641494c45440000000000000000000000006044820152606401610b66565b5050505050565b60d5546040516370a0823160e01b81523060048201526001600160a01b0390911690634a36d6c19082906370a0823190602401602060405180830381865afa158015613051573d6000803e3d6000fd5b505050506040513d601f19601f82011682018060405250810190612cd491906161df565b600954600090610100900460ff1615613114578160ff16600114801561309a5750303b155b61310c5760405162461bcd60e51b815260206004820152602e60248201527f496e697469616c697a61626c653a20636f6e747261637420697320616c72656160448201527f647920696e697469616c697a65640000000000000000000000000000000000006064820152608401610b66565b506000919050565b60095460ff8084169116106131915760405162461bcd60e51b815260206004820152602e60248201527f496e697469616c697a61626c653a20636f6e747261637420697320616c72656160448201527f647920696e697469616c697a65640000000000000000000000000000000000006064820152608401610b66565b506009805460ff191660ff92909216919091179055600190565b919050565b600954610100900460ff1661322d5760405162461bcd60e51b815260206004820152602b60248201527f496e697469616c697a61626c653a20636f6e7472616374206973206e6f74206960448201527f6e697469616c697a696e670000000000000000000000000000000000000000006064820152608401610b66565b611924613cf5565b600954610100900460ff166132b25760405162461bcd60e51b815260206004820152602b60248201527f496e697469616c697a61626c653a20636f6e7472616374206973206e6f74206960448201527f6e697469616c697a696e670000000000000000000000000000000000000000006064820152608401610b66565b611924613d7b565b82516132cd906000906020860190615736565b5081516132e1906001906020850190615736565b506002805460ff191660ff8316179055466006556132fd612e57565b600755505050565b603c80546001600160a01b0383811673ffffffffffffffffffffffffffffffffffffffff19831681179093556040519116919082907f8be0079c531659141344cd1fd0a4f28419497f9722a3daafe3b4186f6b6457e090600090a35050565b6040516370a0823160e01b815230600482015260009081906001600160a01b038616906370a0823190602401602060405180830381865afa1580156133ad573d6000803e3d6000fd5b505050506040513d601f19601f820116820180604052508101906133d191906161df565b6001600160a01b038088166000908152607060209081526040808320938a1683529281528282208054845181840281018401909552808552949550919390849084015b828210156134af5760008481526020908190206040805160e0810182526006860290920180546001600160a01b03908116845260018083015485870152600283015482169385019390935260038201541660608401526004810154600f81810b6080860152700100000000000000000000000000000000909104810b60a0850152600590910154900b60c08301529083529092019101613414565b5050505090506000859050600082511161350b5760405162461bcd60e51b815260206004820152600e60248201527f4e6f20726f75746520666f756e640000000000000000000000000000000000006044820152606401610b66565b60005b8251811015613ac05782818151811061352957613529615d62565b602002602001015160200151600114156135a7576135a083828151811061355257613552615d62565b60200260200101516000015184838151811061357057613570615d62565b60200260200101516040015185848151811061358e5761358e615d62565b6020026020010151606001518a613dff565b9650613aae565b8281815181106135b9576135b9615d62565b602002602001015160200151600214156136af578281815181106135df576135df615d62565b6020026020010151600001516001600160a01b031683828151811061360657613606615d62565b6020026020010151604001516001600160a01b03161415613668576135a083828151811061363657613636615d62565b60200260200101516060015184838151811061365457613654615d62565b602002602001015160000151896001613f79565b6135a083828151811061367d5761367d615d62565b60200260200101516040015184838151811061369b5761369b615d62565b602002602001015160000151896000613f79565b8281815181106136c1576136c1615d62565b60200260200101516020015160031415613792576135a08382815181106136ea576136ea615d62565b60200260200101516040015184838151811061370857613708615d62565b60200260200101516060015185848151811061372657613726615d62565b6020026020010151600001518a87868151811061374557613745615d62565b60200260200101516080015188878151811061376357613763615d62565b602002602001015160a0015189888151811061378157613781615d62565b602002602001015160c001516145b5565b8281815181106137a4576137a4615d62565b602002602001015160200151600414156137f4576135a060016001600160a01b03168483815181106137d8576137d8615d62565b6020026020010151604001516001600160a01b03161488614cee565b82818151811061380657613806615d62565b6020026020010151602001516005141561385f576135a083828151811061382f5761382f615d62565b60200260200101516040015184838151811061384d5761384d615d62565b60200260200101516000015189614de8565b82818151811061387157613871615d62565b60200260200101516020015160061415613990576135a083828151811061389a5761389a615d62565b6020026020010151600001516001600160a01b03168483815181106138c1576138c1615d62565b6020026020010151604001516001600160a01b0316146138fe578382815181106138ed576138ed615d62565b60200260200101516040015161391d565b83828151811061391057613910615d62565b6020026020010151606001515b8885848151811061393057613930615d62565b6020026020010151600001516001600160a01b031686858151811061395757613957615d62565b6020026020010151604001516001600160a01b03161486858151811061397f5761397f615d62565b602002602001015160800151614f5e565b8281815181106139a2576139a2615d62565b602002602001015160200151600714156139fb576135a08382815181106139cb576139cb615d62565b6020026020010151604001518483815181106139e9576139e9615d62565b60200260200101516000015189615165565b828181518110613a0d57613a0d615d62565b60200260200101516020015160081415613a66576135a0838281518110613a3657613a36615d62565b602002602001015160400151848381518110613a5457613a54615d62565b602002602001015160000151896153a0565b60405162461bcd60e51b815260206004820152601160248201527f556e6b6e6f776e206e6f646520747970650000000000000000000000000000006044820152606401610b66565b80613ab881615fd6565b91505061350e565b506040516370a0823160e01b815230600482015260009084906001600160a01b038a16906370a0823190602401602060405180830381865afa158015613b0a573d6000803e3d6000fd5b505050506040513d601f19601f82011682018060405250810190613b2e91906161df565b613b389190615de7565b905085811015613bb05760405162461bcd60e51b815260206004820152603560248201527f446964206e6f74207265636569766520656e6f75676820746f6b656e7320746f60448201527f206163636f756e7420666f7220736c69707061676500000000000000000000006064820152608401610b66565b604080513381526001600160a01b038b811660208301528a1681830152606081018490526080810188905260a0810183905290517fd6d34547c69c5ee3d2667625c188acf1006abb93e0ee7cf03925c67cf77604139181900360c00190a198975050505050505050565b60d5546040516370a0823160e01b81523060048201526001600160a01b0390911690634a36d6c19082906370a0823190602401602060405180830381865afa158015613c6a573d6000803e3d6000fd5b505050506040513d601f19601f82011682018060405250810190613c8e91906161df565b6040518263ffffffff1660e01b8152600401613cac91815260200190565b6020604051808303816000875af1158015613ccb573d6000803e3d6000fd5b505050506040513d601f19601f82011682018060405250810190613cef91906161df565b61010f55565b600954610100900460ff16613d725760405162461bcd60e51b815260206004820152602b60248201527f496e697469616c697a61626c653a20636f6e7472616374206973206e6f74206960448201527f6e697469616c697a696e670000000000000000000000000000000000000000006064820152608401610b66565b61192433613305565b600954610100900460ff16613df85760405162461bcd60e51b815260206004820152602b60248201527f496e697469616c697a61626c653a20636f6e7472616374206973206e6f74206960448201527f6e697469616c697a696e670000000000000000000000000000000000000000006064820152608401610b66565b600160a255565b6000613e0c848684612db8565b600080600080886001600160a01b0316630902f1ac6040518163ffffffff1660e01b8152600401606060405180830381865afa158015613e50573d6000803e3d6000fd5b505050506040513d601f19601f82011682018060405250810190613e749190616306565b506dffffffffffffffffffffffffffff1691506dffffffffffffffffffffffffffff169150866001600160a01b0316886001600160a01b03161015613ec557613ebe868383615463565b9250613ed3565b613ed0868284615463565b93505b604080516000815260208101918290527f022c0d9f000000000000000000000000000000000000000000000000000000009091526001600160a01b038a169063022c0d9f90613f2b908790879030906024810161634b565b600060405180830381600087803b158015613f4557600080fd5b505af1158015613f59573d6000803e3d6000fd5b505050508360001415613f6c57826114cc565b5091979650505050505050565b600080846001600160a01b0316630dfe16816040518163ffffffff1660e01b8152600401602060405180830381865afa158015613fba573d6000803e3d6000fd5b505050506040513d601f19601f82011682018060405250810190613fde9190616383565b90506000856001600160a01b031663d21220a76040518163ffffffff1660e01b8152600401602060405180830381865afa158015614020573d6000803e3d6000fd5b505050506040513d601f19601f820116820180604052508101906140449190616383565b905083156142c557606e546040517fbaa2abde0000000000000000000000000000000000000000000000000000000081526001600160a01b03848116600483015283811660248301526044820188905260006064830181905260848301523060a48301524260c48301529091169063baa2abde9060e40160408051808303816000875af11580156140d9573d6000803e3d6000fd5b505050506040513d601f19601f820116820180604052508101906140fd91906163a0565b5050866001600160a01b0316826001600160a01b03161415614197576040516370a0823160e01b8152306004820152614191908790839085906001600160a01b038316906370a08231906024015b602060405180830381865afa158015614168573d6000803e3d6000fd5b505050506040513d601f19601f8201168201806040525081019061418c91906161df565b613dff565b50614254565b866001600160a01b0316816001600160a01b031614156141e7576040516370a0823160e01b8152306004820152614191908790849084906001600160a01b038316906370a082319060240161414b565b60405162461bcd60e51b8152602060048201526024808201527f746f6b656e4f7574206973206e6f74206120746f6b656e205f696e207468652060448201527f70616972000000000000000000000000000000000000000000000000000000006064820152608401610b66565b6040516370a0823160e01b81523060048201526001600160a01b038816906370a0823190602401602060405180830381865afa158015614298573d6000803e3d6000fd5b505050506040513d601f19601f820116820180604052508101906142bc91906161df565b925050506114a8565b6000806000886001600160a01b0316630902f1ac6040518163ffffffff1660e01b8152600401606060405180830381865afa158015614308573d6000803e3d6000fd5b505050506040513d601f19601f8201168201806040525081019061432c9190616306565b925092509250896001600160a01b0316856001600160a01b031614156145075761436c898b8661418c876dffffffffffffffffffffffffffff168d61559f565b50606e546040516370a0823160e01b81523060048201526001600160a01b039182169163e8e337009188918891908316906370a0823190602401602060405180830381865afa1580156143c3573d6000803e3d6000fd5b505050506040513d601f19601f820116820180604052508101906143e791906161df565b6040516370a0823160e01b81523060048201526001600160a01b038a16906370a0823190602401602060405180830381865afa15801561442b573d6000803e3d6000fd5b505050506040513d601f19601f8201168201806040525081019061444f91906161df565b6040517fffffffff0000000000000000000000000000000000000000000000000000000060e087901b1681526001600160a01b0394851660048201529390921660248401526044830152606482015260006084820181905260a48201523060c48201524260e4820152610104016060604051808303816000875af11580156144db573d6000803e3d6000fd5b505050506040513d601f19601f820116820180604052508101906144ff91906163c4565b505050614541565b896001600160a01b0316846001600160a01b031614156141e75761436c898b8761418c866dffffffffffffffffffffffffffff168d61559f565b6040516370a0823160e01b81523060048201526001600160a01b038a16906370a0823190602401602060405180830381865afa158015614585573d6000803e3d6000fd5b505050506040513d601f19601f820116820180604052508101906145a991906161df565b955050505050506114a8565b60008084600f0b12156149ce5781600f0b60001914156148c5576145d8846163f2565b9350600084600f0b67ffffffffffffffff8111156145f8576145f8615963565b604051908082528060200260200182016040528015614621578160200160208202803683370190505b509050858185600f0b8151811061463a5761463a615d62565b60200260200101818152505084600f0b6002141561471357866001600160a01b0316630b4c7e4d60405180604001604052808460008151811061467f5761467f615d62565b602002602001015181526020018460018151811061469f5761469f615d62565b602002602001015181525060006040518363ffffffff1660e01b81526004016146c9929190616454565b6020604051808303816000875af11580156146e8573d6000803e3d6000fd5b505050506040513d601f19601f8201168201806040525081019061470c91906161df565b91506148bf565b84600f0b600314156147b657866001600160a01b0316634515cef360405180606001604052808460008151811061474c5761474c615d62565b602002602001015181526020018460018151811061476c5761476c615d62565b602002602001015181526020018460028151811061478c5761478c615d62565b602002602001015181525060006040518363ffffffff1660e01b81526004016146c9929190616492565b84600f0b600414156148bf57866001600160a01b031663029b2f346040518060800160405280846000815181106147ef576147ef615d62565b602002602001015181526020018460018151811061480f5761480f615d62565b602002602001015181526020018460028151811061482f5761482f615d62565b602002602001015181526020018460038151811061484f5761484f615d62565b602002602001015181525060006040518363ffffffff1660e01b81526004016148799291906164d0565b6020604051808303816000875af1158015614898573d6000803e3d6000fd5b505050506040513d601f19601f820116820180604052508101906148bc91906161df565b91505b50611584565b82600f0b600019141561496f576040517f1a4d01d200000000000000000000000000000000000000000000000000000000815260048101869052600f83900b6024820152600060448201526001600160a01b03871690631a4d01d2906064015b6020604051808303816000875af1158015614944573d6000803e3d6000fd5b505050506040513d601f19601f8201168201806040525081019061496891906161df565b9050611584565b6040517f3df02124000000000000000000000000000000000000000000000000000000008152600f84810b600483015283900b602482015260448101869052600060648201526001600160a01b03871690633df0212490608401614925565b600084600f0b13156115845781600f0b6000191415614c4557600084600f0b67ffffffffffffffff811115614a0557614a05615963565b604051908082528060200260200182016040528015614a2e578160200160208202803683370190505b509050858185600f0b81518110614a4757614a47615d62565b60200260200101818152505084600f0b60021415614ad957866001600160a01b031663ee22be23604051806040016040528084600081518110614a8c57614a8c615d62565b6020026020010151815260200184600181518110614aac57614aac615d62565b6020026020010151815250600060016040518463ffffffff1660e01b81526004016146c9939291906164eb565b84600f0b60031415614b7f57866001600160a01b0316632b6e993a604051806060016040528084600081518110614b1257614b12615d62565b6020026020010151815260200184600181518110614b3257614b32615d62565b6020026020010151815260200184600281518110614b5257614b52615d62565b6020026020010151815250600060016040518463ffffffff1660e01b81526004016146c99392919061650f565b84600f0b600414156148bf57866001600160a01b031663dc3a2d81604051806080016040528084600081518110614bb857614bb8615d62565b6020026020010151815260200184600181518110614bd857614bd8615d62565b6020026020010151815260200184600281518110614bf857614bf8615d62565b6020026020010151815260200184600381518110614c1857614c18615d62565b6020026020010151815250600060016040518463ffffffff1660e01b815260040161487993929190616533565b6040517fa6417ed6000000000000000000000000000000000000000000000000000000008152600f84810b600483015283900b602482015260448101869052600060648201526001600160a01b0387169063a6417ed6906084016020604051808303816000875af1158015614cbe573d6000803e3d6000fd5b505050506040513d601f19601f82011682018060405250810190614ce291906161df565b98975050505050505050565b60008215614d635773b31f66aa3c1e785363f0875a1b74e27b85fd66c76001600160a01b031663d0e30db0836040518263ffffffff1660e01b81526004016000604051808303818588803b158015614d4557600080fd5b505af1158015614d59573d6000803e3d6000fd5b5050505050614de2565b6040517f2e1a7d4d0000000000000000000000000000000000000000000000000000000081526004810183905273b31f66aa3c1e785363f0875a1b74e27b85fd66c790632e1a7d4d90602401600060405180830381600087803b158015614dc957600080fd5b505af1158015614ddd573d6000803e3d6000fd5b505050505b50919050565b6000826001600160a01b0316846001600160a01b03161415614e99576040517fdb006a75000000000000000000000000000000000000000000000000000000008152600481018390526001600160a01b0384169063db006a75906024016020604051808303816000875af1158015614e64573d6000803e3d6000fd5b505050506040513d601f19601f82011682018060405250810190614e8891906161df565b15614e9257600080fd5b5047610fc7565b826001600160a01b0316631249c58b836040518263ffffffff1660e01b81526004016000604051808303818588803b158015614ed457600080fd5b505af1158015614ee8573d6000803e3d6000fd5b50506040516370a0823160e01b81523060048201526001600160a01b03871693506370a08231925060240190505b602060405180830381865afa158015614f33573d6000803e3d6000fd5b505050506040513d601f19601f82011682018060405250810190614f5791906161df565b9050610fc7565b600081600f0b600314156150a8578215615013576071546040517f69328dec0000000000000000000000000000000000000000000000000000000081526001600160a01b03878116600483015260248201879052306044830152909116906369328dec906064015b6020604051808303816000875af1158015614fe5573d6000803e3d6000fd5b505050506040513d601f19601f8201168201806040525081019061500991906161df565b93508390506114a8565b6071546040517f617ba0370000000000000000000000000000000000000000000000000000000081526001600160a01b03878116600483015260248201879052306044830152600060648301529091169063617ba037906084015b600060405180830381600087803b15801561508857600080fd5b505af115801561509c573d6000803e3d6000fd5b505050508390506114a8565b821561510657606f546040517f69328dec0000000000000000000000000000000000000000000000000000000081526001600160a01b03878116600483015260248201879052306044830152909116906369328dec90606401614fc6565b606f546040517fe8eda9df0000000000000000000000000000000000000000000000000000000081526001600160a01b03878116600483015260248201879052306044830152600060648301529091169063e8eda9df9060840161506e565b6000826001600160a01b0316846001600160a01b031614156152e6576040517fdb006a75000000000000000000000000000000000000000000000000000000008152600481018390526001600160a01b0384169063db006a75906024016020604051808303816000875af11580156151e1573d6000803e3d6000fd5b505050506040513d601f19601f8201168201806040525081019061520591906161df565b1561520f57600080fd5b6000836001600160a01b0316636f307dc36040518163ffffffff1660e01b8152600401602060405180830381865afa15801561524f573d6000803e3d6000fd5b505050506040513d601f19601f820116820180604052508101906152739190616383565b6040516370a0823160e01b81523060048201529091506001600160a01b038216906370a0823190602401602060405180830381865afa1580156152ba573d6000803e3d6000fd5b505050506040513d601f19601f820116820180604052508101906152de91906161df565b915050610fc7565b6040517fa0712d68000000000000000000000000000000000000000000000000000000008152600481018390526001600160a01b0384169063a0712d68906024016020604051808303816000875af1158015615346573d6000803e3d6000fd5b505050506040513d601f19601f8201168201806040525081019061536a91906161df565b1561537457600080fd5b6040516370a0823160e01b81523060048201526001600160a01b038416906370a0823190602401614f16565b6000826001600160a01b0316846001600160a01b0316141561541d576040517fdb006a75000000000000000000000000000000000000000000000000000000008152600481018390526001600160a01b0384169063db006a75906024015b6020604051808303816000875af1158015614f33573d6000803e3d6000fd5b6040517fb6b55f25000000000000000000000000000000000000000000000000000000008152600481018390526001600160a01b0384169063b6b55f25906024016153fe565b60008084116154da5760405162461bcd60e51b815260206004820152602b60248201527f556e697377617056324c6962726172793a20494e53554646494349454e545f4960448201527f4e5055545f414d4f554e540000000000000000000000000000000000000000006064820152608401610b66565b6000831180156154ea5750600082115b61555c5760405162461bcd60e51b815260206004820152602860248201527f556e697377617056324c6962726172793a20494e53554646494349454e545f4c60448201527f49515549444954590000000000000000000000000000000000000000000000006064820152608401610b66565b600061556a6103e586615da6565b905060006155788483615da6565b90506000826155896103e888615da6565b6155939190615d8e565b90506115848183615dc5565b600080620f2ad96155b385620f3c64615da6565b6155bd9190615dc5565b905060006155cb8580615da6565b6155d890623cda29615da6565b856155e686623cab64615da6565b6155f09190615da6565b6155fa9190615d8e565b905081620f2ad961560a83615633565b615616906101f4615da6565b6156209190615dc5565b61562a9190615de7565b95945050505050565b60018170010000000000000000000000000000000081106156595760409190911b9060801c5b6801000000000000000081106156745760209190911b9060401c5b640100000000811061568b5760109190911b9060201c5b6201000081106156a05760089190911b9060101c5b61010081106156b45760049190911b9060081c5b601081106156c75760029190911b9060041c5b600881106156d6578160011b91505b5080820401600190811c80830401811c80830401811c80830401811c80830401811c80830401811c80830401901c80820481811015614de25792915050565b508054600082556006029060005260206000209081019061260c91906157ba565b82805461574290615d2d565b90600052602060002090601f01602090048101928261576457600085556157aa565b82601f1061577d57805160ff19168380011785556157aa565b828001600101855582156157aa579182015b828111156157aa57825182559160200191906001019061578f565b506157b6929150615836565b5090565b5b808211156157b657805473ffffffffffffffffffffffffffffffffffffffff1990811682556000600183018190556002830180548316905560038301805490921690915560048201556005810180547fffffffffffffffffffffffffffffffff000000000000000000000000000000001690556006016157bb565b5b808211156157b65760008155600101615837565b6001600160a01b038116811461260c57600080fd5b60006020828403121561587257600080fd5b8135610fc78161584b565b6000815180845260005b818110156158a357602081850181015186830182015201615887565b818111156158b5576000602083870101525b50601f01601f19169290920160200192915050565b602081526000610fc7602083018461587d565b600080604083850312156158f057600080fd5b82356158fb8161584b565b946020939093013593505050565b60006020828403121561591b57600080fd5b5035919050565b60008060006060848603121561593757600080fd5b83356159428161584b565b925060208401356159528161584b565b929592945050506040919091013590565b634e487b7160e01b600052604160045260246000fd5b600082601f83011261598a57600080fd5b813567ffffffffffffffff808211156159a5576159a5615963565b604051601f8301601f19908116603f011681019082821181831017156159cd576159cd615963565b816040528381528660208588010111156159e657600080fd5b836020870160208301376000602085830101528094505050505092915050565b600080600080600080600060e0888a031215615a2157600080fd5b8735615a2c8161584b565b9650602088013567ffffffffffffffff80821115615a4957600080fd5b615a558b838c01615979565b975060408a0135915080821115615a6b57600080fd5b50615a788a828b01615979565b955050606088013593506080880135925060a0880135915060c0880135615a9e8161584b565b8091505092959891949750929550565b600080600060608486031215615ac357600080fd5b833592506020840135615ad58161584b565b91506040840135615ae58161584b565b809150509250925092565b60ff8116811461260c57600080fd5b600080600080600080600080610100898b031215615b1c57600080fd5b883597506020890135615b2e8161584b565b96506040890135615b3e8161584b565b9550606089013594506080890135935060a0890135615b5c81615af0565b979a969950949793969295929450505060c08201359160e0013590565b60008060008060008060c08789031215615b9257600080fd5b8635955060208701359450604087013593506060870135615bb281615af0565b9598949750929560808101359460a0909101359350915050565b60008060408385031215615bdf57600080fd5b50508035926020909101359150565b60008060008060608587031215615c0457600080fd5b8435615c0f8161584b565b93506020850135615c1f8161584b565b9250604085013567ffffffffffffffff80821115615c3c57600080fd5b818701915087601f830112615c5057600080fd5b813581811115615c5f57600080fd5b88602060e083028501011115615c7457600080fd5b95989497505060200194505050565b60008060408385031215615c9657600080fd5b8235615ca18161584b565b91506020830135615cb18161584b565b809150509250929050565b600080600080600080600060e0888a031215615cd757600080fd5b8735615ce28161584b565b96506020880135615cf28161584b565b955060408801359450606088013593506080880135615d1081615af0565b9699959850939692959460a0840135945060c09093013592915050565b600181811c90821680615d4157607f821691505b60208210811415614de257634e487b7160e01b600052602260045260246000fd5b634e487b7160e01b600052603260045260246000fd5b634e487b7160e01b600052601160045260246000fd5b60008219821115615da157615da1615d78565b500190565b6000816000190483118215151615615dc057615dc0615d78565b500290565b600082615de257634e487b7160e01b600052601260045260246000fd5b500490565b600082821015615df957615df9615d78565b500390565b600060208284031215615e1057600080fd5b8151610fc781615af0565b80600f0b811461260c57600080fd5b60008135610c9381615e1b565b8135615e428161584b565b815473ffffffffffffffffffffffffffffffffffffffff19166001600160a01b03821617825550602082013560018201556040820135615e818161584b565b60028201805473ffffffffffffffffffffffffffffffffffffffff19166001600160a01b038316179055506060820135615eba8161584b565b60038201805473ffffffffffffffffffffffffffffffffffffffff19166001600160a01b03831617905550600481016080830135615ef781615e1b565b81547fffffffffffffffffffffffffffffffff00000000000000000000000000000000166fffffffffffffffffffffffffffffffff82161782555060a0830135615f4081615e1b565b81546fffffffffffffffffffffffffffffffff1660809190911b7fffffffffffffffffffffffffffffffff0000000000000000000000000000000016179055615fd2615f8e60c08401615e2a565b600583017fffffffffffffffffffffffffffffffff00000000000000000000000000000000815416826fffffffffffffffffffffffffffffffff1681178255505050565b5050565b6000600019821415615fea57615fea615d78565b5060010190565b80356131ab81615e1b565b600060608083016001600160a01b03808916855260208189168187015260408481880152838885526080945084880190508960005b8a8110156160dd5781356160448161584b565b8616835281850135858401528382013561605d8161584b565b861683850152818801356160708161584b565b861683890152616081828801615ff1565b61608f88850182600f0b9052565b5060a061609d818401615ff1565b6160ab82860182600f0b9052565b505060c06160ba818401615ff1565b6160c882860182600f0b9052565b505060e0928301929190910190600101616031565b50909c9b505050505050505050505050565b600181815b8085111561612a57816000190482111561611057616110615d78565b8085161561611d57918102915b93841c93908002906160f4565b509250929050565b60008261614157506001610c93565b8161614e57506000610c93565b8160018114616164576002811461616e5761618a565b6001915050610c93565b60ff84111561617f5761617f615d78565b50506001821b610c93565b5060208310610133831016604e8410600b84101617156161ad575081810a610c93565b6161b783836160ef565b80600019048211156161cb576161cb615d78565b029392505050565b6000610fc78383616132565b6000602082840312156161f157600080fd5b5051919050565b60006020828403121561620a57600080fd5b81518015158114610fc757600080fd5b600060ff821660ff84168082101561623457616234615d78565b90039392505050565b6000610fc760ff841683616132565b600080835481600182811c91508083168061626857607f831692505b602080841082141561628857634e487b7160e01b86526022600452602486fd5b81801561629c57600181146162ad576162da565b60ff198616895284890196506162da565b60008a81526020902060005b868110156162d25781548b8201529085019083016162b9565b505084890196505b509498975050505050505050565b80516dffffffffffffffffffffffffffff811681146131ab57600080fd5b60008060006060848603121561631b57600080fd5b616324846162e8565b9250616332602085016162e8565b9150604084015163ffffffff81168114615ae557600080fd5b8481528360208201526001600160a01b0383166040820152608060608201526000616379608083018461587d565b9695505050505050565b60006020828403121561639557600080fd5b8151610fc78161584b565b600080604083850312156163b357600080fd5b505080516020909101519092909150565b6000806000606084860312156163d957600080fd5b8351925060208401519150604084015190509250925092565b600081600f0b7fffffffffffffffffffffffffffffffff8000000000000000000000000000000081141561642857616428615d78565b60000392915050565b8060005b60028110156123c8578151845260209384019390910190600101616435565b606081016164628285616431565b8260408301529392505050565b8060005b60038110156123c8578151845260209384019390910190600101616473565b608081016164a0828561646f565b8260608301529392505050565b8060005b60048110156123c85781518452602093840193909101906001016164b1565b60a081016164de82856164ad565b8260808301529392505050565b608081016164f98286616431565b8360408301528215156060830152949350505050565b60a0810161651d828661646f565b8360608301528215156080830152949350505050565b60c0810161654182866164ad565b83608083015282151560a083015294935050505056fea26469706673582212202839eabb82f31ae2e9a987d3c74d207e95b473e004b7e1e2baaf168666969a7564736f6c634300080a0033",
    "linkReferences": {}
  }
}