{
  "abi": [
    {
      "inputs": [
        {
          "internalType": "uint256",
          "name": "a",
          "type": "uint256"
        },
        {
          "internalType": "uint256",
          "name": "b",
          "type": "uint256"
        },
        {
          "internalType": "uint256",
          "name": "diff",
          "type": "uint256"
        }
      ],
      "name": "assertSmallDiff",
      "outputs": [
        {
          "internalType": "bool",
          "name": "",
          "type": "bool"
        }
      ],
      "stateMutability": "pure",
      "type": "function"
    },
    {
      "inputs": [
        {
          "internalType": "uint256",
          "name": "a",
          "type": "uint256"
        },
        {
          "internalType": "uint256",
          "name": "b",
          "type": "uint256"
        }
      ],
      "name": "assertSmallDiff",
      "outputs": [
        {
          "internalType": "bool",
          "name": "",
          "type": "bool"
        }
      ],
      "stateMutability": "pure",
      "type": "function"
    }
  ],
  "bytecode": {
    "object": "0x61026661003a600b82828239805160001a60731461002d57634e487b7160e01b600052600060045260246000fd5b30600052607381538281f3fe73000000000000000000000000000000000000000030146080604052600436106100405760003560e01c806339348b0414610045578063b231070f1461006c575b600080fd5b610058610053366004610123565b61007f565b604051901515815260200160405180910390f35b61005861007a36600461014f565b610113565b6000828410156100cb5761009b82670de0b6b3a76400006101a0565b836100ae86670de0b6b3a76400006101b8565b6100b891906101f5565b11156100c65750600061010c565b610108565b6100dd82670de0b6b3a76400006101a0565b846100f085670de0b6b3a76400006101b8565b6100fa91906101f5565b11156101085750600061010c565b5060015b9392505050565b600061010c8383620186a061007f565b60008060006060848603121561013857600080fd5b505081359360208301359350604090920135919050565b6000806040838503121561016257600080fd5b50508035926020909101359150565b7f4e487b7100000000000000000000000000000000000000000000000000000000600052601160045260246000fd5b600082198211156101b3576101b3610171565b500190565b6000817fffffffffffffffffffffffffffffffffffffffffffffffffffffffffffffffff04831182151516156101f0576101f0610171565b500290565b60008261022b577f4e487b7100000000000000000000000000000000000000000000000000000000600052601260045260246000fd5b50049056fea2646970667358221220c8ca68906e8734e7b4a3a3550214bcf7c9911f44e6711bbd629651862773aea964736f6c634300080a0033",
    "linkReferences": {}
  }
}